{
  "_format": "hh-sol-artifact-1",
  "contractName": "TaxReturnRegistry",
  "sourceName": "contracts/TaxReturnRegistry.sol",
  "abi": [
    {
      "inputs": [],
      "stateMutability": "nonpayable",
      "type": "constructor"
    },
    {
      "anonymous": false,
      "inputs": [
        {
          "indexed": true,
          "internalType": "address",
          "name": "officer",
          "type": "address"
        }
      ],
      "name": "NbrOfficerDeactivated",
      "type": "event"
    },
    {
      "anonymous": false,
      "inputs": [
        {
          "indexed": true,
          "internalType": "address",
          "name": "officer",
          "type": "address"
        },
        {
          "indexed": false,
          "internalType": "string",
          "name": "officerId",
          "type": "string"
        }
      ],
      "name": "NbrOfficerRegistered",
      "type": "event"
    },
    {
      "anonymous": false,
      "inputs": [
        {
          "indexed": true,
          "internalType": "bytes32",
          "name": "returnKey",
          "type": "bytes32"
        },
        {
          "indexed": false,
          "internalType": "string",
          "name": "tiin",
          "type": "string"
        },
        {
          "indexed": false,
          "internalType": "string",
          "name": "fiscalYear",
          "type": "string"
        },
        {
          "indexed": false,
          "internalType": "string",
          "name": "ipfsHash",
          "type": "string"
        }
      ],
      "name": "TaxReturnSubmitted",
      "type": "event"
    },
    {
      "anonymous": false,
      "inputs": [
        {
          "indexed": true,
          "internalType": "bytes32",
          "name": "returnKey",
          "type": "bytes32"
        },
        {
          "indexed": false,
          "internalType": "address",
          "name": "validator",
          "type": "address"
        },
        {
          "indexed": false,
          "internalType": "bool",
          "name": "approved",
          "type": "bool"
        }
      ],
      "name": "TaxReturnValidated",
      "type": "event"
    },
    {
      "inputs": [
        {
          "internalType": "uint256",
          "name": "",
          "type": "uint256"
        }
      ],
      "name": "allOfficers",
      "outputs": [
        {
          "internalType": "address",
          "name": "",
          "type": "address"
        }
      ],
      "stateMutability": "view",
      "type": "function"
    },
    {
      "inputs": [
        {
          "internalType": "uint256",
          "name": "",
          "type": "uint256"
        }
      ],
      "name": "allTaxReturnKeys",
      "outputs": [
        {
          "internalType": "bytes32",
          "name": "",
          "type": "bytes32"
        }
      ],
      "stateMutability": "view",
      "type": "function"
    },
    {
      "inputs": [
        {
          "internalType": "address",
          "name": "_officerAddress",
          "type": "address"
        }
      ],
      "name": "deactivateNbrOfficer",
      "outputs": [],
      "stateMutability": "nonpayable",
      "type": "function"
    },
    {
      "inputs": [],
      "name": "getPendingTaxReturns",
      "outputs": [
        {
          "internalType": "bytes32[]",
          "name": "",
          "type": "bytes32[]"
        }
      ],
      "stateMutability": "view",
      "type": "function"
    },
    {
      "inputs": [
        {
          "internalType": "bytes32",
          "name": "_returnKey",
          "type": "bytes32"
        }
      ],
      "name": "getTaxReturn",
      "outputs": [
        {
          "internalType": "string",
          "name": "tiin",
          "type": "string"
        },
        {
          "internalType": "string",
          "name": "fiscalYear",
          "type": "string"
        },
        {
          "internalType": "string",
          "name": "ipfsHash",
          "type": "string"
        },
        {
          "internalType": "uint256",
          "name": "totalIncome",
          "type": "uint256"
        },
        {
          "internalType": "uint256",
          "name": "totalCost",
          "type": "uint256"
        },
        {
          "internalType": "address",
          "name": "validator",
          "type": "address"
        },
        {
          "internalType": "uint256",
          "name": "timestamp",
          "type": "uint256"
        },
        {
          "internalType": "uint256",
          "name": "validatedTimestamp",
          "type": "uint256"
        },
        {
          "internalType": "bool",
          "name": "isValidated",
          "type": "bool"
        },
        {
          "internalType": "bool",
          "name": "isApproved",
          "type": "bool"
        },
        {
          "internalType": "string",
          "name": "comments",
          "type": "string"
        }
      ],
      "stateMutability": "view",
      "type": "function"
    },
    {
      "inputs": [
        {
          "internalType": "string",
          "name": "_tiin",
          "type": "string"
        },
        {
          "internalType": "string",
          "name": "_fiscalYear",
          "type": "string"
        }
      ],
      "name": "getTaxReturnKey",
      "outputs": [
        {
          "internalType": "bytes32",
          "name": "",
          "type": "bytes32"
        }
      ],
      "stateMutability": "pure",
      "type": "function"
    },
    {
      "inputs": [],
      "name": "getTotalNbrOfficers",
      "outputs": [
        {
          "internalType": "uint256",
          "name": "",
          "type": "uint256"
        }
      ],
      "stateMutability": "view",
      "type": "function"
    },
    {
      "inputs": [],
      "name": "getTotalTaxReturns",
      "outputs": [
        {
          "internalType": "uint256",
          "name": "",
          "type": "uint256"
        }
      ],
      "stateMutability": "view",
      "type": "function"
    },
    {
      "inputs": [
        {
          "internalType": "address",
          "name": "",
          "type": "address"
        }
      ],
      "name": "isNbrOfficer",
      "outputs": [
        {
          "internalType": "bool",
          "name": "",
          "type": "bool"
        }
      ],
      "stateMutability": "view",
      "type": "function"
    },
    {
      "inputs": [
        {
          "internalType": "address",
          "name": "",
          "type": "address"
        }
      ],
      "name": "nbrOfficers",
      "outputs": [
        {
          "internalType": "address",
          "name": "officerAddress",
          "type": "address"
        },
        {
          "internalType": "string",
          "name": "officerId",
          "type": "string"
        },
        {
          "internalType": "string",
          "name": "fullName",
          "type": "string"
        },
        {
          "internalType": "bool",
          "name": "isActive",
          "type": "bool"
        }
      ],
      "stateMutability": "view",
      "type": "function"
    },
    {
      "inputs": [
        {
          "internalType": "address",
          "name": "_officerAddress",
          "type": "address"
        },
        {
          "internalType": "string",
          "name": "_officerId",
          "type": "string"
        },
        {
          "internalType": "string",
          "name": "_fullName",
          "type": "string"
        }
      ],
      "name": "registerNbrOfficer",
      "outputs": [],
      "stateMutability": "nonpayable",
      "type": "function"
    },
    {
      "inputs": [
        {
          "internalType": "string",
          "name": "_tiin",
          "type": "string"
        },
        {
          "internalType": "string",
          "name": "_fiscalYear",
          "type": "string"
        },
        {
          "internalType": "string",
          "name": "_ipfsHash",
          "type": "string"
        },
        {
          "internalType": "uint256",
          "name": "_totalIncome",
          "type": "uint256"
        },
        {
          "internalType": "uint256",
          "name": "_totalCost",
          "type": "uint256"
        }
      ],
      "name": "submitTaxReturn",
      "outputs": [
        {
          "internalType": "bytes32",
          "name": "",
          "type": "bytes32"
        }
      ],
      "stateMutability": "nonpayable",
      "type": "function"
    },
    {
      "inputs": [
        {
          "internalType": "bytes32",
          "name": "",
          "type": "bytes32"
        }
      ],
      "name": "taxReturns",
      "outputs": [
        {
          "internalType": "string",
          "name": "tiin",
          "type": "string"
        },
        {
          "internalType": "string",
          "name": "fiscalYear",
          "type": "string"
        },
        {
          "internalType": "string",
          "name": "ipfsHash",
          "type": "string"
        },
        {
          "internalType": "uint256",
          "name": "totalIncome",
          "type": "uint256"
        },
        {
          "internalType": "uint256",
          "name": "totalCost",
          "type": "uint256"
        },
        {
          "internalType": "address",
          "name": "validator",
          "type": "address"
        },
        {
          "internalType": "uint256",
          "name": "timestamp",
          "type": "uint256"
        },
        {
          "internalType": "uint256",
          "name": "validatedTimestamp",
          "type": "uint256"
        },
        {
          "internalType": "bool",
          "name": "isValidated",
          "type": "bool"
        },
        {
          "internalType": "bool",
          "name": "isApproved",
          "type": "bool"
        },
        {
          "internalType": "string",
          "name": "comments",
          "type": "string"
        }
      ],
      "stateMutability": "view",
      "type": "function"
    },
    {
      "inputs": [
        {
          "internalType": "bytes32",
          "name": "_returnKey",
          "type": "bytes32"
        },
        {
          "internalType": "bool",
          "name": "_approved",
          "type": "bool"
        },
        {
          "internalType": "string",
          "name": "_comments",
          "type": "string"
        }
      ],
      "name": "validateTaxReturn",
      "outputs": [],
      "stateMutability": "nonpayable",
      "type": "function"
    }
  ],
  "bytecode": "0x608060405234801561001057600080fd5b506129c6806100206000396000f3fe608060405234801561001057600080fd5b50600436106100ea5760003560e01c8063859f48d11161008c578063d8bfc1bf11610066578063d8bfc1bf146102a4578063e5b31db6146102c0578063e933ab94146102de578063f394190a146102fa576100ea565b8063859f48d11461021457806399d3512314610244578063a8fdb6d914610274576100ea565b80633e0a38b2116100c85780633e0a38b2146101785780635cc4881f146101a857806364b41c0d146101d85780636f5a5e1b146101f6576100ea565b80630e78456b146100ef5780631909f2851461010b57806338ef226314610145575b600080fd5b610109600480360381019061010491906119a8565b610334565b005b61012560048036038101906101209190611a17565b610635565b60405161013c9b9a99989796959493929190611b2c565b60405180910390f35b61015f600480360381019061015a9190611c1f565b6109c5565b60405161016f9493929190611c4c565b60405180910390f35b610192600480360381019061018d9190611ccb565b610b32565b60405161019f9190611d07565b60405180910390f35b6101c260048036038101906101bd9190611c1f565b610b56565b6040516101cf9190611d22565b60405180910390f35b6101e0610b76565b6040516101ed9190611d3d565b60405180910390f35b6101fe610b83565b60405161020b9190611e16565b60405180910390f35b61022e60048036038101906102299190611e38565b610d0b565b60405161023b9190611d07565b60405180910390f35b61025e60048036038101906102599190611ccb565b610d3e565b60405161026b9190611eb0565b60405180910390f35b61028e60048036038101906102899190611ecb565b610d7d565b60405161029b9190611d07565b60405180910390f35b6102be60048036038101906102b99190611c1f565b6110d9565b005b6102c8611206565b6040516102d59190611d3d565b60405180910390f35b6102f860048036038101906102f39190611f9a565b611213565b005b610314600480360381019061030f9190611a17565b61152c565b60405161032b9b9a99989796959493929190611b2c565b60405180910390f35b600260003373ffffffffffffffffffffffffffffffffffffffff1673ffffffffffffffffffffffffffffffffffffffff16815260200190815260200160002060009054906101000a900460ff166103c0576040517f08c379a00000000000000000000000000000000000000000000000000000000081526004016103b790612097565b60405180910390fd5b600160003373ffffffffffffffffffffffffffffffffffffffff1673ffffffffffffffffffffffffffffffffffffffff16815260200190815260200160002060030160009054906101000a900460ff1661044f576040517f08c379a000000000000000000000000000000000000000000000000000000000815260040161044690612103565b60405180910390fd5b600080600085815260200190815260200160002060060154036104a7576040517f08c379a000000000000000000000000000000000000000000000000000000000815260040161049e9061216f565b60405180910390fd5b60008084815260200190815260200160002060080160009054906101000a900460ff161561050a576040517f08c379a0000000000000000000000000000000000000000000000000000000008152600401610501906121db565b60405180910390fd5b3360008085815260200190815260200160002060050160006101000a81548173ffffffffffffffffffffffffffffffffffffffff021916908373ffffffffffffffffffffffffffffffffffffffff1602179055504260008085815260200190815260200160002060070181905550600160008085815260200190815260200160002060080160006101000a81548160ff0219169083151502179055508160008085815260200190815260200160002060080160016101000a81548160ff0219169083151502179055508060008085815260200190815260200160002060090190816105f59190612407565b50827f247c3744bfd251d2f7b1fc61f63ce2f03516eb9442a74cdb2c321b8d36202efe33846040516106289291906124d9565b60405180910390a2505050565b60608060606000806000806000806000606060008060008e8152602001908152602001600020604051806101600160405290816000820180546106779061222a565b80601f01602080910402602001604051908101604052809291908181526020018280546106a39061222a565b80156106f05780601f106106c5576101008083540402835291602001916106f0565b820191906000526020600020905b8154815290600101906020018083116106d357829003601f168201915b505050505081526020016001820180546107099061222a565b80601f01602080910402602001604051908101604052809291908181526020018280546107359061222a565b80156107825780601f1061075757610100808354040283529160200191610782565b820191906000526020600020905b81548152906001019060200180831161076557829003601f168201915b5050505050815260200160028201805461079b9061222a565b80601f01602080910402602001604051908101604052809291908181526020018280546107c79061222a565b80156108145780601f106107e957610100808354040283529160200191610814565b820191906000526020600020905b8154815290600101906020018083116107f757829003601f168201915b5050505050815260200160038201548152602001600482015481526020016005820160009054906101000a900473ffffffffffffffffffffffffffffffffffffffff1673ffffffffffffffffffffffffffffffffffffffff1673ffffffffffffffffffffffffffffffffffffffff16815260200160068201548152602001600782015481526020016008820160009054906101000a900460ff161515151581526020016008820160019054906101000a900460ff161515151581526020016009820180546108e19061222a565b80601f016020809104026020016040519081016040528092919081815260200182805461090d9061222a565b801561095a5780601f1061092f5761010080835404028352916020019161095a565b820191906000526020600020905b81548152906001019060200180831161093d57829003601f168201915b5050505050815250509050806000015181602001518260400151836060015184608001518560a001518660c001518760e001518861010001518961012001518a61014001519b509b509b509b509b509b509b509b509b509b509b505091939597999b90929496989a50565b60016020528060005260406000206000915090508060000160009054906101000a900473ffffffffffffffffffffffffffffffffffffffff1690806001018054610a0e9061222a565b80601f0160208091040260200160405190810160405280929190818152602001828054610a3a9061222a565b8015610a875780601f10610a5c57610100808354040283529160200191610a87565b820191906000526020600020905b815481529060010190602001808311610a6a57829003601f168201915b505050505090806002018054610a9c9061222a565b80601f0160208091040260200160405190810160405280929190818152602001828054610ac89061222a565b8015610b155780601f10610aea57610100808354040283529160200191610b15565b820191906000526020600020905b815481529060010190602001808311610af857829003601f168201915b5050505050908060030160009054906101000a900460ff16905084565b60038181548110610b4257600080fd5b906000526020600020016000915090505481565b60026020528060005260406000206000915054906101000a900460ff1681565b6000600480549050905090565b60606000805b600380549050811015610bfd5760008060038381548110610bad57610bac612502565b5b9060005260206000200154815260200190815260200160002060080160009054906101000a900460ff16610bea578180610be690612560565b9250505b8080610bf590612560565b915050610b89565b5060008167ffffffffffffffff811115610c1a57610c1961187d565b5b604051908082528060200260200182016040528015610c485781602001602082028036833780820191505090505b5090506000805b600380549050811015610d015760008060038381548110610c7357610c72612502565b5b9060005260206000200154815260200190815260200160002060080160009054906101000a900460ff16610cee5760038181548110610cb557610cb4612502565b5b9060005260206000200154838381518110610cd357610cd2612502565b5b6020026020010181815250508180610cea90612560565b9250505b8080610cf990612560565b915050610c4f565b5081935050505090565b60008282604051602001610d209291906125e4565b60405160208183030381529060405280519060200120905092915050565b60048181548110610d4e57600080fd5b906000526020600020016000915054906101000a900473ffffffffffffffffffffffffffffffffffffffff1681565b6000808686604051602001610d939291906125e4565b60405160208183030381529060405280519060200120905060008060008381526020019081526020016000206006015414610e03576040517f08c379a0000000000000000000000000000000000000000000000000000000008152600401610dfa9061267a565b60405180910390fd5b6000875111610e47576040517f08c379a0000000000000000000000000000000000000000000000000000000008152600401610e3e906126e6565b60405180910390fd5b6000865111610e8b576040517f08c379a0000000000000000000000000000000000000000000000000000000008152600401610e8290612752565b60405180910390fd5b6000855111610ecf576040517f08c379a0000000000000000000000000000000000000000000000000000000008152600401610ec6906127be565b60405180910390fd5b604051806101600160405280888152602001878152602001868152602001858152602001848152602001600073ffffffffffffffffffffffffffffffffffffffff16815260200142815260200160008152602001600015158152602001600015158152602001604051806020016040528060008152508152506000808381526020019081526020016000206000820151816000019081610f6f9190612407565b506020820151816001019081610f859190612407565b506040820151816002019081610f9b9190612407565b50606082015181600301556080820151816004015560a08201518160050160006101000a81548173ffffffffffffffffffffffffffffffffffffffff021916908373ffffffffffffffffffffffffffffffffffffffff16021790555060c0820151816006015560e082015181600701556101008201518160080160006101000a81548160ff0219169083151502179055506101208201518160080160016101000a81548160ff0219169083151502179055506101408201518160090190816110639190612407565b509050506003819080600181540180825580915050600190039060005260206000200160009091909190915055807f600a8f65f402b7b59886dc07fbb0217252e712e12ec1b70263cb60ef5155f9bc8888886040516110c4939291906127de565b60405180910390a28091505095945050505050565b600260008273ffffffffffffffffffffffffffffffffffffffff1673ffffffffffffffffffffffffffffffffffffffff16815260200190815260200160002060009054906101000a900460ff16611165576040517f08c379a000000000000000000000000000000000000000000000000000000000815260040161115c90612876565b60405180910390fd5b6000600160008373ffffffffffffffffffffffffffffffffffffffff1673ffffffffffffffffffffffffffffffffffffffff16815260200190815260200160002060030160006101000a81548160ff0219169083151502179055508073ffffffffffffffffffffffffffffffffffffffff167f53e8b0562e8503d058eba7be90f44ebb647e40dc84abe2beb5cf13e18ce256d360405160405180910390a250565b6000600380549050905090565b600073ffffffffffffffffffffffffffffffffffffffff168373ffffffffffffffffffffffffffffffffffffffff1603611282576040517f08c379a0000000000000000000000000000000000000000000000000000000008152600401611279906128e2565b60405180910390fd5b600260008473ffffffffffffffffffffffffffffffffffffffff1673ffffffffffffffffffffffffffffffffffffffff16815260200190815260200160002060009054906101000a900460ff161561130f576040517f08c379a00000000000000000000000000000000000000000000000000000000081526004016113069061294e565b60405180910390fd5b60405180608001604052808473ffffffffffffffffffffffffffffffffffffffff16815260200183815260200182815260200160011515815250600160008573ffffffffffffffffffffffffffffffffffffffff1673ffffffffffffffffffffffffffffffffffffffff16815260200190815260200160002060008201518160000160006101000a81548173ffffffffffffffffffffffffffffffffffffffff021916908373ffffffffffffffffffffffffffffffffffffffff16021790555060208201518160010190816113e49190612407565b5060408201518160020190816113fa9190612407565b5060608201518160030160006101000a81548160ff0219169083151502179055509050506001600260008573ffffffffffffffffffffffffffffffffffffffff1673ffffffffffffffffffffffffffffffffffffffff16815260200190815260200160002060006101000a81548160ff0219169083151502179055506004839080600181540180825580915050600190039060005260206000200160009091909190916101000a81548173ffffffffffffffffffffffffffffffffffffffff021916908373ffffffffffffffffffffffffffffffffffffffff1602179055508273ffffffffffffffffffffffffffffffffffffffff167f719c84c4a121c5fee77fc646839cfb2b38892a68eb6391421eb654057d18b8588360405161151f919061296e565b60405180910390a2505050565b600060205280600052604060002060009150905080600001805461154f9061222a565b80601f016020809104026020016040519081016040528092919081815260200182805461157b9061222a565b80156115c85780601f1061159d576101008083540402835291602001916115c8565b820191906000526020600020905b8154815290600101906020018083116115ab57829003601f168201915b5050505050908060010180546115dd9061222a565b80601f01602080910402602001604051908101604052809291908181526020018280546116099061222a565b80156116565780601f1061162b57610100808354040283529160200191611656565b820191906000526020600020905b81548152906001019060200180831161163957829003601f168201915b50505050509080600201805461166b9061222a565b80601f01602080910402602001604051908101604052809291908181526020018280546116979061222a565b80156116e45780601f106116b9576101008083540402835291602001916116e4565b820191906000526020600020905b8154815290600101906020018083116116c757829003601f168201915b5050505050908060030154908060040154908060050160009054906101000a900473ffffffffffffffffffffffffffffffffffffffff16908060060154908060070154908060080160009054906101000a900460ff16908060080160019054906101000a900460ff169080600901805461175d9061222a565b80601f01602080910402602001604051908101604052809291908181526020018280546117899061222a565b80156117d65780601f106117ab576101008083540402835291602001916117d6565b820191906000526020600020905b8154815290600101906020018083116117b957829003601f168201915b505050505090508b565b6000604051905090565b600080fd5b600080fd5b6000819050919050565b611807816117f4565b811461181257600080fd5b50565b600081359050611824816117fe565b92915050565b60008115159050919050565b61183f8161182a565b811461184a57600080fd5b50565b60008135905061185c81611836565b92915050565b600080fd5b600080fd5b6000601f19601f8301169050919050565b7f4e487b7100000000000000000000000000000000000000000000000000000000600052604160045260246000fd5b6118b58261186c565b810181811067ffffffffffffffff821117156118d4576118d361187d565b5b80604052505050565b60006118e76117e0565b90506118f382826118ac565b919050565b600067ffffffffffffffff8211156119135761191261187d565b5b61191c8261186c565b9050602081019050919050565b82818337600083830152505050565b600061194b611946846118f8565b6118dd565b90508281526020810184848401111561196757611966611867565b5b611972848285611929565b509392505050565b600082601f83011261198f5761198e611862565b5b813561199f848260208601611938565b91505092915050565b6000806000606084860312156119c1576119c06117ea565b5b60006119cf86828701611815565b93505060206119e08682870161184d565b925050604084013567ffffffffffffffff811115611a0157611a006117ef565b5b611a0d8682870161197a565b9150509250925092565b600060208284031215611a2d57611a2c6117ea565b5b6000611a3b84828501611815565b91505092915050565b600081519050919050565b600082825260208201905092915050565b60005b83811015611a7e578082015181840152602081019050611a63565b60008484015250505050565b6000611a9582611a44565b611a9f8185611a4f565b9350611aaf818560208601611a60565b611ab88161186c565b840191505092915050565b6000819050919050565b611ad681611ac3565b82525050565b600073ffffffffffffffffffffffffffffffffffffffff82169050919050565b6000611b0782611adc565b9050919050565b611b1781611afc565b82525050565b611b268161182a565b82525050565b6000610160820190508181036000830152611b47818e611a8a565b90508181036020830152611b5b818d611a8a565b90508181036040830152611b6f818c611a8a565b9050611b7e606083018b611acd565b611b8b608083018a611acd565b611b9860a0830189611b0e565b611ba560c0830188611acd565b611bb260e0830187611acd565b611bc0610100830186611b1d565b611bce610120830185611b1d565b818103610140830152611be18184611a8a565b90509c9b505050505050505050505050565b611bfc81611afc565b8114611c0757600080fd5b50565b600081359050611c1981611bf3565b92915050565b600060208284031215611c3557611c346117ea565b5b6000611c4384828501611c0a565b91505092915050565b6000608082019050611c616000830187611b0e565b8181036020830152611c738186611a8a565b90508181036040830152611c878185611a8a565b9050611c966060830184611b1d565b95945050505050565b611ca881611ac3565b8114611cb357600080fd5b50565b600081359050611cc581611c9f565b92915050565b600060208284031215611ce157611ce06117ea565b5b6000611cef84828501611cb6565b91505092915050565b611d01816117f4565b82525050565b6000602082019050611d1c6000830184611cf8565b92915050565b6000602082019050611d376000830184611b1d565b92915050565b6000602082019050611d526000830184611acd565b92915050565b600081519050919050565b600082825260208201905092915050565b6000819050602082019050919050565b611d8d816117f4565b82525050565b6000611d9f8383611d84565b60208301905092915050565b6000602082019050919050565b6000611dc382611d58565b611dcd8185611d63565b9350611dd883611d74565b8060005b83811015611e09578151611df08882611d93565b9750611dfb83611dab565b925050600181019050611ddc565b5085935050505092915050565b60006020820190508181036000830152611e308184611db8565b905092915050565b60008060408385031215611e4f57611e4e6117ea565b5b600083013567ffffffffffffffff811115611e6d57611e6c6117ef565b5b611e798582860161197a565b925050602083013567ffffffffffffffff811115611e9a57611e996117ef565b5b611ea68582860161197a565b9150509250929050565b6000602082019050611ec56000830184611b0e565b92915050565b600080600080600060a08688031215611ee757611ee66117ea565b5b600086013567ffffffffffffffff811115611f0557611f046117ef565b5b611f118882890161197a565b955050602086013567ffffffffffffffff811115611f3257611f316117ef565b5b611f3e8882890161197a565b945050604086013567ffffffffffffffff811115611f5f57611f5e6117ef565b5b611f6b8882890161197a565b9350506060611f7c88828901611cb6565b9250506080611f8d88828901611cb6565b9150509295509295909350565b600080600060608486031215611fb357611fb26117ea565b5b6000611fc186828701611c0a565b935050602084013567ffffffffffffffff811115611fe257611fe16117ef565b5b611fee8682870161197a565b925050604084013567ffffffffffffffff81111561200f5761200e6117ef565b5b61201b8682870161197a565b9150509250925092565b7f4f6e6c79204e4252206f666669636572732063616e20706572666f726d20746860008201527f697320616374696f6e0000000000000000000000000000000000000000000000602082015250565b6000612081602983611a4f565b915061208c82612025565b604082019050919050565b600060208201905081810360008301526120b081612074565b9050919050565b7f4e4252206f666669636572206973206e6f742061637469766500000000000000600082015250565b60006120ed601983611a4f565b91506120f8826120b7565b602082019050919050565b6000602082019050818103600083015261211c816120e0565b9050919050565b7f5461782072657475726e206e6f7420666f756e64000000000000000000000000600082015250565b6000612159601483611a4f565b915061216482612123565b602082019050919050565b600060208201905081810360008301526121888161214c565b9050919050565b7f5461782072657475726e20616c72656164792076616c69646174656400000000600082015250565b60006121c5601c83611a4f565b91506121d08261218f565b602082019050919050565b600060208201905081810360008301526121f4816121b8565b9050919050565b7f4e487b7100000000000000000000000000000000000000000000000000000000600052602260045260246000fd5b6000600282049050600182168061224257607f821691505b602082108103612255576122546121fb565b5b50919050565b60008190508160005260206000209050919050565b60006020601f8301049050919050565b600082821b905092915050565b6000600883026122bd7fffffffffffffffffffffffffffffffffffffffffffffffffffffffffffffffff82612280565b6122c78683612280565b95508019841693508086168417925050509392505050565b6000819050919050565b60006123046122ff6122fa84611ac3565b6122df565b611ac3565b9050919050565b6000819050919050565b61231e836122e9565b61233261232a8261230b565b84845461228d565b825550505050565b600090565b61234761233a565b612352818484612315565b505050565b5b818110156123765761236b60008261233f565b600181019050612358565b5050565b601f8211156123bb5761238c8161225b565b61239584612270565b810160208510156123a4578190505b6123b86123b085612270565b830182612357565b50505b505050565b600082821c905092915050565b60006123de600019846008026123c0565b1980831691505092915050565b60006123f783836123cd565b9150826002028217905092915050565b61241082611a44565b67ffffffffffffffff8111156124295761242861187d565b5b612433825461222a565b61243e82828561237a565b600060209050601f831160018114612471576000841561245f578287015190505b61246985826123eb565b8655506124d1565b601f19841661247f8661225b565b60005b828110156124a757848901518255600182019150602085019450602081019050612482565b868310156124c457848901516124c0601f8916826123cd565b8355505b6001600288020188555050505b505050505050565b60006040820190506124ee6000830185611b0e565b6124fb6020830184611b1d565b9392505050565b7f4e487b7100000000000000000000000000000000000000000000000000000000600052603260045260246000fd5b7f4e487b7100000000000000000000000000000000000000000000000000000000600052601160045260246000fd5b600061256b82611ac3565b91507fffffffffffffffffffffffffffffffffffffffffffffffffffffffffffffffff820361259d5761259c612531565b5b600182019050919050565b600081905092915050565b60006125be82611a44565b6125c881856125a8565b93506125d8818560208601611a60565b80840191505092915050565b60006125f082856125b3565b91506125fc82846125b3565b91508190509392505050565b7f5461782072657475726e20616c72656164792065786973747320666f7220746860008201527f6973205449494e20616e642066697363616c2079656172000000000000000000602082015250565b6000612664603783611a4f565b915061266f82612608565b604082019050919050565b6000602082019050818103600083015261269381612657565b9050919050565b7f5449494e2063616e6e6f7420626520656d707479000000000000000000000000600082015250565b60006126d0601483611a4f565b91506126db8261269a565b602082019050919050565b600060208201905081810360008301526126ff816126c3565b9050919050565b7f46697363616c20796561722063616e6e6f7420626520656d7074790000000000600082015250565b600061273c601b83611a4f565b915061274782612706565b602082019050919050565b6000602082019050818103600083015261276b8161272f565b9050919050565b7f4950465320686173682063616e6e6f7420626520656d70747900000000000000600082015250565b60006127a8601983611a4f565b91506127b382612772565b602082019050919050565b600060208201905081810360008301526127d78161279b565b9050919050565b600060608201905081810360008301526127f88186611a8a565b9050818103602083015261280c8185611a8a565b905081810360408301526128208184611a8a565b9050949350505050565b7f4f666669636572206e6f7420666f756e64000000000000000000000000000000600082015250565b6000612860601183611a4f565b915061286b8261282a565b602082019050919050565b6000602082019050818103600083015261288f81612853565b9050919050565b7f496e76616c6964206f6666696365722061646472657373000000000000000000600082015250565b60006128cc601783611a4f565b91506128d782612896565b602082019050919050565b600060208201905081810360008301526128fb816128bf565b9050919050565b7f4f66666963657220616c72656164792072656769737465726564000000000000600082015250565b6000612938601a83611a4f565b915061294382612902565b602082019050919050565b600060208201905081810360008301526129678161292b565b9050919050565b600060208201905081810360008301526129888184611a8a565b90509291505056fea26469706673582212203fa95663ca42266bd453b2d9f13eed9486ae5f35722423c0ab16e71949cc1a8f64736f6c63430008130033",
  "linkReferences": {},
  "deployedLinkReferences": {}
}