{
  "_format": "hh-sol-artifact-1",
  "contractName": "TaxReturnRegistry",
  "sourceName": "contracts/TaxReturnRegistry.sol",
  "abi": [
    {
      "inputs": [],
      "stateMutability": "nonpayable",
      "type": "constructor"
    },
    {
      "anonymous": false,
      "inputs": [
        {
          "indexed": true,
          "internalType": "address",
          "name": "newLedger",
          "type": "address"
        }
      ],
      "name": "NationalLedgerUpdated",
      "type": "event"
    },
    {
      "anonymous": false,
      "inputs": [
        {
          "indexed": true,
          "internalType": "address",
          "name": "officer",
          "type": "address"
        }
      ],
      "name": "NbrOfficerDeactivated",
      "type": "event"
    },
    {
      "anonymous": false,
      "inputs": [
        {
          "indexed": true,
          "internalType": "address",
          "name": "officer",
          "type": "address"
        },
        {
          "indexed": false,
          "internalType": "string",
          "name": "officerId",
          "type": "string"
        }
      ],
      "name": "NbrOfficerRegistered",
      "type": "event"
    },
    {
      "anonymous": false,
      "inputs": [
        {
          "indexed": true,
          "internalType": "bytes32",
          "name": "returnKey",
          "type": "bytes32"
        },
        {
          "indexed": false,
          "internalType": "uint256",
          "name": "amount",
          "type": "uint256"
        },
        {
          "indexed": false,
          "internalType": "string",
          "name": "fiscalYear",
          "type": "string"
        }
      ],
      "name": "RevenueAddedToNationalLedger",
      "type": "event"
    },
    {
      "anonymous": false,
      "inputs": [
        {
          "indexed": true,
          "internalType": "bytes32",
          "name": "returnKey",
          "type": "bytes32"
        },
        {
          "indexed": false,
          "internalType": "string",
          "name": "tiin",
          "type": "string"
        },
        {
          "indexed": false,
          "internalType": "string",
          "name": "fiscalYear",
          "type": "string"
        },
        {
          "indexed": false,
          "internalType": "string",
          "name": "ipfsHash",
          "type": "string"
        }
      ],
      "name": "TaxReturnSubmitted",
      "type": "event"
    },
    {
      "anonymous": false,
      "inputs": [
        {
          "indexed": true,
          "internalType": "bytes32",
          "name": "returnKey",
          "type": "bytes32"
        },
        {
          "indexed": false,
          "internalType": "address",
          "name": "validator",
          "type": "address"
        },
        {
          "indexed": false,
          "internalType": "bool",
          "name": "approved",
          "type": "bool"
        }
      ],
      "name": "TaxReturnValidated",
      "type": "event"
    },
    {
      "inputs": [],
      "name": "admin",
      "outputs": [
        {
          "internalType": "address",
          "name": "",
          "type": "address"
        }
      ],
      "stateMutability": "view",
      "type": "function"
    },
    {
      "inputs": [
        {
          "internalType": "uint256",
          "name": "",
          "type": "uint256"
        }
      ],
      "name": "allOfficers",
      "outputs": [
        {
          "internalType": "address",
          "name": "",
          "type": "address"
        }
      ],
      "stateMutability": "view",
      "type": "function"
    },
    {
      "inputs": [
        {
          "internalType": "uint256",
          "name": "",
          "type": "uint256"
        }
      ],
      "name": "allTaxReturnKeys",
      "outputs": [
        {
          "internalType": "bytes32",
          "name": "",
          "type": "bytes32"
        }
      ],
      "stateMutability": "view",
      "type": "function"
    },
    {
      "inputs": [
        {
          "internalType": "address",
          "name": "_officerAddress",
          "type": "address"
        }
      ],
      "name": "deactivateNbrOfficer",
      "outputs": [],
      "stateMutability": "nonpayable",
      "type": "function"
    },
    {
      "inputs": [],
      "name": "getPendingTaxReturns",
      "outputs": [
        {
          "internalType": "bytes32[]",
          "name": "",
          "type": "bytes32[]"
        }
      ],
      "stateMutability": "view",
      "type": "function"
    },
    {
      "inputs": [
        {
          "internalType": "bytes32",
          "name": "_returnKey",
          "type": "bytes32"
        }
      ],
      "name": "getTaxReturn",
      "outputs": [
        {
          "internalType": "string",
          "name": "tiin",
          "type": "string"
        },
        {
          "internalType": "string",
          "name": "fiscalYear",
          "type": "string"
        },
        {
          "internalType": "string",
          "name": "ipfsHash",
          "type": "string"
        },
        {
          "internalType": "uint256",
          "name": "totalIncome",
          "type": "uint256"
        },
        {
          "internalType": "uint256",
          "name": "totalCost",
          "type": "uint256"
        },
        {
          "internalType": "address",
          "name": "validator",
          "type": "address"
        },
        {
          "internalType": "uint256",
          "name": "timestamp",
          "type": "uint256"
        },
        {
          "internalType": "uint256",
          "name": "validatedTimestamp",
          "type": "uint256"
        },
        {
          "internalType": "bool",
          "name": "isValidated",
          "type": "bool"
        },
        {
          "internalType": "bool",
          "name": "isApproved",
          "type": "bool"
        },
        {
          "internalType": "string",
          "name": "comments",
          "type": "string"
        }
      ],
      "stateMutability": "view",
      "type": "function"
    },
    {
      "inputs": [
        {
          "internalType": "string",
          "name": "_tiin",
          "type": "string"
        },
        {
          "internalType": "string",
          "name": "_fiscalYear",
          "type": "string"
        }
      ],
      "name": "getTaxReturnKey",
      "outputs": [
        {
          "internalType": "bytes32",
          "name": "",
          "type": "bytes32"
        }
      ],
      "stateMutability": "pure",
      "type": "function"
    },
    {
      "inputs": [],
      "name": "getTotalNbrOfficers",
      "outputs": [
        {
          "internalType": "uint256",
          "name": "",
          "type": "uint256"
        }
      ],
      "stateMutability": "view",
      "type": "function"
    },
    {
      "inputs": [],
      "name": "getTotalTaxReturns",
      "outputs": [
        {
          "internalType": "uint256",
          "name": "",
          "type": "uint256"
        }
      ],
      "stateMutability": "view",
      "type": "function"
    },
    {
      "inputs": [
        {
          "internalType": "address",
          "name": "",
          "type": "address"
        }
      ],
      "name": "isNbrOfficer",
      "outputs": [
        {
          "internalType": "bool",
          "name": "",
          "type": "bool"
        }
      ],
      "stateMutability": "view",
      "type": "function"
    },
    {
      "inputs": [],
      "name": "nationalLedger",
      "outputs": [
        {
          "internalType": "contract INationalLedger",
          "name": "",
          "type": "address"
        }
      ],
      "stateMutability": "view",
      "type": "function"
    },
    {
      "inputs": [],
      "name": "nationalLedgerEnabled",
      "outputs": [
        {
          "internalType": "bool",
          "name": "",
          "type": "bool"
        }
      ],
      "stateMutability": "view",
      "type": "function"
    },
    {
      "inputs": [
        {
          "internalType": "address",
          "name": "",
          "type": "address"
        }
      ],
      "name": "nbrOfficers",
      "outputs": [
        {
          "internalType": "address",
          "name": "officerAddress",
          "type": "address"
        },
        {
          "internalType": "string",
          "name": "officerId",
          "type": "string"
        },
        {
          "internalType": "string",
          "name": "fullName",
          "type": "string"
        },
        {
          "internalType": "bool",
          "name": "isActive",
          "type": "bool"
        }
      ],
      "stateMutability": "view",
      "type": "function"
    },
    {
      "inputs": [
        {
          "internalType": "address",
          "name": "_officerAddress",
          "type": "address"
        },
        {
          "internalType": "string",
          "name": "_officerId",
          "type": "string"
        },
        {
          "internalType": "string",
          "name": "_fullName",
          "type": "string"
        }
      ],
      "name": "registerNbrOfficer",
      "outputs": [],
      "stateMutability": "nonpayable",
      "type": "function"
    },
    {
      "inputs": [
        {
          "internalType": "address",
          "name": "_nationalLedgerAddress",
          "type": "address"
        }
      ],
      "name": "setNationalLedger",
      "outputs": [],
      "stateMutability": "nonpayable",
      "type": "function"
    },
    {
      "inputs": [
        {
          "internalType": "string",
          "name": "_tiin",
          "type": "string"
        },
        {
          "internalType": "string",
          "name": "_fiscalYear",
          "type": "string"
        },
        {
          "internalType": "string",
          "name": "_ipfsHash",
          "type": "string"
        },
        {
          "internalType": "uint256",
          "name": "_totalIncome",
          "type": "uint256"
        },
        {
          "internalType": "uint256",
          "name": "_totalCost",
          "type": "uint256"
        }
      ],
      "name": "submitTaxReturn",
      "outputs": [
        {
          "internalType": "bytes32",
          "name": "",
          "type": "bytes32"
        }
      ],
      "stateMutability": "nonpayable",
      "type": "function"
    },
    {
      "inputs": [
        {
          "internalType": "bytes32",
          "name": "",
          "type": "bytes32"
        }
      ],
      "name": "taxReturns",
      "outputs": [
        {
          "internalType": "string",
          "name": "tiin",
          "type": "string"
        },
        {
          "internalType": "string",
          "name": "fiscalYear",
          "type": "string"
        },
        {
          "internalType": "string",
          "name": "ipfsHash",
          "type": "string"
        },
        {
          "internalType": "uint256",
          "name": "totalIncome",
          "type": "uint256"
        },
        {
          "internalType": "uint256",
          "name": "totalCost",
          "type": "uint256"
        },
        {
          "internalType": "address",
          "name": "validator",
          "type": "address"
        },
        {
          "internalType": "uint256",
          "name": "timestamp",
          "type": "uint256"
        },
        {
          "internalType": "uint256",
          "name": "validatedTimestamp",
          "type": "uint256"
        },
        {
          "internalType": "bool",
          "name": "isValidated",
          "type": "bool"
        },
        {
          "internalType": "bool",
          "name": "isApproved",
          "type": "bool"
        },
        {
          "internalType": "string",
          "name": "comments",
          "type": "string"
        }
      ],
      "stateMutability": "view",
      "type": "function"
    },
    {
      "inputs": [
        {
          "internalType": "bool",
          "name": "_enabled",
          "type": "bool"
        }
      ],
      "name": "toggleNationalLedger",
      "outputs": [],
      "stateMutability": "nonpayable",
      "type": "function"
    },
    {
      "inputs": [
        {
          "internalType": "bytes32",
          "name": "_returnKey",
          "type": "bytes32"
        },
        {
          "internalType": "bool",
          "name": "_approved",
          "type": "bool"
        },
        {
          "internalType": "string",
          "name": "_comments",
          "type": "string"
        }
      ],
      "name": "validateTaxReturn",
      "outputs": [],
      "stateMutability": "nonpayable",
      "type": "function"
    }
  ],
  "bytecode": "0x6080806040523461003557600680546001600160a01b031916331790556005805460ff60a01b19169055611e74908161003b8239f35b600080fdfe6080604052600436101561001257600080fd5b6000803560e01c80630e78456b146115815780631909f2851461147a57806338ef2263146113eb5780633e0a38b2146113b15780634e2ff90b1461138b5780635cc4881f1461134c57806364b41c0d1461132e5780636f5a5e1b146111b4578063859f48d11461112657806392c143d71461106757806399d3512314611023578063a8fdb6d9146107ce578063c4a45e2e14610775578063d8bfc1bf146106c6578063dba39b0f1461069d578063e5b31db61461067f578063e933ab94146101af578063f394190a146101195763f851a440146100ee57600080fd5b346101165780600319360112610116576006546040516001600160a01b039091168152602090f35b80fd5b5034610116576020366003190112610116576040906004358152806020522061014181611be2565b6101ab61015060018401611be2565b9161015d60028501611be2565b93600381015491600482015460018060a01b03600584015416600684015490600785015492610193600960088801549701611be2565b966040519a8b9a60ff808a60081c169916978c611b07565b0390f35b5034610116576060366003190112610116576101c9611b92565b6024356001600160401b03811161067b576101e8903690600401611a69565b906044356001600160401b03811161067757610208903690600401611a69565b6001600160a01b03821615610632576001600160a01b03821684526002602052604084205460ff166105ed57604051608081018181106001600160401b038211176105d75760409081526001600160a01b0384811680845260208085018881528585019690965260016060860181905291895252908620825181546001600160a01b031916921691909117815591518051906001600160401b0382116105c35781906102b76001860154611ba8565b601f8111610572575b50602090601f83116001146105035788926104f8575b50508160011b916000199060031b1c19161760018301555b6002820160408201518051906001600160401b0382116104e4576103128354611ba8565b601f811161049e575b50602090601f831160011461043157928260609361036a9796936003968c92610426575b50508160011b9160001990871b1c19161790555b0151151591019060ff801983541691151516179055565b6001600160a01b0381168352600260205260408320805460ff19166001179055600454600160401b811015610412577f719c84c4a121c5fee77fc646839cfb2b38892a68eb6391421eb654057d18b858916103ce82600161040c9401600455611cd5565b81549060031b9060018060a01b038416821b9160018060a01b03901b19161790556040519182916020835260018060a01b0316946020830190611ae2565b0390a280f35b634e487b7160e01b84526041600452602484fd5b01519050388061033f565b838952602089209190601f1984168a5b81811061048657509361036a97969360039693600193836060981061046e575b505050811b019055610353565b015160001983891b60f8161c19169055388080610461565b92936020600181928786015181550195019301610441565b83895260208920601f840160051c810191602085106104da575b601f0160051c01905b8181106104ce575061031b565b600081556001016104c1565b90915081906104b8565b634e487b7160e01b88526041600452602488fd5b0151905038806102d6565b9250600185018852602088209088935b601f1984168510610557576001945083601f1981161061053e575b505050811b0160018301556102ee565b015160001960f88460031b161c1916905538808061052e565b81810151835560209485019460019093019290910190610513565b90915060018501885260208820601f840160051c8101602085106105bc575b90849392915b601f830160051c820181106105ad5750506102c0565b60008155859450600101610597565b5080610591565b634e487b7160e01b87526041600452602487fd5b634e487b7160e01b600052604160045260246000fd5b60405162461bcd60e51b815260206004820152601a60248201527f4f66666963657220616c726561647920726567697374657265640000000000006044820152606490fd5b60405162461bcd60e51b815260206004820152601760248201527f496e76616c6964206f66666963657220616464726573730000000000000000006044820152606490fd5b8380fd5b8280fd5b50346101165780600319360112610116576020600354604051908152f35b50346101165780600319360112610116576005546040516001600160a01b039091168152602090f35b5034610116576020366003190112610116576001600160a01b036106e8611b92565b16808252600260205260ff6040832054161561073c57808252600160205260408220600301805460ff191690557f53e8b0562e8503d058eba7be90f44ebb647e40dc84abe2beb5cf13e18ce256d38280a280f35b60405162461bcd60e51b815260206004820152601160248201527013d9999a58d95c881b9bdd08199bdd5b99607a1b6044820152606490fd5b5034610116576020366003190112610116576004358015158091036107c9576107a960018060a01b03600654163314611d0c565b6005805460ff60a01b191660a09290921b60ff60a01b1691909117905580f35b600080fd5b50346101165760a0366003190112610116576004356001600160401b03811161101f576107ff903690600401611a69565b906024356001600160401b03811161101f5761081f903690600401611a69565b6044356001600160401b03811161067b5761083e903690600401611a69565b90604051602081019061087c602082885161085c8187858d01611abf565b810186519061087082858301868b01611abf565b01038084520182611a48565b51902092838152806020526006604082200154610fb457845115610f7857815115610f3357825115610eee576040516108b481611a2c565b858152826020820152836040820152606435606082015260843560808201528160a08201524260c08201528160e082015281610100820152816101208201526040518060208101106001600160401b036020830111176105d7576020810160405282815261014082015284825281602052604082209080518051906001600160401b038211610d525781906109498554611ba8565b601f8111610ea0575b50602090601f8311600114610e3c578692610e31575b50508160011b916000199060031b1c19161782555b60208101518051906001600160401b038211610d525781906109a26001860154611ba8565b601f8111610de0575b50602090601f8311600114610d71578692610d66575b50508160011b916000199060031b1c19161760018301555b60408101518051906001600160401b038211610d52576109fc6002850154611ba8565b601f8111610d0d575b50602090601f8311600114610c9c57610140939291869183610c91575b50508160011b916000199060031b1c19161760028401555b60608101516003840155608081015160048401556005830160018060a01b0360a0830151166bffffffffffffffffffffffff60a01b82541617905560c0810151600684015560e08101516007840155610ac960088401610aad6101008401511515829060ff801983541691151516179055565b610120830151815461ff00191690151560081b61ff0016179055565b01518051906001600160401b03821161041257610ae96009840154611ba8565b601f8111610c4c575b50602090601f8311600114610be25760099291859183610bd7575b50508160011b916000199060031b1c1916179101555b60035490600160401b821015610bc35750602094610bb88594610baa7f600a8f65f402b7b59886dc07fbb0217252e712e12ec1b70263cb60ef5155f9bc95610b74866001610b9d9801600355611c88565b81549060031b908a821b91600019901b1916179055604051958695606087526060870190611ae2565b908582038b870152611ae2565b908382036040850152611ae2565b0390a2604051908152f35b634e487b7160e01b81526041600452602490fd5b015190503880610b0d565b600984018552602085209190601f198416865b818110610c3457509160019391856009969410610c1b575b505050811b01910155610b23565b015160001960f88460031b161c19169055388080610c0d565b92936020600181928786015181550195019301610bf5565b60098401855260208520601f840160051c810160208510610c8a575b601f830160051c82018110610c7e575050610af2565b60008155600101610c68565b5080610c68565b015190503880610a22565b906002850186526020862091865b601f1985168110610cf557509183916001936101409695601f19811610610cdc575b505050811b016002840155610a3a565b015160001960f88460031b161c19169055388080610ccc565b91926020600181928685015181550194019201610caa565b60028501865260208620601f840160051c810160208510610d4b575b601f830160051c82018110610d3f575050610a05565b60008155600101610d29565b5080610d29565b634e487b7160e01b85526041600452602485fd5b0151905038806109c1565b9250600185018652602086209086935b601f1984168510610dc5576001945083601f19811610610dac575b505050811b0160018301556109d9565b015160001960f88460031b161c19169055388080610d9c565b81810151835560209485019460019093019290910190610d81565b90915060018501865260208620601f840160051c810160208510610e2a575b90849392915b601f830160051c82018110610e1b5750506109ab565b60008155859450600101610e05565b5080610dff565b015190503880610968565b858752602087209250601f198416875b818110610e885750908460019594939210610e6f575b505050811b01825561097d565b015160001960f88460031b161c19169055388080610e62565b92936020600181928786015181550195019301610e4c565b90915084865260208620601f840160051c810160208510610ee7575b90849392915b601f830160051c82018110610ed8575050610952565b60008155859450600101610ec2565b5080610ebc565b60405162461bcd60e51b815260206004820152601960248201527f4950465320686173682063616e6e6f7420626520656d707479000000000000006044820152606490fd5b60405162461bcd60e51b815260206004820152601b60248201527f46697363616c20796561722063616e6e6f7420626520656d70747900000000006044820152606490fd5b60405162461bcd60e51b81526020600482015260146024820152735449494e2063616e6e6f7420626520656d70747960601b6044820152606490fd5b60405162461bcd60e51b815260206004820152603760248201527f5461782072657475726e20616c72656164792065786973747320666f7220746860448201527f6973205449494e20616e642066697363616c20796561720000000000000000006064820152608490fd5b5080fd5b5034610116576020366003190112610116576004359060045482101561011657602061104e83611cd5565b905460405160039290921b1c6001600160a01b03168152f35b503461011657602036600319011261011657611081611b92565b6006546001600160a01b03919061109b9083163314611d0c565b1680156110e157600580546001600160a81b0319168217600160a01b1790557fe9f1a2460c2e42096ad297be3ecae6677c679e7a64d6e626d10dfb0413ffd5678280a280f35b60405162461bcd60e51b815260206004820152601f60248201527f496e76616c6964206e6174696f6e616c206c65646765722061646472657373006044820152606490fd5b5034610116576040366003190112610116576001600160401b039060043582811161101f57611159903690600401611a69565b9060243592831161011657506111766111a9923690600401611a69565b6040519283916020948591826111958184019788815193849201611abf565b820161087082518093868085019101611abf565b519020604051908152f35b5034610116578060031936011261011657600380549082805b8381106112db57506111f76111e185611e27565b946111ef6040519687611a48565b808652611e27565b6020938585019391601f19013685378291835b828110611253575050505060405193838594850191818652518092526040850193925b82811061123c57505050500390f35b83518552869550938101939281019260010161122d565b611261819896979598611c88565b905490831b1c885287855260ff600860408a2001541615611290575b61128690611e02565b969395949661120a565b9261129a84611c88565b905490831b1c86518210156112c757816112bf91876112869460051b8a010152611e02565b93905061127d565b634e487b7160e01b89526032600452602489fd5b6112e9819593949295611c88565b905490851b1c85528460205260ff60086040872001541615611319575b61130f90611e02565b93909291936111cd565b9161132661130f91611e02565b929050611306565b50346101165780600319360112610116576020600454604051908152f35b50346101165760203660031901126101165760209060ff906040906001600160a01b03611377611b92565b168152600284522054166040519015158152f35b5034610116578060031936011261011657602060ff60055460a01c166040519015158152f35b503461011657602036600319011261011657600435906003548210156101165760206113dc83611c88565b90549060031b1c604051908152f35b5034610116576020366003190112610116576001600160a01b039060409082611412611b92565b1681526001602052209081541661142b60018301611be2565b9161146e60ff600361143f60028501611be2565b93015416916114606040519586958652608060208701526080860190611ae2565b908482036040860152611ae2565b90151560608301520390f35b503461011657602036600319011261011657604090600435815280602052206040516114a581611a2c565b6114ae82611be2565b81526101ab6114bf60018401611be2565b91602081019283526114d360028501611be2565b9360408201948552600381015490606083019182526004810154906080840191825260018060a01b03918260058301541660a0860190815260068301549060c0870191825260078401549260e0880193845260088501549561155460096101008b019760ff8a161515895260ff6101208d019a60081c1615158a5201611be2565b9889610140820152519a519b5197519151925116925193519451151595511515966040519b8c9b8c611b07565b503461011657606036600319011261011657602435151560243503610116576044356001600160401b03811161101f576115bf903690600401611a69565b338252600260205260ff604083205416156119d557338252600160205260ff60036040842001541615611990576004358252816020526006604083200154156119545760043582528160205260ff60086040842001541661190f5760043582526020829052604082206005810180546001600160a01b031916331790554260078201556008808201805461ffff1916602435151590921b61ff0016919091176001179055908051906001600160401b038211610412576116826009840154611ba8565b601f81116118cb575b50602090601f83116001146118615760099291859183611856575b50508160011b916000199060031b1c1916179101555b60243580611847575b80611833575b61170b575b604051338152602435151560208201527f247c3744bfd251d2f7b1fc61f63ce2f03516eb9442a74cdb2c321b8d36202efe604060043592a280f35b60018060a01b03600554169060043581528060205260408120916004830154813b1561067b5782916117808360029361179960405198899687958694636c58fd5760e01b865260a0600487015261176560a4870185611d6c565b90602487015260031986820301604487015260018401611d6c565b3360648601528481036003190160848601529101611d6c565b03925af19182611808575b5090156116d057600435815280602052604081207f8d35d6b30431d1f0f6cddf9de9c98bf865c9fbe19aaf6f6c25e0121cb585656660048201546040519081526040602082015280611800600435946001604084019101611d6c565b0390a26116d0565b6001600160401b03811161181f57604052386117a4565b634e487b7160e01b82526041600452602482fd5b506005546001600160a01b031615156116cb565b5060ff60055460a01c166116c5565b0151905038806116a6565b600984018552602085209190601f198416865b8181106118b35750916001939185600996941061189a575b505050811b019101556116bc565b015160001960f88460031b161c1916905538808061188c565b92936020600181928786015181550195019301611874565b60098401855260208520601f840160051c810160208510611908575b601f830160051c820181106118fd57505061168b565b8681556001016118e7565b50806118e7565b60405162461bcd60e51b815260206004820152601c60248201527f5461782072657475726e20616c72656164792076616c696461746564000000006044820152606490fd5b60405162461bcd60e51b815260206004820152601460248201527315185e081c995d1d5c9b881b9bdd08199bdd5b9960621b6044820152606490fd5b60405162461bcd60e51b815260206004820152601960248201527f4e4252206f666669636572206973206e6f7420616374697665000000000000006044820152606490fd5b60405162461bcd60e51b815260206004820152602960248201527f4f6e6c79204e4252206f666669636572732063616e20706572666f726d20746860448201526834b99030b1ba34b7b760b91b6064820152608490fd5b61016081019081106001600160401b038211176105d757604052565b90601f801991011681019081106001600160401b038211176105d757604052565b81601f820112156107c9578035906001600160401b0382116105d75760405192611a9d601f8401601f191660200185611a48565b828452602083830101116107c957816000926020809301838601378301015290565b60005b838110611ad25750506000910152565b8181015183820152602001611ac2565b90602091611afb81518092818552858086019101611abf565b601f01601f1916010190565b97949192611b3d611b8f9c9a9794611b2f611b4b949d9a979d8c6101608091528d0190611ae2565b908b820360208d0152611ae2565b9089820360408b0152611ae2565b606088019990995260808701526001600160a01b031660a086015260c085015260e08401521515610100830152151561012082015280830361014090910152611ae2565b90565b600435906001600160a01b03821682036107c957565b90600182811c92168015611bd8575b6020831014611bc257565b634e487b7160e01b600052602260045260246000fd5b91607f1691611bb7565b9060405191826000825492611bf684611ba8565b908184526001948581169081600014611c655750600114611c22575b5050611c2092500383611a48565b565b9093915060005260209081600020936000915b818310611c4d575050611c2093508201013880611c12565b85548884018501529485019487945091830191611c35565b915050611c2094506020925060ff191682840152151560051b8201013880611c12565b600354811015611cbf5760036000527fc2575a0e9e593c00f959f8c92f12db2869c3395a3b0502d05e2516446f71f85b0190600090565b634e487b7160e01b600052603260045260246000fd5b600454811015611cbf5760046000527f8a35acfbc15ff81a39ae7d344fd709f28e8600b4aa8c65c6b64bfe7fe36bd19b0190600090565b15611d1357565b60405162461bcd60e51b815260206004820152602b60248201527f4f6e6c7920636f6e74726163742061646d696e2063616e20706572666f726d2060448201526a3a3434b99030b1ba34b7b760a91b6064820152608490fd5b9060009291805491611d7d83611ba8565b918282526001938481169081600014611ddf5750600114611d9f575b50505050565b90919394506000526020928360002092846000945b838610611dcb575050505001019038808080611d99565b805485870183015294019385908201611db4565b9294505050602093945060ff191683830152151560051b01019038808080611d99565b6000198114611e115760010190565b634e487b7160e01b600052601160045260246000fd5b6001600160401b0381116105d75760051b6020019056fea2646970667358221220da6d645880a175395a78c8773eea7ff52fb8db450c12643bcb5d1d40b5b64cbe64736f6c63430008130033",
  "linkReferences": {},
  "deployedLinkReferences": {}
}