{"contracts/NationalLedger.sol":{"NationalLedger":{"abi":[{"inputs":[],"stateMutability":"nonpayable","type":"constructor"},{"anonymous":false,"inputs":[{"indexed":true,"internalType":"address","name":"account","type":"address"},{"indexed":false,"internalType":"string","name":"role","type":"string"}],"name":"AuthorizationGranted","type":"event"},{"anonymous":false,"inputs":[{"indexed":true,"internalType":"address","name":"account","type":"address"},{"indexed":false,"internalType":"string","name":"role","type":"string"}],"name":"AuthorizationRevoked","type":"event"},{"anonymous":false,"inputs":[{"indexed":true,"internalType":"string","name":"procurementId","type":"string"},{"indexed":false,"internalType":"uint256","name":"amount","type":"uint256"},{"indexed":false,"internalType":"string","name":"vendorId","type":"string"},{"indexed":false,"internalType":"address","name":"bppaOfficer","type":"address"}],"name":"ExpenseAdded","type":"event"},{"anonymous":false,"inputs":[{"indexed":true,"internalType":"string","name":"procurementId","type":"string"},{"indexed":false,"internalType":"uint256","name":"amount","type":"uint256"},{"indexed":false,"internalType":"string","name":"vendorId","type":"string"},{"indexed":false,"internalType":"address","name":"bppaOfficer","type":"address"}],"name":"FundRequestExpenseAdded","type":"event"},{"anonymous":false,"inputs":[{"indexed":true,"internalType":"string","name":"tiin","type":"string"},{"indexed":false,"internalType":"uint256","name":"amount","type":"uint256"},{"indexed":false,"internalType":"string","name":"fiscalYear","type":"string"},{"indexed":false,"internalType":"address","name":"validator","type":"address"}],"name":"RevenueAdded","type":"event"},{"inputs":[{"internalType":"string","name":"_procurementId","type":"string"},{"internalType":"uint256","name":"_amount","type":"uint256"},{"internalType":"address","name":"_bppaOfficer","type":"address"},{"internalType":"string","name":"_vendorId","type":"string"},{"internalType":"string","name":"_description","type":"string"}],"name":"addExpense","outputs":[],"stateMutability":"nonpayable","type":"function"},{"inputs":[{"internalType":"string","name":"_procurementId","type":"string"},{"internalType":"uint256","name":"_amount","type":"uint256"},{"internalType":"address","name":"_bppaOfficer","type":"address"},{"internalType":"string","name":"_vendorId","type":"string"},{"internalType":"string","name":"_description","type":"string"}],"name":"addFundRequestExpense","outputs":[],"stateMutability":"nonpayable","type":"function"},{"inputs":[{"internalType":"string","name":"_tiin","type":"string"},{"internalType":"uint256","name":"_amount","type":"uint256"},{"internalType":"string","name":"_fiscalYear","type":"string"},{"internalType":"address","name":"_validator","type":"address"},{"internalType":"string","name":"_taxReturnHash","type":"string"}],"name":"addRevenue","outputs":[],"stateMutability":"nonpayable","type":"function"},{"inputs":[],"name":"availableBalance","outputs":[{"internalType":"uint256","name":"","type":"uint256"}],"stateMutability":"view","type":"function"},{"inputs":[{"internalType":"uint256","name":"_newBalance","type":"uint256"},{"internalType":"string","name":"_reason","type":"string"}],"name":"emergencyAdjustBalance","outputs":[],"stateMutability":"nonpayable","type":"function"},{"inputs":[{"internalType":"address","name":"","type":"address"},{"internalType":"uint256","name":"","type":"uint256"}],"name":"expenseByBppaOfficer","outputs":[{"internalType":"uint256","name":"","type":"uint256"}],"stateMutability":"view","type":"function"},{"inputs":[{"internalType":"string","name":"","type":"string"},{"internalType":"uint256","name":"","type":"uint256"}],"name":"expenseByProcurement","outputs":[{"internalType":"uint256","name":"","type":"uint256"}],"stateMutability":"view","type":"function"},{"inputs":[{"internalType":"uint256","name":"","type":"uint256"}],"name":"expenseEntries","outputs":[{"internalType":"string","name":"procurementId","type":"string"},{"internalType":"uint256","name":"amount","type":"uint256"},{"internalType":"uint256","name":"timestamp","type":"uint256"},{"internalType":"address","name":"bppaOfficer","type":"address"},{"internalType":"string","name":"vendorId","type":"string"},{"internalType":"string","name":"description","type":"string"},{"internalType":"bool","name":"isFundRequest","type":"bool"}],"stateMutability":"view","type":"function"},{"inputs":[{"internalType":"string","name":"_procurementId","type":"string"}],"name":"getExpenseByProcurement","outputs":[{"internalType":"uint256[]","name":"","type":"uint256[]"}],"stateMutability":"view","type":"function"},{"inputs":[{"internalType":"uint256","name":"_index","type":"uint256"}],"name":"getExpenseEntry","outputs":[{"internalType":"string","name":"procurementId","type":"string"},{"internalType":"uint256","name":"amount","type":"uint256"},{"internalType":"uint256","name":"timestamp","type":"uint256"},{"internalType":"address","name":"bppaOfficer","type":"address"},{"internalType":"string","name":"vendorId","type":"string"},{"internalType":"string","name":"description","type":"string"},{"internalType":"bool","name":"isFundRequest","type":"bool"}],"stateMutability":"view","type":"function"},{"inputs":[],"name":"getLedgerSummary","outputs":[{"internalType":"uint256","name":"revenue","type":"uint256"},{"internalType":"uint256","name":"expense","type":"uint256"},{"internalType":"uint256","name":"balance","type":"uint256"},{"internalType":"uint256","name":"totalRevenueEntries","type":"uint256"},{"internalType":"uint256","name":"totalExpenseEntries","type":"uint256"}],"stateMutability":"view","type":"function"},{"inputs":[{"internalType":"string","name":"_fiscalYear","type":"string"}],"name":"getRevenueByFiscalYear","outputs":[{"internalType":"uint256[]","name":"","type":"uint256[]"}],"stateMutability":"view","type":"function"},{"inputs":[{"internalType":"uint256","name":"_index","type":"uint256"}],"name":"getRevenueEntry","outputs":[{"internalType":"string","name":"tiin","type":"string"},{"internalType":"uint256","name":"amount","type":"uint256"},{"internalType":"uint256","name":"timestamp","type":"uint256"},{"internalType":"address","name":"validator","type":"address"},{"internalType":"string","name":"taxReturnHash","type":"string"},{"internalType":"string","name":"fiscalYear","type":"string"}],"stateMutability":"view","type":"function"},{"inputs":[{"internalType":"string","name":"_procurementId","type":"string"}],"name":"getTotalExpenseByProcurement","outputs":[{"internalType":"uint256","name":"","type":"uint256"}],"stateMutability":"view","type":"function"},{"inputs":[{"internalType":"string","name":"_fiscalYear","type":"string"}],"name":"getTotalRevenueByFiscalYear","outputs":[{"internalType":"uint256","name":"","type":"uint256"}],"stateMutability":"view","type":"function"},{"inputs":[{"internalType":"address","name":"_account","type":"address"}],"name":"grantAdmin","outputs":[],"stateMutability":"nonpayable","type":"function"},{"inputs":[{"internalType":"address","name":"_account","type":"address"}],"name":"grantExpenseAdder","outputs":[],"stateMutability":"nonpayable","type":"function"},{"inputs":[{"internalType":"address","name":"_account","type":"address"}],"name":"grantRevenueAdder","outputs":[],"stateMutability":"nonpayable","type":"function"},{"inputs":[{"internalType":"address","name":"","type":"address"}],"name":"isAdmin","outputs":[{"internalType":"bool","name":"","type":"bool"}],"stateMutability":"view","type":"function"},{"inputs":[{"internalType":"address","name":"","type":"address"}],"name":"isAuthorizedExpenseAdder","outputs":[{"internalType":"bool","name":"","type":"bool"}],"stateMutability":"view","type":"function"},{"inputs":[{"internalType":"address","name":"","type":"address"}],"name":"isAuthorizedRevenueAdder","outputs":[{"internalType":"bool","name":"","type":"bool"}],"stateMutability":"view","type":"function"},{"inputs":[{"internalType":"string","name":"","type":"string"},{"internalType":"uint256","name":"","type":"uint256"}],"name":"revenueByFiscalYear","outputs":[{"internalType":"uint256","name":"","type":"uint256"}],"stateMutability":"view","type":"function"},{"inputs":[{"internalType":"address","name":"","type":"address"},{"internalType":"uint256","name":"","type":"uint256"}],"name":"revenueByValidator","outputs":[{"internalType":"uint256","name":"","type":"uint256"}],"stateMutability":"view","type":"function"},{"inputs":[{"internalType":"uint256","name":"","type":"uint256"}],"name":"revenueEntries","outputs":[{"internalType":"string","name":"tiin","type":"string"},{"internalType":"uint256","name":"amount","type":"uint256"},{"internalType":"uint256","name":"timestamp","type":"uint256"},{"internalType":"address","name":"validator","type":"address"},{"internalType":"string","name":"taxReturnHash","type":"string"},{"internalType":"string","name":"fiscalYear","type":"string"}],"stateMutability":"view","type":"function"},{"inputs":[{"internalType":"address","name":"_account","type":"address"}],"name":"revokeAdmin","outputs":[],"stateMutability":"nonpayable","type":"function"},{"inputs":[],"name":"totalExpense","outputs":[{"internalType":"uint256","name":"","type":"uint256"}],"stateMutability":"view","type":"function"},{"inputs":[],"name":"totalRevenue","outputs":[{"internalType":"uint256","name":"","type":"uint256"}],"stateMutability":"view","type":"function"}],"evm":{"bytecode":{"linkReferences":{},"object":"60808060405234610039576000338152600b60205260408120600160ff1982541617905580805580600155600255612094908161003f8239f35b600080fdfe6080604052600436101561001257600080fd5b60003560e01c80630ce61d3714611541578063104cf39b1461148d57806324d7806c1461144e5780632d3456701461135c578063319ebeef1461125d57806335bb3e16146111c057806336a40dd91461118e57806338081f5e1461113b5780635b3ac7fb146110fb5780635be49992146110bc5780635c2ae8cb14610fc25780636c58fd57146109245780636e4e9468146108b0578063745735d5146108695780637aa5495a146107ec5780637d3b2be214610764578063a53c857e146106d0578063a54a75f014610691578063a8ab1aa3146105b1578063a9013e1814610513578063ab2f0e51146104f5578063ac520f9114610457578063bf2d9e0b14610439578063e3b63b0714610326578063e7cd1f8f146102ce578063ed0c46c3146102b05763ef6c0b621461014557600080fd5b346102ab576101533661174b565b939290919333600052600a60205261017260ff60406000205416611aa4565b61017d821515611af0565b61018b600254831115611b3c565b61019784511515611b96565b6001600160a01b038516906101ea906101b1831515611be2565b604051906101be826115ea565b86825284602083015242604083015283606083015285608083015260a0820152600060c0820152611c2e565b6004546000198101908111610295577f0b4d8a815a5acb0a0656977527f17dad6afe7e1167c3b2eafc696232342a9b3994610260826102909461024e61028395604051602081885161023f8183858d0161167c565b81016006815203019020611a14565b60005260086020526040600020611a14565b61026c84600154611a49565b60015561027b84600254611a07565b600255611a56565b9460405193849384611a76565b0390a2005b634e487b7160e01b600052601160045260246000fd5b600080fd5b346102ab5760003660031901126102ab576020600154604051908152f35b346102ab5760403660031901126102ab576102e761158b565b6001600160a01b03166000908152600760205260409020805460243591908210156102ab57602091610318916115a1565b90546040519160031b1c8152f35b346102ab5760203660031901126102ab576004356004548110156103ea5761034d906118d9565b5060405161035a816115ea565b61036382611833565b81526103e6600183015491602081019283526002840154936040820194855260018060a01b038060038301541690606084019182526103a460048401611833565b906080850191825260ff60066103bc60058701611833565b958660a08901520154161515948560c0820152519651975192511690519160405197889788611914565b0390f35b60405162461bcd60e51b815260206004820152602160248201527f457870656e736520656e74727920696e646578206f7574206f6620626f756e646044820152607360f81b6064820152608490fd5b346102ab5760003660031901126102ab576020600054604051908152f35b346102ab5760203660031901126102ab5761047061158b565b33600052600b60205261048a60ff604060002054166119b0565b60018060a01b03168060005260096020526040600020600160ff198254161790557f282392bddd0aaa0b50d2c25268a4cb6c4fb4fb6ada94caee6b633a87df7fbc43606060405160208152600d60208201526c3932bb32b73ab2afb0b23232b960991b6040820152a2005b346102ab5760003660031901126102ab576020600254604051908152f35b346102ab5760203660031901126102ab5761052c61158b565b33600052600b60205261054660ff604060002054166119b0565b60018060a01b031680600052600a6020526040600020600160ff198254161790557f282392bddd0aaa0b50d2c25268a4cb6c4fb4fb6ada94caee6b633a87df7fbc43606060405160208152600d60208201526c32bc3832b739b2afb0b23232b960991b6040820152a2005b346102ab576020806003193601126102ab576004356001600160401b0381116102ab57816105e66105f9923690600401611626565b816040519382858094519384920161167c565b81016005815203019020604051808284829454938481520190600052846000209260005b8682821061067b578461063281860382611605565b600090815b81518310156106715761066561066b91600161065c610656878761204a565b516117be565b50015490611a49565b9261203b565b91610637565b8390604051908152f35b855484526001958601958795509301920161061d565b346102ab5760203660031901126102ab576001600160a01b036106b261158b565b166000526009602052602060ff604060002054166040519015158152f35b346102ab576020806003193601126102ab576004356001600160401b0381116102ab57816105e6610705923690600401611626565b8101600581520301902090604051908181845491828152019360005281600020916000905b82821061074d576103e68561074181890382611605565b60405191829182611975565b83548652948501946001938401939091019061072a565b346102ab576020806003193601126102ab576004356001600160401b0381116102ab57816105e6610799923690600401611626565b8101600681520301902090604051908181845491828152019360005281600020916000905b8282106107d5576103e68561074181890382611605565b8354865294850194600193840193909101906107be565b346102ab5760203660031901126102ab576004356004548110156102ab57610813906118d9565b5061081d81611833565b60018201546002830154600384015491936103e6926001600160a01b031661084760048301611833565b9060ff600661085860058601611833565b940154169360405197889788611914565b346102ab57602061089161087c3661171a565b9290816040519382858094519384920161167c565b8101600581520301902080548210156102ab57602091610318916115a1565b346102ab5760203660031901126102ab576004356003548110156102ab576108d7906117be565b506108e181611833565b60018201546002830154600384015491936103e6926001600160a01b0316610917600561091060048501611833565b9301611833565b92604051968796876116c4565b346102ab5760a03660031901126102ab576004356001600160401b0381116102ab57610954903690600401611626565b6044356001600160401b0381116102ab57610973903690600401611626565b906064356001600160a01b03811690036102ab576084356001600160401b0381116102ab576109a6903690600401611626565b33600052600960205260ff6040600020541615610f7d5760243515610f3857815115610efc576064356001600160a01b031615610eb757604051906109ea826115cf565b82825260243560208301524260408301526064356001600160a01b03166060830152608082015260a08101839052600354600160401b811015610d0157806001610a3792016003556117be565b919091610ea15780518051906001600160401b038211610d01578190610a5d85546117f9565b601f8111610e51575b50602090601f8311600114610de557600092610dda575b50508160011b916000199060031b1c19161782555b60208101516001830155604081015160028301556003820160018060a01b036060830151166bffffffffffffffffffffffff60a01b82541617905560808101518051906001600160401b038211610d0157610af060048501546117f9565b601f8111610d93575b50602090601f8311600114610d225760a093929160009183610d17575b50508160011b916000199060031b1c19161760048401555b01518051906001600160401b038211610d0157610b4e60058401546117f9565b601f8111610cba575b50602090601f8311600114610c4c576005929160009183610c41575b50508160011b916000199060031b1c1916179101555b60035460001981019190821161029557610c2d61029091610c0e84610bef7fb431e7d1e7812a9fa9ea9e5119de1674de30523264b7faf49a0218087c9993589660405160208181610be08d8381519384920161167c565b81016005815203019020611a14565b6064356001600160a01b03166000908152600760205260409020611a14565b610c1c602435600054611a49565b60005561027b602435600254611a49565b926040519182916064359060243584611a76565b015190508680610b73565b90601f198316916005850160005260206000209260005b818110610ca257509160019391856005969410610c89575b505050811b01910155610b89565b015160001960f88460031b161c19169055868080610c7b565b92936020600181928786015181550195019301610c63565b600584016000526020600020601f840160051c810160208510610cfa575b601f830160051c82018110610cee575050610b57565b60008155600101610cd8565b5080610cd8565b634e487b7160e01b600052604160045260246000fd5b015190508780610b16565b90601f198316916004860160005260206000209260005b818110610d7b575091600193918560a097969410610d62575b505050811b016004840155610b2e565b015160001960f88460031b161c19169055878080610d52565b92936020600181928786015181550195019301610d39565b600485016000526020600020601f840160051c810160208510610dd3575b601f830160051c82018110610dc7575050610af9565b60008155600101610db1565b5080610db1565b015190508680610a7d565b9250846000526020600020906000935b601f1984168510610e36576001945083601f19811610610e1d575b505050811b018255610a92565b015160001960f88460031b161c19169055868080610e10565b81810151835560209485019460019093019290910190610df5565b909150846000526020600020601f840160051c810160208510610e9a575b90849392915b601f830160051c82018110610e8b575050610a66565b60008155859450600101610e75565b5080610e6f565b634e487b7160e01b600052600060045260246000fd5b60405162461bcd60e51b815260206004820152601960248201527f496e76616c69642076616c696461746f722061646472657373000000000000006044820152606490fd5b60405162461bcd60e51b81526020600482015260146024820152735449494e2063616e6e6f7420626520656d70747960601b6044820152606490fd5b60405162461bcd60e51b815260206004820152601f60248201527f526576656e756520616d6f756e74206d75737420626520706f736974697665006044820152606490fd5b60405162461bcd60e51b815260206004820152601d60248201527f4e6f7420617574686f72697a656420746f2061646420726576656e75650000006044820152606490fd5b346102ab57610fd03661174b565b939290919333600052600a602052610fef60ff60406000205416611aa4565b610ffa821515611af0565b611008600254831115611b3c565b61101484511515611b96565b6001600160a01b038516906110679061102e831515611be2565b6040519061103b826115ea565b86825284602083015242604083015283606083015285608083015260a0820152600160c0820152611c2e565b6004546000198101908111610295577f5db0aaaa26f045d738f5039487285e4b08fa1d234a59ec17a88cf490b73a464894610260826102909461024e61028395604051602081885161023f8183858d0161167c565b346102ab5760203660031901126102ab576001600160a01b036110dd61158b565b16600052600a602052602060ff604060002054166040519015158152f35b346102ab5760003660031901126102ab5760a060005460015460025460035490600454926040519485526020850152604084015260608301526080820152f35b346102ab5760403660031901126102ab576024356001600160401b0381116102ab5761116b903690600401611626565b5033600052600b60205261118660ff604060002054166119b0565b600435600255005b346102ab5760206111a161087c3661171a565b8101600681520301902080548210156102ab57602091610318916115a1565b346102ab5760203660031901126102ab576111d961158b565b33600052600b6020526111f360ff604060002054166119b0565b60018060a01b031680600052600b6020526040600020600160ff198254161790557f282392bddd0aaa0b50d2c25268a4cb6c4fb4fb6ada94caee6b633a87df7fbc43604051806102908160609060208152600560208201526430b236b4b760d91b60408201520190565b346102ab5760203660031901126102ab5760043560035481101561130d57611284906117be565b50604051611291816115cf565b61129a82611833565b81526103e6600183015491602081019283526002840154936040820194855260018060a01b03908160038201541691606084019283526112ef60056112e160048501611833565b936080870194855201611833565b938460a08201525195519651925116905191604051968796876116c4565b60405162461bcd60e51b815260206004820152602160248201527f526576656e756520656e74727920696e646578206f7574206f6620626f756e646044820152607360f81b6064820152608490fd5b346102ab5760203660031901126102ab5761137561158b565b33600052600b60205261138f60ff604060002054166119b0565b6001600160a01b03163381146113fe5780600052600b602052604060002060ff1981541690557f0814e4ee85854cea446b4a27a460e5ffb41516230dbc02f226c07907e432241c604051806102908160609060208152600560208201526430b236b4b760d91b60408201520190565b60405162461bcd60e51b815260206004820152602260248201527f43616e6e6f74207265766f6b65206f776e2061646d696e2070726976696c6567604482015261657360f01b6064820152608490fd5b346102ab5760203660031901126102ab576001600160a01b0361146f61158b565b16600052600b602052602060ff604060002054166040519015158152f35b346102ab576020806003193601126102ab576004356001600160401b0381116102ab57816105e66114c2923690600401611626565b81016006815203019020604051808284829454938481520190600052846000209260005b8682821061152b57846114fb81860382611605565b600090815b81518310156106715761066561152591600161065c61151f878761204a565b516118d9565b91611500565b85548452600195860195879550930192016114e6565b346102ab5760403660031901126102ab5761155a61158b565b6001600160a01b03166000908152600860205260409020805460243591908210156102ab57602091610318916115a1565b600435906001600160a01b03821682036102ab57565b80548210156115b95760005260206000200190600090565b634e487b7160e01b600052603260045260246000fd5b60c081019081106001600160401b03821117610d0157604052565b60e081019081106001600160401b03821117610d0157604052565b90601f801991011681019081106001600160401b03821117610d0157604052565b81601f820112156102ab578035906001600160401b038211610d01576040519261165a601f8401601f191660200185611605565b828452602083830101116102ab57816000926020809301838601378301015290565b60005b83811061168f5750506000910152565b818101518382015260200161167f565b906020916116b88151809281855285808601910161167c565b601f01601f1916010190565b949093611709936116e1611717989660c0895260c089019061169f565b602088019490945260408701526001600160a01b03166060860152848203608086015261169f565b9160a081840391015261169f565b90565b60406003198201126102ab57600435906001600160401b0382116102ab5761174491600401611626565b9060243590565b9060a06003198301126102ab576001600160401b036004358181116102ab578361177791600401611626565b92602435926044356001600160a01b03811681036102ab57926064358181116102ab57836117a791600401611626565b926084359182116102ab5761171791600401611626565b6003548110156115b9576006906003600052027fc2575a0e9e593c00f959f8c92f12db2869c3395a3b0502d05e2516446f71f85b0190600090565b90600182811c92168015611829575b602083101461181357565b634e487b7160e01b600052602260045260246000fd5b91607f1691611808565b9060405191826000825492611847846117f9565b9081845260019485811690816000146118b65750600114611873575b505061187192500383611605565b565b9093915060005260209081600020936000915b81831061189e57505061187193508201013880611863565b85548884018501529485019487945091830191611886565b91505061187194506020925060ff191682840152151560051b8201013880611863565b6004548110156115b9576007906004600052027f8a35acfbc15ff81a39ae7d344fd709f28e8600b4aa8c65c6b64bfe7fe36bd19b0190600090565b95929461196d9460c09661193761195f95949b9a9b60e08b5260e08b019061169f565b60208a019490945260408901526001600160a01b03166060880152868203608088015261169f565b9084820360a086015261169f565b931515910152565b6020908160408183019282815285518094520193019160005b82811061199c575050505090565b83518552938101939281019260010161198e565b156119b757565b60405162461bcd60e51b815260206004820152602260248201527f4f6e6c792061646d696e2063616e20706572666f726d2074686973206163746960448201526137b760f11b6064820152608490fd5b9190820391821161029557565b8054600160401b811015610d0157611a31916001820181556115a1565b819291549060031b91821b91600019901b1916179055565b9190820180921161029557565b611a6e9060206040519282848094519384920161167c565b810103902090565b91611a9490604092959495845260606020850152606084019061169f565b6001600160a01b03909416910152565b15611aab57565b60405162461bcd60e51b815260206004820152601d60248201527f4e6f7420617574686f72697a656420746f2061646420657870656e73650000006044820152606490fd5b15611af757565b60405162461bcd60e51b815260206004820152601f60248201527f457870656e736520616d6f756e74206d75737420626520706f736974697665006044820152606490fd5b15611b4357565b60405162461bcd60e51b815260206004820152602560248201527f496e73756666696369656e742062616c616e636520666f72207468697320657860448201526470656e736560d81b6064820152608490fd5b15611b9d57565b60405162461bcd60e51b815260206004820152601e60248201527f50726f637572656d656e742049442063616e6e6f7420626520656d70747900006044820152606490fd5b15611be957565b60405162461bcd60e51b815260206004820152601c60248201527f496e76616c69642042505041206f6666696365722061646472657373000000006044820152606490fd5b6004805490600160401b821015611e6557611c4f60019283810183556118d9565b929092612027578351908151916001600160401b03928381116120125780611c7787546117f9565b92601f93848111611fbe575b50602090848311600114611f5b57600092611f50575b5050600019600383901b1c191690831b1785555b602086015182860155604086015160028601556003850160018060a01b036060880151166bffffffffffffffffffffffff60a01b8254161790558385016080870151805190858211611f3b578190611d0584546117f9565b858111611ee8575b50602090858311600114611e8557600092611e7a575b5050600019600383901b1c191690841b1790555b600585019360a0870151908151948511611e655750611d5685546117f9565b828111611e1d575b506020918411600114611db057928060069593819360c09896600094611da5575b50501b916000199060031b1c19161790555b01910151151560ff80198354169116179055565b015192503880611d7f565b90601f9392931983169185600052816000209260005b818110611e0757509160c09795939185600698969410611dee575b505050811b019055611d91565b015160001960f88460031b161c19169055388080611de1565b8284015185559386019360209384019301611dc6565b8560005260206000208380870160051c82019260208810611e5c575b0160051c019084905b828110611e50575050611d5e565b60008155018490611e42565b92508192611e39565b604190634e487b7160e01b6000525260246000fd5b015190503880611d23565b90869350601f1983169185600052816000209260005b818110611ed057508411611eb7575b505050811b019055611d37565b015160001960f88460031b161c19169055388080611eaa565b82840151855589969094019360209384019301611e9b565b9091508360005260206000208580850160051c82019260208610611f32575b918891869594930160051c01915b828110611f23575050611d0d565b60008155859450889101611f15565b92508192611f07565b604187634e487b7160e01b6000525260246000fd5b015190503880611c99565b90859350601f1983169189600052816000209260005b818110611fa657508411611f8d575b505050811b018555611cad565b015160001960f88460031b161c19169055388080611f80565b82840151855588969094019360209384019301611f71565b9091506000888152602081208580860160051c82019360208710612009575b91889187969594930160051c01925b838110611ffb57505050611c83565b828155869550889101611fec565b93508193611fdd565b604185634e487b7160e01b6000525260246000fd5b600082634e487b7160e01b82525260246000fd5b60001981146102955760010190565b80518210156115b95760209160051b01019056fea264697066735822122016b1add96cab3d18e96095ed27da96e7ce6c2ad5cd17fe9d9ff2ce227ce5bdc664736f6c63430008130033","opcodes":"PUSH1 0x80 DUP1 PUSH1 0x40 MSTORE CALLVALUE PUSH2 0x39 JUMPI PUSH1 0x0 CALLER DUP2 MSTORE PUSH1 0xB PUSH1 0x20 MSTORE PUSH1 0x40 DUP2 KECCAK256 PUSH1 0x1 PUSH1 0xFF NOT DUP3 SLOAD AND OR SWAP1 SSTORE DUP1 DUP1 SSTORE DUP1 PUSH1 0x1 SSTORE PUSH1 0x2 SSTORE PUSH2 0x2094 SWAP1 DUP2 PUSH2 0x3F DUP3 CODECOPY RETURN JUMPDEST PUSH1 0x0 DUP1 REVERT INVALID PUSH1 0x80 PUSH1 0x40 MSTORE PUSH1 0x4 CALLDATASIZE LT ISZERO PUSH2 0x12 JUMPI PUSH1 0x0 DUP1 REVERT JUMPDEST PUSH1 0x0 CALLDATALOAD PUSH1 0xE0 SHR DUP1 PUSH4 0xCE61D37 EQ PUSH2 0x1541 JUMPI DUP1 PUSH4 0x104CF39B EQ PUSH2 0x148D JUMPI DUP1 PUSH4 0x24D7806C EQ PUSH2 0x144E JUMPI DUP1 PUSH4 0x2D345670 EQ PUSH2 0x135C JUMPI DUP1 PUSH4 0x319EBEEF EQ PUSH2 0x125D JUMPI DUP1 PUSH4 0x35BB3E16 EQ PUSH2 0x11C0 JUMPI DUP1 PUSH4 0x36A40DD9 EQ PUSH2 0x118E JUMPI DUP1 PUSH4 0x38081F5E EQ PUSH2 0x113B JUMPI DUP1 PUSH4 0x5B3AC7FB EQ PUSH2 0x10FB JUMPI DUP1 PUSH4 0x5BE49992 EQ PUSH2 0x10BC JUMPI DUP1 PUSH4 0x5C2AE8CB EQ PUSH2 0xFC2 JUMPI DUP1 PUSH4 0x6C58FD57 EQ PUSH2 0x924 JUMPI DUP1 PUSH4 0x6E4E9468 EQ PUSH2 0x8B0 JUMPI DUP1 PUSH4 0x745735D5 EQ PUSH2 0x869 JUMPI DUP1 PUSH4 0x7AA5495A EQ PUSH2 0x7EC JUMPI DUP1 PUSH4 0x7D3B2BE2 EQ PUSH2 0x764 JUMPI DUP1 PUSH4 0xA53C857E EQ PUSH2 0x6D0 JUMPI DUP1 PUSH4 0xA54A75F0 EQ PUSH2 0x691 JUMPI DUP1 PUSH4 0xA8AB1AA3 EQ PUSH2 0x5B1 JUMPI DUP1 PUSH4 0xA9013E18 EQ PUSH2 0x513 JUMPI DUP1 PUSH4 0xAB2F0E51 EQ PUSH2 0x4F5 JUMPI DUP1 PUSH4 0xAC520F91 EQ PUSH2 0x457 JUMPI DUP1 PUSH4 0xBF2D9E0B EQ PUSH2 0x439 JUMPI DUP1 PUSH4 0xE3B63B07 EQ PUSH2 0x326 JUMPI DUP1 PUSH4 0xE7CD1F8F EQ PUSH2 0x2CE JUMPI DUP1 PUSH4 0xED0C46C3 EQ PUSH2 0x2B0 JUMPI PUSH4 0xEF6C0B62 EQ PUSH2 0x145 JUMPI PUSH1 0x0 DUP1 REVERT JUMPDEST CALLVALUE PUSH2 0x2AB JUMPI PUSH2 0x153 CALLDATASIZE PUSH2 0x174B JUMP JUMPDEST SWAP4 SWAP3 SWAP1 SWAP2 SWAP4 CALLER PUSH1 0x0 MSTORE PUSH1 0xA PUSH1 0x20 MSTORE PUSH2 0x172 PUSH1 0xFF PUSH1 0x40 PUSH1 0x0 KECCAK256 SLOAD AND PUSH2 0x1AA4 JUMP JUMPDEST PUSH2 0x17D DUP3 ISZERO ISZERO PUSH2 0x1AF0 JUMP JUMPDEST PUSH2 0x18B PUSH1 0x2 SLOAD DUP4 GT ISZERO PUSH2 0x1B3C JUMP JUMPDEST PUSH2 0x197 DUP5 MLOAD ISZERO ISZERO PUSH2 0x1B96 JUMP JUMPDEST PUSH1 0x1 PUSH1 0x1 PUSH1 0xA0 SHL SUB DUP6 AND SWAP1 PUSH2 0x1EA SWAP1 PUSH2 0x1B1 DUP4 ISZERO ISZERO PUSH2 0x1BE2 JUMP JUMPDEST PUSH1 0x40 MLOAD SWAP1 PUSH2 0x1BE DUP3 PUSH2 0x15EA JUMP JUMPDEST DUP7 DUP3 MSTORE DUP5 PUSH1 0x20 DUP4 ADD MSTORE TIMESTAMP PUSH1 0x40 DUP4 ADD MSTORE DUP4 PUSH1 0x60 DUP4 ADD MSTORE DUP6 PUSH1 0x80 DUP4 ADD MSTORE PUSH1 0xA0 DUP3 ADD MSTORE PUSH1 0x0 PUSH1 0xC0 DUP3 ADD MSTORE PUSH2 0x1C2E JUMP JUMPDEST PUSH1 0x4 SLOAD PUSH1 0x0 NOT DUP2 ADD SWAP1 DUP2 GT PUSH2 0x295 JUMPI PUSH32 0xB4D8A815A5ACB0A0656977527F17DAD6AFE7E1167C3B2EAFC696232342A9B39 SWAP5 PUSH2 0x260 DUP3 PUSH2 0x290 SWAP5 PUSH2 0x24E PUSH2 0x283 SWAP6 PUSH1 0x40 MLOAD PUSH1 0x20 DUP2 DUP9 MLOAD PUSH2 0x23F DUP2 DUP4 DUP6 DUP14 ADD PUSH2 0x167C JUMP JUMPDEST DUP2 ADD PUSH1 0x6 DUP2 MSTORE SUB ADD SWAP1 KECCAK256 PUSH2 0x1A14 JUMP JUMPDEST PUSH1 0x0 MSTORE PUSH1 0x8 PUSH1 0x20 MSTORE PUSH1 0x40 PUSH1 0x0 KECCAK256 PUSH2 0x1A14 JUMP JUMPDEST PUSH2 0x26C DUP5 PUSH1 0x1 SLOAD PUSH2 0x1A49 JUMP JUMPDEST PUSH1 0x1 SSTORE PUSH2 0x27B DUP5 PUSH1 0x2 SLOAD PUSH2 0x1A07 JUMP JUMPDEST PUSH1 0x2 SSTORE PUSH2 0x1A56 JUMP JUMPDEST SWAP5 PUSH1 0x40 MLOAD SWAP4 DUP5 SWAP4 DUP5 PUSH2 0x1A76 JUMP JUMPDEST SUB SWAP1 LOG2 STOP JUMPDEST PUSH4 0x4E487B71 PUSH1 0xE0 SHL PUSH1 0x0 MSTORE PUSH1 0x11 PUSH1 0x4 MSTORE PUSH1 0x24 PUSH1 0x0 REVERT JUMPDEST PUSH1 0x0 DUP1 REVERT JUMPDEST CALLVALUE PUSH2 0x2AB JUMPI PUSH1 0x0 CALLDATASIZE PUSH1 0x3 NOT ADD SLT PUSH2 0x2AB JUMPI PUSH1 0x20 PUSH1 0x1 SLOAD PUSH1 0x40 MLOAD SWAP1 DUP2 MSTORE RETURN JUMPDEST CALLVALUE PUSH2 0x2AB JUMPI PUSH1 0x40 CALLDATASIZE PUSH1 0x3 NOT ADD SLT PUSH2 0x2AB JUMPI PUSH2 0x2E7 PUSH2 0x158B JUMP JUMPDEST PUSH1 0x1 PUSH1 0x1 PUSH1 0xA0 SHL SUB AND PUSH1 0x0 SWAP1 DUP2 MSTORE PUSH1 0x7 PUSH1 0x20 MSTORE PUSH1 0x40 SWAP1 KECCAK256 DUP1 SLOAD PUSH1 0x24 CALLDATALOAD SWAP2 SWAP1 DUP3 LT ISZERO PUSH2 0x2AB JUMPI PUSH1 0x20 SWAP2 PUSH2 0x318 SWAP2 PUSH2 0x15A1 JUMP JUMPDEST SWAP1 SLOAD PUSH1 0x40 MLOAD SWAP2 PUSH1 0x3 SHL SHR DUP2 MSTORE RETURN JUMPDEST CALLVALUE PUSH2 0x2AB JUMPI PUSH1 0x20 CALLDATASIZE PUSH1 0x3 NOT ADD SLT PUSH2 0x2AB JUMPI PUSH1 0x4 CALLDATALOAD PUSH1 0x4 SLOAD DUP2 LT ISZERO PUSH2 0x3EA JUMPI PUSH2 0x34D SWAP1 PUSH2 0x18D9 JUMP JUMPDEST POP PUSH1 0x40 MLOAD PUSH2 0x35A DUP2 PUSH2 0x15EA JUMP JUMPDEST PUSH2 0x363 DUP3 PUSH2 0x1833 JUMP JUMPDEST DUP2 MSTORE PUSH2 0x3E6 PUSH1 0x1 DUP4 ADD SLOAD SWAP2 PUSH1 0x20 DUP2 ADD SWAP3 DUP4 MSTORE PUSH1 0x2 DUP5 ADD SLOAD SWAP4 PUSH1 0x40 DUP3 ADD SWAP5 DUP6 MSTORE PUSH1 0x1 DUP1 PUSH1 0xA0 SHL SUB DUP1 PUSH1 0x3 DUP4 ADD SLOAD AND SWAP1 PUSH1 0x60 DUP5 ADD SWAP2 DUP3 MSTORE PUSH2 0x3A4 PUSH1 0x4 DUP5 ADD PUSH2 0x1833 JUMP JUMPDEST SWAP1 PUSH1 0x80 DUP6 ADD SWAP2 DUP3 MSTORE PUSH1 0xFF PUSH1 0x6 PUSH2 0x3BC PUSH1 0x5 DUP8 ADD PUSH2 0x1833 JUMP JUMPDEST SWAP6 DUP7 PUSH1 0xA0 DUP10 ADD MSTORE ADD SLOAD AND ISZERO ISZERO SWAP5 DUP6 PUSH1 0xC0 DUP3 ADD MSTORE MLOAD SWAP7 MLOAD SWAP8 MLOAD SWAP3 MLOAD AND SWAP1 MLOAD SWAP2 PUSH1 0x40 MLOAD SWAP8 DUP9 SWAP8 DUP9 PUSH2 0x1914 JUMP JUMPDEST SUB SWAP1 RETURN JUMPDEST PUSH1 0x40 MLOAD PUSH3 0x461BCD PUSH1 0xE5 SHL DUP2 MSTORE PUSH1 0x20 PUSH1 0x4 DUP3 ADD MSTORE PUSH1 0x21 PUSH1 0x24 DUP3 ADD MSTORE PUSH32 0x457870656E736520656E74727920696E646578206F7574206F6620626F756E64 PUSH1 0x44 DUP3 ADD MSTORE PUSH1 0x73 PUSH1 0xF8 SHL PUSH1 0x64 DUP3 ADD MSTORE PUSH1 0x84 SWAP1 REVERT JUMPDEST CALLVALUE PUSH2 0x2AB JUMPI PUSH1 0x0 CALLDATASIZE PUSH1 0x3 NOT ADD SLT PUSH2 0x2AB JUMPI PUSH1 0x20 PUSH1 0x0 SLOAD PUSH1 0x40 MLOAD SWAP1 DUP2 MSTORE RETURN JUMPDEST CALLVALUE PUSH2 0x2AB JUMPI PUSH1 0x20 CALLDATASIZE PUSH1 0x3 NOT ADD SLT PUSH2 0x2AB JUMPI PUSH2 0x470 PUSH2 0x158B JUMP JUMPDEST CALLER PUSH1 0x0 MSTORE PUSH1 0xB PUSH1 0x20 MSTORE PUSH2 0x48A PUSH1 0xFF PUSH1 0x40 PUSH1 0x0 KECCAK256 SLOAD AND PUSH2 0x19B0 JUMP JUMPDEST PUSH1 0x1 DUP1 PUSH1 0xA0 SHL SUB AND DUP1 PUSH1 0x0 MSTORE PUSH1 0x9 PUSH1 0x20 MSTORE PUSH1 0x40 PUSH1 0x0 KECCAK256 PUSH1 0x1 PUSH1 0xFF NOT DUP3 SLOAD AND OR SWAP1 SSTORE PUSH32 0x282392BDDD0AAA0B50D2C25268A4CB6C4FB4FB6ADA94CAEE6B633A87DF7FBC43 PUSH1 0x60 PUSH1 0x40 MLOAD PUSH1 0x20 DUP2 MSTORE PUSH1 0xD PUSH1 0x20 DUP3 ADD MSTORE PUSH13 0x3932BB32B73AB2AFB0B23232B9 PUSH1 0x99 SHL PUSH1 0x40 DUP3 ADD MSTORE LOG2 STOP JUMPDEST CALLVALUE PUSH2 0x2AB JUMPI PUSH1 0x0 CALLDATASIZE PUSH1 0x3 NOT ADD SLT PUSH2 0x2AB JUMPI PUSH1 0x20 PUSH1 0x2 SLOAD PUSH1 0x40 MLOAD SWAP1 DUP2 MSTORE RETURN JUMPDEST CALLVALUE PUSH2 0x2AB JUMPI PUSH1 0x20 CALLDATASIZE PUSH1 0x3 NOT ADD SLT PUSH2 0x2AB JUMPI PUSH2 0x52C PUSH2 0x158B JUMP JUMPDEST CALLER PUSH1 0x0 MSTORE PUSH1 0xB PUSH1 0x20 MSTORE PUSH2 0x546 PUSH1 0xFF PUSH1 0x40 PUSH1 0x0 KECCAK256 SLOAD AND PUSH2 0x19B0 JUMP JUMPDEST PUSH1 0x1 DUP1 PUSH1 0xA0 SHL SUB AND DUP1 PUSH1 0x0 MSTORE PUSH1 0xA PUSH1 0x20 MSTORE PUSH1 0x40 PUSH1 0x0 KECCAK256 PUSH1 0x1 PUSH1 0xFF NOT DUP3 SLOAD AND OR SWAP1 SSTORE PUSH32 0x282392BDDD0AAA0B50D2C25268A4CB6C4FB4FB6ADA94CAEE6B633A87DF7FBC43 PUSH1 0x60 PUSH1 0x40 MLOAD PUSH1 0x20 DUP2 MSTORE PUSH1 0xD PUSH1 0x20 DUP3 ADD MSTORE PUSH13 0x32BC3832B739B2AFB0B23232B9 PUSH1 0x99 SHL PUSH1 0x40 DUP3 ADD MSTORE LOG2 STOP JUMPDEST CALLVALUE PUSH2 0x2AB JUMPI PUSH1 0x20 DUP1 PUSH1 0x3 NOT CALLDATASIZE ADD SLT PUSH2 0x2AB JUMPI PUSH1 0x4 CALLDATALOAD PUSH1 0x1 PUSH1 0x1 PUSH1 0x40 SHL SUB DUP2 GT PUSH2 0x2AB JUMPI DUP2 PUSH2 0x5E6 PUSH2 0x5F9 SWAP3 CALLDATASIZE SWAP1 PUSH1 0x4 ADD PUSH2 0x1626 JUMP JUMPDEST DUP2 PUSH1 0x40 MLOAD SWAP4 DUP3 DUP6 DUP1 SWAP5 MLOAD SWAP4 DUP5 SWAP3 ADD PUSH2 0x167C JUMP JUMPDEST DUP2 ADD PUSH1 0x5 DUP2 MSTORE SUB ADD SWAP1 KECCAK256 PUSH1 0x40 MLOAD DUP1 DUP3 DUP5 DUP3 SWAP5 SLOAD SWAP4 DUP5 DUP2 MSTORE ADD SWAP1 PUSH1 0x0 MSTORE DUP5 PUSH1 0x0 KECCAK256 SWAP3 PUSH1 0x0 JUMPDEST DUP7 DUP3 DUP3 LT PUSH2 0x67B JUMPI DUP5 PUSH2 0x632 DUP2 DUP7 SUB DUP3 PUSH2 0x1605 JUMP JUMPDEST PUSH1 0x0 SWAP1 DUP2 JUMPDEST DUP2 MLOAD DUP4 LT ISZERO PUSH2 0x671 JUMPI PUSH2 0x665 PUSH2 0x66B SWAP2 PUSH1 0x1 PUSH2 0x65C PUSH2 0x656 DUP8 DUP8 PUSH2 0x204A JUMP JUMPDEST MLOAD PUSH2 0x17BE JUMP JUMPDEST POP ADD SLOAD SWAP1 PUSH2 0x1A49 JUMP JUMPDEST SWAP3 PUSH2 0x203B JUMP JUMPDEST SWAP2 PUSH2 0x637 JUMP JUMPDEST DUP4 SWAP1 PUSH1 0x40 MLOAD SWAP1 DUP2 MSTORE RETURN JUMPDEST DUP6 SLOAD DUP5 MSTORE PUSH1 0x1 SWAP6 DUP7 ADD SWAP6 DUP8 SWAP6 POP SWAP4 ADD SWAP3 ADD PUSH2 0x61D JUMP JUMPDEST CALLVALUE PUSH2 0x2AB JUMPI PUSH1 0x20 CALLDATASIZE PUSH1 0x3 NOT ADD SLT PUSH2 0x2AB JUMPI PUSH1 0x1 PUSH1 0x1 PUSH1 0xA0 SHL SUB PUSH2 0x6B2 PUSH2 0x158B JUMP JUMPDEST AND PUSH1 0x0 MSTORE PUSH1 0x9 PUSH1 0x20 MSTORE PUSH1 0x20 PUSH1 0xFF PUSH1 0x40 PUSH1 0x0 KECCAK256 SLOAD AND PUSH1 0x40 MLOAD SWAP1 ISZERO ISZERO DUP2 MSTORE RETURN JUMPDEST CALLVALUE PUSH2 0x2AB JUMPI PUSH1 0x20 DUP1 PUSH1 0x3 NOT CALLDATASIZE ADD SLT PUSH2 0x2AB JUMPI PUSH1 0x4 CALLDATALOAD PUSH1 0x1 PUSH1 0x1 PUSH1 0x40 SHL SUB DUP2 GT PUSH2 0x2AB JUMPI DUP2 PUSH2 0x5E6 PUSH2 0x705 SWAP3 CALLDATASIZE SWAP1 PUSH1 0x4 ADD PUSH2 0x1626 JUMP JUMPDEST DUP2 ADD PUSH1 0x5 DUP2 MSTORE SUB ADD SWAP1 KECCAK256 SWAP1 PUSH1 0x40 MLOAD SWAP1 DUP2 DUP2 DUP5 SLOAD SWAP2 DUP3 DUP2 MSTORE ADD SWAP4 PUSH1 0x0 MSTORE DUP2 PUSH1 0x0 KECCAK256 SWAP2 PUSH1 0x0 SWAP1 JUMPDEST DUP3 DUP3 LT PUSH2 0x74D JUMPI PUSH2 0x3E6 DUP6 PUSH2 0x741 DUP2 DUP10 SUB DUP3 PUSH2 0x1605 JUMP JUMPDEST PUSH1 0x40 MLOAD SWAP2 DUP3 SWAP2 DUP3 PUSH2 0x1975 JUMP JUMPDEST DUP4 SLOAD DUP7 MSTORE SWAP5 DUP6 ADD SWAP5 PUSH1 0x1 SWAP4 DUP5 ADD SWAP4 SWAP1 SWAP2 ADD SWAP1 PUSH2 0x72A JUMP JUMPDEST CALLVALUE PUSH2 0x2AB JUMPI PUSH1 0x20 DUP1 PUSH1 0x3 NOT CALLDATASIZE ADD SLT PUSH2 0x2AB JUMPI PUSH1 0x4 CALLDATALOAD PUSH1 0x1 PUSH1 0x1 PUSH1 0x40 SHL SUB DUP2 GT PUSH2 0x2AB JUMPI DUP2 PUSH2 0x5E6 PUSH2 0x799 SWAP3 CALLDATASIZE SWAP1 PUSH1 0x4 ADD PUSH2 0x1626 JUMP JUMPDEST DUP2 ADD PUSH1 0x6 DUP2 MSTORE SUB ADD SWAP1 KECCAK256 SWAP1 PUSH1 0x40 MLOAD SWAP1 DUP2 DUP2 DUP5 SLOAD SWAP2 DUP3 DUP2 MSTORE ADD SWAP4 PUSH1 0x0 MSTORE DUP2 PUSH1 0x0 KECCAK256 SWAP2 PUSH1 0x0 SWAP1 JUMPDEST DUP3 DUP3 LT PUSH2 0x7D5 JUMPI PUSH2 0x3E6 DUP6 PUSH2 0x741 DUP2 DUP10 SUB DUP3 PUSH2 0x1605 JUMP JUMPDEST DUP4 SLOAD DUP7 MSTORE SWAP5 DUP6 ADD SWAP5 PUSH1 0x1 SWAP4 DUP5 ADD SWAP4 SWAP1 SWAP2 ADD SWAP1 PUSH2 0x7BE JUMP JUMPDEST CALLVALUE PUSH2 0x2AB JUMPI PUSH1 0x20 CALLDATASIZE PUSH1 0x3 NOT ADD SLT PUSH2 0x2AB JUMPI PUSH1 0x4 CALLDATALOAD PUSH1 0x4 SLOAD DUP2 LT ISZERO PUSH2 0x2AB JUMPI PUSH2 0x813 SWAP1 PUSH2 0x18D9 JUMP JUMPDEST POP PUSH2 0x81D DUP2 PUSH2 0x1833 JUMP JUMPDEST PUSH1 0x1 DUP3 ADD SLOAD PUSH1 0x2 DUP4 ADD SLOAD PUSH1 0x3 DUP5 ADD SLOAD SWAP2 SWAP4 PUSH2 0x3E6 SWAP3 PUSH1 0x1 PUSH1 0x1 PUSH1 0xA0 SHL SUB AND PUSH2 0x847 PUSH1 0x4 DUP4 ADD PUSH2 0x1833 JUMP JUMPDEST SWAP1 PUSH1 0xFF PUSH1 0x6 PUSH2 0x858 PUSH1 0x5 DUP7 ADD PUSH2 0x1833 JUMP JUMPDEST SWAP5 ADD SLOAD AND SWAP4 PUSH1 0x40 MLOAD SWAP8 DUP9 SWAP8 DUP9 PUSH2 0x1914 JUMP JUMPDEST CALLVALUE PUSH2 0x2AB JUMPI PUSH1 0x20 PUSH2 0x891 PUSH2 0x87C CALLDATASIZE PUSH2 0x171A JUMP JUMPDEST SWAP3 SWAP1 DUP2 PUSH1 0x40 MLOAD SWAP4 DUP3 DUP6 DUP1 SWAP5 MLOAD SWAP4 DUP5 SWAP3 ADD PUSH2 0x167C JUMP JUMPDEST DUP2 ADD PUSH1 0x5 DUP2 MSTORE SUB ADD SWAP1 KECCAK256 DUP1 SLOAD DUP3 LT ISZERO PUSH2 0x2AB JUMPI PUSH1 0x20 SWAP2 PUSH2 0x318 SWAP2 PUSH2 0x15A1 JUMP JUMPDEST CALLVALUE PUSH2 0x2AB JUMPI PUSH1 0x20 CALLDATASIZE PUSH1 0x3 NOT ADD SLT PUSH2 0x2AB JUMPI PUSH1 0x4 CALLDATALOAD PUSH1 0x3 SLOAD DUP2 LT ISZERO PUSH2 0x2AB JUMPI PUSH2 0x8D7 SWAP1 PUSH2 0x17BE JUMP JUMPDEST POP PUSH2 0x8E1 DUP2 PUSH2 0x1833 JUMP JUMPDEST PUSH1 0x1 DUP3 ADD SLOAD PUSH1 0x2 DUP4 ADD SLOAD PUSH1 0x3 DUP5 ADD SLOAD SWAP2 SWAP4 PUSH2 0x3E6 SWAP3 PUSH1 0x1 PUSH1 0x1 PUSH1 0xA0 SHL SUB AND PUSH2 0x917 PUSH1 0x5 PUSH2 0x910 PUSH1 0x4 DUP6 ADD PUSH2 0x1833 JUMP JUMPDEST SWAP4 ADD PUSH2 0x1833 JUMP JUMPDEST SWAP3 PUSH1 0x40 MLOAD SWAP7 DUP8 SWAP7 DUP8 PUSH2 0x16C4 JUMP JUMPDEST CALLVALUE PUSH2 0x2AB JUMPI PUSH1 0xA0 CALLDATASIZE PUSH1 0x3 NOT ADD SLT PUSH2 0x2AB JUMPI PUSH1 0x4 CALLDATALOAD PUSH1 0x1 PUSH1 0x1 PUSH1 0x40 SHL SUB DUP2 GT PUSH2 0x2AB JUMPI PUSH2 0x954 SWAP1 CALLDATASIZE SWAP1 PUSH1 0x4 ADD PUSH2 0x1626 JUMP JUMPDEST PUSH1 0x44 CALLDATALOAD PUSH1 0x1 PUSH1 0x1 PUSH1 0x40 SHL SUB DUP2 GT PUSH2 0x2AB JUMPI PUSH2 0x973 SWAP1 CALLDATASIZE SWAP1 PUSH1 0x4 ADD PUSH2 0x1626 JUMP JUMPDEST SWAP1 PUSH1 0x64 CALLDATALOAD PUSH1 0x1 PUSH1 0x1 PUSH1 0xA0 SHL SUB DUP2 AND SWAP1 SUB PUSH2 0x2AB JUMPI PUSH1 0x84 CALLDATALOAD PUSH1 0x1 PUSH1 0x1 PUSH1 0x40 SHL SUB DUP2 GT PUSH2 0x2AB JUMPI PUSH2 0x9A6 SWAP1 CALLDATASIZE SWAP1 PUSH1 0x4 ADD PUSH2 0x1626 JUMP JUMPDEST CALLER PUSH1 0x0 MSTORE PUSH1 0x9 PUSH1 0x20 MSTORE PUSH1 0xFF PUSH1 0x40 PUSH1 0x0 KECCAK256 SLOAD AND ISZERO PUSH2 0xF7D JUMPI PUSH1 0x24 CALLDATALOAD ISZERO PUSH2 0xF38 JUMPI DUP2 MLOAD ISZERO PUSH2 0xEFC JUMPI PUSH1 0x64 CALLDATALOAD PUSH1 0x1 PUSH1 0x1 PUSH1 0xA0 SHL SUB AND ISZERO PUSH2 0xEB7 JUMPI PUSH1 0x40 MLOAD SWAP1 PUSH2 0x9EA DUP3 PUSH2 0x15CF JUMP JUMPDEST DUP3 DUP3 MSTORE PUSH1 0x24 CALLDATALOAD PUSH1 0x20 DUP4 ADD MSTORE TIMESTAMP PUSH1 0x40 DUP4 ADD MSTORE PUSH1 0x64 CALLDATALOAD PUSH1 0x1 PUSH1 0x1 PUSH1 0xA0 SHL SUB AND PUSH1 0x60 DUP4 ADD MSTORE PUSH1 0x80 DUP3 ADD MSTORE PUSH1 0xA0 DUP2 ADD DUP4 SWAP1 MSTORE PUSH1 0x3 SLOAD PUSH1 0x1 PUSH1 0x40 SHL DUP2 LT ISZERO PUSH2 0xD01 JUMPI DUP1 PUSH1 0x1 PUSH2 0xA37 SWAP3 ADD PUSH1 0x3 SSTORE PUSH2 0x17BE JUMP JUMPDEST SWAP2 SWAP1 SWAP2 PUSH2 0xEA1 JUMPI DUP1 MLOAD DUP1 MLOAD SWAP1 PUSH1 0x1 PUSH1 0x1 PUSH1 0x40 SHL SUB DUP3 GT PUSH2 0xD01 JUMPI DUP2 SWAP1 PUSH2 0xA5D DUP6 SLOAD PUSH2 0x17F9 JUMP JUMPDEST PUSH1 0x1F DUP2 GT PUSH2 0xE51 JUMPI JUMPDEST POP PUSH1 0x20 SWAP1 PUSH1 0x1F DUP4 GT PUSH1 0x1 EQ PUSH2 0xDE5 JUMPI PUSH1 0x0 SWAP3 PUSH2 0xDDA JUMPI JUMPDEST POP POP DUP2 PUSH1 0x1 SHL SWAP2 PUSH1 0x0 NOT SWAP1 PUSH1 0x3 SHL SHR NOT AND OR DUP3 SSTORE JUMPDEST PUSH1 0x20 DUP2 ADD MLOAD PUSH1 0x1 DUP4 ADD SSTORE PUSH1 0x40 DUP2 ADD MLOAD PUSH1 0x2 DUP4 ADD SSTORE PUSH1 0x3 DUP3 ADD PUSH1 0x1 DUP1 PUSH1 0xA0 SHL SUB PUSH1 0x60 DUP4 ADD MLOAD AND PUSH12 0xFFFFFFFFFFFFFFFFFFFFFFFF PUSH1 0xA0 SHL DUP3 SLOAD AND OR SWAP1 SSTORE PUSH1 0x80 DUP2 ADD MLOAD DUP1 MLOAD SWAP1 PUSH1 0x1 PUSH1 0x1 PUSH1 0x40 SHL SUB DUP3 GT PUSH2 0xD01 JUMPI PUSH2 0xAF0 PUSH1 0x4 DUP6 ADD SLOAD PUSH2 0x17F9 JUMP JUMPDEST PUSH1 0x1F DUP2 GT PUSH2 0xD93 JUMPI JUMPDEST POP PUSH1 0x20 SWAP1 PUSH1 0x1F DUP4 GT PUSH1 0x1 EQ PUSH2 0xD22 JUMPI PUSH1 0xA0 SWAP4 SWAP3 SWAP2 PUSH1 0x0 SWAP2 DUP4 PUSH2 0xD17 JUMPI JUMPDEST POP POP DUP2 PUSH1 0x1 SHL SWAP2 PUSH1 0x0 NOT SWAP1 PUSH1 0x3 SHL SHR NOT AND OR PUSH1 0x4 DUP5 ADD SSTORE JUMPDEST ADD MLOAD DUP1 MLOAD SWAP1 PUSH1 0x1 PUSH1 0x1 PUSH1 0x40 SHL SUB DUP3 GT PUSH2 0xD01 JUMPI PUSH2 0xB4E PUSH1 0x5 DUP5 ADD SLOAD PUSH2 0x17F9 JUMP JUMPDEST PUSH1 0x1F DUP2 GT PUSH2 0xCBA JUMPI JUMPDEST POP PUSH1 0x20 SWAP1 PUSH1 0x1F DUP4 GT PUSH1 0x1 EQ PUSH2 0xC4C JUMPI PUSH1 0x5 SWAP3 SWAP2 PUSH1 0x0 SWAP2 DUP4 PUSH2 0xC41 JUMPI JUMPDEST POP POP DUP2 PUSH1 0x1 SHL SWAP2 PUSH1 0x0 NOT SWAP1 PUSH1 0x3 SHL SHR NOT AND OR SWAP2 ADD SSTORE JUMPDEST PUSH1 0x3 SLOAD PUSH1 0x0 NOT DUP2 ADD SWAP2 SWAP1 DUP3 GT PUSH2 0x295 JUMPI PUSH2 0xC2D PUSH2 0x290 SWAP2 PUSH2 0xC0E DUP5 PUSH2 0xBEF PUSH32 0xB431E7D1E7812A9FA9EA9E5119DE1674DE30523264B7FAF49A0218087C999358 SWAP7 PUSH1 0x40 MLOAD PUSH1 0x20 DUP2 DUP2 PUSH2 0xBE0 DUP14 DUP4 DUP2 MLOAD SWAP4 DUP5 SWAP3 ADD PUSH2 0x167C JUMP JUMPDEST DUP2 ADD PUSH1 0x5 DUP2 MSTORE SUB ADD SWAP1 KECCAK256 PUSH2 0x1A14 JUMP JUMPDEST PUSH1 0x64 CALLDATALOAD PUSH1 0x1 PUSH1 0x1 PUSH1 0xA0 SHL SUB AND PUSH1 0x0 SWAP1 DUP2 MSTORE PUSH1 0x7 PUSH1 0x20 MSTORE PUSH1 0x40 SWAP1 KECCAK256 PUSH2 0x1A14 JUMP JUMPDEST PUSH2 0xC1C PUSH1 0x24 CALLDATALOAD PUSH1 0x0 SLOAD PUSH2 0x1A49 JUMP JUMPDEST PUSH1 0x0 SSTORE PUSH2 0x27B PUSH1 0x24 CALLDATALOAD PUSH1 0x2 SLOAD PUSH2 0x1A49 JUMP JUMPDEST SWAP3 PUSH1 0x40 MLOAD SWAP2 DUP3 SWAP2 PUSH1 0x64 CALLDATALOAD SWAP1 PUSH1 0x24 CALLDATALOAD DUP5 PUSH2 0x1A76 JUMP JUMPDEST ADD MLOAD SWAP1 POP DUP7 DUP1 PUSH2 0xB73 JUMP JUMPDEST SWAP1 PUSH1 0x1F NOT DUP4 AND SWAP2 PUSH1 0x5 DUP6 ADD PUSH1 0x0 MSTORE PUSH1 0x20 PUSH1 0x0 KECCAK256 SWAP3 PUSH1 0x0 JUMPDEST DUP2 DUP2 LT PUSH2 0xCA2 JUMPI POP SWAP2 PUSH1 0x1 SWAP4 SWAP2 DUP6 PUSH1 0x5 SWAP7 SWAP5 LT PUSH2 0xC89 JUMPI JUMPDEST POP POP POP DUP2 SHL ADD SWAP2 ADD SSTORE PUSH2 0xB89 JUMP JUMPDEST ADD MLOAD PUSH1 0x0 NOT PUSH1 0xF8 DUP5 PUSH1 0x3 SHL AND SHR NOT AND SWAP1 SSTORE DUP7 DUP1 DUP1 PUSH2 0xC7B JUMP JUMPDEST SWAP3 SWAP4 PUSH1 0x20 PUSH1 0x1 DUP2 SWAP3 DUP8 DUP7 ADD MLOAD DUP2 SSTORE ADD SWAP6 ADD SWAP4 ADD PUSH2 0xC63 JUMP JUMPDEST PUSH1 0x5 DUP5 ADD PUSH1 0x0 MSTORE PUSH1 0x20 PUSH1 0x0 KECCAK256 PUSH1 0x1F DUP5 ADD PUSH1 0x5 SHR DUP2 ADD PUSH1 0x20 DUP6 LT PUSH2 0xCFA JUMPI JUMPDEST PUSH1 0x1F DUP4 ADD PUSH1 0x5 SHR DUP3 ADD DUP2 LT PUSH2 0xCEE JUMPI POP POP PUSH2 0xB57 JUMP JUMPDEST PUSH1 0x0 DUP2 SSTORE PUSH1 0x1 ADD PUSH2 0xCD8 JUMP JUMPDEST POP DUP1 PUSH2 0xCD8 JUMP JUMPDEST PUSH4 0x4E487B71 PUSH1 0xE0 SHL PUSH1 0x0 MSTORE PUSH1 0x41 PUSH1 0x4 MSTORE PUSH1 0x24 PUSH1 0x0 REVERT JUMPDEST ADD MLOAD SWAP1 POP DUP8 DUP1 PUSH2 0xB16 JUMP JUMPDEST SWAP1 PUSH1 0x1F NOT DUP4 AND SWAP2 PUSH1 0x4 DUP7 ADD PUSH1 0x0 MSTORE PUSH1 0x20 PUSH1 0x0 KECCAK256 SWAP3 PUSH1 0x0 JUMPDEST DUP2 DUP2 LT PUSH2 0xD7B JUMPI POP SWAP2 PUSH1 0x1 SWAP4 SWAP2 DUP6 PUSH1 0xA0 SWAP8 SWAP7 SWAP5 LT PUSH2 0xD62 JUMPI JUMPDEST POP POP POP DUP2 SHL ADD PUSH1 0x4 DUP5 ADD SSTORE PUSH2 0xB2E JUMP JUMPDEST ADD MLOAD PUSH1 0x0 NOT PUSH1 0xF8 DUP5 PUSH1 0x3 SHL AND SHR NOT AND SWAP1 SSTORE DUP8 DUP1 DUP1 PUSH2 0xD52 JUMP JUMPDEST SWAP3 SWAP4 PUSH1 0x20 PUSH1 0x1 DUP2 SWAP3 DUP8 DUP7 ADD MLOAD DUP2 SSTORE ADD SWAP6 ADD SWAP4 ADD PUSH2 0xD39 JUMP JUMPDEST PUSH1 0x4 DUP6 ADD PUSH1 0x0 MSTORE PUSH1 0x20 PUSH1 0x0 KECCAK256 PUSH1 0x1F DUP5 ADD PUSH1 0x5 SHR DUP2 ADD PUSH1 0x20 DUP6 LT PUSH2 0xDD3 JUMPI JUMPDEST PUSH1 0x1F DUP4 ADD PUSH1 0x5 SHR DUP3 ADD DUP2 LT PUSH2 0xDC7 JUMPI POP POP PUSH2 0xAF9 JUMP JUMPDEST PUSH1 0x0 DUP2 SSTORE PUSH1 0x1 ADD PUSH2 0xDB1 JUMP JUMPDEST POP DUP1 PUSH2 0xDB1 JUMP JUMPDEST ADD MLOAD SWAP1 POP DUP7 DUP1 PUSH2 0xA7D JUMP JUMPDEST SWAP3 POP DUP5 PUSH1 0x0 MSTORE PUSH1 0x20 PUSH1 0x0 KECCAK256 SWAP1 PUSH1 0x0 SWAP4 JUMPDEST PUSH1 0x1F NOT DUP5 AND DUP6 LT PUSH2 0xE36 JUMPI PUSH1 0x1 SWAP5 POP DUP4 PUSH1 0x1F NOT DUP2 AND LT PUSH2 0xE1D JUMPI JUMPDEST POP POP POP DUP2 SHL ADD DUP3 SSTORE PUSH2 0xA92 JUMP JUMPDEST ADD MLOAD PUSH1 0x0 NOT PUSH1 0xF8 DUP5 PUSH1 0x3 SHL AND SHR NOT AND SWAP1 SSTORE DUP7 DUP1 DUP1 PUSH2 0xE10 JUMP JUMPDEST DUP2 DUP2 ADD MLOAD DUP4 SSTORE PUSH1 0x20 SWAP5 DUP6 ADD SWAP5 PUSH1 0x1 SWAP1 SWAP4 ADD SWAP3 SWAP1 SWAP2 ADD SWAP1 PUSH2 0xDF5 JUMP JUMPDEST SWAP1 SWAP2 POP DUP5 PUSH1 0x0 MSTORE PUSH1 0x20 PUSH1 0x0 KECCAK256 PUSH1 0x1F DUP5 ADD PUSH1 0x5 SHR DUP2 ADD PUSH1 0x20 DUP6 LT PUSH2 0xE9A JUMPI JUMPDEST SWAP1 DUP5 SWAP4 SWAP3 SWAP2 JUMPDEST PUSH1 0x1F DUP4 ADD PUSH1 0x5 SHR DUP3 ADD DUP2 LT PUSH2 0xE8B JUMPI POP POP PUSH2 0xA66 JUMP JUMPDEST PUSH1 0x0 DUP2 SSTORE DUP6 SWAP5 POP PUSH1 0x1 ADD PUSH2 0xE75 JUMP JUMPDEST POP DUP1 PUSH2 0xE6F JUMP JUMPDEST PUSH4 0x4E487B71 PUSH1 0xE0 SHL PUSH1 0x0 MSTORE PUSH1 0x0 PUSH1 0x4 MSTORE PUSH1 0x24 PUSH1 0x0 REVERT JUMPDEST PUSH1 0x40 MLOAD PUSH3 0x461BCD PUSH1 0xE5 SHL DUP2 MSTORE PUSH1 0x20 PUSH1 0x4 DUP3 ADD MSTORE PUSH1 0x19 PUSH1 0x24 DUP3 ADD MSTORE PUSH32 0x496E76616C69642076616C696461746F72206164647265737300000000000000 PUSH1 0x44 DUP3 ADD MSTORE PUSH1 0x64 SWAP1 REVERT JUMPDEST PUSH1 0x40 MLOAD PUSH3 0x461BCD PUSH1 0xE5 SHL DUP2 MSTORE PUSH1 0x20 PUSH1 0x4 DUP3 ADD MSTORE PUSH1 0x14 PUSH1 0x24 DUP3 ADD MSTORE PUSH20 0x5449494E2063616E6E6F7420626520656D707479 PUSH1 0x60 SHL PUSH1 0x44 DUP3 ADD MSTORE PUSH1 0x64 SWAP1 REVERT JUMPDEST PUSH1 0x40 MLOAD PUSH3 0x461BCD PUSH1 0xE5 SHL DUP2 MSTORE PUSH1 0x20 PUSH1 0x4 DUP3 ADD MSTORE PUSH1 0x1F PUSH1 0x24 DUP3 ADD MSTORE PUSH32 0x526576656E756520616D6F756E74206D75737420626520706F73697469766500 PUSH1 0x44 DUP3 ADD MSTORE PUSH1 0x64 SWAP1 REVERT JUMPDEST PUSH1 0x40 MLOAD PUSH3 0x461BCD PUSH1 0xE5 SHL DUP2 MSTORE PUSH1 0x20 PUSH1 0x4 DUP3 ADD MSTORE PUSH1 0x1D PUSH1 0x24 DUP3 ADD MSTORE PUSH32 0x4E6F7420617574686F72697A656420746F2061646420726576656E7565000000 PUSH1 0x44 DUP3 ADD MSTORE PUSH1 0x64 SWAP1 REVERT JUMPDEST CALLVALUE PUSH2 0x2AB JUMPI PUSH2 0xFD0 CALLDATASIZE PUSH2 0x174B JUMP JUMPDEST SWAP4 SWAP3 SWAP1 SWAP2 SWAP4 CALLER PUSH1 0x0 MSTORE PUSH1 0xA PUSH1 0x20 MSTORE PUSH2 0xFEF PUSH1 0xFF PUSH1 0x40 PUSH1 0x0 KECCAK256 SLOAD AND PUSH2 0x1AA4 JUMP JUMPDEST PUSH2 0xFFA DUP3 ISZERO ISZERO PUSH2 0x1AF0 JUMP JUMPDEST PUSH2 0x1008 PUSH1 0x2 SLOAD DUP4 GT ISZERO PUSH2 0x1B3C JUMP JUMPDEST PUSH2 0x1014 DUP5 MLOAD ISZERO ISZERO PUSH2 0x1B96 JUMP JUMPDEST PUSH1 0x1 PUSH1 0x1 PUSH1 0xA0 SHL SUB DUP6 AND SWAP1 PUSH2 0x1067 SWAP1 PUSH2 0x102E DUP4 ISZERO ISZERO PUSH2 0x1BE2 JUMP JUMPDEST PUSH1 0x40 MLOAD SWAP1 PUSH2 0x103B DUP3 PUSH2 0x15EA JUMP JUMPDEST DUP7 DUP3 MSTORE DUP5 PUSH1 0x20 DUP4 ADD MSTORE TIMESTAMP PUSH1 0x40 DUP4 ADD MSTORE DUP4 PUSH1 0x60 DUP4 ADD MSTORE DUP6 PUSH1 0x80 DUP4 ADD MSTORE PUSH1 0xA0 DUP3 ADD MSTORE PUSH1 0x1 PUSH1 0xC0 DUP3 ADD MSTORE PUSH2 0x1C2E JUMP JUMPDEST PUSH1 0x4 SLOAD PUSH1 0x0 NOT DUP2 ADD SWAP1 DUP2 GT PUSH2 0x295 JUMPI PUSH32 0x5DB0AAAA26F045D738F5039487285E4B08FA1D234A59EC17A88CF490B73A4648 SWAP5 PUSH2 0x260 DUP3 PUSH2 0x290 SWAP5 PUSH2 0x24E PUSH2 0x283 SWAP6 PUSH1 0x40 MLOAD PUSH1 0x20 DUP2 DUP9 MLOAD PUSH2 0x23F DUP2 DUP4 DUP6 DUP14 ADD PUSH2 0x167C JUMP JUMPDEST CALLVALUE PUSH2 0x2AB JUMPI PUSH1 0x20 CALLDATASIZE PUSH1 0x3 NOT ADD SLT PUSH2 0x2AB JUMPI PUSH1 0x1 PUSH1 0x1 PUSH1 0xA0 SHL SUB PUSH2 0x10DD PUSH2 0x158B JUMP JUMPDEST AND PUSH1 0x0 MSTORE PUSH1 0xA PUSH1 0x20 MSTORE PUSH1 0x20 PUSH1 0xFF PUSH1 0x40 PUSH1 0x0 KECCAK256 SLOAD AND PUSH1 0x40 MLOAD SWAP1 ISZERO ISZERO DUP2 MSTORE RETURN JUMPDEST CALLVALUE PUSH2 0x2AB JUMPI PUSH1 0x0 CALLDATASIZE PUSH1 0x3 NOT ADD SLT PUSH2 0x2AB JUMPI PUSH1 0xA0 PUSH1 0x0 SLOAD PUSH1 0x1 SLOAD PUSH1 0x2 SLOAD PUSH1 0x3 SLOAD SWAP1 PUSH1 0x4 SLOAD SWAP3 PUSH1 0x40 MLOAD SWAP5 DUP6 MSTORE PUSH1 0x20 DUP6 ADD MSTORE PUSH1 0x40 DUP5 ADD MSTORE PUSH1 0x60 DUP4 ADD MSTORE PUSH1 0x80 DUP3 ADD MSTORE RETURN JUMPDEST CALLVALUE PUSH2 0x2AB JUMPI PUSH1 0x40 CALLDATASIZE PUSH1 0x3 NOT ADD SLT PUSH2 0x2AB JUMPI PUSH1 0x24 CALLDATALOAD PUSH1 0x1 PUSH1 0x1 PUSH1 0x40 SHL SUB DUP2 GT PUSH2 0x2AB JUMPI PUSH2 0x116B SWAP1 CALLDATASIZE SWAP1 PUSH1 0x4 ADD PUSH2 0x1626 JUMP JUMPDEST POP CALLER PUSH1 0x0 MSTORE PUSH1 0xB PUSH1 0x20 MSTORE PUSH2 0x1186 PUSH1 0xFF PUSH1 0x40 PUSH1 0x0 KECCAK256 SLOAD AND PUSH2 0x19B0 JUMP JUMPDEST PUSH1 0x4 CALLDATALOAD PUSH1 0x2 SSTORE STOP JUMPDEST CALLVALUE PUSH2 0x2AB JUMPI PUSH1 0x20 PUSH2 0x11A1 PUSH2 0x87C CALLDATASIZE PUSH2 0x171A JUMP JUMPDEST DUP2 ADD PUSH1 0x6 DUP2 MSTORE SUB ADD SWAP1 KECCAK256 DUP1 SLOAD DUP3 LT ISZERO PUSH2 0x2AB JUMPI PUSH1 0x20 SWAP2 PUSH2 0x318 SWAP2 PUSH2 0x15A1 JUMP JUMPDEST CALLVALUE PUSH2 0x2AB JUMPI PUSH1 0x20 CALLDATASIZE PUSH1 0x3 NOT ADD SLT PUSH2 0x2AB JUMPI PUSH2 0x11D9 PUSH2 0x158B JUMP JUMPDEST CALLER PUSH1 0x0 MSTORE PUSH1 0xB PUSH1 0x20 MSTORE PUSH2 0x11F3 PUSH1 0xFF PUSH1 0x40 PUSH1 0x0 KECCAK256 SLOAD AND PUSH2 0x19B0 JUMP JUMPDEST PUSH1 0x1 DUP1 PUSH1 0xA0 SHL SUB AND DUP1 PUSH1 0x0 MSTORE PUSH1 0xB PUSH1 0x20 MSTORE PUSH1 0x40 PUSH1 0x0 KECCAK256 PUSH1 0x1 PUSH1 0xFF NOT DUP3 SLOAD AND OR SWAP1 SSTORE PUSH32 0x282392BDDD0AAA0B50D2C25268A4CB6C4FB4FB6ADA94CAEE6B633A87DF7FBC43 PUSH1 0x40 MLOAD DUP1 PUSH2 0x290 DUP2 PUSH1 0x60 SWAP1 PUSH1 0x20 DUP2 MSTORE PUSH1 0x5 PUSH1 0x20 DUP3 ADD MSTORE PUSH5 0x30B236B4B7 PUSH1 0xD9 SHL PUSH1 0x40 DUP3 ADD MSTORE ADD SWAP1 JUMP JUMPDEST CALLVALUE PUSH2 0x2AB JUMPI PUSH1 0x20 CALLDATASIZE PUSH1 0x3 NOT ADD SLT PUSH2 0x2AB JUMPI PUSH1 0x4 CALLDATALOAD PUSH1 0x3 SLOAD DUP2 LT ISZERO PUSH2 0x130D JUMPI PUSH2 0x1284 SWAP1 PUSH2 0x17BE JUMP JUMPDEST POP PUSH1 0x40 MLOAD PUSH2 0x1291 DUP2 PUSH2 0x15CF JUMP JUMPDEST PUSH2 0x129A DUP3 PUSH2 0x1833 JUMP JUMPDEST DUP2 MSTORE PUSH2 0x3E6 PUSH1 0x1 DUP4 ADD SLOAD SWAP2 PUSH1 0x20 DUP2 ADD SWAP3 DUP4 MSTORE PUSH1 0x2 DUP5 ADD SLOAD SWAP4 PUSH1 0x40 DUP3 ADD SWAP5 DUP6 MSTORE PUSH1 0x1 DUP1 PUSH1 0xA0 SHL SUB SWAP1 DUP2 PUSH1 0x3 DUP3 ADD SLOAD AND SWAP2 PUSH1 0x60 DUP5 ADD SWAP3 DUP4 MSTORE PUSH2 0x12EF PUSH1 0x5 PUSH2 0x12E1 PUSH1 0x4 DUP6 ADD PUSH2 0x1833 JUMP JUMPDEST SWAP4 PUSH1 0x80 DUP8 ADD SWAP5 DUP6 MSTORE ADD PUSH2 0x1833 JUMP JUMPDEST SWAP4 DUP5 PUSH1 0xA0 DUP3 ADD MSTORE MLOAD SWAP6 MLOAD SWAP7 MLOAD SWAP3 MLOAD AND SWAP1 MLOAD SWAP2 PUSH1 0x40 MLOAD SWAP7 DUP8 SWAP7 DUP8 PUSH2 0x16C4 JUMP JUMPDEST PUSH1 0x40 MLOAD PUSH3 0x461BCD PUSH1 0xE5 SHL DUP2 MSTORE PUSH1 0x20 PUSH1 0x4 DUP3 ADD MSTORE PUSH1 0x21 PUSH1 0x24 DUP3 ADD MSTORE PUSH32 0x526576656E756520656E74727920696E646578206F7574206F6620626F756E64 PUSH1 0x44 DUP3 ADD MSTORE PUSH1 0x73 PUSH1 0xF8 SHL PUSH1 0x64 DUP3 ADD MSTORE PUSH1 0x84 SWAP1 REVERT JUMPDEST CALLVALUE PUSH2 0x2AB JUMPI PUSH1 0x20 CALLDATASIZE PUSH1 0x3 NOT ADD SLT PUSH2 0x2AB JUMPI PUSH2 0x1375 PUSH2 0x158B JUMP JUMPDEST CALLER PUSH1 0x0 MSTORE PUSH1 0xB PUSH1 0x20 MSTORE PUSH2 0x138F PUSH1 0xFF PUSH1 0x40 PUSH1 0x0 KECCAK256 SLOAD AND PUSH2 0x19B0 JUMP JUMPDEST PUSH1 0x1 PUSH1 0x1 PUSH1 0xA0 SHL SUB AND CALLER DUP2 EQ PUSH2 0x13FE JUMPI DUP1 PUSH1 0x0 MSTORE PUSH1 0xB PUSH1 0x20 MSTORE PUSH1 0x40 PUSH1 0x0 KECCAK256 PUSH1 0xFF NOT DUP2 SLOAD AND SWAP1 SSTORE PUSH32 0x814E4EE85854CEA446B4A27A460E5FFB41516230DBC02F226C07907E432241C PUSH1 0x40 MLOAD DUP1 PUSH2 0x290 DUP2 PUSH1 0x60 SWAP1 PUSH1 0x20 DUP2 MSTORE PUSH1 0x5 PUSH1 0x20 DUP3 ADD MSTORE PUSH5 0x30B236B4B7 PUSH1 0xD9 SHL PUSH1 0x40 DUP3 ADD MSTORE ADD SWAP1 JUMP JUMPDEST PUSH1 0x40 MLOAD PUSH3 0x461BCD PUSH1 0xE5 SHL DUP2 MSTORE PUSH1 0x20 PUSH1 0x4 DUP3 ADD MSTORE PUSH1 0x22 PUSH1 0x24 DUP3 ADD MSTORE PUSH32 0x43616E6E6F74207265766F6B65206F776E2061646D696E2070726976696C6567 PUSH1 0x44 DUP3 ADD MSTORE PUSH2 0x6573 PUSH1 0xF0 SHL PUSH1 0x64 DUP3 ADD MSTORE PUSH1 0x84 SWAP1 REVERT JUMPDEST CALLVALUE PUSH2 0x2AB JUMPI PUSH1 0x20 CALLDATASIZE PUSH1 0x3 NOT ADD SLT PUSH2 0x2AB JUMPI PUSH1 0x1 PUSH1 0x1 PUSH1 0xA0 SHL SUB PUSH2 0x146F PUSH2 0x158B JUMP JUMPDEST AND PUSH1 0x0 MSTORE PUSH1 0xB PUSH1 0x20 MSTORE PUSH1 0x20 PUSH1 0xFF PUSH1 0x40 PUSH1 0x0 KECCAK256 SLOAD AND PUSH1 0x40 MLOAD SWAP1 ISZERO ISZERO DUP2 MSTORE RETURN JUMPDEST CALLVALUE PUSH2 0x2AB JUMPI PUSH1 0x20 DUP1 PUSH1 0x3 NOT CALLDATASIZE ADD SLT PUSH2 0x2AB JUMPI PUSH1 0x4 CALLDATALOAD PUSH1 0x1 PUSH1 0x1 PUSH1 0x40 SHL SUB DUP2 GT PUSH2 0x2AB JUMPI DUP2 PUSH2 0x5E6 PUSH2 0x14C2 SWAP3 CALLDATASIZE SWAP1 PUSH1 0x4 ADD PUSH2 0x1626 JUMP JUMPDEST DUP2 ADD PUSH1 0x6 DUP2 MSTORE SUB ADD SWAP1 KECCAK256 PUSH1 0x40 MLOAD DUP1 DUP3 DUP5 DUP3 SWAP5 SLOAD SWAP4 DUP5 DUP2 MSTORE ADD SWAP1 PUSH1 0x0 MSTORE DUP5 PUSH1 0x0 KECCAK256 SWAP3 PUSH1 0x0 JUMPDEST DUP7 DUP3 DUP3 LT PUSH2 0x152B JUMPI DUP5 PUSH2 0x14FB DUP2 DUP7 SUB DUP3 PUSH2 0x1605 JUMP JUMPDEST PUSH1 0x0 SWAP1 DUP2 JUMPDEST DUP2 MLOAD DUP4 LT ISZERO PUSH2 0x671 JUMPI PUSH2 0x665 PUSH2 0x1525 SWAP2 PUSH1 0x1 PUSH2 0x65C PUSH2 0x151F DUP8 DUP8 PUSH2 0x204A JUMP JUMPDEST MLOAD PUSH2 0x18D9 JUMP JUMPDEST SWAP2 PUSH2 0x1500 JUMP JUMPDEST DUP6 SLOAD DUP5 MSTORE PUSH1 0x1 SWAP6 DUP7 ADD SWAP6 DUP8 SWAP6 POP SWAP4 ADD SWAP3 ADD PUSH2 0x14E6 JUMP JUMPDEST CALLVALUE PUSH2 0x2AB JUMPI PUSH1 0x40 CALLDATASIZE PUSH1 0x3 NOT ADD SLT PUSH2 0x2AB JUMPI PUSH2 0x155A PUSH2 0x158B JUMP JUMPDEST PUSH1 0x1 PUSH1 0x1 PUSH1 0xA0 SHL SUB AND PUSH1 0x0 SWAP1 DUP2 MSTORE PUSH1 0x8 PUSH1 0x20 MSTORE PUSH1 0x40 SWAP1 KECCAK256 DUP1 SLOAD PUSH1 0x24 CALLDATALOAD SWAP2 SWAP1 DUP3 LT ISZERO PUSH2 0x2AB JUMPI PUSH1 0x20 SWAP2 PUSH2 0x318 SWAP2 PUSH2 0x15A1 JUMP JUMPDEST PUSH1 0x4 CALLDATALOAD SWAP1 PUSH1 0x1 PUSH1 0x1 PUSH1 0xA0 SHL SUB DUP3 AND DUP3 SUB PUSH2 0x2AB JUMPI JUMP JUMPDEST DUP1 SLOAD DUP3 LT ISZERO PUSH2 0x15B9 JUMPI PUSH1 0x0 MSTORE PUSH1 0x20 PUSH1 0x0 KECCAK256 ADD SWAP1 PUSH1 0x0 SWAP1 JUMP JUMPDEST PUSH4 0x4E487B71 PUSH1 0xE0 SHL PUSH1 0x0 MSTORE PUSH1 0x32 PUSH1 0x4 MSTORE PUSH1 0x24 PUSH1 0x0 REVERT JUMPDEST PUSH1 0xC0 DUP2 ADD SWAP1 DUP2 LT PUSH1 0x1 PUSH1 0x1 PUSH1 0x40 SHL SUB DUP3 GT OR PUSH2 0xD01 JUMPI PUSH1 0x40 MSTORE JUMP JUMPDEST PUSH1 0xE0 DUP2 ADD SWAP1 DUP2 LT PUSH1 0x1 PUSH1 0x1 PUSH1 0x40 SHL SUB DUP3 GT OR PUSH2 0xD01 JUMPI PUSH1 0x40 MSTORE JUMP JUMPDEST SWAP1 PUSH1 0x1F DUP1 NOT SWAP2 ADD AND DUP2 ADD SWAP1 DUP2 LT PUSH1 0x1 PUSH1 0x1 PUSH1 0x40 SHL SUB DUP3 GT OR PUSH2 0xD01 JUMPI PUSH1 0x40 MSTORE JUMP JUMPDEST DUP2 PUSH1 0x1F DUP3 ADD SLT ISZERO PUSH2 0x2AB JUMPI DUP1 CALLDATALOAD SWAP1 PUSH1 0x1 PUSH1 0x1 PUSH1 0x40 SHL SUB DUP3 GT PUSH2 0xD01 JUMPI PUSH1 0x40 MLOAD SWAP3 PUSH2 0x165A PUSH1 0x1F DUP5 ADD PUSH1 0x1F NOT AND PUSH1 0x20 ADD DUP6 PUSH2 0x1605 JUMP JUMPDEST DUP3 DUP5 MSTORE PUSH1 0x20 DUP4 DUP4 ADD ADD GT PUSH2 0x2AB JUMPI DUP2 PUSH1 0x0 SWAP3 PUSH1 0x20 DUP1 SWAP4 ADD DUP4 DUP7 ADD CALLDATACOPY DUP4 ADD ADD MSTORE SWAP1 JUMP JUMPDEST PUSH1 0x0 JUMPDEST DUP4 DUP2 LT PUSH2 0x168F JUMPI POP POP PUSH1 0x0 SWAP2 ADD MSTORE JUMP JUMPDEST DUP2 DUP2 ADD MLOAD DUP4 DUP3 ADD MSTORE PUSH1 0x20 ADD PUSH2 0x167F JUMP JUMPDEST SWAP1 PUSH1 0x20 SWAP2 PUSH2 0x16B8 DUP2 MLOAD DUP1 SWAP3 DUP2 DUP6 MSTORE DUP6 DUP1 DUP7 ADD SWAP2 ADD PUSH2 0x167C JUMP JUMPDEST PUSH1 0x1F ADD PUSH1 0x1F NOT AND ADD ADD SWAP1 JUMP JUMPDEST SWAP5 SWAP1 SWAP4 PUSH2 0x1709 SWAP4 PUSH2 0x16E1 PUSH2 0x1717 SWAP9 SWAP7 PUSH1 0xC0 DUP10 MSTORE PUSH1 0xC0 DUP10 ADD SWAP1 PUSH2 0x169F JUMP JUMPDEST PUSH1 0x20 DUP9 ADD SWAP5 SWAP1 SWAP5 MSTORE PUSH1 0x40 DUP8 ADD MSTORE PUSH1 0x1 PUSH1 0x1 PUSH1 0xA0 SHL SUB AND PUSH1 0x60 DUP7 ADD MSTORE DUP5 DUP3 SUB PUSH1 0x80 DUP7 ADD MSTORE PUSH2 0x169F JUMP JUMPDEST SWAP2 PUSH1 0xA0 DUP2 DUP5 SUB SWAP2 ADD MSTORE PUSH2 0x169F JUMP JUMPDEST SWAP1 JUMP JUMPDEST PUSH1 0x40 PUSH1 0x3 NOT DUP3 ADD SLT PUSH2 0x2AB JUMPI PUSH1 0x4 CALLDATALOAD SWAP1 PUSH1 0x1 PUSH1 0x1 PUSH1 0x40 SHL SUB DUP3 GT PUSH2 0x2AB JUMPI PUSH2 0x1744 SWAP2 PUSH1 0x4 ADD PUSH2 0x1626 JUMP JUMPDEST SWAP1 PUSH1 0x24 CALLDATALOAD SWAP1 JUMP JUMPDEST SWAP1 PUSH1 0xA0 PUSH1 0x3 NOT DUP4 ADD SLT PUSH2 0x2AB JUMPI PUSH1 0x1 PUSH1 0x1 PUSH1 0x40 SHL SUB PUSH1 0x4 CALLDATALOAD DUP2 DUP2 GT PUSH2 0x2AB JUMPI DUP4 PUSH2 0x1777 SWAP2 PUSH1 0x4 ADD PUSH2 0x1626 JUMP JUMPDEST SWAP3 PUSH1 0x24 CALLDATALOAD SWAP3 PUSH1 0x44 CALLDATALOAD PUSH1 0x1 PUSH1 0x1 PUSH1 0xA0 SHL SUB DUP2 AND DUP2 SUB PUSH2 0x2AB JUMPI SWAP3 PUSH1 0x64 CALLDATALOAD DUP2 DUP2 GT PUSH2 0x2AB JUMPI DUP4 PUSH2 0x17A7 SWAP2 PUSH1 0x4 ADD PUSH2 0x1626 JUMP JUMPDEST SWAP3 PUSH1 0x84 CALLDATALOAD SWAP2 DUP3 GT PUSH2 0x2AB JUMPI PUSH2 0x1717 SWAP2 PUSH1 0x4 ADD PUSH2 0x1626 JUMP JUMPDEST PUSH1 0x3 SLOAD DUP2 LT ISZERO PUSH2 0x15B9 JUMPI PUSH1 0x6 SWAP1 PUSH1 0x3 PUSH1 0x0 MSTORE MUL PUSH32 0xC2575A0E9E593C00F959F8C92F12DB2869C3395A3B0502D05E2516446F71F85B ADD SWAP1 PUSH1 0x0 SWAP1 JUMP JUMPDEST SWAP1 PUSH1 0x1 DUP3 DUP2 SHR SWAP3 AND DUP1 ISZERO PUSH2 0x1829 JUMPI JUMPDEST PUSH1 0x20 DUP4 LT EQ PUSH2 0x1813 JUMPI JUMP JUMPDEST PUSH4 0x4E487B71 PUSH1 0xE0 SHL PUSH1 0x0 MSTORE PUSH1 0x22 PUSH1 0x4 MSTORE PUSH1 0x24 PUSH1 0x0 REVERT JUMPDEST SWAP2 PUSH1 0x7F AND SWAP2 PUSH2 0x1808 JUMP JUMPDEST SWAP1 PUSH1 0x40 MLOAD SWAP2 DUP3 PUSH1 0x0 DUP3 SLOAD SWAP3 PUSH2 0x1847 DUP5 PUSH2 0x17F9 JUMP JUMPDEST SWAP1 DUP2 DUP5 MSTORE PUSH1 0x1 SWAP5 DUP6 DUP2 AND SWAP1 DUP2 PUSH1 0x0 EQ PUSH2 0x18B6 JUMPI POP PUSH1 0x1 EQ PUSH2 0x1873 JUMPI JUMPDEST POP POP PUSH2 0x1871 SWAP3 POP SUB DUP4 PUSH2 0x1605 JUMP JUMPDEST JUMP JUMPDEST SWAP1 SWAP4 SWAP2 POP PUSH1 0x0 MSTORE PUSH1 0x20 SWAP1 DUP2 PUSH1 0x0 KECCAK256 SWAP4 PUSH1 0x0 SWAP2 JUMPDEST DUP2 DUP4 LT PUSH2 0x189E JUMPI POP POP PUSH2 0x1871 SWAP4 POP DUP3 ADD ADD CODESIZE DUP1 PUSH2 0x1863 JUMP JUMPDEST DUP6 SLOAD DUP9 DUP5 ADD DUP6 ADD MSTORE SWAP5 DUP6 ADD SWAP5 DUP8 SWAP5 POP SWAP2 DUP4 ADD SWAP2 PUSH2 0x1886 JUMP JUMPDEST SWAP2 POP POP PUSH2 0x1871 SWAP5 POP PUSH1 0x20 SWAP3 POP PUSH1 0xFF NOT AND DUP3 DUP5 ADD MSTORE ISZERO ISZERO PUSH1 0x5 SHL DUP3 ADD ADD CODESIZE DUP1 PUSH2 0x1863 JUMP JUMPDEST PUSH1 0x4 SLOAD DUP2 LT ISZERO PUSH2 0x15B9 JUMPI PUSH1 0x7 SWAP1 PUSH1 0x4 PUSH1 0x0 MSTORE MUL PUSH32 0x8A35ACFBC15FF81A39AE7D344FD709F28E8600B4AA8C65C6B64BFE7FE36BD19B ADD SWAP1 PUSH1 0x0 SWAP1 JUMP JUMPDEST SWAP6 SWAP3 SWAP5 PUSH2 0x196D SWAP5 PUSH1 0xC0 SWAP7 PUSH2 0x1937 PUSH2 0x195F SWAP6 SWAP5 SWAP12 SWAP11 SWAP12 PUSH1 0xE0 DUP12 MSTORE PUSH1 0xE0 DUP12 ADD SWAP1 PUSH2 0x169F JUMP JUMPDEST PUSH1 0x20 DUP11 ADD SWAP5 SWAP1 SWAP5 MSTORE PUSH1 0x40 DUP10 ADD MSTORE PUSH1 0x1 PUSH1 0x1 PUSH1 0xA0 SHL SUB AND PUSH1 0x60 DUP9 ADD MSTORE DUP7 DUP3 SUB PUSH1 0x80 DUP9 ADD MSTORE PUSH2 0x169F JUMP JUMPDEST SWAP1 DUP5 DUP3 SUB PUSH1 0xA0 DUP7 ADD MSTORE PUSH2 0x169F JUMP JUMPDEST SWAP4 ISZERO ISZERO SWAP2 ADD MSTORE JUMP JUMPDEST PUSH1 0x20 SWAP1 DUP2 PUSH1 0x40 DUP2 DUP4 ADD SWAP3 DUP3 DUP2 MSTORE DUP6 MLOAD DUP1 SWAP5 MSTORE ADD SWAP4 ADD SWAP2 PUSH1 0x0 JUMPDEST DUP3 DUP2 LT PUSH2 0x199C JUMPI POP POP POP POP SWAP1 JUMP JUMPDEST DUP4 MLOAD DUP6 MSTORE SWAP4 DUP2 ADD SWAP4 SWAP3 DUP2 ADD SWAP3 PUSH1 0x1 ADD PUSH2 0x198E JUMP JUMPDEST ISZERO PUSH2 0x19B7 JUMPI JUMP JUMPDEST PUSH1 0x40 MLOAD PUSH3 0x461BCD PUSH1 0xE5 SHL DUP2 MSTORE PUSH1 0x20 PUSH1 0x4 DUP3 ADD MSTORE PUSH1 0x22 PUSH1 0x24 DUP3 ADD MSTORE PUSH32 0x4F6E6C792061646D696E2063616E20706572666F726D20746869732061637469 PUSH1 0x44 DUP3 ADD MSTORE PUSH2 0x37B7 PUSH1 0xF1 SHL PUSH1 0x64 DUP3 ADD MSTORE PUSH1 0x84 SWAP1 REVERT JUMPDEST SWAP2 SWAP1 DUP3 SUB SWAP2 DUP3 GT PUSH2 0x295 JUMPI JUMP JUMPDEST DUP1 SLOAD PUSH1 0x1 PUSH1 0x40 SHL DUP2 LT ISZERO PUSH2 0xD01 JUMPI PUSH2 0x1A31 SWAP2 PUSH1 0x1 DUP3 ADD DUP2 SSTORE PUSH2 0x15A1 JUMP JUMPDEST DUP2 SWAP3 SWAP2 SLOAD SWAP1 PUSH1 0x3 SHL SWAP2 DUP3 SHL SWAP2 PUSH1 0x0 NOT SWAP1 SHL NOT AND OR SWAP1 SSTORE JUMP JUMPDEST SWAP2 SWAP1 DUP3 ADD DUP1 SWAP3 GT PUSH2 0x295 JUMPI JUMP JUMPDEST PUSH2 0x1A6E SWAP1 PUSH1 0x20 PUSH1 0x40 MLOAD SWAP3 DUP3 DUP5 DUP1 SWAP5 MLOAD SWAP4 DUP5 SWAP3 ADD PUSH2 0x167C JUMP JUMPDEST DUP2 ADD SUB SWAP1 KECCAK256 SWAP1 JUMP JUMPDEST SWAP2 PUSH2 0x1A94 SWAP1 PUSH1 0x40 SWAP3 SWAP6 SWAP5 SWAP6 DUP5 MSTORE PUSH1 0x60 PUSH1 0x20 DUP6 ADD MSTORE PUSH1 0x60 DUP5 ADD SWAP1 PUSH2 0x169F JUMP JUMPDEST PUSH1 0x1 PUSH1 0x1 PUSH1 0xA0 SHL SUB SWAP1 SWAP5 AND SWAP2 ADD MSTORE JUMP JUMPDEST ISZERO PUSH2 0x1AAB JUMPI JUMP JUMPDEST PUSH1 0x40 MLOAD PUSH3 0x461BCD PUSH1 0xE5 SHL DUP2 MSTORE PUSH1 0x20 PUSH1 0x4 DUP3 ADD MSTORE PUSH1 0x1D PUSH1 0x24 DUP3 ADD MSTORE PUSH32 0x4E6F7420617574686F72697A656420746F2061646420657870656E7365000000 PUSH1 0x44 DUP3 ADD MSTORE PUSH1 0x64 SWAP1 REVERT JUMPDEST ISZERO PUSH2 0x1AF7 JUMPI JUMP JUMPDEST PUSH1 0x40 MLOAD PUSH3 0x461BCD PUSH1 0xE5 SHL DUP2 MSTORE PUSH1 0x20 PUSH1 0x4 DUP3 ADD MSTORE PUSH1 0x1F PUSH1 0x24 DUP3 ADD MSTORE PUSH32 0x457870656E736520616D6F756E74206D75737420626520706F73697469766500 PUSH1 0x44 DUP3 ADD MSTORE PUSH1 0x64 SWAP1 REVERT JUMPDEST ISZERO PUSH2 0x1B43 JUMPI JUMP JUMPDEST PUSH1 0x40 MLOAD PUSH3 0x461BCD PUSH1 0xE5 SHL DUP2 MSTORE PUSH1 0x20 PUSH1 0x4 DUP3 ADD MSTORE PUSH1 0x25 PUSH1 0x24 DUP3 ADD MSTORE PUSH32 0x496E73756666696369656E742062616C616E636520666F722074686973206578 PUSH1 0x44 DUP3 ADD MSTORE PUSH5 0x70656E7365 PUSH1 0xD8 SHL PUSH1 0x64 DUP3 ADD MSTORE PUSH1 0x84 SWAP1 REVERT JUMPDEST ISZERO PUSH2 0x1B9D JUMPI JUMP JUMPDEST PUSH1 0x40 MLOAD PUSH3 0x461BCD PUSH1 0xE5 SHL DUP2 MSTORE PUSH1 0x20 PUSH1 0x4 DUP3 ADD MSTORE PUSH1 0x1E PUSH1 0x24 DUP3 ADD MSTORE PUSH32 0x50726F637572656D656E742049442063616E6E6F7420626520656D7074790000 PUSH1 0x44 DUP3 ADD MSTORE PUSH1 0x64 SWAP1 REVERT JUMPDEST ISZERO PUSH2 0x1BE9 JUMPI JUMP JUMPDEST PUSH1 0x40 MLOAD PUSH3 0x461BCD PUSH1 0xE5 SHL DUP2 MSTORE PUSH1 0x20 PUSH1 0x4 DUP3 ADD MSTORE PUSH1 0x1C PUSH1 0x24 DUP3 ADD MSTORE PUSH32 0x496E76616C69642042505041206F666669636572206164647265737300000000 PUSH1 0x44 DUP3 ADD MSTORE PUSH1 0x64 SWAP1 REVERT JUMPDEST PUSH1 0x4 DUP1 SLOAD SWAP1 PUSH1 0x1 PUSH1 0x40 SHL DUP3 LT ISZERO PUSH2 0x1E65 JUMPI PUSH2 0x1C4F PUSH1 0x1 SWAP3 DUP4 DUP2 ADD DUP4 SSTORE PUSH2 0x18D9 JUMP JUMPDEST SWAP3 SWAP1 SWAP3 PUSH2 0x2027 JUMPI DUP4 MLOAD SWAP1 DUP2 MLOAD SWAP2 PUSH1 0x1 PUSH1 0x1 PUSH1 0x40 SHL SUB SWAP3 DUP4 DUP2 GT PUSH2 0x2012 JUMPI DUP1 PUSH2 0x1C77 DUP8 SLOAD PUSH2 0x17F9 JUMP JUMPDEST SWAP3 PUSH1 0x1F SWAP4 DUP5 DUP2 GT PUSH2 0x1FBE JUMPI JUMPDEST POP PUSH1 0x20 SWAP1 DUP5 DUP4 GT PUSH1 0x1 EQ PUSH2 0x1F5B JUMPI PUSH1 0x0 SWAP3 PUSH2 0x1F50 JUMPI JUMPDEST POP POP PUSH1 0x0 NOT PUSH1 0x3 DUP4 SWAP1 SHL SHR NOT AND SWAP1 DUP4 SHL OR DUP6 SSTORE JUMPDEST PUSH1 0x20 DUP7 ADD MLOAD DUP3 DUP7 ADD SSTORE PUSH1 0x40 DUP7 ADD MLOAD PUSH1 0x2 DUP7 ADD SSTORE PUSH1 0x3 DUP6 ADD PUSH1 0x1 DUP1 PUSH1 0xA0 SHL SUB PUSH1 0x60 DUP9 ADD MLOAD AND PUSH12 0xFFFFFFFFFFFFFFFFFFFFFFFF PUSH1 0xA0 SHL DUP3 SLOAD AND OR SWAP1 SSTORE DUP4 DUP6 ADD PUSH1 0x80 DUP8 ADD MLOAD DUP1 MLOAD SWAP1 DUP6 DUP3 GT PUSH2 0x1F3B JUMPI DUP2 SWAP1 PUSH2 0x1D05 DUP5 SLOAD PUSH2 0x17F9 JUMP JUMPDEST DUP6 DUP2 GT PUSH2 0x1EE8 JUMPI JUMPDEST POP PUSH1 0x20 SWAP1 DUP6 DUP4 GT PUSH1 0x1 EQ PUSH2 0x1E85 JUMPI PUSH1 0x0 SWAP3 PUSH2 0x1E7A JUMPI JUMPDEST POP POP PUSH1 0x0 NOT PUSH1 0x3 DUP4 SWAP1 SHL SHR NOT AND SWAP1 DUP5 SHL OR SWAP1 SSTORE JUMPDEST PUSH1 0x5 DUP6 ADD SWAP4 PUSH1 0xA0 DUP8 ADD MLOAD SWAP1 DUP2 MLOAD SWAP5 DUP6 GT PUSH2 0x1E65 JUMPI POP PUSH2 0x1D56 DUP6 SLOAD PUSH2 0x17F9 JUMP JUMPDEST DUP3 DUP2 GT PUSH2 0x1E1D JUMPI JUMPDEST POP PUSH1 0x20 SWAP2 DUP5 GT PUSH1 0x1 EQ PUSH2 0x1DB0 JUMPI SWAP3 DUP1 PUSH1 0x6 SWAP6 SWAP4 DUP2 SWAP4 PUSH1 0xC0 SWAP9 SWAP7 PUSH1 0x0 SWAP5 PUSH2 0x1DA5 JUMPI JUMPDEST POP POP SHL SWAP2 PUSH1 0x0 NOT SWAP1 PUSH1 0x3 SHL SHR NOT AND OR SWAP1 SSTORE JUMPDEST ADD SWAP2 ADD MLOAD ISZERO ISZERO PUSH1 0xFF DUP1 NOT DUP4 SLOAD AND SWAP2 AND OR SWAP1 SSTORE JUMP JUMPDEST ADD MLOAD SWAP3 POP CODESIZE DUP1 PUSH2 0x1D7F JUMP JUMPDEST SWAP1 PUSH1 0x1F SWAP4 SWAP3 SWAP4 NOT DUP4 AND SWAP2 DUP6 PUSH1 0x0 MSTORE DUP2 PUSH1 0x0 KECCAK256 SWAP3 PUSH1 0x0 JUMPDEST DUP2 DUP2 LT PUSH2 0x1E07 JUMPI POP SWAP2 PUSH1 0xC0 SWAP8 SWAP6 SWAP4 SWAP2 DUP6 PUSH1 0x6 SWAP9 SWAP7 SWAP5 LT PUSH2 0x1DEE JUMPI JUMPDEST POP POP POP DUP2 SHL ADD SWAP1 SSTORE PUSH2 0x1D91 JUMP JUMPDEST ADD MLOAD PUSH1 0x0 NOT PUSH1 0xF8 DUP5 PUSH1 0x3 SHL AND SHR NOT AND SWAP1 SSTORE CODESIZE DUP1 DUP1 PUSH2 0x1DE1 JUMP JUMPDEST DUP3 DUP5 ADD MLOAD DUP6 SSTORE SWAP4 DUP7 ADD SWAP4 PUSH1 0x20 SWAP4 DUP5 ADD SWAP4 ADD PUSH2 0x1DC6 JUMP JUMPDEST DUP6 PUSH1 0x0 MSTORE PUSH1 0x20 PUSH1 0x0 KECCAK256 DUP4 DUP1 DUP8 ADD PUSH1 0x5 SHR DUP3 ADD SWAP3 PUSH1 0x20 DUP9 LT PUSH2 0x1E5C JUMPI JUMPDEST ADD PUSH1 0x5 SHR ADD SWAP1 DUP5 SWAP1 JUMPDEST DUP3 DUP2 LT PUSH2 0x1E50 JUMPI POP POP PUSH2 0x1D5E JUMP JUMPDEST PUSH1 0x0 DUP2 SSTORE ADD DUP5 SWAP1 PUSH2 0x1E42 JUMP JUMPDEST SWAP3 POP DUP2 SWAP3 PUSH2 0x1E39 JUMP JUMPDEST PUSH1 0x41 SWAP1 PUSH4 0x4E487B71 PUSH1 0xE0 SHL PUSH1 0x0 MSTORE MSTORE PUSH1 0x24 PUSH1 0x0 REVERT JUMPDEST ADD MLOAD SWAP1 POP CODESIZE DUP1 PUSH2 0x1D23 JUMP JUMPDEST SWAP1 DUP7 SWAP4 POP PUSH1 0x1F NOT DUP4 AND SWAP2 DUP6 PUSH1 0x0 MSTORE DUP2 PUSH1 0x0 KECCAK256 SWAP3 PUSH1 0x0 JUMPDEST DUP2 DUP2 LT PUSH2 0x1ED0 JUMPI POP DUP5 GT PUSH2 0x1EB7 JUMPI JUMPDEST POP POP POP DUP2 SHL ADD SWAP1 SSTORE PUSH2 0x1D37 JUMP JUMPDEST ADD MLOAD PUSH1 0x0 NOT PUSH1 0xF8 DUP5 PUSH1 0x3 SHL AND SHR NOT AND SWAP1 SSTORE CODESIZE DUP1 DUP1 PUSH2 0x1EAA JUMP JUMPDEST DUP3 DUP5 ADD MLOAD DUP6 SSTORE DUP10 SWAP7 SWAP1 SWAP5 ADD SWAP4 PUSH1 0x20 SWAP4 DUP5 ADD SWAP4 ADD PUSH2 0x1E9B JUMP JUMPDEST SWAP1 SWAP2 POP DUP4 PUSH1 0x0 MSTORE PUSH1 0x20 PUSH1 0x0 KECCAK256 DUP6 DUP1 DUP6 ADD PUSH1 0x5 SHR DUP3 ADD SWAP3 PUSH1 0x20 DUP7 LT PUSH2 0x1F32 JUMPI JUMPDEST SWAP2 DUP9 SWAP2 DUP7 SWAP6 SWAP5 SWAP4 ADD PUSH1 0x5 SHR ADD SWAP2 JUMPDEST DUP3 DUP2 LT PUSH2 0x1F23 JUMPI POP POP PUSH2 0x1D0D JUMP JUMPDEST PUSH1 0x0 DUP2 SSTORE DUP6 SWAP5 POP DUP9 SWAP2 ADD PUSH2 0x1F15 JUMP JUMPDEST SWAP3 POP DUP2 SWAP3 PUSH2 0x1F07 JUMP JUMPDEST PUSH1 0x41 DUP8 PUSH4 0x4E487B71 PUSH1 0xE0 SHL PUSH1 0x0 MSTORE MSTORE PUSH1 0x24 PUSH1 0x0 REVERT JUMPDEST ADD MLOAD SWAP1 POP CODESIZE DUP1 PUSH2 0x1C99 JUMP JUMPDEST SWAP1 DUP6 SWAP4 POP PUSH1 0x1F NOT DUP4 AND SWAP2 DUP10 PUSH1 0x0 MSTORE DUP2 PUSH1 0x0 KECCAK256 SWAP3 PUSH1 0x0 JUMPDEST DUP2 DUP2 LT PUSH2 0x1FA6 JUMPI POP DUP5 GT PUSH2 0x1F8D JUMPI JUMPDEST POP POP POP DUP2 SHL ADD DUP6 SSTORE PUSH2 0x1CAD JUMP JUMPDEST ADD MLOAD PUSH1 0x0 NOT PUSH1 0xF8 DUP5 PUSH1 0x3 SHL AND SHR NOT AND SWAP1 SSTORE CODESIZE DUP1 DUP1 PUSH2 0x1F80 JUMP JUMPDEST DUP3 DUP5 ADD MLOAD DUP6 SSTORE DUP9 SWAP7 SWAP1 SWAP5 ADD SWAP4 PUSH1 0x20 SWAP4 DUP5 ADD SWAP4 ADD PUSH2 0x1F71 JUMP JUMPDEST SWAP1 SWAP2 POP PUSH1 0x0 DUP9 DUP2 MSTORE PUSH1 0x20 DUP2 KECCAK256 DUP6 DUP1 DUP7 ADD PUSH1 0x5 SHR DUP3 ADD SWAP4 PUSH1 0x20 DUP8 LT PUSH2 0x2009 JUMPI JUMPDEST SWAP2 DUP9 SWAP2 DUP8 SWAP7 SWAP6 SWAP5 SWAP4 ADD PUSH1 0x5 SHR ADD SWAP3 JUMPDEST DUP4 DUP2 LT PUSH2 0x1FFB JUMPI POP POP POP PUSH2 0x1C83 JUMP JUMPDEST DUP3 DUP2 SSTORE DUP7 SWAP6 POP DUP9 SWAP2 ADD PUSH2 0x1FEC JUMP JUMPDEST SWAP4 POP DUP2 SWAP4 PUSH2 0x1FDD JUMP JUMPDEST PUSH1 0x41 DUP6 PUSH4 0x4E487B71 PUSH1 0xE0 SHL PUSH1 0x0 MSTORE MSTORE PUSH1 0x24 PUSH1 0x0 REVERT JUMPDEST PUSH1 0x0 DUP3 PUSH4 0x4E487B71 PUSH1 0xE0 SHL DUP3 MSTORE MSTORE PUSH1 0x24 PUSH1 0x0 REVERT JUMPDEST PUSH1 0x0 NOT DUP2 EQ PUSH2 0x295 JUMPI PUSH1 0x1 ADD SWAP1 JUMP JUMPDEST DUP1 MLOAD DUP3 LT ISZERO PUSH2 0x15B9 JUMPI PUSH1 0x20 SWAP2 PUSH1 0x5 SHL ADD ADD SWAP1 JUMP INVALID LOG2 PUSH5 0x6970667358 0x22 SLT KECCAK256 AND 0xB1 0xAD 0xD9 PUSH13 0xAB3D18E96095ED27DA96E7CE6C 0x2A 0xD5 0xCD OR INVALID SWAP14 SWAP16 CALLCODE 0xCE 0x22 PUSH29 0xE5BDC664736F6C63430008130033000000000000000000000000000000 "},"methodIdentifiers":{"addExpense(string,uint256,address,string,string)":"ef6c0b62","addFundRequestExpense(string,uint256,address,string,string)":"5c2ae8cb","addRevenue(string,uint256,string,address,string)":"6c58fd57","availableBalance()":"ab2f0e51","emergencyAdjustBalance(uint256,string)":"38081f5e","expenseByBppaOfficer(address,uint256)":"0ce61d37","expenseByProcurement(string,uint256)":"36a40dd9","expenseEntries(uint256)":"7aa5495a","getExpenseByProcurement(string)":"7d3b2be2","getExpenseEntry(uint256)":"e3b63b07","getLedgerSummary()":"5b3ac7fb","getRevenueByFiscalYear(string)":"a53c857e","getRevenueEntry(uint256)":"319ebeef","getTotalExpenseByProcurement(string)":"104cf39b","getTotalRevenueByFiscalYear(string)":"a8ab1aa3","grantAdmin(address)":"35bb3e16","grantExpenseAdder(address)":"a9013e18","grantRevenueAdder(address)":"ac520f91","isAdmin(address)":"24d7806c","isAuthorizedExpenseAdder(address)":"5be49992","isAuthorizedRevenueAdder(address)":"a54a75f0","revenueByFiscalYear(string,uint256)":"745735d5","revenueByValidator(address,uint256)":"e7cd1f8f","revenueEntries(uint256)":"6e4e9468","revokeAdmin(address)":"2d345670","totalExpense()":"ed0c46c3","totalRevenue()":"bf2d9e0b"}}}}}