{"contracts/TaxReturnRegistry.sol":{"TaxReturnRegistry":{"abi":[{"inputs":[],"stateMutability":"nonpayable","type":"constructor"},{"anonymous":false,"inputs":[{"indexed":true,"internalType":"address","name":"newLedger","type":"address"}],"name":"NationalLedgerUpdated","type":"event"},{"anonymous":false,"inputs":[{"indexed":true,"internalType":"address","name":"officer","type":"address"}],"name":"NbrOfficerDeactivated","type":"event"},{"anonymous":false,"inputs":[{"indexed":true,"internalType":"address","name":"officer","type":"address"},{"indexed":false,"internalType":"string","name":"officerId","type":"string"}],"name":"NbrOfficerRegistered","type":"event"},{"anonymous":false,"inputs":[{"indexed":true,"internalType":"bytes32","name":"returnKey","type":"bytes32"},{"indexed":false,"internalType":"uint256","name":"amount","type":"uint256"},{"indexed":false,"internalType":"string","name":"fiscalYear","type":"string"}],"name":"RevenueAddedToNationalLedger","type":"event"},{"anonymous":false,"inputs":[{"indexed":true,"internalType":"bytes32","name":"returnKey","type":"bytes32"},{"indexed":false,"internalType":"string","name":"tiin","type":"string"},{"indexed":false,"internalType":"string","name":"fiscalYear","type":"string"},{"indexed":false,"internalType":"string","name":"ipfsHash","type":"string"}],"name":"TaxReturnSubmitted","type":"event"},{"anonymous":false,"inputs":[{"indexed":true,"internalType":"bytes32","name":"returnKey","type":"bytes32"},{"indexed":false,"internalType":"address","name":"validator","type":"address"},{"indexed":false,"internalType":"bool","name":"approved","type":"bool"}],"name":"TaxReturnValidated","type":"event"},{"inputs":[],"name":"admin","outputs":[{"internalType":"address","name":"","type":"address"}],"stateMutability":"view","type":"function"},{"inputs":[{"internalType":"uint256","name":"","type":"uint256"}],"name":"allOfficers","outputs":[{"internalType":"address","name":"","type":"address"}],"stateMutability":"view","type":"function"},{"inputs":[{"internalType":"uint256","name":"","type":"uint256"}],"name":"allTaxReturnKeys","outputs":[{"internalType":"bytes32","name":"","type":"bytes32"}],"stateMutability":"view","type":"function"},{"inputs":[{"internalType":"address","name":"_officerAddress","type":"address"}],"name":"deactivateNbrOfficer","outputs":[],"stateMutability":"nonpayable","type":"function"},{"inputs":[],"name":"getPendingTaxReturns","outputs":[{"internalType":"bytes32[]","name":"","type":"bytes32[]"}],"stateMutability":"view","type":"function"},{"inputs":[{"internalType":"bytes32","name":"_returnKey","type":"bytes32"}],"name":"getTaxReturn","outputs":[{"internalType":"string","name":"tiin","type":"string"},{"internalType":"string","name":"fiscalYear","type":"string"},{"internalType":"string","name":"ipfsHash","type":"string"},{"internalType":"uint256","name":"totalIncome","type":"uint256"},{"internalType":"uint256","name":"totalCost","type":"uint256"},{"internalType":"address","name":"validator","type":"address"},{"internalType":"uint256","name":"timestamp","type":"uint256"},{"internalType":"uint256","name":"validatedTimestamp","type":"uint256"},{"internalType":"bool","name":"isValidated","type":"bool"},{"internalType":"bool","name":"isApproved","type":"bool"},{"internalType":"string","name":"comments","type":"string"}],"stateMutability":"view","type":"function"},{"inputs":[{"internalType":"string","name":"_tiin","type":"string"},{"internalType":"string","name":"_fiscalYear","type":"string"}],"name":"getTaxReturnKey","outputs":[{"internalType":"bytes32","name":"","type":"bytes32"}],"stateMutability":"pure","type":"function"},{"inputs":[],"name":"getTotalNbrOfficers","outputs":[{"internalType":"uint256","name":"","type":"uint256"}],"stateMutability":"view","type":"function"},{"inputs":[],"name":"getTotalTaxReturns","outputs":[{"internalType":"uint256","name":"","type":"uint256"}],"stateMutability":"view","type":"function"},{"inputs":[{"internalType":"address","name":"","type":"address"}],"name":"isNbrOfficer","outputs":[{"internalType":"bool","name":"","type":"bool"}],"stateMutability":"view","type":"function"},{"inputs":[],"name":"nationalLedger","outputs":[{"internalType":"contract INationalLedger","name":"","type":"address"}],"stateMutability":"view","type":"function"},{"inputs":[],"name":"nationalLedgerEnabled","outputs":[{"internalType":"bool","name":"","type":"bool"}],"stateMutability":"view","type":"function"},{"inputs":[{"internalType":"address","name":"","type":"address"}],"name":"nbrOfficers","outputs":[{"internalType":"address","name":"officerAddress","type":"address"},{"internalType":"string","name":"officerId","type":"string"},{"internalType":"string","name":"fullName","type":"string"},{"internalType":"bool","name":"isActive","type":"bool"}],"stateMutability":"view","type":"function"},{"inputs":[{"internalType":"address","name":"_officerAddress","type":"address"},{"internalType":"string","name":"_officerId","type":"string"},{"internalType":"string","name":"_fullName","type":"string"}],"name":"registerNbrOfficer","outputs":[],"stateMutability":"nonpayable","type":"function"},{"inputs":[{"internalType":"address","name":"_nationalLedgerAddress","type":"address"}],"name":"setNationalLedger","outputs":[],"stateMutability":"nonpayable","type":"function"},{"inputs":[{"internalType":"string","name":"_tiin","type":"string"},{"internalType":"string","name":"_fiscalYear","type":"string"},{"internalType":"string","name":"_ipfsHash","type":"string"},{"internalType":"uint256","name":"_totalIncome","type":"uint256"},{"internalType":"uint256","name":"_totalCost","type":"uint256"}],"name":"submitTaxReturn","outputs":[{"internalType":"bytes32","name":"","type":"bytes32"}],"stateMutability":"nonpayable","type":"function"},{"inputs":[{"internalType":"bytes32","name":"","type":"bytes32"}],"name":"taxReturns","outputs":[{"internalType":"string","name":"tiin","type":"string"},{"internalType":"string","name":"fiscalYear","type":"string"},{"internalType":"string","name":"ipfsHash","type":"string"},{"internalType":"uint256","name":"totalIncome","type":"uint256"},{"internalType":"uint256","name":"totalCost","type":"uint256"},{"internalType":"address","name":"validator","type":"address"},{"internalType":"uint256","name":"timestamp","type":"uint256"},{"internalType":"uint256","name":"validatedTimestamp","type":"uint256"},{"internalType":"bool","name":"isValidated","type":"bool"},{"internalType":"bool","name":"isApproved","type":"bool"},{"internalType":"string","name":"comments","type":"string"}],"stateMutability":"view","type":"function"},{"inputs":[{"internalType":"bool","name":"_enabled","type":"bool"}],"name":"toggleNationalLedger","outputs":[],"stateMutability":"nonpayable","type":"function"},{"inputs":[{"internalType":"bytes32","name":"_returnKey","type":"bytes32"},{"internalType":"bool","name":"_approved","type":"bool"},{"internalType":"string","name":"_comments","type":"string"}],"name":"validateTaxReturn","outputs":[],"stateMutability":"nonpayable","type":"function"}],"evm":{"bytecode":{"linkReferences":{},"object":"6080806040523461003557600680546001600160a01b031916331790556005805460ff60a01b19169055611e74908161003b8239f35b600080fdfe6080604052600436101561001257600080fd5b6000803560e01c80630e78456b146115815780631909f2851461147a57806338ef2263146113eb5780633e0a38b2146113b15780634e2ff90b1461138b5780635cc4881f1461134c57806364b41c0d1461132e5780636f5a5e1b146111b4578063859f48d11461112657806392c143d71461106757806399d3512314611023578063a8fdb6d9146107ce578063c4a45e2e14610775578063d8bfc1bf146106c6578063dba39b0f1461069d578063e5b31db61461067f578063e933ab94146101af578063f394190a146101195763f851a440146100ee57600080fd5b346101165780600319360112610116576006546040516001600160a01b039091168152602090f35b80fd5b5034610116576020366003190112610116576040906004358152806020522061014181611be2565b6101ab61015060018401611be2565b9161015d60028501611be2565b93600381015491600482015460018060a01b03600584015416600684015490600785015492610193600960088801549701611be2565b966040519a8b9a60ff808a60081c169916978c611b07565b0390f35b5034610116576060366003190112610116576101c9611b92565b6024356001600160401b03811161067b576101e8903690600401611a69565b906044356001600160401b03811161067757610208903690600401611a69565b6001600160a01b03821615610632576001600160a01b03821684526002602052604084205460ff166105ed57604051608081018181106001600160401b038211176105d75760409081526001600160a01b0384811680845260208085018881528585019690965260016060860181905291895252908620825181546001600160a01b031916921691909117815591518051906001600160401b0382116105c35781906102b76001860154611ba8565b601f8111610572575b50602090601f83116001146105035788926104f8575b50508160011b916000199060031b1c19161760018301555b6002820160408201518051906001600160401b0382116104e4576103128354611ba8565b601f811161049e575b50602090601f831160011461043157928260609361036a9796936003968c92610426575b50508160011b9160001990871b1c19161790555b0151151591019060ff801983541691151516179055565b6001600160a01b0381168352600260205260408320805460ff19166001179055600454600160401b811015610412577f719c84c4a121c5fee77fc646839cfb2b38892a68eb6391421eb654057d18b858916103ce82600161040c9401600455611cd5565b81549060031b9060018060a01b038416821b9160018060a01b03901b19161790556040519182916020835260018060a01b0316946020830190611ae2565b0390a280f35b634e487b7160e01b84526041600452602484fd5b01519050388061033f565b838952602089209190601f1984168a5b81811061048657509361036a97969360039693600193836060981061046e575b505050811b019055610353565b015160001983891b60f8161c19169055388080610461565b92936020600181928786015181550195019301610441565b83895260208920601f840160051c810191602085106104da575b601f0160051c01905b8181106104ce575061031b565b600081556001016104c1565b90915081906104b8565b634e487b7160e01b88526041600452602488fd5b0151905038806102d6565b9250600185018852602088209088935b601f1984168510610557576001945083601f1981161061053e575b505050811b0160018301556102ee565b015160001960f88460031b161c1916905538808061052e565b81810151835560209485019460019093019290910190610513565b90915060018501885260208820601f840160051c8101602085106105bc575b90849392915b601f830160051c820181106105ad5750506102c0565b60008155859450600101610597565b5080610591565b634e487b7160e01b87526041600452602487fd5b634e487b7160e01b600052604160045260246000fd5b60405162461bcd60e51b815260206004820152601a60248201527f4f66666963657220616c726561647920726567697374657265640000000000006044820152606490fd5b60405162461bcd60e51b815260206004820152601760248201527f496e76616c6964206f66666963657220616464726573730000000000000000006044820152606490fd5b8380fd5b8280fd5b50346101165780600319360112610116576020600354604051908152f35b50346101165780600319360112610116576005546040516001600160a01b039091168152602090f35b5034610116576020366003190112610116576001600160a01b036106e8611b92565b16808252600260205260ff6040832054161561073c57808252600160205260408220600301805460ff191690557f53e8b0562e8503d058eba7be90f44ebb647e40dc84abe2beb5cf13e18ce256d38280a280f35b60405162461bcd60e51b815260206004820152601160248201527013d9999a58d95c881b9bdd08199bdd5b99607a1b6044820152606490fd5b5034610116576020366003190112610116576004358015158091036107c9576107a960018060a01b03600654163314611d0c565b6005805460ff60a01b191660a09290921b60ff60a01b1691909117905580f35b600080fd5b50346101165760a0366003190112610116576004356001600160401b03811161101f576107ff903690600401611a69565b906024356001600160401b03811161101f5761081f903690600401611a69565b6044356001600160401b03811161067b5761083e903690600401611a69565b90604051602081019061087c602082885161085c8187858d01611abf565b810186519061087082858301868b01611abf565b01038084520182611a48565b51902092838152806020526006604082200154610fb457845115610f7857815115610f3357825115610eee576040516108b481611a2c565b858152826020820152836040820152606435606082015260843560808201528160a08201524260c08201528160e082015281610100820152816101208201526040518060208101106001600160401b036020830111176105d7576020810160405282815261014082015284825281602052604082209080518051906001600160401b038211610d525781906109498554611ba8565b601f8111610ea0575b50602090601f8311600114610e3c578692610e31575b50508160011b916000199060031b1c19161782555b60208101518051906001600160401b038211610d525781906109a26001860154611ba8565b601f8111610de0575b50602090601f8311600114610d71578692610d66575b50508160011b916000199060031b1c19161760018301555b60408101518051906001600160401b038211610d52576109fc6002850154611ba8565b601f8111610d0d575b50602090601f8311600114610c9c57610140939291869183610c91575b50508160011b916000199060031b1c19161760028401555b60608101516003840155608081015160048401556005830160018060a01b0360a0830151166bffffffffffffffffffffffff60a01b82541617905560c0810151600684015560e08101516007840155610ac960088401610aad6101008401511515829060ff801983541691151516179055565b610120830151815461ff00191690151560081b61ff0016179055565b01518051906001600160401b03821161041257610ae96009840154611ba8565b601f8111610c4c575b50602090601f8311600114610be25760099291859183610bd7575b50508160011b916000199060031b1c1916179101555b60035490600160401b821015610bc35750602094610bb88594610baa7f600a8f65f402b7b59886dc07fbb0217252e712e12ec1b70263cb60ef5155f9bc95610b74866001610b9d9801600355611c88565b81549060031b908a821b91600019901b1916179055604051958695606087526060870190611ae2565b908582038b870152611ae2565b908382036040850152611ae2565b0390a2604051908152f35b634e487b7160e01b81526041600452602490fd5b015190503880610b0d565b600984018552602085209190601f198416865b818110610c3457509160019391856009969410610c1b575b505050811b01910155610b23565b015160001960f88460031b161c19169055388080610c0d565b92936020600181928786015181550195019301610bf5565b60098401855260208520601f840160051c810160208510610c8a575b601f830160051c82018110610c7e575050610af2565b60008155600101610c68565b5080610c68565b015190503880610a22565b906002850186526020862091865b601f1985168110610cf557509183916001936101409695601f19811610610cdc575b505050811b016002840155610a3a565b015160001960f88460031b161c19169055388080610ccc565b91926020600181928685015181550194019201610caa565b60028501865260208620601f840160051c810160208510610d4b575b601f830160051c82018110610d3f575050610a05565b60008155600101610d29565b5080610d29565b634e487b7160e01b85526041600452602485fd5b0151905038806109c1565b9250600185018652602086209086935b601f1984168510610dc5576001945083601f19811610610dac575b505050811b0160018301556109d9565b015160001960f88460031b161c19169055388080610d9c565b81810151835560209485019460019093019290910190610d81565b90915060018501865260208620601f840160051c810160208510610e2a575b90849392915b601f830160051c82018110610e1b5750506109ab565b60008155859450600101610e05565b5080610dff565b015190503880610968565b858752602087209250601f198416875b818110610e885750908460019594939210610e6f575b505050811b01825561097d565b015160001960f88460031b161c19169055388080610e62565b92936020600181928786015181550195019301610e4c565b90915084865260208620601f840160051c810160208510610ee7575b90849392915b601f830160051c82018110610ed8575050610952565b60008155859450600101610ec2565b5080610ebc565b60405162461bcd60e51b815260206004820152601960248201527f4950465320686173682063616e6e6f7420626520656d707479000000000000006044820152606490fd5b60405162461bcd60e51b815260206004820152601b60248201527f46697363616c20796561722063616e6e6f7420626520656d70747900000000006044820152606490fd5b60405162461bcd60e51b81526020600482015260146024820152735449494e2063616e6e6f7420626520656d70747960601b6044820152606490fd5b60405162461bcd60e51b815260206004820152603760248201527f5461782072657475726e20616c72656164792065786973747320666f7220746860448201527f6973205449494e20616e642066697363616c20796561720000000000000000006064820152608490fd5b5080fd5b5034610116576020366003190112610116576004359060045482101561011657602061104e83611cd5565b905460405160039290921b1c6001600160a01b03168152f35b503461011657602036600319011261011657611081611b92565b6006546001600160a01b03919061109b9083163314611d0c565b1680156110e157600580546001600160a81b0319168217600160a01b1790557fe9f1a2460c2e42096ad297be3ecae6677c679e7a64d6e626d10dfb0413ffd5678280a280f35b60405162461bcd60e51b815260206004820152601f60248201527f496e76616c6964206e6174696f6e616c206c65646765722061646472657373006044820152606490fd5b5034610116576040366003190112610116576001600160401b039060043582811161101f57611159903690600401611a69565b9060243592831161011657506111766111a9923690600401611a69565b6040519283916020948591826111958184019788815193849201611abf565b820161087082518093868085019101611abf565b519020604051908152f35b5034610116578060031936011261011657600380549082805b8381106112db57506111f76111e185611e27565b946111ef6040519687611a48565b808652611e27565b6020938585019391601f19013685378291835b828110611253575050505060405193838594850191818652518092526040850193925b82811061123c57505050500390f35b83518552869550938101939281019260010161122d565b611261819896979598611c88565b905490831b1c885287855260ff600860408a2001541615611290575b61128690611e02565b969395949661120a565b9261129a84611c88565b905490831b1c86518210156112c757816112bf91876112869460051b8a010152611e02565b93905061127d565b634e487b7160e01b89526032600452602489fd5b6112e9819593949295611c88565b905490851b1c85528460205260ff60086040872001541615611319575b61130f90611e02565b93909291936111cd565b9161132661130f91611e02565b929050611306565b50346101165780600319360112610116576020600454604051908152f35b50346101165760203660031901126101165760209060ff906040906001600160a01b03611377611b92565b168152600284522054166040519015158152f35b5034610116578060031936011261011657602060ff60055460a01c166040519015158152f35b503461011657602036600319011261011657600435906003548210156101165760206113dc83611c88565b90549060031b1c604051908152f35b5034610116576020366003190112610116576001600160a01b039060409082611412611b92565b1681526001602052209081541661142b60018301611be2565b9161146e60ff600361143f60028501611be2565b93015416916114606040519586958652608060208701526080860190611ae2565b908482036040860152611ae2565b90151560608301520390f35b503461011657602036600319011261011657604090600435815280602052206040516114a581611a2c565b6114ae82611be2565b81526101ab6114bf60018401611be2565b91602081019283526114d360028501611be2565b9360408201948552600381015490606083019182526004810154906080840191825260018060a01b03918260058301541660a0860190815260068301549060c0870191825260078401549260e0880193845260088501549561155460096101008b019760ff8a161515895260ff6101208d019a60081c1615158a5201611be2565b9889610140820152519a519b5197519151925116925193519451151595511515966040519b8c9b8c611b07565b503461011657606036600319011261011657602435151560243503610116576044356001600160401b03811161101f576115bf903690600401611a69565b338252600260205260ff604083205416156119d557338252600160205260ff60036040842001541615611990576004358252816020526006604083200154156119545760043582528160205260ff60086040842001541661190f5760043582526020829052604082206005810180546001600160a01b031916331790554260078201556008808201805461ffff1916602435151590921b61ff0016919091176001179055908051906001600160401b038211610412576116826009840154611ba8565b601f81116118cb575b50602090601f83116001146118615760099291859183611856575b50508160011b916000199060031b1c1916179101555b60243580611847575b80611833575b61170b575b604051338152602435151560208201527f247c3744bfd251d2f7b1fc61f63ce2f03516eb9442a74cdb2c321b8d36202efe604060043592a280f35b60018060a01b03600554169060043581528060205260408120916004830154813b1561067b5782916117808360029361179960405198899687958694636c58fd5760e01b865260a0600487015261176560a4870185611d6c565b90602487015260031986820301604487015260018401611d6c565b3360648601528481036003190160848601529101611d6c565b03925af19182611808575b5090156116d057600435815280602052604081207f8d35d6b30431d1f0f6cddf9de9c98bf865c9fbe19aaf6f6c25e0121cb585656660048201546040519081526040602082015280611800600435946001604084019101611d6c565b0390a26116d0565b6001600160401b03811161181f57604052386117a4565b634e487b7160e01b82526041600452602482fd5b506005546001600160a01b031615156116cb565b5060ff60055460a01c166116c5565b0151905038806116a6565b600984018552602085209190601f198416865b8181106118b35750916001939185600996941061189a575b505050811b019101556116bc565b015160001960f88460031b161c1916905538808061188c565b92936020600181928786015181550195019301611874565b60098401855260208520601f840160051c810160208510611908575b601f830160051c820181106118fd57505061168b565b8681556001016118e7565b50806118e7565b60405162461bcd60e51b815260206004820152601c60248201527f5461782072657475726e20616c72656164792076616c696461746564000000006044820152606490fd5b60405162461bcd60e51b815260206004820152601460248201527315185e081c995d1d5c9b881b9bdd08199bdd5b9960621b6044820152606490fd5b60405162461bcd60e51b815260206004820152601960248201527f4e4252206f666669636572206973206e6f7420616374697665000000000000006044820152606490fd5b60405162461bcd60e51b815260206004820152602960248201527f4f6e6c79204e4252206f666669636572732063616e20706572666f726d20746860448201526834b99030b1ba34b7b760b91b6064820152608490fd5b61016081019081106001600160401b038211176105d757604052565b90601f801991011681019081106001600160401b038211176105d757604052565b81601f820112156107c9578035906001600160401b0382116105d75760405192611a9d601f8401601f191660200185611a48565b828452602083830101116107c957816000926020809301838601378301015290565b60005b838110611ad25750506000910152565b8181015183820152602001611ac2565b90602091611afb81518092818552858086019101611abf565b601f01601f1916010190565b97949192611b3d611b8f9c9a9794611b2f611b4b949d9a979d8c6101608091528d0190611ae2565b908b820360208d0152611ae2565b9089820360408b0152611ae2565b606088019990995260808701526001600160a01b031660a086015260c085015260e08401521515610100830152151561012082015280830361014090910152611ae2565b90565b600435906001600160a01b03821682036107c957565b90600182811c92168015611bd8575b6020831014611bc257565b634e487b7160e01b600052602260045260246000fd5b91607f1691611bb7565b9060405191826000825492611bf684611ba8565b908184526001948581169081600014611c655750600114611c22575b5050611c2092500383611a48565b565b9093915060005260209081600020936000915b818310611c4d575050611c2093508201013880611c12565b85548884018501529485019487945091830191611c35565b915050611c2094506020925060ff191682840152151560051b8201013880611c12565b600354811015611cbf5760036000527fc2575a0e9e593c00f959f8c92f12db2869c3395a3b0502d05e2516446f71f85b0190600090565b634e487b7160e01b600052603260045260246000fd5b600454811015611cbf5760046000527f8a35acfbc15ff81a39ae7d344fd709f28e8600b4aa8c65c6b64bfe7fe36bd19b0190600090565b15611d1357565b60405162461bcd60e51b815260206004820152602b60248201527f4f6e6c7920636f6e74726163742061646d696e2063616e20706572666f726d2060448201526a3a3434b99030b1ba34b7b760a91b6064820152608490fd5b9060009291805491611d7d83611ba8565b918282526001938481169081600014611ddf5750600114611d9f575b50505050565b90919394506000526020928360002092846000945b838610611dcb575050505001019038808080611d99565b805485870183015294019385908201611db4565b9294505050602093945060ff191683830152151560051b01019038808080611d99565b6000198114611e115760010190565b634e487b7160e01b600052601160045260246000fd5b6001600160401b0381116105d75760051b6020019056fea2646970667358221220da6d645880a175395a78c8773eea7ff52fb8db450c12643bcb5d1d40b5b64cbe64736f6c63430008130033","opcodes":"PUSH1 0x80 DUP1 PUSH1 0x40 MSTORE CALLVALUE PUSH2 0x35 JUMPI PUSH1 0x6 DUP1 SLOAD PUSH1 0x1 PUSH1 0x1 PUSH1 0xA0 SHL SUB NOT AND CALLER OR SWAP1 SSTORE PUSH1 0x5 DUP1 SLOAD PUSH1 0xFF PUSH1 0xA0 SHL NOT AND SWAP1 SSTORE PUSH2 0x1E74 SWAP1 DUP2 PUSH2 0x3B DUP3 CODECOPY RETURN JUMPDEST PUSH1 0x0 DUP1 REVERT INVALID PUSH1 0x80 PUSH1 0x40 MSTORE PUSH1 0x4 CALLDATASIZE LT ISZERO PUSH2 0x12 JUMPI PUSH1 0x0 DUP1 REVERT JUMPDEST PUSH1 0x0 DUP1 CALLDATALOAD PUSH1 0xE0 SHR DUP1 PUSH4 0xE78456B EQ PUSH2 0x1581 JUMPI DUP1 PUSH4 0x1909F285 EQ PUSH2 0x147A JUMPI DUP1 PUSH4 0x38EF2263 EQ PUSH2 0x13EB JUMPI DUP1 PUSH4 0x3E0A38B2 EQ PUSH2 0x13B1 JUMPI DUP1 PUSH4 0x4E2FF90B EQ PUSH2 0x138B JUMPI DUP1 PUSH4 0x5CC4881F EQ PUSH2 0x134C JUMPI DUP1 PUSH4 0x64B41C0D EQ PUSH2 0x132E JUMPI DUP1 PUSH4 0x6F5A5E1B EQ PUSH2 0x11B4 JUMPI DUP1 PUSH4 0x859F48D1 EQ PUSH2 0x1126 JUMPI DUP1 PUSH4 0x92C143D7 EQ PUSH2 0x1067 JUMPI DUP1 PUSH4 0x99D35123 EQ PUSH2 0x1023 JUMPI DUP1 PUSH4 0xA8FDB6D9 EQ PUSH2 0x7CE JUMPI DUP1 PUSH4 0xC4A45E2E EQ PUSH2 0x775 JUMPI DUP1 PUSH4 0xD8BFC1BF EQ PUSH2 0x6C6 JUMPI DUP1 PUSH4 0xDBA39B0F EQ PUSH2 0x69D JUMPI DUP1 PUSH4 0xE5B31DB6 EQ PUSH2 0x67F JUMPI DUP1 PUSH4 0xE933AB94 EQ PUSH2 0x1AF JUMPI DUP1 PUSH4 0xF394190A EQ PUSH2 0x119 JUMPI PUSH4 0xF851A440 EQ PUSH2 0xEE JUMPI PUSH1 0x0 DUP1 REVERT JUMPDEST CALLVALUE PUSH2 0x116 JUMPI DUP1 PUSH1 0x3 NOT CALLDATASIZE ADD SLT PUSH2 0x116 JUMPI PUSH1 0x6 SLOAD PUSH1 0x40 MLOAD PUSH1 0x1 PUSH1 0x1 PUSH1 0xA0 SHL SUB SWAP1 SWAP2 AND DUP2 MSTORE PUSH1 0x20 SWAP1 RETURN JUMPDEST DUP1 REVERT JUMPDEST POP CALLVALUE PUSH2 0x116 JUMPI PUSH1 0x20 CALLDATASIZE PUSH1 0x3 NOT ADD SLT PUSH2 0x116 JUMPI PUSH1 0x40 SWAP1 PUSH1 0x4 CALLDATALOAD DUP2 MSTORE DUP1 PUSH1 0x20 MSTORE KECCAK256 PUSH2 0x141 DUP2 PUSH2 0x1BE2 JUMP JUMPDEST PUSH2 0x1AB PUSH2 0x150 PUSH1 0x1 DUP5 ADD PUSH2 0x1BE2 JUMP JUMPDEST SWAP2 PUSH2 0x15D PUSH1 0x2 DUP6 ADD PUSH2 0x1BE2 JUMP JUMPDEST SWAP4 PUSH1 0x3 DUP2 ADD SLOAD SWAP2 PUSH1 0x4 DUP3 ADD SLOAD PUSH1 0x1 DUP1 PUSH1 0xA0 SHL SUB PUSH1 0x5 DUP5 ADD SLOAD AND PUSH1 0x6 DUP5 ADD SLOAD SWAP1 PUSH1 0x7 DUP6 ADD SLOAD SWAP3 PUSH2 0x193 PUSH1 0x9 PUSH1 0x8 DUP9 ADD SLOAD SWAP8 ADD PUSH2 0x1BE2 JUMP JUMPDEST SWAP7 PUSH1 0x40 MLOAD SWAP11 DUP12 SWAP11 PUSH1 0xFF DUP1 DUP11 PUSH1 0x8 SHR AND SWAP10 AND SWAP8 DUP13 PUSH2 0x1B07 JUMP JUMPDEST SUB SWAP1 RETURN JUMPDEST POP CALLVALUE PUSH2 0x116 JUMPI PUSH1 0x60 CALLDATASIZE PUSH1 0x3 NOT ADD SLT PUSH2 0x116 JUMPI PUSH2 0x1C9 PUSH2 0x1B92 JUMP JUMPDEST PUSH1 0x24 CALLDATALOAD PUSH1 0x1 PUSH1 0x1 PUSH1 0x40 SHL SUB DUP2 GT PUSH2 0x67B JUMPI PUSH2 0x1E8 SWAP1 CALLDATASIZE SWAP1 PUSH1 0x4 ADD PUSH2 0x1A69 JUMP JUMPDEST SWAP1 PUSH1 0x44 CALLDATALOAD PUSH1 0x1 PUSH1 0x1 PUSH1 0x40 SHL SUB DUP2 GT PUSH2 0x677 JUMPI PUSH2 0x208 SWAP1 CALLDATASIZE SWAP1 PUSH1 0x4 ADD PUSH2 0x1A69 JUMP JUMPDEST PUSH1 0x1 PUSH1 0x1 PUSH1 0xA0 SHL SUB DUP3 AND ISZERO PUSH2 0x632 JUMPI PUSH1 0x1 PUSH1 0x1 PUSH1 0xA0 SHL SUB DUP3 AND DUP5 MSTORE PUSH1 0x2 PUSH1 0x20 MSTORE PUSH1 0x40 DUP5 KECCAK256 SLOAD PUSH1 0xFF AND PUSH2 0x5ED JUMPI PUSH1 0x40 MLOAD PUSH1 0x80 DUP2 ADD DUP2 DUP2 LT PUSH1 0x1 PUSH1 0x1 PUSH1 0x40 SHL SUB DUP3 GT OR PUSH2 0x5D7 JUMPI PUSH1 0x40 SWAP1 DUP2 MSTORE PUSH1 0x1 PUSH1 0x1 PUSH1 0xA0 SHL SUB DUP5 DUP2 AND DUP1 DUP5 MSTORE PUSH1 0x20 DUP1 DUP6 ADD DUP9 DUP2 MSTORE DUP6 DUP6 ADD SWAP7 SWAP1 SWAP7 MSTORE PUSH1 0x1 PUSH1 0x60 DUP7 ADD DUP2 SWAP1 MSTORE SWAP2 DUP10 MSTORE MSTORE SWAP1 DUP7 KECCAK256 DUP3 MLOAD DUP2 SLOAD PUSH1 0x1 PUSH1 0x1 PUSH1 0xA0 SHL SUB NOT AND SWAP3 AND SWAP2 SWAP1 SWAP2 OR DUP2 SSTORE SWAP2 MLOAD DUP1 MLOAD SWAP1 PUSH1 0x1 PUSH1 0x1 PUSH1 0x40 SHL SUB DUP3 GT PUSH2 0x5C3 JUMPI DUP2 SWAP1 PUSH2 0x2B7 PUSH1 0x1 DUP7 ADD SLOAD PUSH2 0x1BA8 JUMP JUMPDEST PUSH1 0x1F DUP2 GT PUSH2 0x572 JUMPI JUMPDEST POP PUSH1 0x20 SWAP1 PUSH1 0x1F DUP4 GT PUSH1 0x1 EQ PUSH2 0x503 JUMPI DUP9 SWAP3 PUSH2 0x4F8 JUMPI JUMPDEST POP POP DUP2 PUSH1 0x1 SHL SWAP2 PUSH1 0x0 NOT SWAP1 PUSH1 0x3 SHL SHR NOT AND OR PUSH1 0x1 DUP4 ADD SSTORE JUMPDEST PUSH1 0x2 DUP3 ADD PUSH1 0x40 DUP3 ADD MLOAD DUP1 MLOAD SWAP1 PUSH1 0x1 PUSH1 0x1 PUSH1 0x40 SHL SUB DUP3 GT PUSH2 0x4E4 JUMPI PUSH2 0x312 DUP4 SLOAD PUSH2 0x1BA8 JUMP JUMPDEST PUSH1 0x1F DUP2 GT PUSH2 0x49E JUMPI JUMPDEST POP PUSH1 0x20 SWAP1 PUSH1 0x1F DUP4 GT PUSH1 0x1 EQ PUSH2 0x431 JUMPI SWAP3 DUP3 PUSH1 0x60 SWAP4 PUSH2 0x36A SWAP8 SWAP7 SWAP4 PUSH1 0x3 SWAP7 DUP13 SWAP3 PUSH2 0x426 JUMPI JUMPDEST POP POP DUP2 PUSH1 0x1 SHL SWAP2 PUSH1 0x0 NOT SWAP1 DUP8 SHL SHR NOT AND OR SWAP1 SSTORE JUMPDEST ADD MLOAD ISZERO ISZERO SWAP2 ADD SWAP1 PUSH1 0xFF DUP1 NOT DUP4 SLOAD AND SWAP2 ISZERO ISZERO AND OR SWAP1 SSTORE JUMP JUMPDEST PUSH1 0x1 PUSH1 0x1 PUSH1 0xA0 SHL SUB DUP2 AND DUP4 MSTORE PUSH1 0x2 PUSH1 0x20 MSTORE PUSH1 0x40 DUP4 KECCAK256 DUP1 SLOAD PUSH1 0xFF NOT AND PUSH1 0x1 OR SWAP1 SSTORE PUSH1 0x4 SLOAD PUSH1 0x1 PUSH1 0x40 SHL DUP2 LT ISZERO PUSH2 0x412 JUMPI PUSH32 0x719C84C4A121C5FEE77FC646839CFB2B38892A68EB6391421EB654057D18B858 SWAP2 PUSH2 0x3CE DUP3 PUSH1 0x1 PUSH2 0x40C SWAP5 ADD PUSH1 0x4 SSTORE PUSH2 0x1CD5 JUMP JUMPDEST DUP2 SLOAD SWAP1 PUSH1 0x3 SHL SWAP1 PUSH1 0x1 DUP1 PUSH1 0xA0 SHL SUB DUP5 AND DUP3 SHL SWAP2 PUSH1 0x1 DUP1 PUSH1 0xA0 SHL SUB SWAP1 SHL NOT AND OR SWAP1 SSTORE PUSH1 0x40 MLOAD SWAP2 DUP3 SWAP2 PUSH1 0x20 DUP4 MSTORE PUSH1 0x1 DUP1 PUSH1 0xA0 SHL SUB AND SWAP5 PUSH1 0x20 DUP4 ADD SWAP1 PUSH2 0x1AE2 JUMP JUMPDEST SUB SWAP1 LOG2 DUP1 RETURN JUMPDEST PUSH4 0x4E487B71 PUSH1 0xE0 SHL DUP5 MSTORE PUSH1 0x41 PUSH1 0x4 MSTORE PUSH1 0x24 DUP5 REVERT JUMPDEST ADD MLOAD SWAP1 POP CODESIZE DUP1 PUSH2 0x33F JUMP JUMPDEST DUP4 DUP10 MSTORE PUSH1 0x20 DUP10 KECCAK256 SWAP2 SWAP1 PUSH1 0x1F NOT DUP5 AND DUP11 JUMPDEST DUP2 DUP2 LT PUSH2 0x486 JUMPI POP SWAP4 PUSH2 0x36A SWAP8 SWAP7 SWAP4 PUSH1 0x3 SWAP7 SWAP4 PUSH1 0x1 SWAP4 DUP4 PUSH1 0x60 SWAP9 LT PUSH2 0x46E JUMPI JUMPDEST POP POP POP DUP2 SHL ADD SWAP1 SSTORE PUSH2 0x353 JUMP JUMPDEST ADD MLOAD PUSH1 0x0 NOT DUP4 DUP10 SHL PUSH1 0xF8 AND SHR NOT AND SWAP1 SSTORE CODESIZE DUP1 DUP1 PUSH2 0x461 JUMP JUMPDEST SWAP3 SWAP4 PUSH1 0x20 PUSH1 0x1 DUP2 SWAP3 DUP8 DUP7 ADD MLOAD DUP2 SSTORE ADD SWAP6 ADD SWAP4 ADD PUSH2 0x441 JUMP JUMPDEST DUP4 DUP10 MSTORE PUSH1 0x20 DUP10 KECCAK256 PUSH1 0x1F DUP5 ADD PUSH1 0x5 SHR DUP2 ADD SWAP2 PUSH1 0x20 DUP6 LT PUSH2 0x4DA JUMPI JUMPDEST PUSH1 0x1F ADD PUSH1 0x5 SHR ADD SWAP1 JUMPDEST DUP2 DUP2 LT PUSH2 0x4CE JUMPI POP PUSH2 0x31B JUMP JUMPDEST PUSH1 0x0 DUP2 SSTORE PUSH1 0x1 ADD PUSH2 0x4C1 JUMP JUMPDEST SWAP1 SWAP2 POP DUP2 SWAP1 PUSH2 0x4B8 JUMP JUMPDEST PUSH4 0x4E487B71 PUSH1 0xE0 SHL DUP9 MSTORE PUSH1 0x41 PUSH1 0x4 MSTORE PUSH1 0x24 DUP9 REVERT JUMPDEST ADD MLOAD SWAP1 POP CODESIZE DUP1 PUSH2 0x2D6 JUMP JUMPDEST SWAP3 POP PUSH1 0x1 DUP6 ADD DUP9 MSTORE PUSH1 0x20 DUP9 KECCAK256 SWAP1 DUP9 SWAP4 JUMPDEST PUSH1 0x1F NOT DUP5 AND DUP6 LT PUSH2 0x557 JUMPI PUSH1 0x1 SWAP5 POP DUP4 PUSH1 0x1F NOT DUP2 AND LT PUSH2 0x53E JUMPI JUMPDEST POP POP POP DUP2 SHL ADD PUSH1 0x1 DUP4 ADD SSTORE PUSH2 0x2EE JUMP JUMPDEST ADD MLOAD PUSH1 0x0 NOT PUSH1 0xF8 DUP5 PUSH1 0x3 SHL AND SHR NOT AND SWAP1 SSTORE CODESIZE DUP1 DUP1 PUSH2 0x52E JUMP JUMPDEST DUP2 DUP2 ADD MLOAD DUP4 SSTORE PUSH1 0x20 SWAP5 DUP6 ADD SWAP5 PUSH1 0x1 SWAP1 SWAP4 ADD SWAP3 SWAP1 SWAP2 ADD SWAP1 PUSH2 0x513 JUMP JUMPDEST SWAP1 SWAP2 POP PUSH1 0x1 DUP6 ADD DUP9 MSTORE PUSH1 0x20 DUP9 KECCAK256 PUSH1 0x1F DUP5 ADD PUSH1 0x5 SHR DUP2 ADD PUSH1 0x20 DUP6 LT PUSH2 0x5BC JUMPI JUMPDEST SWAP1 DUP5 SWAP4 SWAP3 SWAP2 JUMPDEST PUSH1 0x1F DUP4 ADD PUSH1 0x5 SHR DUP3 ADD DUP2 LT PUSH2 0x5AD JUMPI POP POP PUSH2 0x2C0 JUMP JUMPDEST PUSH1 0x0 DUP2 SSTORE DUP6 SWAP5 POP PUSH1 0x1 ADD PUSH2 0x597 JUMP JUMPDEST POP DUP1 PUSH2 0x591 JUMP JUMPDEST PUSH4 0x4E487B71 PUSH1 0xE0 SHL DUP8 MSTORE PUSH1 0x41 PUSH1 0x4 MSTORE PUSH1 0x24 DUP8 REVERT JUMPDEST PUSH4 0x4E487B71 PUSH1 0xE0 SHL PUSH1 0x0 MSTORE PUSH1 0x41 PUSH1 0x4 MSTORE PUSH1 0x24 PUSH1 0x0 REVERT JUMPDEST PUSH1 0x40 MLOAD PUSH3 0x461BCD PUSH1 0xE5 SHL DUP2 MSTORE PUSH1 0x20 PUSH1 0x4 DUP3 ADD MSTORE PUSH1 0x1A PUSH1 0x24 DUP3 ADD MSTORE PUSH32 0x4F66666963657220616C72656164792072656769737465726564000000000000 PUSH1 0x44 DUP3 ADD MSTORE PUSH1 0x64 SWAP1 REVERT JUMPDEST PUSH1 0x40 MLOAD PUSH3 0x461BCD PUSH1 0xE5 SHL DUP2 MSTORE PUSH1 0x20 PUSH1 0x4 DUP3 ADD MSTORE PUSH1 0x17 PUSH1 0x24 DUP3 ADD MSTORE PUSH32 0x496E76616C6964206F6666696365722061646472657373000000000000000000 PUSH1 0x44 DUP3 ADD MSTORE PUSH1 0x64 SWAP1 REVERT JUMPDEST DUP4 DUP1 REVERT JUMPDEST DUP3 DUP1 REVERT JUMPDEST POP CALLVALUE PUSH2 0x116 JUMPI DUP1 PUSH1 0x3 NOT CALLDATASIZE ADD SLT PUSH2 0x116 JUMPI PUSH1 0x20 PUSH1 0x3 SLOAD PUSH1 0x40 MLOAD SWAP1 DUP2 MSTORE RETURN JUMPDEST POP CALLVALUE PUSH2 0x116 JUMPI DUP1 PUSH1 0x3 NOT CALLDATASIZE ADD SLT PUSH2 0x116 JUMPI PUSH1 0x5 SLOAD PUSH1 0x40 MLOAD PUSH1 0x1 PUSH1 0x1 PUSH1 0xA0 SHL SUB SWAP1 SWAP2 AND DUP2 MSTORE PUSH1 0x20 SWAP1 RETURN JUMPDEST POP CALLVALUE PUSH2 0x116 JUMPI PUSH1 0x20 CALLDATASIZE PUSH1 0x3 NOT ADD SLT PUSH2 0x116 JUMPI PUSH1 0x1 PUSH1 0x1 PUSH1 0xA0 SHL SUB PUSH2 0x6E8 PUSH2 0x1B92 JUMP JUMPDEST AND DUP1 DUP3 MSTORE PUSH1 0x2 PUSH1 0x20 MSTORE PUSH1 0xFF PUSH1 0x40 DUP4 KECCAK256 SLOAD AND ISZERO PUSH2 0x73C JUMPI DUP1 DUP3 MSTORE PUSH1 0x1 PUSH1 0x20 MSTORE PUSH1 0x40 DUP3 KECCAK256 PUSH1 0x3 ADD DUP1 SLOAD PUSH1 0xFF NOT AND SWAP1 SSTORE PUSH32 0x53E8B0562E8503D058EBA7BE90F44EBB647E40DC84ABE2BEB5CF13E18CE256D3 DUP3 DUP1 LOG2 DUP1 RETURN JUMPDEST PUSH1 0x40 MLOAD PUSH3 0x461BCD PUSH1 0xE5 SHL DUP2 MSTORE PUSH1 0x20 PUSH1 0x4 DUP3 ADD MSTORE PUSH1 0x11 PUSH1 0x24 DUP3 ADD MSTORE PUSH17 0x13D9999A58D95C881B9BDD08199BDD5B99 PUSH1 0x7A SHL PUSH1 0x44 DUP3 ADD MSTORE PUSH1 0x64 SWAP1 REVERT JUMPDEST POP CALLVALUE PUSH2 0x116 JUMPI PUSH1 0x20 CALLDATASIZE PUSH1 0x3 NOT ADD SLT PUSH2 0x116 JUMPI PUSH1 0x4 CALLDATALOAD DUP1 ISZERO ISZERO DUP1 SWAP2 SUB PUSH2 0x7C9 JUMPI PUSH2 0x7A9 PUSH1 0x1 DUP1 PUSH1 0xA0 SHL SUB PUSH1 0x6 SLOAD AND CALLER EQ PUSH2 0x1D0C JUMP JUMPDEST PUSH1 0x5 DUP1 SLOAD PUSH1 0xFF PUSH1 0xA0 SHL NOT AND PUSH1 0xA0 SWAP3 SWAP1 SWAP3 SHL PUSH1 0xFF PUSH1 0xA0 SHL AND SWAP2 SWAP1 SWAP2 OR SWAP1 SSTORE DUP1 RETURN JUMPDEST PUSH1 0x0 DUP1 REVERT JUMPDEST POP CALLVALUE PUSH2 0x116 JUMPI PUSH1 0xA0 CALLDATASIZE PUSH1 0x3 NOT ADD SLT PUSH2 0x116 JUMPI PUSH1 0x4 CALLDATALOAD PUSH1 0x1 PUSH1 0x1 PUSH1 0x40 SHL SUB DUP2 GT PUSH2 0x101F JUMPI PUSH2 0x7FF SWAP1 CALLDATASIZE SWAP1 PUSH1 0x4 ADD PUSH2 0x1A69 JUMP JUMPDEST SWAP1 PUSH1 0x24 CALLDATALOAD PUSH1 0x1 PUSH1 0x1 PUSH1 0x40 SHL SUB DUP2 GT PUSH2 0x101F JUMPI PUSH2 0x81F SWAP1 CALLDATASIZE SWAP1 PUSH1 0x4 ADD PUSH2 0x1A69 JUMP JUMPDEST PUSH1 0x44 CALLDATALOAD PUSH1 0x1 PUSH1 0x1 PUSH1 0x40 SHL SUB DUP2 GT PUSH2 0x67B JUMPI PUSH2 0x83E SWAP1 CALLDATASIZE SWAP1 PUSH1 0x4 ADD PUSH2 0x1A69 JUMP JUMPDEST SWAP1 PUSH1 0x40 MLOAD PUSH1 0x20 DUP2 ADD SWAP1 PUSH2 0x87C PUSH1 0x20 DUP3 DUP9 MLOAD PUSH2 0x85C DUP2 DUP8 DUP6 DUP14 ADD PUSH2 0x1ABF JUMP JUMPDEST DUP2 ADD DUP7 MLOAD SWAP1 PUSH2 0x870 DUP3 DUP6 DUP4 ADD DUP7 DUP12 ADD PUSH2 0x1ABF JUMP JUMPDEST ADD SUB DUP1 DUP5 MSTORE ADD DUP3 PUSH2 0x1A48 JUMP JUMPDEST MLOAD SWAP1 KECCAK256 SWAP3 DUP4 DUP2 MSTORE DUP1 PUSH1 0x20 MSTORE PUSH1 0x6 PUSH1 0x40 DUP3 KECCAK256 ADD SLOAD PUSH2 0xFB4 JUMPI DUP5 MLOAD ISZERO PUSH2 0xF78 JUMPI DUP2 MLOAD ISZERO PUSH2 0xF33 JUMPI DUP3 MLOAD ISZERO PUSH2 0xEEE JUMPI PUSH1 0x40 MLOAD PUSH2 0x8B4 DUP2 PUSH2 0x1A2C JUMP JUMPDEST DUP6 DUP2 MSTORE DUP3 PUSH1 0x20 DUP3 ADD MSTORE DUP4 PUSH1 0x40 DUP3 ADD MSTORE PUSH1 0x64 CALLDATALOAD PUSH1 0x60 DUP3 ADD MSTORE PUSH1 0x84 CALLDATALOAD PUSH1 0x80 DUP3 ADD MSTORE DUP2 PUSH1 0xA0 DUP3 ADD MSTORE TIMESTAMP PUSH1 0xC0 DUP3 ADD MSTORE DUP2 PUSH1 0xE0 DUP3 ADD MSTORE DUP2 PUSH2 0x100 DUP3 ADD MSTORE DUP2 PUSH2 0x120 DUP3 ADD MSTORE PUSH1 0x40 MLOAD DUP1 PUSH1 0x20 DUP2 ADD LT PUSH1 0x1 PUSH1 0x1 PUSH1 0x40 SHL SUB PUSH1 0x20 DUP4 ADD GT OR PUSH2 0x5D7 JUMPI PUSH1 0x20 DUP2 ADD PUSH1 0x40 MSTORE DUP3 DUP2 MSTORE PUSH2 0x140 DUP3 ADD MSTORE DUP5 DUP3 MSTORE DUP2 PUSH1 0x20 MSTORE PUSH1 0x40 DUP3 KECCAK256 SWAP1 DUP1 MLOAD DUP1 MLOAD SWAP1 PUSH1 0x1 PUSH1 0x1 PUSH1 0x40 SHL SUB DUP3 GT PUSH2 0xD52 JUMPI DUP2 SWAP1 PUSH2 0x949 DUP6 SLOAD PUSH2 0x1BA8 JUMP JUMPDEST PUSH1 0x1F DUP2 GT PUSH2 0xEA0 JUMPI JUMPDEST POP PUSH1 0x20 SWAP1 PUSH1 0x1F DUP4 GT PUSH1 0x1 EQ PUSH2 0xE3C JUMPI DUP7 SWAP3 PUSH2 0xE31 JUMPI JUMPDEST POP POP DUP2 PUSH1 0x1 SHL SWAP2 PUSH1 0x0 NOT SWAP1 PUSH1 0x3 SHL SHR NOT AND OR DUP3 SSTORE JUMPDEST PUSH1 0x20 DUP2 ADD MLOAD DUP1 MLOAD SWAP1 PUSH1 0x1 PUSH1 0x1 PUSH1 0x40 SHL SUB DUP3 GT PUSH2 0xD52 JUMPI DUP2 SWAP1 PUSH2 0x9A2 PUSH1 0x1 DUP7 ADD SLOAD PUSH2 0x1BA8 JUMP JUMPDEST PUSH1 0x1F DUP2 GT PUSH2 0xDE0 JUMPI JUMPDEST POP PUSH1 0x20 SWAP1 PUSH1 0x1F DUP4 GT PUSH1 0x1 EQ PUSH2 0xD71 JUMPI DUP7 SWAP3 PUSH2 0xD66 JUMPI JUMPDEST POP POP DUP2 PUSH1 0x1 SHL SWAP2 PUSH1 0x0 NOT SWAP1 PUSH1 0x3 SHL SHR NOT AND OR PUSH1 0x1 DUP4 ADD SSTORE JUMPDEST PUSH1 0x40 DUP2 ADD MLOAD DUP1 MLOAD SWAP1 PUSH1 0x1 PUSH1 0x1 PUSH1 0x40 SHL SUB DUP3 GT PUSH2 0xD52 JUMPI PUSH2 0x9FC PUSH1 0x2 DUP6 ADD SLOAD PUSH2 0x1BA8 JUMP JUMPDEST PUSH1 0x1F DUP2 GT PUSH2 0xD0D JUMPI JUMPDEST POP PUSH1 0x20 SWAP1 PUSH1 0x1F DUP4 GT PUSH1 0x1 EQ PUSH2 0xC9C JUMPI PUSH2 0x140 SWAP4 SWAP3 SWAP2 DUP7 SWAP2 DUP4 PUSH2 0xC91 JUMPI JUMPDEST POP POP DUP2 PUSH1 0x1 SHL SWAP2 PUSH1 0x0 NOT SWAP1 PUSH1 0x3 SHL SHR NOT AND OR PUSH1 0x2 DUP5 ADD SSTORE JUMPDEST PUSH1 0x60 DUP2 ADD MLOAD PUSH1 0x3 DUP5 ADD SSTORE PUSH1 0x80 DUP2 ADD MLOAD PUSH1 0x4 DUP5 ADD SSTORE PUSH1 0x5 DUP4 ADD PUSH1 0x1 DUP1 PUSH1 0xA0 SHL SUB PUSH1 0xA0 DUP4 ADD MLOAD AND PUSH12 0xFFFFFFFFFFFFFFFFFFFFFFFF PUSH1 0xA0 SHL DUP3 SLOAD AND OR SWAP1 SSTORE PUSH1 0xC0 DUP2 ADD MLOAD PUSH1 0x6 DUP5 ADD SSTORE PUSH1 0xE0 DUP2 ADD MLOAD PUSH1 0x7 DUP5 ADD SSTORE PUSH2 0xAC9 PUSH1 0x8 DUP5 ADD PUSH2 0xAAD PUSH2 0x100 DUP5 ADD MLOAD ISZERO ISZERO DUP3 SWAP1 PUSH1 0xFF DUP1 NOT DUP4 SLOAD AND SWAP2 ISZERO ISZERO AND OR SWAP1 SSTORE JUMP JUMPDEST PUSH2 0x120 DUP4 ADD MLOAD DUP2 SLOAD PUSH2 0xFF00 NOT AND SWAP1 ISZERO ISZERO PUSH1 0x8 SHL PUSH2 0xFF00 AND OR SWAP1 SSTORE JUMP JUMPDEST ADD MLOAD DUP1 MLOAD SWAP1 PUSH1 0x1 PUSH1 0x1 PUSH1 0x40 SHL SUB DUP3 GT PUSH2 0x412 JUMPI PUSH2 0xAE9 PUSH1 0x9 DUP5 ADD SLOAD PUSH2 0x1BA8 JUMP JUMPDEST PUSH1 0x1F DUP2 GT PUSH2 0xC4C JUMPI JUMPDEST POP PUSH1 0x20 SWAP1 PUSH1 0x1F DUP4 GT PUSH1 0x1 EQ PUSH2 0xBE2 JUMPI PUSH1 0x9 SWAP3 SWAP2 DUP6 SWAP2 DUP4 PUSH2 0xBD7 JUMPI JUMPDEST POP POP DUP2 PUSH1 0x1 SHL SWAP2 PUSH1 0x0 NOT SWAP1 PUSH1 0x3 SHL SHR NOT AND OR SWAP2 ADD SSTORE JUMPDEST PUSH1 0x3 SLOAD SWAP1 PUSH1 0x1 PUSH1 0x40 SHL DUP3 LT ISZERO PUSH2 0xBC3 JUMPI POP PUSH1 0x20 SWAP5 PUSH2 0xBB8 DUP6 SWAP5 PUSH2 0xBAA PUSH32 0x600A8F65F402B7B59886DC07FBB0217252E712E12EC1B70263CB60EF5155F9BC SWAP6 PUSH2 0xB74 DUP7 PUSH1 0x1 PUSH2 0xB9D SWAP9 ADD PUSH1 0x3 SSTORE PUSH2 0x1C88 JUMP JUMPDEST DUP2 SLOAD SWAP1 PUSH1 0x3 SHL SWAP1 DUP11 DUP3 SHL SWAP2 PUSH1 0x0 NOT SWAP1 SHL NOT AND OR SWAP1 SSTORE PUSH1 0x40 MLOAD SWAP6 DUP7 SWAP6 PUSH1 0x60 DUP8 MSTORE PUSH1 0x60 DUP8 ADD SWAP1 PUSH2 0x1AE2 JUMP JUMPDEST SWAP1 DUP6 DUP3 SUB DUP12 DUP8 ADD MSTORE PUSH2 0x1AE2 JUMP JUMPDEST SWAP1 DUP4 DUP3 SUB PUSH1 0x40 DUP6 ADD MSTORE PUSH2 0x1AE2 JUMP JUMPDEST SUB SWAP1 LOG2 PUSH1 0x40 MLOAD SWAP1 DUP2 MSTORE RETURN JUMPDEST PUSH4 0x4E487B71 PUSH1 0xE0 SHL DUP2 MSTORE PUSH1 0x41 PUSH1 0x4 MSTORE PUSH1 0x24 SWAP1 REVERT JUMPDEST ADD MLOAD SWAP1 POP CODESIZE DUP1 PUSH2 0xB0D JUMP JUMPDEST PUSH1 0x9 DUP5 ADD DUP6 MSTORE PUSH1 0x20 DUP6 KECCAK256 SWAP2 SWAP1 PUSH1 0x1F NOT DUP5 AND DUP7 JUMPDEST DUP2 DUP2 LT PUSH2 0xC34 JUMPI POP SWAP2 PUSH1 0x1 SWAP4 SWAP2 DUP6 PUSH1 0x9 SWAP7 SWAP5 LT PUSH2 0xC1B JUMPI JUMPDEST POP POP POP DUP2 SHL ADD SWAP2 ADD SSTORE PUSH2 0xB23 JUMP JUMPDEST ADD MLOAD PUSH1 0x0 NOT PUSH1 0xF8 DUP5 PUSH1 0x3 SHL AND SHR NOT AND SWAP1 SSTORE CODESIZE DUP1 DUP1 PUSH2 0xC0D JUMP JUMPDEST SWAP3 SWAP4 PUSH1 0x20 PUSH1 0x1 DUP2 SWAP3 DUP8 DUP7 ADD MLOAD DUP2 SSTORE ADD SWAP6 ADD SWAP4 ADD PUSH2 0xBF5 JUMP JUMPDEST PUSH1 0x9 DUP5 ADD DUP6 MSTORE PUSH1 0x20 DUP6 KECCAK256 PUSH1 0x1F DUP5 ADD PUSH1 0x5 SHR DUP2 ADD PUSH1 0x20 DUP6 LT PUSH2 0xC8A JUMPI JUMPDEST PUSH1 0x1F DUP4 ADD PUSH1 0x5 SHR DUP3 ADD DUP2 LT PUSH2 0xC7E JUMPI POP POP PUSH2 0xAF2 JUMP JUMPDEST PUSH1 0x0 DUP2 SSTORE PUSH1 0x1 ADD PUSH2 0xC68 JUMP JUMPDEST POP DUP1 PUSH2 0xC68 JUMP JUMPDEST ADD MLOAD SWAP1 POP CODESIZE DUP1 PUSH2 0xA22 JUMP JUMPDEST SWAP1 PUSH1 0x2 DUP6 ADD DUP7 MSTORE PUSH1 0x20 DUP7 KECCAK256 SWAP2 DUP7 JUMPDEST PUSH1 0x1F NOT DUP6 AND DUP2 LT PUSH2 0xCF5 JUMPI POP SWAP2 DUP4 SWAP2 PUSH1 0x1 SWAP4 PUSH2 0x140 SWAP7 SWAP6 PUSH1 0x1F NOT DUP2 AND LT PUSH2 0xCDC JUMPI JUMPDEST POP POP POP DUP2 SHL ADD PUSH1 0x2 DUP5 ADD SSTORE PUSH2 0xA3A JUMP JUMPDEST ADD MLOAD PUSH1 0x0 NOT PUSH1 0xF8 DUP5 PUSH1 0x3 SHL AND SHR NOT AND SWAP1 SSTORE CODESIZE DUP1 DUP1 PUSH2 0xCCC JUMP JUMPDEST SWAP2 SWAP3 PUSH1 0x20 PUSH1 0x1 DUP2 SWAP3 DUP7 DUP6 ADD MLOAD DUP2 SSTORE ADD SWAP5 ADD SWAP3 ADD PUSH2 0xCAA JUMP JUMPDEST PUSH1 0x2 DUP6 ADD DUP7 MSTORE PUSH1 0x20 DUP7 KECCAK256 PUSH1 0x1F DUP5 ADD PUSH1 0x5 SHR DUP2 ADD PUSH1 0x20 DUP6 LT PUSH2 0xD4B JUMPI JUMPDEST PUSH1 0x1F DUP4 ADD PUSH1 0x5 SHR DUP3 ADD DUP2 LT PUSH2 0xD3F JUMPI POP POP PUSH2 0xA05 JUMP JUMPDEST PUSH1 0x0 DUP2 SSTORE PUSH1 0x1 ADD PUSH2 0xD29 JUMP JUMPDEST POP DUP1 PUSH2 0xD29 JUMP JUMPDEST PUSH4 0x4E487B71 PUSH1 0xE0 SHL DUP6 MSTORE PUSH1 0x41 PUSH1 0x4 MSTORE PUSH1 0x24 DUP6 REVERT JUMPDEST ADD MLOAD SWAP1 POP CODESIZE DUP1 PUSH2 0x9C1 JUMP JUMPDEST SWAP3 POP PUSH1 0x1 DUP6 ADD DUP7 MSTORE PUSH1 0x20 DUP7 KECCAK256 SWAP1 DUP7 SWAP4 JUMPDEST PUSH1 0x1F NOT DUP5 AND DUP6 LT PUSH2 0xDC5 JUMPI PUSH1 0x1 SWAP5 POP DUP4 PUSH1 0x1F NOT DUP2 AND LT PUSH2 0xDAC JUMPI JUMPDEST POP POP POP DUP2 SHL ADD PUSH1 0x1 DUP4 ADD SSTORE PUSH2 0x9D9 JUMP JUMPDEST ADD MLOAD PUSH1 0x0 NOT PUSH1 0xF8 DUP5 PUSH1 0x3 SHL AND SHR NOT AND SWAP1 SSTORE CODESIZE DUP1 DUP1 PUSH2 0xD9C JUMP JUMPDEST DUP2 DUP2 ADD MLOAD DUP4 SSTORE PUSH1 0x20 SWAP5 DUP6 ADD SWAP5 PUSH1 0x1 SWAP1 SWAP4 ADD SWAP3 SWAP1 SWAP2 ADD SWAP1 PUSH2 0xD81 JUMP JUMPDEST SWAP1 SWAP2 POP PUSH1 0x1 DUP6 ADD DUP7 MSTORE PUSH1 0x20 DUP7 KECCAK256 PUSH1 0x1F DUP5 ADD PUSH1 0x5 SHR DUP2 ADD PUSH1 0x20 DUP6 LT PUSH2 0xE2A JUMPI JUMPDEST SWAP1 DUP5 SWAP4 SWAP3 SWAP2 JUMPDEST PUSH1 0x1F DUP4 ADD PUSH1 0x5 SHR DUP3 ADD DUP2 LT PUSH2 0xE1B JUMPI POP POP PUSH2 0x9AB JUMP JUMPDEST PUSH1 0x0 DUP2 SSTORE DUP6 SWAP5 POP PUSH1 0x1 ADD PUSH2 0xE05 JUMP JUMPDEST POP DUP1 PUSH2 0xDFF JUMP JUMPDEST ADD MLOAD SWAP1 POP CODESIZE DUP1 PUSH2 0x968 JUMP JUMPDEST DUP6 DUP8 MSTORE PUSH1 0x20 DUP8 KECCAK256 SWAP3 POP PUSH1 0x1F NOT DUP5 AND DUP8 JUMPDEST DUP2 DUP2 LT PUSH2 0xE88 JUMPI POP SWAP1 DUP5 PUSH1 0x1 SWAP6 SWAP5 SWAP4 SWAP3 LT PUSH2 0xE6F JUMPI JUMPDEST POP POP POP DUP2 SHL ADD DUP3 SSTORE PUSH2 0x97D JUMP JUMPDEST ADD MLOAD PUSH1 0x0 NOT PUSH1 0xF8 DUP5 PUSH1 0x3 SHL AND SHR NOT AND SWAP1 SSTORE CODESIZE DUP1 DUP1 PUSH2 0xE62 JUMP JUMPDEST SWAP3 SWAP4 PUSH1 0x20 PUSH1 0x1 DUP2 SWAP3 DUP8 DUP7 ADD MLOAD DUP2 SSTORE ADD SWAP6 ADD SWAP4 ADD PUSH2 0xE4C JUMP JUMPDEST SWAP1 SWAP2 POP DUP5 DUP7 MSTORE PUSH1 0x20 DUP7 KECCAK256 PUSH1 0x1F DUP5 ADD PUSH1 0x5 SHR DUP2 ADD PUSH1 0x20 DUP6 LT PUSH2 0xEE7 JUMPI JUMPDEST SWAP1 DUP5 SWAP4 SWAP3 SWAP2 JUMPDEST PUSH1 0x1F DUP4 ADD PUSH1 0x5 SHR DUP3 ADD DUP2 LT PUSH2 0xED8 JUMPI POP POP PUSH2 0x952 JUMP JUMPDEST PUSH1 0x0 DUP2 SSTORE DUP6 SWAP5 POP PUSH1 0x1 ADD PUSH2 0xEC2 JUMP JUMPDEST POP DUP1 PUSH2 0xEBC JUMP JUMPDEST PUSH1 0x40 MLOAD PUSH3 0x461BCD PUSH1 0xE5 SHL DUP2 MSTORE PUSH1 0x20 PUSH1 0x4 DUP3 ADD MSTORE PUSH1 0x19 PUSH1 0x24 DUP3 ADD MSTORE PUSH32 0x4950465320686173682063616E6E6F7420626520656D70747900000000000000 PUSH1 0x44 DUP3 ADD MSTORE PUSH1 0x64 SWAP1 REVERT JUMPDEST PUSH1 0x40 MLOAD PUSH3 0x461BCD PUSH1 0xE5 SHL DUP2 MSTORE PUSH1 0x20 PUSH1 0x4 DUP3 ADD MSTORE PUSH1 0x1B PUSH1 0x24 DUP3 ADD MSTORE PUSH32 0x46697363616C20796561722063616E6E6F7420626520656D7074790000000000 PUSH1 0x44 DUP3 ADD MSTORE PUSH1 0x64 SWAP1 REVERT JUMPDEST PUSH1 0x40 MLOAD PUSH3 0x461BCD PUSH1 0xE5 SHL DUP2 MSTORE PUSH1 0x20 PUSH1 0x4 DUP3 ADD MSTORE PUSH1 0x14 PUSH1 0x24 DUP3 ADD MSTORE PUSH20 0x5449494E2063616E6E6F7420626520656D707479 PUSH1 0x60 SHL PUSH1 0x44 DUP3 ADD MSTORE PUSH1 0x64 SWAP1 REVERT JUMPDEST PUSH1 0x40 MLOAD PUSH3 0x461BCD PUSH1 0xE5 SHL DUP2 MSTORE PUSH1 0x20 PUSH1 0x4 DUP3 ADD MSTORE PUSH1 0x37 PUSH1 0x24 DUP3 ADD MSTORE PUSH32 0x5461782072657475726E20616C72656164792065786973747320666F72207468 PUSH1 0x44 DUP3 ADD MSTORE PUSH32 0x6973205449494E20616E642066697363616C2079656172000000000000000000 PUSH1 0x64 DUP3 ADD MSTORE PUSH1 0x84 SWAP1 REVERT JUMPDEST POP DUP1 REVERT JUMPDEST POP CALLVALUE PUSH2 0x116 JUMPI PUSH1 0x20 CALLDATASIZE PUSH1 0x3 NOT ADD SLT PUSH2 0x116 JUMPI PUSH1 0x4 CALLDATALOAD SWAP1 PUSH1 0x4 SLOAD DUP3 LT ISZERO PUSH2 0x116 JUMPI PUSH1 0x20 PUSH2 0x104E DUP4 PUSH2 0x1CD5 JUMP JUMPDEST SWAP1 SLOAD PUSH1 0x40 MLOAD PUSH1 0x3 SWAP3 SWAP1 SWAP3 SHL SHR PUSH1 0x1 PUSH1 0x1 PUSH1 0xA0 SHL SUB AND DUP2 MSTORE RETURN JUMPDEST POP CALLVALUE PUSH2 0x116 JUMPI PUSH1 0x20 CALLDATASIZE PUSH1 0x3 NOT ADD SLT PUSH2 0x116 JUMPI PUSH2 0x1081 PUSH2 0x1B92 JUMP JUMPDEST PUSH1 0x6 SLOAD PUSH1 0x1 PUSH1 0x1 PUSH1 0xA0 SHL SUB SWAP2 SWAP1 PUSH2 0x109B SWAP1 DUP4 AND CALLER EQ PUSH2 0x1D0C JUMP JUMPDEST AND DUP1 ISZERO PUSH2 0x10E1 JUMPI PUSH1 0x5 DUP1 SLOAD PUSH1 0x1 PUSH1 0x1 PUSH1 0xA8 SHL SUB NOT AND DUP3 OR PUSH1 0x1 PUSH1 0xA0 SHL OR SWAP1 SSTORE PUSH32 0xE9F1A2460C2E42096AD297BE3ECAE6677C679E7A64D6E626D10DFB0413FFD567 DUP3 DUP1 LOG2 DUP1 RETURN JUMPDEST PUSH1 0x40 MLOAD PUSH3 0x461BCD PUSH1 0xE5 SHL DUP2 MSTORE PUSH1 0x20 PUSH1 0x4 DUP3 ADD MSTORE PUSH1 0x1F PUSH1 0x24 DUP3 ADD MSTORE PUSH32 0x496E76616C6964206E6174696F6E616C206C6564676572206164647265737300 PUSH1 0x44 DUP3 ADD MSTORE PUSH1 0x64 SWAP1 REVERT JUMPDEST POP CALLVALUE PUSH2 0x116 JUMPI PUSH1 0x40 CALLDATASIZE PUSH1 0x3 NOT ADD SLT PUSH2 0x116 JUMPI PUSH1 0x1 PUSH1 0x1 PUSH1 0x40 SHL SUB SWAP1 PUSH1 0x4 CALLDATALOAD DUP3 DUP2 GT PUSH2 0x101F JUMPI PUSH2 0x1159 SWAP1 CALLDATASIZE SWAP1 PUSH1 0x4 ADD PUSH2 0x1A69 JUMP JUMPDEST SWAP1 PUSH1 0x24 CALLDATALOAD SWAP3 DUP4 GT PUSH2 0x116 JUMPI POP PUSH2 0x1176 PUSH2 0x11A9 SWAP3 CALLDATASIZE SWAP1 PUSH1 0x4 ADD PUSH2 0x1A69 JUMP JUMPDEST PUSH1 0x40 MLOAD SWAP3 DUP4 SWAP2 PUSH1 0x20 SWAP5 DUP6 SWAP2 DUP3 PUSH2 0x1195 DUP2 DUP5 ADD SWAP8 DUP9 DUP2 MLOAD SWAP4 DUP5 SWAP3 ADD PUSH2 0x1ABF JUMP JUMPDEST DUP3 ADD PUSH2 0x870 DUP3 MLOAD DUP1 SWAP4 DUP7 DUP1 DUP6 ADD SWAP2 ADD PUSH2 0x1ABF JUMP JUMPDEST MLOAD SWAP1 KECCAK256 PUSH1 0x40 MLOAD SWAP1 DUP2 MSTORE RETURN JUMPDEST POP CALLVALUE PUSH2 0x116 JUMPI DUP1 PUSH1 0x3 NOT CALLDATASIZE ADD SLT PUSH2 0x116 JUMPI PUSH1 0x3 DUP1 SLOAD SWAP1 DUP3 DUP1 JUMPDEST DUP4 DUP2 LT PUSH2 0x12DB JUMPI POP PUSH2 0x11F7 PUSH2 0x11E1 DUP6 PUSH2 0x1E27 JUMP JUMPDEST SWAP5 PUSH2 0x11EF PUSH1 0x40 MLOAD SWAP7 DUP8 PUSH2 0x1A48 JUMP JUMPDEST DUP1 DUP7 MSTORE PUSH2 0x1E27 JUMP JUMPDEST PUSH1 0x20 SWAP4 DUP6 DUP6 ADD SWAP4 SWAP2 PUSH1 0x1F NOT ADD CALLDATASIZE DUP6 CALLDATACOPY DUP3 SWAP2 DUP4 JUMPDEST DUP3 DUP2 LT PUSH2 0x1253 JUMPI POP POP POP POP PUSH1 0x40 MLOAD SWAP4 DUP4 DUP6 SWAP5 DUP6 ADD SWAP2 DUP2 DUP7 MSTORE MLOAD DUP1 SWAP3 MSTORE PUSH1 0x40 DUP6 ADD SWAP4 SWAP3 JUMPDEST DUP3 DUP2 LT PUSH2 0x123C JUMPI POP POP POP POP SUB SWAP1 RETURN JUMPDEST DUP4 MLOAD DUP6 MSTORE DUP7 SWAP6 POP SWAP4 DUP2 ADD SWAP4 SWAP3 DUP2 ADD SWAP3 PUSH1 0x1 ADD PUSH2 0x122D JUMP JUMPDEST PUSH2 0x1261 DUP2 SWAP9 SWAP7 SWAP8 SWAP6 SWAP9 PUSH2 0x1C88 JUMP JUMPDEST SWAP1 SLOAD SWAP1 DUP4 SHL SHR DUP9 MSTORE DUP8 DUP6 MSTORE PUSH1 0xFF PUSH1 0x8 PUSH1 0x40 DUP11 KECCAK256 ADD SLOAD AND ISZERO PUSH2 0x1290 JUMPI JUMPDEST PUSH2 0x1286 SWAP1 PUSH2 0x1E02 JUMP JUMPDEST SWAP7 SWAP4 SWAP6 SWAP5 SWAP7 PUSH2 0x120A JUMP JUMPDEST SWAP3 PUSH2 0x129A DUP5 PUSH2 0x1C88 JUMP JUMPDEST SWAP1 SLOAD SWAP1 DUP4 SHL SHR DUP7 MLOAD DUP3 LT ISZERO PUSH2 0x12C7 JUMPI DUP2 PUSH2 0x12BF SWAP2 DUP8 PUSH2 0x1286 SWAP5 PUSH1 0x5 SHL DUP11 ADD ADD MSTORE PUSH2 0x1E02 JUMP JUMPDEST SWAP4 SWAP1 POP PUSH2 0x127D JUMP JUMPDEST PUSH4 0x4E487B71 PUSH1 0xE0 SHL DUP10 MSTORE PUSH1 0x32 PUSH1 0x4 MSTORE PUSH1 0x24 DUP10 REVERT JUMPDEST PUSH2 0x12E9 DUP2 SWAP6 SWAP4 SWAP5 SWAP3 SWAP6 PUSH2 0x1C88 JUMP JUMPDEST SWAP1 SLOAD SWAP1 DUP6 SHL SHR DUP6 MSTORE DUP5 PUSH1 0x20 MSTORE PUSH1 0xFF PUSH1 0x8 PUSH1 0x40 DUP8 KECCAK256 ADD SLOAD AND ISZERO PUSH2 0x1319 JUMPI JUMPDEST PUSH2 0x130F SWAP1 PUSH2 0x1E02 JUMP JUMPDEST SWAP4 SWAP1 SWAP3 SWAP2 SWAP4 PUSH2 0x11CD JUMP JUMPDEST SWAP2 PUSH2 0x1326 PUSH2 0x130F SWAP2 PUSH2 0x1E02 JUMP JUMPDEST SWAP3 SWAP1 POP PUSH2 0x1306 JUMP JUMPDEST POP CALLVALUE PUSH2 0x116 JUMPI DUP1 PUSH1 0x3 NOT CALLDATASIZE ADD SLT PUSH2 0x116 JUMPI PUSH1 0x20 PUSH1 0x4 SLOAD PUSH1 0x40 MLOAD SWAP1 DUP2 MSTORE RETURN JUMPDEST POP CALLVALUE PUSH2 0x116 JUMPI PUSH1 0x20 CALLDATASIZE PUSH1 0x3 NOT ADD SLT PUSH2 0x116 JUMPI PUSH1 0x20 SWAP1 PUSH1 0xFF SWAP1 PUSH1 0x40 SWAP1 PUSH1 0x1 PUSH1 0x1 PUSH1 0xA0 SHL SUB PUSH2 0x1377 PUSH2 0x1B92 JUMP JUMPDEST AND DUP2 MSTORE PUSH1 0x2 DUP5 MSTORE KECCAK256 SLOAD AND PUSH1 0x40 MLOAD SWAP1 ISZERO ISZERO DUP2 MSTORE RETURN JUMPDEST POP CALLVALUE PUSH2 0x116 JUMPI DUP1 PUSH1 0x3 NOT CALLDATASIZE ADD SLT PUSH2 0x116 JUMPI PUSH1 0x20 PUSH1 0xFF PUSH1 0x5 SLOAD PUSH1 0xA0 SHR AND PUSH1 0x40 MLOAD SWAP1 ISZERO ISZERO DUP2 MSTORE RETURN JUMPDEST POP CALLVALUE PUSH2 0x116 JUMPI PUSH1 0x20 CALLDATASIZE PUSH1 0x3 NOT ADD SLT PUSH2 0x116 JUMPI PUSH1 0x4 CALLDATALOAD SWAP1 PUSH1 0x3 SLOAD DUP3 LT ISZERO PUSH2 0x116 JUMPI PUSH1 0x20 PUSH2 0x13DC DUP4 PUSH2 0x1C88 JUMP JUMPDEST SWAP1 SLOAD SWAP1 PUSH1 0x3 SHL SHR PUSH1 0x40 MLOAD SWAP1 DUP2 MSTORE RETURN JUMPDEST POP CALLVALUE PUSH2 0x116 JUMPI PUSH1 0x20 CALLDATASIZE PUSH1 0x3 NOT ADD SLT PUSH2 0x116 JUMPI PUSH1 0x1 PUSH1 0x1 PUSH1 0xA0 SHL SUB SWAP1 PUSH1 0x40 SWAP1 DUP3 PUSH2 0x1412 PUSH2 0x1B92 JUMP JUMPDEST AND DUP2 MSTORE PUSH1 0x1 PUSH1 0x20 MSTORE KECCAK256 SWAP1 DUP2 SLOAD AND PUSH2 0x142B PUSH1 0x1 DUP4 ADD PUSH2 0x1BE2 JUMP JUMPDEST SWAP2 PUSH2 0x146E PUSH1 0xFF PUSH1 0x3 PUSH2 0x143F PUSH1 0x2 DUP6 ADD PUSH2 0x1BE2 JUMP JUMPDEST SWAP4 ADD SLOAD AND SWAP2 PUSH2 0x1460 PUSH1 0x40 MLOAD SWAP6 DUP7 SWAP6 DUP7 MSTORE PUSH1 0x80 PUSH1 0x20 DUP8 ADD MSTORE PUSH1 0x80 DUP7 ADD SWAP1 PUSH2 0x1AE2 JUMP JUMPDEST SWAP1 DUP5 DUP3 SUB PUSH1 0x40 DUP7 ADD MSTORE PUSH2 0x1AE2 JUMP JUMPDEST SWAP1 ISZERO ISZERO PUSH1 0x60 DUP4 ADD MSTORE SUB SWAP1 RETURN JUMPDEST POP CALLVALUE PUSH2 0x116 JUMPI PUSH1 0x20 CALLDATASIZE PUSH1 0x3 NOT ADD SLT PUSH2 0x116 JUMPI PUSH1 0x40 SWAP1 PUSH1 0x4 CALLDATALOAD DUP2 MSTORE DUP1 PUSH1 0x20 MSTORE KECCAK256 PUSH1 0x40 MLOAD PUSH2 0x14A5 DUP2 PUSH2 0x1A2C JUMP JUMPDEST PUSH2 0x14AE DUP3 PUSH2 0x1BE2 JUMP JUMPDEST DUP2 MSTORE PUSH2 0x1AB PUSH2 0x14BF PUSH1 0x1 DUP5 ADD PUSH2 0x1BE2 JUMP JUMPDEST SWAP2 PUSH1 0x20 DUP2 ADD SWAP3 DUP4 MSTORE PUSH2 0x14D3 PUSH1 0x2 DUP6 ADD PUSH2 0x1BE2 JUMP JUMPDEST SWAP4 PUSH1 0x40 DUP3 ADD SWAP5 DUP6 MSTORE PUSH1 0x3 DUP2 ADD SLOAD SWAP1 PUSH1 0x60 DUP4 ADD SWAP2 DUP3 MSTORE PUSH1 0x4 DUP2 ADD SLOAD SWAP1 PUSH1 0x80 DUP5 ADD SWAP2 DUP3 MSTORE PUSH1 0x1 DUP1 PUSH1 0xA0 SHL SUB SWAP2 DUP3 PUSH1 0x5 DUP4 ADD SLOAD AND PUSH1 0xA0 DUP7 ADD SWAP1 DUP2 MSTORE PUSH1 0x6 DUP4 ADD SLOAD SWAP1 PUSH1 0xC0 DUP8 ADD SWAP2 DUP3 MSTORE PUSH1 0x7 DUP5 ADD SLOAD SWAP3 PUSH1 0xE0 DUP9 ADD SWAP4 DUP5 MSTORE PUSH1 0x8 DUP6 ADD SLOAD SWAP6 PUSH2 0x1554 PUSH1 0x9 PUSH2 0x100 DUP12 ADD SWAP8 PUSH1 0xFF DUP11 AND ISZERO ISZERO DUP10 MSTORE PUSH1 0xFF PUSH2 0x120 DUP14 ADD SWAP11 PUSH1 0x8 SHR AND ISZERO ISZERO DUP11 MSTORE ADD PUSH2 0x1BE2 JUMP JUMPDEST SWAP9 DUP10 PUSH2 0x140 DUP3 ADD MSTORE MLOAD SWAP11 MLOAD SWAP12 MLOAD SWAP8 MLOAD SWAP2 MLOAD SWAP3 MLOAD AND SWAP3 MLOAD SWAP4 MLOAD SWAP5 MLOAD ISZERO ISZERO SWAP6 MLOAD ISZERO ISZERO SWAP7 PUSH1 0x40 MLOAD SWAP12 DUP13 SWAP12 DUP13 PUSH2 0x1B07 JUMP JUMPDEST POP CALLVALUE PUSH2 0x116 JUMPI PUSH1 0x60 CALLDATASIZE PUSH1 0x3 NOT ADD SLT PUSH2 0x116 JUMPI PUSH1 0x24 CALLDATALOAD ISZERO ISZERO PUSH1 0x24 CALLDATALOAD SUB PUSH2 0x116 JUMPI PUSH1 0x44 CALLDATALOAD PUSH1 0x1 PUSH1 0x1 PUSH1 0x40 SHL SUB DUP2 GT PUSH2 0x101F JUMPI PUSH2 0x15BF SWAP1 CALLDATASIZE SWAP1 PUSH1 0x4 ADD PUSH2 0x1A69 JUMP JUMPDEST CALLER DUP3 MSTORE PUSH1 0x2 PUSH1 0x20 MSTORE PUSH1 0xFF PUSH1 0x40 DUP4 KECCAK256 SLOAD AND ISZERO PUSH2 0x19D5 JUMPI CALLER DUP3 MSTORE PUSH1 0x1 PUSH1 0x20 MSTORE PUSH1 0xFF PUSH1 0x3 PUSH1 0x40 DUP5 KECCAK256 ADD SLOAD AND ISZERO PUSH2 0x1990 JUMPI PUSH1 0x4 CALLDATALOAD DUP3 MSTORE DUP2 PUSH1 0x20 MSTORE PUSH1 0x6 PUSH1 0x40 DUP4 KECCAK256 ADD SLOAD ISZERO PUSH2 0x1954 JUMPI PUSH1 0x4 CALLDATALOAD DUP3 MSTORE DUP2 PUSH1 0x20 MSTORE PUSH1 0xFF PUSH1 0x8 PUSH1 0x40 DUP5 KECCAK256 ADD SLOAD AND PUSH2 0x190F JUMPI PUSH1 0x4 CALLDATALOAD DUP3 MSTORE PUSH1 0x20 DUP3 SWAP1 MSTORE PUSH1 0x40 DUP3 KECCAK256 PUSH1 0x5 DUP2 ADD DUP1 SLOAD PUSH1 0x1 PUSH1 0x1 PUSH1 0xA0 SHL SUB NOT AND CALLER OR SWAP1 SSTORE TIMESTAMP PUSH1 0x7 DUP3 ADD SSTORE PUSH1 0x8 DUP1 DUP3 ADD DUP1 SLOAD PUSH2 0xFFFF NOT AND PUSH1 0x24 CALLDATALOAD ISZERO ISZERO SWAP1 SWAP3 SHL PUSH2 0xFF00 AND SWAP2 SWAP1 SWAP2 OR PUSH1 0x1 OR SWAP1 SSTORE SWAP1 DUP1 MLOAD SWAP1 PUSH1 0x1 PUSH1 0x1 PUSH1 0x40 SHL SUB DUP3 GT PUSH2 0x412 JUMPI PUSH2 0x1682 PUSH1 0x9 DUP5 ADD SLOAD PUSH2 0x1BA8 JUMP JUMPDEST PUSH1 0x1F DUP2 GT PUSH2 0x18CB JUMPI JUMPDEST POP PUSH1 0x20 SWAP1 PUSH1 0x1F DUP4 GT PUSH1 0x1 EQ PUSH2 0x1861 JUMPI PUSH1 0x9 SWAP3 SWAP2 DUP6 SWAP2 DUP4 PUSH2 0x1856 JUMPI JUMPDEST POP POP DUP2 PUSH1 0x1 SHL SWAP2 PUSH1 0x0 NOT SWAP1 PUSH1 0x3 SHL SHR NOT AND OR SWAP2 ADD SSTORE JUMPDEST PUSH1 0x24 CALLDATALOAD DUP1 PUSH2 0x1847 JUMPI JUMPDEST DUP1 PUSH2 0x1833 JUMPI JUMPDEST PUSH2 0x170B JUMPI JUMPDEST PUSH1 0x40 MLOAD CALLER DUP2 MSTORE PUSH1 0x24 CALLDATALOAD ISZERO ISZERO PUSH1 0x20 DUP3 ADD MSTORE PUSH32 0x247C3744BFD251D2F7B1FC61F63CE2F03516EB9442A74CDB2C321B8D36202EFE PUSH1 0x40 PUSH1 0x4 CALLDATALOAD SWAP3 LOG2 DUP1 RETURN JUMPDEST PUSH1 0x1 DUP1 PUSH1 0xA0 SHL SUB PUSH1 0x5 SLOAD AND SWAP1 PUSH1 0x4 CALLDATALOAD DUP2 MSTORE DUP1 PUSH1 0x20 MSTORE PUSH1 0x40 DUP2 KECCAK256 SWAP2 PUSH1 0x4 DUP4 ADD SLOAD DUP2 EXTCODESIZE ISZERO PUSH2 0x67B JUMPI DUP3 SWAP2 PUSH2 0x1780 DUP4 PUSH1 0x2 SWAP4 PUSH2 0x1799 PUSH1 0x40 MLOAD SWAP9 DUP10 SWAP7 DUP8 SWAP6 DUP7 SWAP5 PUSH4 0x6C58FD57 PUSH1 0xE0 SHL DUP7 MSTORE PUSH1 0xA0 PUSH1 0x4 DUP8 ADD MSTORE PUSH2 0x1765 PUSH1 0xA4 DUP8 ADD DUP6 PUSH2 0x1D6C JUMP JUMPDEST SWAP1 PUSH1 0x24 DUP8 ADD MSTORE PUSH1 0x3 NOT DUP7 DUP3 SUB ADD PUSH1 0x44 DUP8 ADD MSTORE PUSH1 0x1 DUP5 ADD PUSH2 0x1D6C JUMP JUMPDEST CALLER PUSH1 0x64 DUP7 ADD MSTORE DUP5 DUP2 SUB PUSH1 0x3 NOT ADD PUSH1 0x84 DUP7 ADD MSTORE SWAP2 ADD PUSH2 0x1D6C JUMP JUMPDEST SUB SWAP3 GAS CALL SWAP2 DUP3 PUSH2 0x1808 JUMPI JUMPDEST POP SWAP1 ISZERO PUSH2 0x16D0 JUMPI PUSH1 0x4 CALLDATALOAD DUP2 MSTORE DUP1 PUSH1 0x20 MSTORE PUSH1 0x40 DUP2 KECCAK256 PUSH32 0x8D35D6B30431D1F0F6CDDF9DE9C98BF865C9FBE19AAF6F6C25E0121CB5856566 PUSH1 0x4 DUP3 ADD SLOAD PUSH1 0x40 MLOAD SWAP1 DUP2 MSTORE PUSH1 0x40 PUSH1 0x20 DUP3 ADD MSTORE DUP1 PUSH2 0x1800 PUSH1 0x4 CALLDATALOAD SWAP5 PUSH1 0x1 PUSH1 0x40 DUP5 ADD SWAP2 ADD PUSH2 0x1D6C JUMP JUMPDEST SUB SWAP1 LOG2 PUSH2 0x16D0 JUMP JUMPDEST PUSH1 0x1 PUSH1 0x1 PUSH1 0x40 SHL SUB DUP2 GT PUSH2 0x181F JUMPI PUSH1 0x40 MSTORE CODESIZE PUSH2 0x17A4 JUMP JUMPDEST PUSH4 0x4E487B71 PUSH1 0xE0 SHL DUP3 MSTORE PUSH1 0x41 PUSH1 0x4 MSTORE PUSH1 0x24 DUP3 REVERT JUMPDEST POP PUSH1 0x5 SLOAD PUSH1 0x1 PUSH1 0x1 PUSH1 0xA0 SHL SUB AND ISZERO ISZERO PUSH2 0x16CB JUMP JUMPDEST POP PUSH1 0xFF PUSH1 0x5 SLOAD PUSH1 0xA0 SHR AND PUSH2 0x16C5 JUMP JUMPDEST ADD MLOAD SWAP1 POP CODESIZE DUP1 PUSH2 0x16A6 JUMP JUMPDEST PUSH1 0x9 DUP5 ADD DUP6 MSTORE PUSH1 0x20 DUP6 KECCAK256 SWAP2 SWAP1 PUSH1 0x1F NOT DUP5 AND DUP7 JUMPDEST DUP2 DUP2 LT PUSH2 0x18B3 JUMPI POP SWAP2 PUSH1 0x1 SWAP4 SWAP2 DUP6 PUSH1 0x9 SWAP7 SWAP5 LT PUSH2 0x189A JUMPI JUMPDEST POP POP POP DUP2 SHL ADD SWAP2 ADD SSTORE PUSH2 0x16BC JUMP JUMPDEST ADD MLOAD PUSH1 0x0 NOT PUSH1 0xF8 DUP5 PUSH1 0x3 SHL AND SHR NOT AND SWAP1 SSTORE CODESIZE DUP1 DUP1 PUSH2 0x188C JUMP JUMPDEST SWAP3 SWAP4 PUSH1 0x20 PUSH1 0x1 DUP2 SWAP3 DUP8 DUP7 ADD MLOAD DUP2 SSTORE ADD SWAP6 ADD SWAP4 ADD PUSH2 0x1874 JUMP JUMPDEST PUSH1 0x9 DUP5 ADD DUP6 MSTORE PUSH1 0x20 DUP6 KECCAK256 PUSH1 0x1F DUP5 ADD PUSH1 0x5 SHR DUP2 ADD PUSH1 0x20 DUP6 LT PUSH2 0x1908 JUMPI JUMPDEST PUSH1 0x1F DUP4 ADD PUSH1 0x5 SHR DUP3 ADD DUP2 LT PUSH2 0x18FD JUMPI POP POP PUSH2 0x168B JUMP JUMPDEST DUP7 DUP2 SSTORE PUSH1 0x1 ADD PUSH2 0x18E7 JUMP JUMPDEST POP DUP1 PUSH2 0x18E7 JUMP JUMPDEST PUSH1 0x40 MLOAD PUSH3 0x461BCD PUSH1 0xE5 SHL DUP2 MSTORE PUSH1 0x20 PUSH1 0x4 DUP3 ADD MSTORE PUSH1 0x1C PUSH1 0x24 DUP3 ADD MSTORE PUSH32 0x5461782072657475726E20616C72656164792076616C69646174656400000000 PUSH1 0x44 DUP3 ADD MSTORE PUSH1 0x64 SWAP1 REVERT JUMPDEST PUSH1 0x40 MLOAD PUSH3 0x461BCD PUSH1 0xE5 SHL DUP2 MSTORE PUSH1 0x20 PUSH1 0x4 DUP3 ADD MSTORE PUSH1 0x14 PUSH1 0x24 DUP3 ADD MSTORE PUSH20 0x15185E081C995D1D5C9B881B9BDD08199BDD5B99 PUSH1 0x62 SHL PUSH1 0x44 DUP3 ADD MSTORE PUSH1 0x64 SWAP1 REVERT JUMPDEST PUSH1 0x40 MLOAD PUSH3 0x461BCD PUSH1 0xE5 SHL DUP2 MSTORE PUSH1 0x20 PUSH1 0x4 DUP3 ADD MSTORE PUSH1 0x19 PUSH1 0x24 DUP3 ADD MSTORE PUSH32 0x4E4252206F666669636572206973206E6F742061637469766500000000000000 PUSH1 0x44 DUP3 ADD MSTORE PUSH1 0x64 SWAP1 REVERT JUMPDEST PUSH1 0x40 MLOAD PUSH3 0x461BCD PUSH1 0xE5 SHL DUP2 MSTORE PUSH1 0x20 PUSH1 0x4 DUP3 ADD MSTORE PUSH1 0x29 PUSH1 0x24 DUP3 ADD MSTORE PUSH32 0x4F6E6C79204E4252206F666669636572732063616E20706572666F726D207468 PUSH1 0x44 DUP3 ADD MSTORE PUSH9 0x34B99030B1BA34B7B7 PUSH1 0xB9 SHL PUSH1 0x64 DUP3 ADD MSTORE PUSH1 0x84 SWAP1 REVERT JUMPDEST PUSH2 0x160 DUP2 ADD SWAP1 DUP2 LT PUSH1 0x1 PUSH1 0x1 PUSH1 0x40 SHL SUB DUP3 GT OR PUSH2 0x5D7 JUMPI PUSH1 0x40 MSTORE JUMP JUMPDEST SWAP1 PUSH1 0x1F DUP1 NOT SWAP2 ADD AND DUP2 ADD SWAP1 DUP2 LT PUSH1 0x1 PUSH1 0x1 PUSH1 0x40 SHL SUB DUP3 GT OR PUSH2 0x5D7 JUMPI PUSH1 0x40 MSTORE JUMP JUMPDEST DUP2 PUSH1 0x1F DUP3 ADD SLT ISZERO PUSH2 0x7C9 JUMPI DUP1 CALLDATALOAD SWAP1 PUSH1 0x1 PUSH1 0x1 PUSH1 0x40 SHL SUB DUP3 GT PUSH2 0x5D7 JUMPI PUSH1 0x40 MLOAD SWAP3 PUSH2 0x1A9D PUSH1 0x1F DUP5 ADD PUSH1 0x1F NOT AND PUSH1 0x20 ADD DUP6 PUSH2 0x1A48 JUMP JUMPDEST DUP3 DUP5 MSTORE PUSH1 0x20 DUP4 DUP4 ADD ADD GT PUSH2 0x7C9 JUMPI DUP2 PUSH1 0x0 SWAP3 PUSH1 0x20 DUP1 SWAP4 ADD DUP4 DUP7 ADD CALLDATACOPY DUP4 ADD ADD MSTORE SWAP1 JUMP JUMPDEST PUSH1 0x0 JUMPDEST DUP4 DUP2 LT PUSH2 0x1AD2 JUMPI POP POP PUSH1 0x0 SWAP2 ADD MSTORE JUMP JUMPDEST DUP2 DUP2 ADD MLOAD DUP4 DUP3 ADD MSTORE PUSH1 0x20 ADD PUSH2 0x1AC2 JUMP JUMPDEST SWAP1 PUSH1 0x20 SWAP2 PUSH2 0x1AFB DUP2 MLOAD DUP1 SWAP3 DUP2 DUP6 MSTORE DUP6 DUP1 DUP7 ADD SWAP2 ADD PUSH2 0x1ABF JUMP JUMPDEST PUSH1 0x1F ADD PUSH1 0x1F NOT AND ADD ADD SWAP1 JUMP JUMPDEST SWAP8 SWAP5 SWAP2 SWAP3 PUSH2 0x1B3D PUSH2 0x1B8F SWAP13 SWAP11 SWAP8 SWAP5 PUSH2 0x1B2F PUSH2 0x1B4B SWAP5 SWAP14 SWAP11 SWAP8 SWAP14 DUP13 PUSH2 0x160 DUP1 SWAP2 MSTORE DUP14 ADD SWAP1 PUSH2 0x1AE2 JUMP JUMPDEST SWAP1 DUP12 DUP3 SUB PUSH1 0x20 DUP14 ADD MSTORE PUSH2 0x1AE2 JUMP JUMPDEST SWAP1 DUP10 DUP3 SUB PUSH1 0x40 DUP12 ADD MSTORE PUSH2 0x1AE2 JUMP JUMPDEST PUSH1 0x60 DUP9 ADD SWAP10 SWAP1 SWAP10 MSTORE PUSH1 0x80 DUP8 ADD MSTORE PUSH1 0x1 PUSH1 0x1 PUSH1 0xA0 SHL SUB AND PUSH1 0xA0 DUP7 ADD MSTORE PUSH1 0xC0 DUP6 ADD MSTORE PUSH1 0xE0 DUP5 ADD MSTORE ISZERO ISZERO PUSH2 0x100 DUP4 ADD MSTORE ISZERO ISZERO PUSH2 0x120 DUP3 ADD MSTORE DUP1 DUP4 SUB PUSH2 0x140 SWAP1 SWAP2 ADD MSTORE PUSH2 0x1AE2 JUMP JUMPDEST SWAP1 JUMP JUMPDEST PUSH1 0x4 CALLDATALOAD SWAP1 PUSH1 0x1 PUSH1 0x1 PUSH1 0xA0 SHL SUB DUP3 AND DUP3 SUB PUSH2 0x7C9 JUMPI JUMP JUMPDEST SWAP1 PUSH1 0x1 DUP3 DUP2 SHR SWAP3 AND DUP1 ISZERO PUSH2 0x1BD8 JUMPI JUMPDEST PUSH1 0x20 DUP4 LT EQ PUSH2 0x1BC2 JUMPI JUMP JUMPDEST PUSH4 0x4E487B71 PUSH1 0xE0 SHL PUSH1 0x0 MSTORE PUSH1 0x22 PUSH1 0x4 MSTORE PUSH1 0x24 PUSH1 0x0 REVERT JUMPDEST SWAP2 PUSH1 0x7F AND SWAP2 PUSH2 0x1BB7 JUMP JUMPDEST SWAP1 PUSH1 0x40 MLOAD SWAP2 DUP3 PUSH1 0x0 DUP3 SLOAD SWAP3 PUSH2 0x1BF6 DUP5 PUSH2 0x1BA8 JUMP JUMPDEST SWAP1 DUP2 DUP5 MSTORE PUSH1 0x1 SWAP5 DUP6 DUP2 AND SWAP1 DUP2 PUSH1 0x0 EQ PUSH2 0x1C65 JUMPI POP PUSH1 0x1 EQ PUSH2 0x1C22 JUMPI JUMPDEST POP POP PUSH2 0x1C20 SWAP3 POP SUB DUP4 PUSH2 0x1A48 JUMP JUMPDEST JUMP JUMPDEST SWAP1 SWAP4 SWAP2 POP PUSH1 0x0 MSTORE PUSH1 0x20 SWAP1 DUP2 PUSH1 0x0 KECCAK256 SWAP4 PUSH1 0x0 SWAP2 JUMPDEST DUP2 DUP4 LT PUSH2 0x1C4D JUMPI POP POP PUSH2 0x1C20 SWAP4 POP DUP3 ADD ADD CODESIZE DUP1 PUSH2 0x1C12 JUMP JUMPDEST DUP6 SLOAD DUP9 DUP5 ADD DUP6 ADD MSTORE SWAP5 DUP6 ADD SWAP5 DUP8 SWAP5 POP SWAP2 DUP4 ADD SWAP2 PUSH2 0x1C35 JUMP JUMPDEST SWAP2 POP POP PUSH2 0x1C20 SWAP5 POP PUSH1 0x20 SWAP3 POP PUSH1 0xFF NOT AND DUP3 DUP5 ADD MSTORE ISZERO ISZERO PUSH1 0x5 SHL DUP3 ADD ADD CODESIZE DUP1 PUSH2 0x1C12 JUMP JUMPDEST PUSH1 0x3 SLOAD DUP2 LT ISZERO PUSH2 0x1CBF JUMPI PUSH1 0x3 PUSH1 0x0 MSTORE PUSH32 0xC2575A0E9E593C00F959F8C92F12DB2869C3395A3B0502D05E2516446F71F85B ADD SWAP1 PUSH1 0x0 SWAP1 JUMP JUMPDEST PUSH4 0x4E487B71 PUSH1 0xE0 SHL PUSH1 0x0 MSTORE PUSH1 0x32 PUSH1 0x4 MSTORE PUSH1 0x24 PUSH1 0x0 REVERT JUMPDEST PUSH1 0x4 SLOAD DUP2 LT ISZERO PUSH2 0x1CBF JUMPI PUSH1 0x4 PUSH1 0x0 MSTORE PUSH32 0x8A35ACFBC15FF81A39AE7D344FD709F28E8600B4AA8C65C6B64BFE7FE36BD19B ADD SWAP1 PUSH1 0x0 SWAP1 JUMP JUMPDEST ISZERO PUSH2 0x1D13 JUMPI JUMP JUMPDEST PUSH1 0x40 MLOAD PUSH3 0x461BCD PUSH1 0xE5 SHL DUP2 MSTORE PUSH1 0x20 PUSH1 0x4 DUP3 ADD MSTORE PUSH1 0x2B PUSH1 0x24 DUP3 ADD MSTORE PUSH32 0x4F6E6C7920636F6E74726163742061646D696E2063616E20706572666F726D20 PUSH1 0x44 DUP3 ADD MSTORE PUSH11 0x3A3434B99030B1BA34B7B7 PUSH1 0xA9 SHL PUSH1 0x64 DUP3 ADD MSTORE PUSH1 0x84 SWAP1 REVERT JUMPDEST SWAP1 PUSH1 0x0 SWAP3 SWAP2 DUP1 SLOAD SWAP2 PUSH2 0x1D7D DUP4 PUSH2 0x1BA8 JUMP JUMPDEST SWAP2 DUP3 DUP3 MSTORE PUSH1 0x1 SWAP4 DUP5 DUP2 AND SWAP1 DUP2 PUSH1 0x0 EQ PUSH2 0x1DDF JUMPI POP PUSH1 0x1 EQ PUSH2 0x1D9F JUMPI JUMPDEST POP POP POP POP JUMP JUMPDEST SWAP1 SWAP2 SWAP4 SWAP5 POP PUSH1 0x0 MSTORE PUSH1 0x20 SWAP3 DUP4 PUSH1 0x0 KECCAK256 SWAP3 DUP5 PUSH1 0x0 SWAP5 JUMPDEST DUP4 DUP7 LT PUSH2 0x1DCB JUMPI POP POP POP POP ADD ADD SWAP1 CODESIZE DUP1 DUP1 DUP1 PUSH2 0x1D99 JUMP JUMPDEST DUP1 SLOAD DUP6 DUP8 ADD DUP4 ADD MSTORE SWAP5 ADD SWAP4 DUP6 SWAP1 DUP3 ADD PUSH2 0x1DB4 JUMP JUMPDEST SWAP3 SWAP5 POP POP POP PUSH1 0x20 SWAP4 SWAP5 POP PUSH1 0xFF NOT AND DUP4 DUP4 ADD MSTORE ISZERO ISZERO PUSH1 0x5 SHL ADD ADD SWAP1 CODESIZE DUP1 DUP1 DUP1 PUSH2 0x1D99 JUMP JUMPDEST PUSH1 0x0 NOT DUP2 EQ PUSH2 0x1E11 JUMPI PUSH1 0x1 ADD SWAP1 JUMP JUMPDEST PUSH4 0x4E487B71 PUSH1 0xE0 SHL PUSH1 0x0 MSTORE PUSH1 0x11 PUSH1 0x4 MSTORE PUSH1 0x24 PUSH1 0x0 REVERT JUMPDEST PUSH1 0x1 PUSH1 0x1 PUSH1 0x40 SHL SUB DUP2 GT PUSH2 0x5D7 JUMPI PUSH1 0x5 SHL PUSH1 0x20 ADD SWAP1 JUMP INVALID LOG2 PUSH5 0x6970667358 0x22 SLT KECCAK256 0xDA PUSH14 0x645880A175395A78C8773EEA7FF5 0x2F 0xB8 0xDB GASLIMIT 0xC SLT PUSH5 0x3BCB5D1D40 0xB5 0xB6 0x4C 0xBE PUSH5 0x736F6C6343 STOP ADDMOD SGT STOP CALLER "},"methodIdentifiers":{"admin()":"f851a440","allOfficers(uint256)":"99d35123","allTaxReturnKeys(uint256)":"3e0a38b2","deactivateNbrOfficer(address)":"d8bfc1bf","getPendingTaxReturns()":"6f5a5e1b","getTaxReturn(bytes32)":"1909f285","getTaxReturnKey(string,string)":"859f48d1","getTotalNbrOfficers()":"64b41c0d","getTotalTaxReturns()":"e5b31db6","isNbrOfficer(address)":"5cc4881f","nationalLedger()":"dba39b0f","nationalLedgerEnabled()":"4e2ff90b","nbrOfficers(address)":"38ef2263","registerNbrOfficer(address,string,string)":"e933ab94","setNationalLedger(address)":"92c143d7","submitTaxReturn(string,string,string,uint256,uint256)":"a8fdb6d9","taxReturns(bytes32)":"f394190a","toggleNationalLedger(bool)":"c4a45e2e","validateTaxReturn(bytes32,bool,string)":"0e78456b"}}}}}