{"contracts/ProcurementVoting.sol":{"ProcurementVoting":{"abi":[{"inputs":[],"stateMutability":"nonpayable","type":"constructor"},{"anonymous":false,"inputs":[{"indexed":true,"internalType":"string","name":"procurementId","type":"string"},{"indexed":false,"internalType":"uint256","name":"bidIndex","type":"uint256"},{"indexed":false,"internalType":"string","name":"vendorId","type":"string"}],"name":"BidShortlisted","type":"event"},{"anonymous":false,"inputs":[{"indexed":true,"internalType":"address","name":"officer","type":"address"}],"name":"BppaOfficerRegistered","type":"event"},{"anonymous":false,"inputs":[{"indexed":true,"internalType":"address","name":"citizen","type":"address"},{"indexed":false,"internalType":"string","name":"tiin","type":"string"}],"name":"CitizenRegistered","type":"event"},{"anonymous":false,"inputs":[{"indexed":true,"internalType":"string","name":"procurementId","type":"string"},{"indexed":false,"internalType":"string","name":"title","type":"string"},{"indexed":false,"internalType":"address","name":"bppaOfficer","type":"address"}],"name":"ProcurementCreated","type":"event"},{"anonymous":false,"inputs":[{"indexed":true,"internalType":"string","name":"procurementId","type":"string"},{"indexed":false,"internalType":"uint256","name":"bidIndex","type":"uint256"},{"indexed":false,"internalType":"address","name":"citizen","type":"address"},{"indexed":false,"internalType":"bool","name":"vote","type":"bool"}],"name":"VoteCast","type":"event"},{"anonymous":false,"inputs":[{"indexed":true,"internalType":"string","name":"procurementId","type":"string"},{"indexed":false,"internalType":"uint256","name":"winningBidIndex","type":"uint256"}],"name":"VotingCompleted","type":"event"},{"anonymous":false,"inputs":[{"indexed":true,"internalType":"string","name":"procurementId","type":"string"},{"indexed":false,"internalType":"uint256","name":"votingEnds","type":"uint256"}],"name":"VotingStarted","type":"event"},{"inputs":[{"internalType":"uint256","name":"","type":"uint256"}],"name":"allCitizens","outputs":[{"internalType":"address","name":"","type":"address"}],"stateMutability":"view","type":"function"},{"inputs":[{"internalType":"uint256","name":"","type":"uint256"}],"name":"allProcurementIds","outputs":[{"internalType":"string","name":"","type":"string"}],"stateMutability":"view","type":"function"},{"inputs":[{"internalType":"string","name":"_procurementId","type":"string"},{"internalType":"uint256","name":"_bidIndex","type":"uint256"},{"internalType":"bool","name":"_vote","type":"bool"}],"name":"castVote","outputs":[],"stateMutability":"nonpayable","type":"function"},{"inputs":[{"internalType":"address","name":"","type":"address"}],"name":"citizens","outputs":[{"internalType":"address","name":"citizenAddress","type":"address"},{"internalType":"string","name":"tiin","type":"string"},{"internalType":"string","name":"fullName","type":"string"},{"internalType":"bool","name":"isRegistered","type":"bool"},{"internalType":"bool","name":"isActive","type":"bool"}],"stateMutability":"view","type":"function"},{"inputs":[{"internalType":"string","name":"_procurementId","type":"string"}],"name":"completeVoting","outputs":[],"stateMutability":"nonpayable","type":"function"},{"inputs":[{"internalType":"string","name":"_procurementId","type":"string"},{"internalType":"string","name":"_title","type":"string"},{"internalType":"string","name":"_description","type":"string"},{"internalType":"uint256","name":"_estimatedValue","type":"uint256"},{"internalType":"string","name":"_category","type":"string"}],"name":"createProcurement","outputs":[],"stateMutability":"nonpayable","type":"function"},{"inputs":[],"name":"getActiveProcurements","outputs":[{"internalType":"string[]","name":"","type":"string[]"}],"stateMutability":"view","type":"function"},{"inputs":[{"internalType":"string","name":"_procurementId","type":"string"},{"internalType":"uint256","name":"_bidIndex","type":"uint256"}],"name":"getBid","outputs":[{"internalType":"string","name":"vendorId","type":"string"},{"internalType":"string","name":"companyName","type":"string"},{"internalType":"uint256","name":"bidAmount","type":"uint256"},{"internalType":"string","name":"technicalProposal","type":"string"},{"internalType":"string","name":"costingDocument","type":"string"},{"internalType":"uint256","name":"completionDays","type":"uint256"},{"internalType":"address","name":"bppaOfficer","type":"address"},{"internalType":"uint256","name":"shortlistedTimestamp","type":"uint256"},{"internalType":"uint256","name":"votesYes","type":"uint256"},{"internalType":"uint256","name":"votesNo","type":"uint256"}],"stateMutability":"view","type":"function"},{"inputs":[{"internalType":"string","name":"_procurementId","type":"string"}],"name":"getBidsForProcurement","outputs":[{"components":[{"internalType":"string","name":"vendorId","type":"string"},{"internalType":"string","name":"companyName","type":"string"},{"internalType":"uint256","name":"bidAmount","type":"uint256"},{"internalType":"string","name":"technicalProposal","type":"string"},{"internalType":"string","name":"costingDocument","type":"string"},{"internalType":"uint256","name":"completionDays","type":"uint256"},{"internalType":"address","name":"bppaOfficer","type":"address"},{"internalType":"uint256","name":"shortlistedTimestamp","type":"uint256"},{"internalType":"uint256","name":"votesYes","type":"uint256"},{"internalType":"uint256","name":"votesNo","type":"uint256"}],"internalType":"struct ProcurementVoting.Bid[]","name":"","type":"tuple[]"}],"stateMutability":"view","type":"function"},{"inputs":[{"internalType":"string","name":"_procurementId","type":"string"}],"name":"getProcurement","outputs":[{"internalType":"string","name":"procurementId","type":"string"},{"internalType":"string","name":"title","type":"string"},{"internalType":"string","name":"description","type":"string"},{"internalType":"uint256","name":"estimatedValue","type":"uint256"},{"internalType":"string","name":"category","type":"string"},{"internalType":"address","name":"bppaOfficer","type":"address"},{"internalType":"uint256","name":"createdTimestamp","type":"uint256"},{"internalType":"uint256","name":"votingEnds","type":"uint256"},{"internalType":"bool","name":"isActive","type":"bool"},{"internalType":"bool","name":"isCompleted","type":"bool"},{"internalType":"uint256","name":"winningBidIndex","type":"uint256"}],"stateMutability":"view","type":"function"},{"inputs":[],"name":"getTotalProcurements","outputs":[{"internalType":"uint256","name":"","type":"uint256"}],"stateMutability":"view","type":"function"},{"inputs":[],"name":"getTotalRegisteredCitizens","outputs":[{"internalType":"uint256","name":"","type":"uint256"}],"stateMutability":"view","type":"function"},{"inputs":[{"internalType":"string","name":"_procurementId","type":"string"},{"internalType":"uint256","name":"_bidIndex","type":"uint256"}],"name":"getVoteResults","outputs":[{"internalType":"uint256","name":"votesYes","type":"uint256"},{"internalType":"uint256","name":"votesNo","type":"uint256"},{"internalType":"uint256","name":"totalVotes","type":"uint256"},{"internalType":"uint256","name":"yesPercentage","type":"uint256"}],"stateMutability":"view","type":"function"},{"inputs":[{"internalType":"string","name":"","type":"string"},{"internalType":"uint256","name":"","type":"uint256"},{"internalType":"address","name":"","type":"address"}],"name":"hasVoted","outputs":[{"internalType":"bool","name":"","type":"bool"}],"stateMutability":"view","type":"function"},{"inputs":[{"internalType":"string","name":"_procurementId","type":"string"},{"internalType":"uint256","name":"_bidIndex","type":"uint256"},{"internalType":"address","name":"_citizen","type":"address"}],"name":"hasVotedForBid","outputs":[{"internalType":"bool","name":"","type":"bool"}],"stateMutability":"view","type":"function"},{"inputs":[{"internalType":"address","name":"","type":"address"}],"name":"isBppaOfficer","outputs":[{"internalType":"bool","name":"","type":"bool"}],"stateMutability":"view","type":"function"},{"inputs":[{"internalType":"address","name":"","type":"address"}],"name":"isRegisteredCitizen","outputs":[{"internalType":"bool","name":"","type":"bool"}],"stateMutability":"view","type":"function"},{"inputs":[{"internalType":"string","name":"","type":"string"},{"internalType":"uint256","name":"","type":"uint256"}],"name":"procurementBids","outputs":[{"internalType":"string","name":"vendorId","type":"string"},{"internalType":"string","name":"companyName","type":"string"},{"internalType":"uint256","name":"bidAmount","type":"uint256"},{"internalType":"string","name":"technicalProposal","type":"string"},{"internalType":"string","name":"costingDocument","type":"string"},{"internalType":"uint256","name":"completionDays","type":"uint256"},{"internalType":"address","name":"bppaOfficer","type":"address"},{"internalType":"uint256","name":"shortlistedTimestamp","type":"uint256"},{"internalType":"uint256","name":"votesYes","type":"uint256"},{"internalType":"uint256","name":"votesNo","type":"uint256"}],"stateMutability":"view","type":"function"},{"inputs":[{"internalType":"string","name":"","type":"string"}],"name":"procurements","outputs":[{"internalType":"string","name":"procurementId","type":"string"},{"internalType":"string","name":"title","type":"string"},{"internalType":"string","name":"description","type":"string"},{"internalType":"uint256","name":"estimatedValue","type":"uint256"},{"internalType":"string","name":"category","type":"string"},{"internalType":"address","name":"bppaOfficer","type":"address"},{"internalType":"uint256","name":"createdTimestamp","type":"uint256"},{"internalType":"uint256","name":"votingEnds","type":"uint256"},{"internalType":"bool","name":"isActive","type":"bool"},{"internalType":"bool","name":"isCompleted","type":"bool"},{"internalType":"uint256","name":"winningBidIndex","type":"uint256"}],"stateMutability":"view","type":"function"},{"inputs":[{"internalType":"address","name":"_officerAddress","type":"address"}],"name":"registerBppaOfficer","outputs":[],"stateMutability":"nonpayable","type":"function"},{"inputs":[{"internalType":"address","name":"_citizenAddress","type":"address"},{"internalType":"string","name":"_tiin","type":"string"},{"internalType":"string","name":"_fullName","type":"string"}],"name":"registerCitizen","outputs":[],"stateMutability":"nonpayable","type":"function"},{"inputs":[{"internalType":"string","name":"_procurementId","type":"string"},{"internalType":"string","name":"_vendorId","type":"string"},{"internalType":"string","name":"_companyName","type":"string"},{"internalType":"uint256","name":"_bidAmount","type":"uint256"},{"internalType":"string","name":"_technicalProposal","type":"string"},{"internalType":"string","name":"_costingDocument","type":"string"},{"internalType":"uint256","name":"_completionDays","type":"uint256"}],"name":"shortlistBid","outputs":[],"stateMutability":"nonpayable","type":"function"},{"inputs":[{"internalType":"string","name":"_procurementId","type":"string"},{"internalType":"uint256","name":"_votingDurationDays","type":"uint256"}],"name":"startVoting","outputs":[],"stateMutability":"nonpayable","type":"function"},{"inputs":[{"internalType":"string","name":"","type":"string"},{"internalType":"uint256","name":"","type":"uint256"},{"internalType":"address","name":"","type":"address"}],"name":"votes","outputs":[{"internalType":"address","name":"citizen","type":"address"},{"internalType":"bool","name":"vote","type":"bool"},{"internalType":"uint256","name":"timestamp","type":"uint256"}],"stateMutability":"view","type":"function"}],"evm":{"bytecode":{"linkReferences":{},"object":"6080806040523461001657612684908161001c8239f35b600080fdfe6040608081526004908136101561001557600080fd5b60009060e08235811c90816311a3a86914611e7857816318097a5f14611e595781631d56a96e14611cab5781631f90e5bf14611bab578163211a4ed814611ad4578163358b8f3a14611a96578163570d64e614611a5457816358f7497214611a355781635daf88011461191757816361c5df2f146116085781636a541cfc146113395781636dade938146111095781637726dfce146110a75781638a0425b114610ff55781639237f3bc14610c055781639ecc759c14610bc7578163a59f715c14610b0d578163ce8f32a21461096a578163cf6c6c2a146108f4578163d07aaee21461055157508063d4f910a7146104b6578063d899781b146103ec578063d8f6d4e31461038d5763e8590e761461012c57600080fd5b3461038957606036600319011261038957610145611f5c565b6001600160401b039190602435838111610385576101669036908701611f01565b916044358481116103815761017e9036908801611f01565b6001600160a01b0392831694909290851561033e578587526020936006855260ff84892054166102fb5783519160a08301908111838210176102e8578452868252848201868152848301918252600160608401818152608085018281528a8c528c8952878c20955186546001600160a01b031916908816178655925161025195919461023a93600393926102239291610219919085016122b7565b51600283016122b7565b0192511515839060ff801983541691151516179055565b51815461ff00191690151560081b61ff0016179055565b84865260068352818620805460ff19166001179055600854600160401b8110156102d557916102cf916102ad8460017f106c826edcad7be8b769067aebb234b0e19866d19c9ebe48e6f61e994b9e03aa9897960160085561207d565b819291549060031b9189831b921b191617905551928284938452830190611fda565b0390a280f35b634e487b7160e01b875260418852602487fd5b634e487b7160e01b895260418a52602489fd5b835162461bcd60e51b8152808a01869052601a60248201527f436974697a656e20616c726561647920726567697374657265640000000000006044820152606490fd5b825162461bcd60e51b81526020818a0152601760248201527f496e76616c696420636974697a656e20616464726573730000000000000000006044820152606490fd5b8580fd5b8480fd5b5080fd5b50346103895760ff816020936103bd856103a636611f72565b939183879492945193828580945193849201611fb7565b60039082019081520301902090835286528282206001600160a01b039091168252855220549151911615158152f35b5090346104b35760203660031901126104b35782356001600160401b0381116103895760206104af926104256104389336908801611f01565b9082865194838680955193849201611fb7565b8201908152030190209161044b83612176565b9261045860018201612176565b9361046560028301612176565b956104766003840154918401612176565b60018060a01b036005850154166006850154916007860154936009600888015497015497519a8b9a60ff808a60081c169916978c6120b4565b0390f35b80fd5b509190346104b35760203660031901126104b3576001600160a01b0391839190836104df611f5c565b16825260205220908154169060ff6105376104fc60018401612176565b94600361050b60028601612176565b9401549361052a8251978897885260a0602089015260a0880190611fda565b9186830390870152611fda565b918181161515606085015260081c16151560808301520390f35b939050346108f057836003193601126108f0576001600160401b03908035828111610385576105839036908301611f01565b602480358481116108ec5761059b9036908501611f01565b966044358581116108e8576105b39036908601611f01565b906084358681116108e4576105cb9036908701611f01565b9560a4359081116108e4576105e39036908701611f01565b33895260209660058852888a205460ff166105fd906123c6565b88519386519489818d828b019861061581848c611fb7565b82019081520301902060060154151561062d90612445565b895189818d8a5161063f81848c611fb7565b8201908152030190206008015460081c60ff1661089757878a518a818a5161066881838c611fb7565b8101600181520301902054101561084b5788938a8c9485948f948b906106ec85519a8b986106958a611ec4565b89528089019283528c878a0194606435865260608b0196875260808b0197885260a08b019860c4358a5261012060c08d019b338d528d019c8d42905261010081019e8f52019d8e5251938492839251928391611fb7565b81016001815203019020805490600160401b82101561083557906107159160018201815561221c565b9a909a610821578f9a989592948f916107b29d9b989560099a9761074f8d60016107689861074761075f9751846122b7565b5191016122b7565b5160028d01555160038c016122b7565b519089016122b7565b516005870155516006860180546001600160a01b0319166001600160a01b039290921691909117905551600785015551600884015551910155875185519093849282908490611fb7565b81016001815203019020549260001984019384116108105750507fd2f996805704b513d8aee1e83f96044a7b82baa96831932e470e2be8fe8dc3039394956107fc6102cf92612425565b958080519586958652850152830190611fda565b634e487b7160e01b87526011905285fd5b505050898f808e634e487b7160e01b825252fd5b50505050898f60418e634e487b7160e01b835252fd5b895162461bcd60e51b81528089018a90526021818801527f4d6178696d756d203420626964732063616e2062652073686f72746c697374656044820152601960fa1b6064820152608490fd5b608488878b8d519262461bcd60e51b8452830152808201527f50726f637572656d656e7420766f74696e6720616c726561647920636f6d706c604482015263195d195960e21b6064820152fd5b8880fd5b8780fd5b8680fd5b8280fd5b505034610389578061092591606093602061090e36611f72565b969183869492945193828580945193849201611fb7565b8101600281520301902090825260205281812060018060a01b038095168252602052209060ff60018354930154928251948116855260a01c1615156020840152820152f35b929050346104b357602093846003193601126103895780356001600160401b0381116108f05761099c91369101611f01565b91846109b082519485815193849201611fb7565b830192858160019586815203019020948554916109cc836124fb565b926109d982519485611ee0565b8084528284018098865283862086915b838310610ae25750505050805195828701938388525180945281870190828560051b8901019895925b858410610a1f57888a0389f35b909192939495968580829b603f198c82030187528a5190610a90610a7d610a62610a528551610140808752860190611fda565b8686015185820388870152611fda565b88850151898501526060808601519085830390860152611fda565b6080808501519084830390850152611fda565b60a0808401519083015260c0808401516001600160a01b031690830152878301518883015261010080840151908301526101209283015192909101919091529b99019796959190910193019190610a12565b97600a86829c9a610af7859b98999a9b612512565b81520192019201919099979996959493966109e9565b8284346104b357506104af610b7f610b796020610b6a610b2c36611fff565b9290875190610b5a815192848181850195610b48818389611fb7565b810160018152030190205486106124ac565b8851938492839251928391611fb7565b8101600181520301902061221c565b50612512565b9182519260208101519482820151906060830151608084015160a08501519160018060a01b0360c087015116938601519461012061010088015197015197519a8b9a8b612238565b5050346103895760203660031901126103895760209160ff9082906001600160a01b03610bf2611f5c565b1681526005855220541690519015158152f35b838584346108f05760603660031901126108f0576001600160401b0390823582811161038557610c389036908501611f01565b9060249182359360449586359182151595868403610ff157338a5260209860068a5260ff878c20541615610fa757338b52838a5260ff6003888d20015460081c1615610f6f5790899493929160ff6008610ca3888f8b908d519b8c9483869451928391019e8f611fb7565b82019081520301902001541615610f1d576007610ccd8c888f8b8d51948593849251928391611fb7565b82019081520301902001544211610edd57610d0488518c818a51610cf281838d611fb7565b81016001815203019020548b106124ac565b87518b818951610d1581838c611fb7565b810160038152030190208a8d528b52878c20338d528b5260ff888d205416610e9d57508651926060840192831184841017610e8c57505096888694610e5f94606099979460018e7f43fda53d9df661d064e67f88934200a48401afe5840a8cff318f0de710fe6a6d9d879c523383528583018b81528a80850192428452610da889898d8551938492839251928391611fb7565b810160028152030190208a8252895281812033825289522093838060a01b0390511684549160ff60a01b9051151560a01b16916affffffffffffffffffffff60a81b1617178355519101558c84885185818951610e0681838a611fb7565b60039082019081520301902091528352868d20338e528352868d20805460ff1916600117905515610e715791610b6a610e4c926008948851809381928951928391611fb7565b5001610e5881546124ec565b9055612425565b9581519384523390840152820152a280f35b91610b6a610e4c926009948851809381928951928391611fb7565b634e487b7160e01b8c52604190528afd5b7f416c726561647920766f74656420666f722074686973206269640000000000008491601a6064948e8c519562461bcd60e51b8752860152840152820152fd5b7f566f74696e6720706572696f642068617320656e646564000000000000000000849160176064948e8c519562461bcd60e51b8752860152840152820152fd5b7f566f74696e67206973206e6f742061637469766520666f722074686973207072849160296084948e8c519562461bcd60e51b8752860152840152820152681bd8dd5c995b595b9d60ba1b6064820152fd5b74436974697a656e206973206e6f742061637469766560581b849160156064948d8b519562461bcd60e51b8752860152840152820152fd5b7f4f6e6c79207265676973746572656420636974697a656e732063616e20766f74849160216084948d8b519562461bcd60e51b8752860152840152820152606560f81b6064820152fd5b8980fd5b505090346104b35760209061102061100c36611fff565b939081865193828580945193849201611fb7565b810160018152030190209081548310156104b357506104af916110429161221c565b509161104d83612176565b9261105a60018201612176565b9460028201549061107861107060038501612176565b918401612176565b60058401549060018060a01b03600686015416926007860154946009600888015497015497519a8b9a8b612238565b505090346104b35760203660031901126104b3578235600754811015610389576110d090612030565b9390936110f7576104af836110e486612176565b9051918291602083526020830190611fda565b634e487b7160e01b8252819052602490fd5b5050346103895761111936611fff565b3384526020916005835261113260ff85872054166123c6565b835191611160600683519486818187019761114e81838b611fb7565b81018b81520301902001541515612445565b60ff600886518681865161117581838b611fb7565b81018b8152030190200154166112fd5760ff600886518681865161119a81838b611fb7565b81018b815203019020015460081c166112ba578451848184516111be818389611fb7565b81016001815203019020541561128157620151809081810291818304149015171561126e57839291600861124b7e974e7a9f2acf0f113201dd02a3c9904153c5c7f5a5b71959eb47bb505f9b8c966112196112659542612489565b958660078c848d5180928a5161123081848a611fb7565b82019081520301902001558951809381928751928391611fb7565b81018b81520301902001805460ff19166001179055612425565b9351908152a280f35b634e487b7160e01b865260118752602486fd5b845162461bcd60e51b81528088018590526013602482015272139bc8189a591cc81cda1bdc9d1b1a5cdd1959606a1b6044820152606490fd5b845162461bcd60e51b8152808801859052601d60248201527f50726f637572656d656e7420616c726561647920636f6d706c657465640000006044820152606490fd5b845162461bcd60e51b81528088018590526016602482015275159bdd1a5b99c8185b1c9958591e481cdd185c9d195960521b6044820152606490fd5b5050913461038957602092836003193601126108f05781356001600160401b0381116116045761136c9036908401611f01565b903384526005855261138360ff82862054166123c6565b80519282519060ff8785019261139a818886611fb7565b86018781528689600898899303019020015416156115ca5760078351888187516113c5818389611fb7565b81018a81520301902001544211156115875760ff858451898188516113eb81838a611fb7565b81018b8152030190200154861c1661154457508480805b84518651611411818388611fb7565b8101908a8160019384815203019020548210156114a25787908382611454856114468f8b8e8e51938492839251928391611fb7565b81018881520301902061221c565b5001541161146d575b5050611468906124ec565b611402565b829450611497929193508a875180928a5161148981848c611fb7565b82019081520301902061221c565b50015481863861145d565b88867f29a06f4f1c2767f6a8508ed9bf8bf6df701f4b3ffb47b562dcd597c4d5e620718c876112658c8e611528858e8660098c848d5180928a516114e781848a611fb7565b8201908152030190200155838b838c5180928951611506818489611fb7565b8201908152030190200160ff1981541690558951809381928751928391611fb7565b81018b81520301902001805461ff001916610100179055612425565b825162461bcd60e51b8152908101879052601860248201527f566f74696e6720616c726561647920636f6d706c6574656400000000000000006044820152606490fd5b825162461bcd60e51b8152908101879052601b60248201527f566f74696e6720706572696f6420686173206e6f7420656e64656400000000006044820152606490fd5b825162461bcd60e51b81529081018790526014602482015273566f74696e67206973206e6f742061637469766560601b6044820152606490fd5b8380fd5b919050346108f05760a03660031901126108f0576001600160401b039084358281116103855761163b9036908701611f01565b602435838111610381576116529036908801611f01565b926044358181116108ec5761166a9036908901611f01565b906084359081116108ec576116829036908901611f01565b943387526020956005875261169c60ff868a2054166123c6565b8351156118d45784519260068551948981818901976116bc81838b611fb7565b81018d815203019020015461189157869389938785948b86958351998a966116e388611e92565b8c885283880191825285880192835260608801936064358552608089019586528d8a60a08b0198338a5260c08c019a428c528c019b828d5261010081019e8f5261012081019d8e52610140019e8f52518094819351809261174392611fb7565b8201908152030190209a51611758908c6122b7565b516117669060018c016122b7565b516117749060028b016122b7565b51600389015551611787908e89016122b7565b6005870190600160a01b600190039051166bffffffffffffffffffffffff60a01b82541617905551600686015551600785015560088401915115156117d890839060ff801983541691151516179055565b51815461ff00191690151560081b61ff0016179055519060090155600754600160401b81101561187e578060016118129201600755612030565b61186c57816118477f2b5849cf31662736c8060bb55d40ce1a3799e0564b29a3c63aba660ab3ee523c95949361184c936122b7565b612425565b936118608251938385948552840190611fda565b9033908301520390a280f35b634e487b7160e01b8652858752602486fd5b634e487b7160e01b865260418752602486fd5b855162461bcd60e51b8152808b01899052601a60248201527f50726f637572656d656e7420616c7265616479206578697374730000000000006044820152606490fd5b845162461bcd60e51b8152808a01889052601e60248201527f50726f637572656d656e742049442063616e6e6f7420626520656d70747900006044820152606490fd5b90508383346104b35760203660031901126104b35781356001600160401b0381116103895760206104af93926119536119669336908601611f01565b9082885194838680955193849201611fb7565b82019081520301902084519161197b83611e92565b61198482612176565b835261199260018301612176565b94602084019586526119a660028401612176565b968085019788526119c4600385015493606087019485528501612176565b80608087015260018060a01b03600586015416908160a08801526006860154928360c089015260078701548095890152600887015495600960ff808916151598896101008d015260081c16151598896101208c015201549889610140820152519a519b51905191519b8c9b8c6120b4565b5050346103895781600319360112610389576020906008549051908152f35b505082346108f05760203660031901126108f05735916008548310156104b35750611a8060209261207d565b905491519160018060a01b039160031b1c168152f35b5050346103895760203660031901126103895760209160ff9082906001600160a01b03611ac1611f5c565b1681526006855220541690519015158152f35b50503461038957611b1b610b796020610b6a611aef36611fff565b9290865190611b0b815192848181850195610b48818389611fb7565b8751938492839251928391611fb7565b91610100830191611b356101208451950194855190612489565b9182159081611b9f57845191606483029280840460641490151715611b8c57611b79575060809550829004925b519351815194855260208501528301526060820152f35b634e487b7160e01b815260128752602490fd5b634e487b7160e01b825260118852602482fd5b90506080955092611b62565b838584346108f05760203660031901126108f0576001600160a01b03611bcf611f5c565b16918215611c6957828452600560205260ff8285205416611c27575081835260056020528220805460ff191660011790557f93c99ed6cec4cafd667d99f8a8750597ff22057275c37404ade4344c8ce929248280a280f35b6020606492519162461bcd60e51b8352820152601a60248201527f4f66666963657220616c726561647920726567697374657265640000000000006044820152fd5b6020606492519162461bcd60e51b8352820152601760248201527f496e76616c6964206f66666963657220616464726573730000000000000000006044820152fd5b8284346104b357806003193601126104b357808160078054915b828110611e005750611cd6836124fb565b92611ce386519485611ee0565b808452611cf2601f19916124fb565b01845b818110611def5750508390845b838110611d685750505050825191602080840190808552835180925280868601968360051b870101940192955b828710611d3c5785850386f35b909192938280611d58600193603f198a82030186528851611fda565b9601920196019592919092611d2f565b60ff6008611d7e611d7884612030565b506125a7565b01541680611dd7575b611d9a575b611d95906124ec565b611d02565b91611dcf611d9591611db4611dae86612030565b50612176565b611dbe828961263a565b52611dc9818861263a565b506124ec565b929050611d8c565b5081611de5611d7883612030565b0154421115611d87565b806060602080938801015201611cf5565b60ff6008611e10611d7884612030565b01541680611e41575b611e2c575b611e27906124ec565b611cc5565b92611e39611e27916124ec565b939050611e1e565b5081611e4f611d7883612030565b0154421115611e19565b5050346103895781600319360112610389576020906007549051908152f35b5050346103895760ff816020936103bd856103a636611f72565b61016081019081106001600160401b03821117611eae57604052565b634e487b7160e01b600052604160045260246000fd5b61014081019081106001600160401b03821117611eae57604052565b90601f801991011681019081106001600160401b03821117611eae57604052565b81601f82011215611f57578035906001600160401b038211611eae5760405192611f35601f8401601f191660200185611ee0565b82845260208383010111611f5757816000926020809301838601378301015290565b600080fd5b600435906001600160a01b0382168203611f5757565b6060600319820112611f5757600435906001600160401b038211611f5757611f9c91600401611f01565b90602435906044356001600160a01b0381168103611f575790565b60005b838110611fca5750506000910152565b8181015183820152602001611fba565b90602091611ff381518092818552858086019101611fb7565b601f01601f1916010190565b6040600319820112611f5757600435906001600160401b038211611f575761202991600401611f01565b9060243590565b6007548110156120675760076000527fa66cc928b5edb82af9bd49922954155ab7b0942694bea4ce44661d9a8736c6880190600090565b634e487b7160e01b600052603260045260246000fd5b6008548110156120675760086000527ff3f7a9fe364faab93b216da50a3214154f22a0a2b415b23a84c8169e8b636ee30190600090565b97949061210e936120ed6101409b989e9d9c9996946120df6120fb948d610160908181520190611fda565b8c810360208e015290611fda565b908a820360408c0152611fda565b9160608901528782036080890152611fda565b6001600160a01b0390991660a086015260c085015260e0840152151561010083015215156101208201520152565b90600182811c9216801561216c575b602083101461215657565b634e487b7160e01b600052602260045260246000fd5b91607f169161214b565b906040519182600082549261218a8461213c565b9081845260019485811690816000146121f957506001146121b6575b50506121b492500383611ee0565b565b9093915060005260209081600020936000915b8183106121e15750506121b4935082010138806121a6565b855488840185015294850194879450918301916121c9565b9150506121b494506020925060ff191682840152151560051b82010138806121a6565b805482101561206757600052600a602060002091020190600090565b969392612292936122716101209a9794612263999e9d9c99612284958c6101408091528d0190611fda565b908b820360208d0152611fda565b9160408a015288820360608a0152611fda565b908682036080880152611fda565b60a08501989098526001600160a01b031660c084015260e08301526101008201520152565b91909182516001600160401b038111611eae576122d4825461213c565b601f811161237e575b50602080601f831160011461231a57508192939460009261230f575b50508160011b916000199060031b1c1916179055565b0151905038806122f9565b90601f198316958460005282600020926000905b8882106123665750508360019596971061234d575b505050811b019055565b015160001960f88460031b161c19169055388080612343565b8060018596829496860151815501950193019061232e565b600083815260208120601f840160051c810192602085106123bc575b601f0160051c01915b8281106123b15750506122dd565b8181556001016123a3565b909250829061239a565b156123cd57565b60405162461bcd60e51b815260206004820152602a60248201527f4f6e6c792042505041206f666669636572732063616e20706572666f726d20746044820152693434b99030b1ba34b7b760b11b6064820152608490fd5b61243d90602060405192828480945193849201611fb7565b810103902090565b1561244c57565b60405162461bcd60e51b8152602060048201526015602482015274141c9bd8dd5c995b595b9d081b9bdd08199bdd5b99605a1b6044820152606490fd5b9190820180921161249657565b634e487b7160e01b600052601160045260246000fd5b156124b357565b60405162461bcd60e51b8152602060048201526011602482015270092dcecc2d8d2c840c4d2c840d2dcc8caf607b1b6044820152606490fd5b60001981146124965760010190565b6001600160401b038111611eae5760051b60200190565b9060405161251f81611ec4565b6101206009829461252f81612176565b845261253d60018201612176565b60208501526002810154604085015261255860038201612176565b606085015261256960048201612176565b6080850152600581015460a085015260068101546001600160a01b031660c0850152600781015460e085015260088101546101008501520154910152565b6040519081600082546125b98161213c565b9360019180831690811561261e57506001146125e1575b505060209250600081520301902090565b90915060005260209081600020906000915b85831061260a5750505050602091810138806125d0565b8054878401528694509183019181016125f3565b92505050602093915060ff1916825280151502810138806125d0565b80518210156120675760209160051b01019056fea264697066735822122034aa7732ff4aa669d8597b289676266b5c0f5588c24620c986d65de78b75334464736f6c63430008130033","opcodes":"PUSH1 0x80 DUP1 PUSH1 0x40 MSTORE CALLVALUE PUSH2 0x16 JUMPI PUSH2 0x2684 SWAP1 DUP2 PUSH2 0x1C DUP3 CODECOPY RETURN JUMPDEST PUSH1 0x0 DUP1 REVERT INVALID PUSH1 0x40 PUSH1 0x80 DUP2 MSTORE PUSH1 0x4 SWAP1 DUP2 CALLDATASIZE LT ISZERO PUSH2 0x15 JUMPI PUSH1 0x0 DUP1 REVERT JUMPDEST PUSH1 0x0 SWAP1 PUSH1 0xE0 DUP3 CALLDATALOAD DUP2 SHR SWAP1 DUP2 PUSH4 0x11A3A869 EQ PUSH2 0x1E78 JUMPI DUP2 PUSH4 0x18097A5F EQ PUSH2 0x1E59 JUMPI DUP2 PUSH4 0x1D56A96E EQ PUSH2 0x1CAB JUMPI DUP2 PUSH4 0x1F90E5BF EQ PUSH2 0x1BAB JUMPI DUP2 PUSH4 0x211A4ED8 EQ PUSH2 0x1AD4 JUMPI DUP2 PUSH4 0x358B8F3A EQ PUSH2 0x1A96 JUMPI DUP2 PUSH4 0x570D64E6 EQ PUSH2 0x1A54 JUMPI DUP2 PUSH4 0x58F74972 EQ PUSH2 0x1A35 JUMPI DUP2 PUSH4 0x5DAF8801 EQ PUSH2 0x1917 JUMPI DUP2 PUSH4 0x61C5DF2F EQ PUSH2 0x1608 JUMPI DUP2 PUSH4 0x6A541CFC EQ PUSH2 0x1339 JUMPI DUP2 PUSH4 0x6DADE938 EQ PUSH2 0x1109 JUMPI DUP2 PUSH4 0x7726DFCE EQ PUSH2 0x10A7 JUMPI DUP2 PUSH4 0x8A0425B1 EQ PUSH2 0xFF5 JUMPI DUP2 PUSH4 0x9237F3BC EQ PUSH2 0xC05 JUMPI DUP2 PUSH4 0x9ECC759C EQ PUSH2 0xBC7 JUMPI DUP2 PUSH4 0xA59F715C EQ PUSH2 0xB0D JUMPI DUP2 PUSH4 0xCE8F32A2 EQ PUSH2 0x96A JUMPI DUP2 PUSH4 0xCF6C6C2A EQ PUSH2 0x8F4 JUMPI DUP2 PUSH4 0xD07AAEE2 EQ PUSH2 0x551 JUMPI POP DUP1 PUSH4 0xD4F910A7 EQ PUSH2 0x4B6 JUMPI DUP1 PUSH4 0xD899781B EQ PUSH2 0x3EC JUMPI DUP1 PUSH4 0xD8F6D4E3 EQ PUSH2 0x38D JUMPI PUSH4 0xE8590E76 EQ PUSH2 0x12C JUMPI PUSH1 0x0 DUP1 REVERT JUMPDEST CALLVALUE PUSH2 0x389 JUMPI PUSH1 0x60 CALLDATASIZE PUSH1 0x3 NOT ADD SLT PUSH2 0x389 JUMPI PUSH2 0x145 PUSH2 0x1F5C JUMP JUMPDEST PUSH1 0x1 PUSH1 0x1 PUSH1 0x40 SHL SUB SWAP2 SWAP1 PUSH1 0x24 CALLDATALOAD DUP4 DUP2 GT PUSH2 0x385 JUMPI PUSH2 0x166 SWAP1 CALLDATASIZE SWAP1 DUP8 ADD PUSH2 0x1F01 JUMP JUMPDEST SWAP2 PUSH1 0x44 CALLDATALOAD DUP5 DUP2 GT PUSH2 0x381 JUMPI PUSH2 0x17E SWAP1 CALLDATASIZE SWAP1 DUP9 ADD PUSH2 0x1F01 JUMP JUMPDEST PUSH1 0x1 PUSH1 0x1 PUSH1 0xA0 SHL SUB SWAP3 DUP4 AND SWAP5 SWAP1 SWAP3 SWAP1 DUP6 ISZERO PUSH2 0x33E JUMPI DUP6 DUP8 MSTORE PUSH1 0x20 SWAP4 PUSH1 0x6 DUP6 MSTORE PUSH1 0xFF DUP5 DUP10 KECCAK256 SLOAD AND PUSH2 0x2FB JUMPI DUP4 MLOAD SWAP2 PUSH1 0xA0 DUP4 ADD SWAP1 DUP2 GT DUP4 DUP3 LT OR PUSH2 0x2E8 JUMPI DUP5 MSTORE DUP7 DUP3 MSTORE DUP5 DUP3 ADD DUP7 DUP2 MSTORE DUP5 DUP4 ADD SWAP2 DUP3 MSTORE PUSH1 0x1 PUSH1 0x60 DUP5 ADD DUP2 DUP2 MSTORE PUSH1 0x80 DUP6 ADD DUP3 DUP2 MSTORE DUP11 DUP13 MSTORE DUP13 DUP10 MSTORE DUP8 DUP13 KECCAK256 SWAP6 MLOAD DUP7 SLOAD PUSH1 0x1 PUSH1 0x1 PUSH1 0xA0 SHL SUB NOT AND SWAP1 DUP9 AND OR DUP7 SSTORE SWAP3 MLOAD PUSH2 0x251 SWAP6 SWAP2 SWAP5 PUSH2 0x23A SWAP4 PUSH1 0x3 SWAP4 SWAP3 PUSH2 0x223 SWAP3 SWAP2 PUSH2 0x219 SWAP2 SWAP1 DUP6 ADD PUSH2 0x22B7 JUMP JUMPDEST MLOAD PUSH1 0x2 DUP4 ADD PUSH2 0x22B7 JUMP JUMPDEST ADD SWAP3 MLOAD ISZERO ISZERO DUP4 SWAP1 PUSH1 0xFF DUP1 NOT DUP4 SLOAD AND SWAP2 ISZERO ISZERO AND OR SWAP1 SSTORE JUMP JUMPDEST MLOAD DUP2 SLOAD PUSH2 0xFF00 NOT AND SWAP1 ISZERO ISZERO PUSH1 0x8 SHL PUSH2 0xFF00 AND OR SWAP1 SSTORE JUMP JUMPDEST DUP5 DUP7 MSTORE PUSH1 0x6 DUP4 MSTORE DUP2 DUP7 KECCAK256 DUP1 SLOAD PUSH1 0xFF NOT AND PUSH1 0x1 OR SWAP1 SSTORE PUSH1 0x8 SLOAD PUSH1 0x1 PUSH1 0x40 SHL DUP2 LT ISZERO PUSH2 0x2D5 JUMPI SWAP2 PUSH2 0x2CF SWAP2 PUSH2 0x2AD DUP5 PUSH1 0x1 PUSH32 0x106C826EDCAD7BE8B769067AEBB234B0E19866D19C9EBE48E6F61E994B9E03AA SWAP9 SWAP8 SWAP7 ADD PUSH1 0x8 SSTORE PUSH2 0x207D JUMP JUMPDEST DUP2 SWAP3 SWAP2 SLOAD SWAP1 PUSH1 0x3 SHL SWAP2 DUP10 DUP4 SHL SWAP3 SHL NOT AND OR SWAP1 SSTORE MLOAD SWAP3 DUP3 DUP5 SWAP4 DUP5 MSTORE DUP4 ADD SWAP1 PUSH2 0x1FDA JUMP JUMPDEST SUB SWAP1 LOG2 DUP1 RETURN JUMPDEST PUSH4 0x4E487B71 PUSH1 0xE0 SHL DUP8 MSTORE PUSH1 0x41 DUP9 MSTORE PUSH1 0x24 DUP8 REVERT JUMPDEST PUSH4 0x4E487B71 PUSH1 0xE0 SHL DUP10 MSTORE PUSH1 0x41 DUP11 MSTORE PUSH1 0x24 DUP10 REVERT JUMPDEST DUP4 MLOAD PUSH3 0x461BCD PUSH1 0xE5 SHL DUP2 MSTORE DUP1 DUP11 ADD DUP7 SWAP1 MSTORE PUSH1 0x1A PUSH1 0x24 DUP3 ADD MSTORE PUSH32 0x436974697A656E20616C72656164792072656769737465726564000000000000 PUSH1 0x44 DUP3 ADD MSTORE PUSH1 0x64 SWAP1 REVERT JUMPDEST DUP3 MLOAD PUSH3 0x461BCD PUSH1 0xE5 SHL DUP2 MSTORE PUSH1 0x20 DUP2 DUP11 ADD MSTORE PUSH1 0x17 PUSH1 0x24 DUP3 ADD MSTORE PUSH32 0x496E76616C696420636974697A656E2061646472657373000000000000000000 PUSH1 0x44 DUP3 ADD MSTORE PUSH1 0x64 SWAP1 REVERT JUMPDEST DUP6 DUP1 REVERT JUMPDEST DUP5 DUP1 REVERT JUMPDEST POP DUP1 REVERT JUMPDEST POP CALLVALUE PUSH2 0x389 JUMPI PUSH1 0xFF DUP2 PUSH1 0x20 SWAP4 PUSH2 0x3BD DUP6 PUSH2 0x3A6 CALLDATASIZE PUSH2 0x1F72 JUMP JUMPDEST SWAP4 SWAP2 DUP4 DUP8 SWAP5 SWAP3 SWAP5 MLOAD SWAP4 DUP3 DUP6 DUP1 SWAP5 MLOAD SWAP4 DUP5 SWAP3 ADD PUSH2 0x1FB7 JUMP JUMPDEST PUSH1 0x3 SWAP1 DUP3 ADD SWAP1 DUP2 MSTORE SUB ADD SWAP1 KECCAK256 SWAP1 DUP4 MSTORE DUP7 MSTORE DUP3 DUP3 KECCAK256 PUSH1 0x1 PUSH1 0x1 PUSH1 0xA0 SHL SUB SWAP1 SWAP2 AND DUP3 MSTORE DUP6 MSTORE KECCAK256 SLOAD SWAP2 MLOAD SWAP2 AND ISZERO ISZERO DUP2 MSTORE RETURN JUMPDEST POP SWAP1 CALLVALUE PUSH2 0x4B3 JUMPI PUSH1 0x20 CALLDATASIZE PUSH1 0x3 NOT ADD SLT PUSH2 0x4B3 JUMPI DUP3 CALLDATALOAD PUSH1 0x1 PUSH1 0x1 PUSH1 0x40 SHL SUB DUP2 GT PUSH2 0x389 JUMPI PUSH1 0x20 PUSH2 0x4AF SWAP3 PUSH2 0x425 PUSH2 0x438 SWAP4 CALLDATASIZE SWAP1 DUP9 ADD PUSH2 0x1F01 JUMP JUMPDEST SWAP1 DUP3 DUP7 MLOAD SWAP5 DUP4 DUP7 DUP1 SWAP6 MLOAD SWAP4 DUP5 SWAP3 ADD PUSH2 0x1FB7 JUMP JUMPDEST DUP3 ADD SWAP1 DUP2 MSTORE SUB ADD SWAP1 KECCAK256 SWAP2 PUSH2 0x44B DUP4 PUSH2 0x2176 JUMP JUMPDEST SWAP3 PUSH2 0x458 PUSH1 0x1 DUP3 ADD PUSH2 0x2176 JUMP JUMPDEST SWAP4 PUSH2 0x465 PUSH1 0x2 DUP4 ADD PUSH2 0x2176 JUMP JUMPDEST SWAP6 PUSH2 0x476 PUSH1 0x3 DUP5 ADD SLOAD SWAP2 DUP5 ADD PUSH2 0x2176 JUMP JUMPDEST PUSH1 0x1 DUP1 PUSH1 0xA0 SHL SUB PUSH1 0x5 DUP6 ADD SLOAD AND PUSH1 0x6 DUP6 ADD SLOAD SWAP2 PUSH1 0x7 DUP7 ADD SLOAD SWAP4 PUSH1 0x9 PUSH1 0x8 DUP9 ADD SLOAD SWAP8 ADD SLOAD SWAP8 MLOAD SWAP11 DUP12 SWAP11 PUSH1 0xFF DUP1 DUP11 PUSH1 0x8 SHR AND SWAP10 AND SWAP8 DUP13 PUSH2 0x20B4 JUMP JUMPDEST SUB SWAP1 RETURN JUMPDEST DUP1 REVERT JUMPDEST POP SWAP2 SWAP1 CALLVALUE PUSH2 0x4B3 JUMPI PUSH1 0x20 CALLDATASIZE PUSH1 0x3 NOT ADD SLT PUSH2 0x4B3 JUMPI PUSH1 0x1 PUSH1 0x1 PUSH1 0xA0 SHL SUB SWAP2 DUP4 SWAP2 SWAP1 DUP4 PUSH2 0x4DF PUSH2 0x1F5C JUMP JUMPDEST AND DUP3 MSTORE PUSH1 0x20 MSTORE KECCAK256 SWAP1 DUP2 SLOAD AND SWAP1 PUSH1 0xFF PUSH2 0x537 PUSH2 0x4FC PUSH1 0x1 DUP5 ADD PUSH2 0x2176 JUMP JUMPDEST SWAP5 PUSH1 0x3 PUSH2 0x50B PUSH1 0x2 DUP7 ADD PUSH2 0x2176 JUMP JUMPDEST SWAP5 ADD SLOAD SWAP4 PUSH2 0x52A DUP3 MLOAD SWAP8 DUP9 SWAP8 DUP9 MSTORE PUSH1 0xA0 PUSH1 0x20 DUP10 ADD MSTORE PUSH1 0xA0 DUP9 ADD SWAP1 PUSH2 0x1FDA JUMP JUMPDEST SWAP2 DUP7 DUP4 SUB SWAP1 DUP8 ADD MSTORE PUSH2 0x1FDA JUMP JUMPDEST SWAP2 DUP2 DUP2 AND ISZERO ISZERO PUSH1 0x60 DUP6 ADD MSTORE PUSH1 0x8 SHR AND ISZERO ISZERO PUSH1 0x80 DUP4 ADD MSTORE SUB SWAP1 RETURN JUMPDEST SWAP4 SWAP1 POP CALLVALUE PUSH2 0x8F0 JUMPI DUP4 PUSH1 0x3 NOT CALLDATASIZE ADD SLT PUSH2 0x8F0 JUMPI PUSH1 0x1 PUSH1 0x1 PUSH1 0x40 SHL SUB SWAP1 DUP1 CALLDATALOAD DUP3 DUP2 GT PUSH2 0x385 JUMPI PUSH2 0x583 SWAP1 CALLDATASIZE SWAP1 DUP4 ADD PUSH2 0x1F01 JUMP JUMPDEST PUSH1 0x24 DUP1 CALLDATALOAD DUP5 DUP2 GT PUSH2 0x8EC JUMPI PUSH2 0x59B SWAP1 CALLDATASIZE SWAP1 DUP6 ADD PUSH2 0x1F01 JUMP JUMPDEST SWAP7 PUSH1 0x44 CALLDATALOAD DUP6 DUP2 GT PUSH2 0x8E8 JUMPI PUSH2 0x5B3 SWAP1 CALLDATASIZE SWAP1 DUP7 ADD PUSH2 0x1F01 JUMP JUMPDEST SWAP1 PUSH1 0x84 CALLDATALOAD DUP7 DUP2 GT PUSH2 0x8E4 JUMPI PUSH2 0x5CB SWAP1 CALLDATASIZE SWAP1 DUP8 ADD PUSH2 0x1F01 JUMP JUMPDEST SWAP6 PUSH1 0xA4 CALLDATALOAD SWAP1 DUP2 GT PUSH2 0x8E4 JUMPI PUSH2 0x5E3 SWAP1 CALLDATASIZE SWAP1 DUP8 ADD PUSH2 0x1F01 JUMP JUMPDEST CALLER DUP10 MSTORE PUSH1 0x20 SWAP7 PUSH1 0x5 DUP9 MSTORE DUP9 DUP11 KECCAK256 SLOAD PUSH1 0xFF AND PUSH2 0x5FD SWAP1 PUSH2 0x23C6 JUMP JUMPDEST DUP9 MLOAD SWAP4 DUP7 MLOAD SWAP5 DUP10 DUP2 DUP14 DUP3 DUP12 ADD SWAP9 PUSH2 0x615 DUP2 DUP5 DUP13 PUSH2 0x1FB7 JUMP JUMPDEST DUP3 ADD SWAP1 DUP2 MSTORE SUB ADD SWAP1 KECCAK256 PUSH1 0x6 ADD SLOAD ISZERO ISZERO PUSH2 0x62D SWAP1 PUSH2 0x2445 JUMP JUMPDEST DUP10 MLOAD DUP10 DUP2 DUP14 DUP11 MLOAD PUSH2 0x63F DUP2 DUP5 DUP13 PUSH2 0x1FB7 JUMP JUMPDEST DUP3 ADD SWAP1 DUP2 MSTORE SUB ADD SWAP1 KECCAK256 PUSH1 0x8 ADD SLOAD PUSH1 0x8 SHR PUSH1 0xFF AND PUSH2 0x897 JUMPI DUP8 DUP11 MLOAD DUP11 DUP2 DUP11 MLOAD PUSH2 0x668 DUP2 DUP4 DUP13 PUSH2 0x1FB7 JUMP JUMPDEST DUP2 ADD PUSH1 0x1 DUP2 MSTORE SUB ADD SWAP1 KECCAK256 SLOAD LT ISZERO PUSH2 0x84B JUMPI DUP9 SWAP4 DUP11 DUP13 SWAP5 DUP6 SWAP5 DUP16 SWAP5 DUP12 SWAP1 PUSH2 0x6EC DUP6 MLOAD SWAP11 DUP12 SWAP9 PUSH2 0x695 DUP11 PUSH2 0x1EC4 JUMP JUMPDEST DUP10 MSTORE DUP1 DUP10 ADD SWAP3 DUP4 MSTORE DUP13 DUP8 DUP11 ADD SWAP5 PUSH1 0x64 CALLDATALOAD DUP7 MSTORE PUSH1 0x60 DUP12 ADD SWAP7 DUP8 MSTORE PUSH1 0x80 DUP12 ADD SWAP8 DUP9 MSTORE PUSH1 0xA0 DUP12 ADD SWAP9 PUSH1 0xC4 CALLDATALOAD DUP11 MSTORE PUSH2 0x120 PUSH1 0xC0 DUP14 ADD SWAP12 CALLER DUP14 MSTORE DUP14 ADD SWAP13 DUP14 TIMESTAMP SWAP1 MSTORE PUSH2 0x100 DUP2 ADD SWAP15 DUP16 MSTORE ADD SWAP14 DUP15 MSTORE MLOAD SWAP4 DUP5 SWAP3 DUP4 SWAP3 MLOAD SWAP3 DUP4 SWAP2 PUSH2 0x1FB7 JUMP JUMPDEST DUP2 ADD PUSH1 0x1 DUP2 MSTORE SUB ADD SWAP1 KECCAK256 DUP1 SLOAD SWAP1 PUSH1 0x1 PUSH1 0x40 SHL DUP3 LT ISZERO PUSH2 0x835 JUMPI SWAP1 PUSH2 0x715 SWAP2 PUSH1 0x1 DUP3 ADD DUP2 SSTORE PUSH2 0x221C JUMP JUMPDEST SWAP11 SWAP1 SWAP11 PUSH2 0x821 JUMPI DUP16 SWAP11 SWAP9 SWAP6 SWAP3 SWAP5 DUP16 SWAP2 PUSH2 0x7B2 SWAP14 SWAP12 SWAP9 SWAP6 PUSH1 0x9 SWAP11 SWAP8 PUSH2 0x74F DUP14 PUSH1 0x1 PUSH2 0x768 SWAP9 PUSH2 0x747 PUSH2 0x75F SWAP8 MLOAD DUP5 PUSH2 0x22B7 JUMP JUMPDEST MLOAD SWAP2 ADD PUSH2 0x22B7 JUMP JUMPDEST MLOAD PUSH1 0x2 DUP14 ADD SSTORE MLOAD PUSH1 0x3 DUP13 ADD PUSH2 0x22B7 JUMP JUMPDEST MLOAD SWAP1 DUP10 ADD PUSH2 0x22B7 JUMP JUMPDEST MLOAD PUSH1 0x5 DUP8 ADD SSTORE MLOAD PUSH1 0x6 DUP7 ADD DUP1 SLOAD PUSH1 0x1 PUSH1 0x1 PUSH1 0xA0 SHL SUB NOT AND PUSH1 0x1 PUSH1 0x1 PUSH1 0xA0 SHL SUB SWAP3 SWAP1 SWAP3 AND SWAP2 SWAP1 SWAP2 OR SWAP1 SSTORE MLOAD PUSH1 0x7 DUP6 ADD SSTORE MLOAD PUSH1 0x8 DUP5 ADD SSTORE MLOAD SWAP2 ADD SSTORE DUP8 MLOAD DUP6 MLOAD SWAP1 SWAP4 DUP5 SWAP3 DUP3 SWAP1 DUP5 SWAP1 PUSH2 0x1FB7 JUMP JUMPDEST DUP2 ADD PUSH1 0x1 DUP2 MSTORE SUB ADD SWAP1 KECCAK256 SLOAD SWAP3 PUSH1 0x0 NOT DUP5 ADD SWAP4 DUP5 GT PUSH2 0x810 JUMPI POP POP PUSH32 0xD2F996805704B513D8AEE1E83F96044A7B82BAA96831932E470E2BE8FE8DC303 SWAP4 SWAP5 SWAP6 PUSH2 0x7FC PUSH2 0x2CF SWAP3 PUSH2 0x2425 JUMP JUMPDEST SWAP6 DUP1 DUP1 MLOAD SWAP6 DUP7 SWAP6 DUP7 MSTORE DUP6 ADD MSTORE DUP4 ADD SWAP1 PUSH2 0x1FDA JUMP JUMPDEST PUSH4 0x4E487B71 PUSH1 0xE0 SHL DUP8 MSTORE PUSH1 0x11 SWAP1 MSTORE DUP6 REVERT JUMPDEST POP POP POP DUP10 DUP16 DUP1 DUP15 PUSH4 0x4E487B71 PUSH1 0xE0 SHL DUP3 MSTORE MSTORE REVERT JUMPDEST POP POP POP POP DUP10 DUP16 PUSH1 0x41 DUP15 PUSH4 0x4E487B71 PUSH1 0xE0 SHL DUP4 MSTORE MSTORE REVERT JUMPDEST DUP10 MLOAD PUSH3 0x461BCD PUSH1 0xE5 SHL DUP2 MSTORE DUP1 DUP10 ADD DUP11 SWAP1 MSTORE PUSH1 0x21 DUP2 DUP9 ADD MSTORE PUSH32 0x4D6178696D756D203420626964732063616E2062652073686F72746C69737465 PUSH1 0x44 DUP3 ADD MSTORE PUSH1 0x19 PUSH1 0xFA SHL PUSH1 0x64 DUP3 ADD MSTORE PUSH1 0x84 SWAP1 REVERT JUMPDEST PUSH1 0x84 DUP9 DUP8 DUP12 DUP14 MLOAD SWAP3 PUSH3 0x461BCD PUSH1 0xE5 SHL DUP5 MSTORE DUP4 ADD MSTORE DUP1 DUP3 ADD MSTORE PUSH32 0x50726F637572656D656E7420766F74696E6720616C726561647920636F6D706C PUSH1 0x44 DUP3 ADD MSTORE PUSH4 0x195D1959 PUSH1 0xE2 SHL PUSH1 0x64 DUP3 ADD MSTORE REVERT JUMPDEST DUP9 DUP1 REVERT JUMPDEST DUP8 DUP1 REVERT JUMPDEST DUP7 DUP1 REVERT JUMPDEST DUP3 DUP1 REVERT JUMPDEST POP POP CALLVALUE PUSH2 0x389 JUMPI DUP1 PUSH2 0x925 SWAP2 PUSH1 0x60 SWAP4 PUSH1 0x20 PUSH2 0x90E CALLDATASIZE PUSH2 0x1F72 JUMP JUMPDEST SWAP7 SWAP2 DUP4 DUP7 SWAP5 SWAP3 SWAP5 MLOAD SWAP4 DUP3 DUP6 DUP1 SWAP5 MLOAD SWAP4 DUP5 SWAP3 ADD PUSH2 0x1FB7 JUMP JUMPDEST DUP2 ADD PUSH1 0x2 DUP2 MSTORE SUB ADD SWAP1 KECCAK256 SWAP1 DUP3 MSTORE PUSH1 0x20 MSTORE DUP2 DUP2 KECCAK256 PUSH1 0x1 DUP1 PUSH1 0xA0 SHL SUB DUP1 SWAP6 AND DUP3 MSTORE PUSH1 0x20 MSTORE KECCAK256 SWAP1 PUSH1 0xFF PUSH1 0x1 DUP4 SLOAD SWAP4 ADD SLOAD SWAP3 DUP3 MLOAD SWAP5 DUP2 AND DUP6 MSTORE PUSH1 0xA0 SHR AND ISZERO ISZERO PUSH1 0x20 DUP5 ADD MSTORE DUP3 ADD MSTORE RETURN JUMPDEST SWAP3 SWAP1 POP CALLVALUE PUSH2 0x4B3 JUMPI PUSH1 0x20 SWAP4 DUP5 PUSH1 0x3 NOT CALLDATASIZE ADD SLT PUSH2 0x389 JUMPI DUP1 CALLDATALOAD PUSH1 0x1 PUSH1 0x1 PUSH1 0x40 SHL SUB DUP2 GT PUSH2 0x8F0 JUMPI PUSH2 0x99C SWAP2 CALLDATASIZE SWAP2 ADD PUSH2 0x1F01 JUMP JUMPDEST SWAP2 DUP5 PUSH2 0x9B0 DUP3 MLOAD SWAP5 DUP6 DUP2 MLOAD SWAP4 DUP5 SWAP3 ADD PUSH2 0x1FB7 JUMP JUMPDEST DUP4 ADD SWAP3 DUP6 DUP2 PUSH1 0x1 SWAP6 DUP7 DUP2 MSTORE SUB ADD SWAP1 KECCAK256 SWAP5 DUP6 SLOAD SWAP2 PUSH2 0x9CC DUP4 PUSH2 0x24FB JUMP JUMPDEST SWAP3 PUSH2 0x9D9 DUP3 MLOAD SWAP5 DUP6 PUSH2 0x1EE0 JUMP JUMPDEST DUP1 DUP5 MSTORE DUP3 DUP5 ADD DUP1 SWAP9 DUP7 MSTORE DUP4 DUP7 KECCAK256 DUP7 SWAP2 JUMPDEST DUP4 DUP4 LT PUSH2 0xAE2 JUMPI POP POP POP POP DUP1 MLOAD SWAP6 DUP3 DUP8 ADD SWAP4 DUP4 DUP9 MSTORE MLOAD DUP1 SWAP5 MSTORE DUP2 DUP8 ADD SWAP1 DUP3 DUP6 PUSH1 0x5 SHL DUP10 ADD ADD SWAP9 SWAP6 SWAP3 JUMPDEST DUP6 DUP5 LT PUSH2 0xA1F JUMPI DUP9 DUP11 SUB DUP10 RETURN JUMPDEST SWAP1 SWAP2 SWAP3 SWAP4 SWAP5 SWAP6 SWAP7 DUP6 DUP1 DUP3 SWAP12 PUSH1 0x3F NOT DUP13 DUP3 SUB ADD DUP8 MSTORE DUP11 MLOAD SWAP1 PUSH2 0xA90 PUSH2 0xA7D PUSH2 0xA62 PUSH2 0xA52 DUP6 MLOAD PUSH2 0x140 DUP1 DUP8 MSTORE DUP7 ADD SWAP1 PUSH2 0x1FDA JUMP JUMPDEST DUP7 DUP7 ADD MLOAD DUP6 DUP3 SUB DUP9 DUP8 ADD MSTORE PUSH2 0x1FDA JUMP JUMPDEST DUP9 DUP6 ADD MLOAD DUP10 DUP6 ADD MSTORE PUSH1 0x60 DUP1 DUP7 ADD MLOAD SWAP1 DUP6 DUP4 SUB SWAP1 DUP7 ADD MSTORE PUSH2 0x1FDA JUMP JUMPDEST PUSH1 0x80 DUP1 DUP6 ADD MLOAD SWAP1 DUP5 DUP4 SUB SWAP1 DUP6 ADD MSTORE PUSH2 0x1FDA JUMP JUMPDEST PUSH1 0xA0 DUP1 DUP5 ADD MLOAD SWAP1 DUP4 ADD MSTORE PUSH1 0xC0 DUP1 DUP5 ADD MLOAD PUSH1 0x1 PUSH1 0x1 PUSH1 0xA0 SHL SUB AND SWAP1 DUP4 ADD MSTORE DUP8 DUP4 ADD MLOAD DUP9 DUP4 ADD MSTORE PUSH2 0x100 DUP1 DUP5 ADD MLOAD SWAP1 DUP4 ADD MSTORE PUSH2 0x120 SWAP3 DUP4 ADD MLOAD SWAP3 SWAP1 SWAP2 ADD SWAP2 SWAP1 SWAP2 MSTORE SWAP12 SWAP10 ADD SWAP8 SWAP7 SWAP6 SWAP2 SWAP1 SWAP2 ADD SWAP4 ADD SWAP2 SWAP1 PUSH2 0xA12 JUMP JUMPDEST SWAP8 PUSH1 0xA DUP7 DUP3 SWAP13 SWAP11 PUSH2 0xAF7 DUP6 SWAP12 SWAP9 SWAP10 SWAP11 SWAP12 PUSH2 0x2512 JUMP JUMPDEST DUP2 MSTORE ADD SWAP3 ADD SWAP3 ADD SWAP2 SWAP1 SWAP10 SWAP8 SWAP10 SWAP7 SWAP6 SWAP5 SWAP4 SWAP7 PUSH2 0x9E9 JUMP JUMPDEST DUP3 DUP5 CALLVALUE PUSH2 0x4B3 JUMPI POP PUSH2 0x4AF PUSH2 0xB7F PUSH2 0xB79 PUSH1 0x20 PUSH2 0xB6A PUSH2 0xB2C CALLDATASIZE PUSH2 0x1FFF JUMP JUMPDEST SWAP3 SWAP1 DUP8 MLOAD SWAP1 PUSH2 0xB5A DUP2 MLOAD SWAP3 DUP5 DUP2 DUP2 DUP6 ADD SWAP6 PUSH2 0xB48 DUP2 DUP4 DUP10 PUSH2 0x1FB7 JUMP JUMPDEST DUP2 ADD PUSH1 0x1 DUP2 MSTORE SUB ADD SWAP1 KECCAK256 SLOAD DUP7 LT PUSH2 0x24AC JUMP JUMPDEST DUP9 MLOAD SWAP4 DUP5 SWAP3 DUP4 SWAP3 MLOAD SWAP3 DUP4 SWAP2 PUSH2 0x1FB7 JUMP JUMPDEST DUP2 ADD PUSH1 0x1 DUP2 MSTORE SUB ADD SWAP1 KECCAK256 PUSH2 0x221C JUMP JUMPDEST POP PUSH2 0x2512 JUMP JUMPDEST SWAP2 DUP3 MLOAD SWAP3 PUSH1 0x20 DUP2 ADD MLOAD SWAP5 DUP3 DUP3 ADD MLOAD SWAP1 PUSH1 0x60 DUP4 ADD MLOAD PUSH1 0x80 DUP5 ADD MLOAD PUSH1 0xA0 DUP6 ADD MLOAD SWAP2 PUSH1 0x1 DUP1 PUSH1 0xA0 SHL SUB PUSH1 0xC0 DUP8 ADD MLOAD AND SWAP4 DUP7 ADD MLOAD SWAP5 PUSH2 0x120 PUSH2 0x100 DUP9 ADD MLOAD SWAP8 ADD MLOAD SWAP8 MLOAD SWAP11 DUP12 SWAP11 DUP12 PUSH2 0x2238 JUMP JUMPDEST POP POP CALLVALUE PUSH2 0x389 JUMPI PUSH1 0x20 CALLDATASIZE PUSH1 0x3 NOT ADD SLT PUSH2 0x389 JUMPI PUSH1 0x20 SWAP2 PUSH1 0xFF SWAP1 DUP3 SWAP1 PUSH1 0x1 PUSH1 0x1 PUSH1 0xA0 SHL SUB PUSH2 0xBF2 PUSH2 0x1F5C JUMP JUMPDEST AND DUP2 MSTORE PUSH1 0x5 DUP6 MSTORE KECCAK256 SLOAD AND SWAP1 MLOAD SWAP1 ISZERO ISZERO DUP2 MSTORE RETURN JUMPDEST DUP4 DUP6 DUP5 CALLVALUE PUSH2 0x8F0 JUMPI PUSH1 0x60 CALLDATASIZE PUSH1 0x3 NOT ADD SLT PUSH2 0x8F0 JUMPI PUSH1 0x1 PUSH1 0x1 PUSH1 0x40 SHL SUB SWAP1 DUP3 CALLDATALOAD DUP3 DUP2 GT PUSH2 0x385 JUMPI PUSH2 0xC38 SWAP1 CALLDATASIZE SWAP1 DUP6 ADD PUSH2 0x1F01 JUMP JUMPDEST SWAP1 PUSH1 0x24 SWAP2 DUP3 CALLDATALOAD SWAP4 PUSH1 0x44 SWAP6 DUP7 CALLDATALOAD SWAP2 DUP3 ISZERO ISZERO SWAP6 DUP7 DUP5 SUB PUSH2 0xFF1 JUMPI CALLER DUP11 MSTORE PUSH1 0x20 SWAP9 PUSH1 0x6 DUP11 MSTORE PUSH1 0xFF DUP8 DUP13 KECCAK256 SLOAD AND ISZERO PUSH2 0xFA7 JUMPI CALLER DUP12 MSTORE DUP4 DUP11 MSTORE PUSH1 0xFF PUSH1 0x3 DUP9 DUP14 KECCAK256 ADD SLOAD PUSH1 0x8 SHR AND ISZERO PUSH2 0xF6F JUMPI SWAP1 DUP10 SWAP5 SWAP4 SWAP3 SWAP2 PUSH1 0xFF PUSH1 0x8 PUSH2 0xCA3 DUP9 DUP16 DUP12 SWAP1 DUP14 MLOAD SWAP12 DUP13 SWAP5 DUP4 DUP7 SWAP5 MLOAD SWAP3 DUP4 SWAP2 ADD SWAP15 DUP16 PUSH2 0x1FB7 JUMP JUMPDEST DUP3 ADD SWAP1 DUP2 MSTORE SUB ADD SWAP1 KECCAK256 ADD SLOAD AND ISZERO PUSH2 0xF1D JUMPI PUSH1 0x7 PUSH2 0xCCD DUP13 DUP9 DUP16 DUP12 DUP14 MLOAD SWAP5 DUP6 SWAP4 DUP5 SWAP3 MLOAD SWAP3 DUP4 SWAP2 PUSH2 0x1FB7 JUMP JUMPDEST DUP3 ADD SWAP1 DUP2 MSTORE SUB ADD SWAP1 KECCAK256 ADD SLOAD TIMESTAMP GT PUSH2 0xEDD JUMPI PUSH2 0xD04 DUP9 MLOAD DUP13 DUP2 DUP11 MLOAD PUSH2 0xCF2 DUP2 DUP4 DUP14 PUSH2 0x1FB7 JUMP JUMPDEST DUP2 ADD PUSH1 0x1 DUP2 MSTORE SUB ADD SWAP1 KECCAK256 SLOAD DUP12 LT PUSH2 0x24AC JUMP JUMPDEST DUP8 MLOAD DUP12 DUP2 DUP10 MLOAD PUSH2 0xD15 DUP2 DUP4 DUP13 PUSH2 0x1FB7 JUMP JUMPDEST DUP2 ADD PUSH1 0x3 DUP2 MSTORE SUB ADD SWAP1 KECCAK256 DUP11 DUP14 MSTORE DUP12 MSTORE DUP8 DUP13 KECCAK256 CALLER DUP14 MSTORE DUP12 MSTORE PUSH1 0xFF DUP9 DUP14 KECCAK256 SLOAD AND PUSH2 0xE9D JUMPI POP DUP7 MLOAD SWAP3 PUSH1 0x60 DUP5 ADD SWAP3 DUP4 GT DUP5 DUP5 LT OR PUSH2 0xE8C JUMPI POP POP SWAP7 DUP9 DUP7 SWAP5 PUSH2 0xE5F SWAP5 PUSH1 0x60 SWAP10 SWAP8 SWAP5 PUSH1 0x1 DUP15 PUSH32 0x43FDA53D9DF661D064E67F88934200A48401AFE5840A8CFF318F0DE710FE6A6D SWAP14 DUP8 SWAP13 MSTORE CALLER DUP4 MSTORE DUP6 DUP4 ADD DUP12 DUP2 MSTORE DUP11 DUP1 DUP6 ADD SWAP3 TIMESTAMP DUP5 MSTORE PUSH2 0xDA8 DUP10 DUP10 DUP14 DUP6 MLOAD SWAP4 DUP5 SWAP3 DUP4 SWAP3 MLOAD SWAP3 DUP4 SWAP2 PUSH2 0x1FB7 JUMP JUMPDEST DUP2 ADD PUSH1 0x2 DUP2 MSTORE SUB ADD SWAP1 KECCAK256 DUP11 DUP3 MSTORE DUP10 MSTORE DUP2 DUP2 KECCAK256 CALLER DUP3 MSTORE DUP10 MSTORE KECCAK256 SWAP4 DUP4 DUP1 PUSH1 0xA0 SHL SUB SWAP1 MLOAD AND DUP5 SLOAD SWAP2 PUSH1 0xFF PUSH1 0xA0 SHL SWAP1 MLOAD ISZERO ISZERO PUSH1 0xA0 SHL AND SWAP2 PUSH11 0xFFFFFFFFFFFFFFFFFFFFFF PUSH1 0xA8 SHL AND OR OR DUP4 SSTORE MLOAD SWAP2 ADD SSTORE DUP13 DUP5 DUP9 MLOAD DUP6 DUP2 DUP10 MLOAD PUSH2 0xE06 DUP2 DUP4 DUP11 PUSH2 0x1FB7 JUMP JUMPDEST PUSH1 0x3 SWAP1 DUP3 ADD SWAP1 DUP2 MSTORE SUB ADD SWAP1 KECCAK256 SWAP2 MSTORE DUP4 MSTORE DUP7 DUP14 KECCAK256 CALLER DUP15 MSTORE DUP4 MSTORE DUP7 DUP14 KECCAK256 DUP1 SLOAD PUSH1 0xFF NOT AND PUSH1 0x1 OR SWAP1 SSTORE ISZERO PUSH2 0xE71 JUMPI SWAP2 PUSH2 0xB6A PUSH2 0xE4C SWAP3 PUSH1 0x8 SWAP5 DUP9 MLOAD DUP1 SWAP4 DUP2 SWAP3 DUP10 MLOAD SWAP3 DUP4 SWAP2 PUSH2 0x1FB7 JUMP JUMPDEST POP ADD PUSH2 0xE58 DUP2 SLOAD PUSH2 0x24EC JUMP JUMPDEST SWAP1 SSTORE PUSH2 0x2425 JUMP JUMPDEST SWAP6 DUP2 MLOAD SWAP4 DUP5 MSTORE CALLER SWAP1 DUP5 ADD MSTORE DUP3 ADD MSTORE LOG2 DUP1 RETURN JUMPDEST SWAP2 PUSH2 0xB6A PUSH2 0xE4C SWAP3 PUSH1 0x9 SWAP5 DUP9 MLOAD DUP1 SWAP4 DUP2 SWAP3 DUP10 MLOAD SWAP3 DUP4 SWAP2 PUSH2 0x1FB7 JUMP JUMPDEST PUSH4 0x4E487B71 PUSH1 0xE0 SHL DUP13 MSTORE PUSH1 0x41 SWAP1 MSTORE DUP11 REVERT JUMPDEST PUSH32 0x416C726561647920766F74656420666F72207468697320626964000000000000 DUP5 SWAP2 PUSH1 0x1A PUSH1 0x64 SWAP5 DUP15 DUP13 MLOAD SWAP6 PUSH3 0x461BCD PUSH1 0xE5 SHL DUP8 MSTORE DUP7 ADD MSTORE DUP5 ADD MSTORE DUP3 ADD MSTORE REVERT JUMPDEST PUSH32 0x566F74696E6720706572696F642068617320656E646564000000000000000000 DUP5 SWAP2 PUSH1 0x17 PUSH1 0x64 SWAP5 DUP15 DUP13 MLOAD SWAP6 PUSH3 0x461BCD PUSH1 0xE5 SHL DUP8 MSTORE DUP7 ADD MSTORE DUP5 ADD MSTORE DUP3 ADD MSTORE REVERT JUMPDEST PUSH32 0x566F74696E67206973206E6F742061637469766520666F722074686973207072 DUP5 SWAP2 PUSH1 0x29 PUSH1 0x84 SWAP5 DUP15 DUP13 MLOAD SWAP6 PUSH3 0x461BCD PUSH1 0xE5 SHL DUP8 MSTORE DUP7 ADD MSTORE DUP5 ADD MSTORE DUP3 ADD MSTORE PUSH9 0x1BD8DD5C995B595B9D PUSH1 0xBA SHL PUSH1 0x64 DUP3 ADD MSTORE REVERT JUMPDEST PUSH21 0x436974697A656E206973206E6F7420616374697665 PUSH1 0x58 SHL DUP5 SWAP2 PUSH1 0x15 PUSH1 0x64 SWAP5 DUP14 DUP12 MLOAD SWAP6 PUSH3 0x461BCD PUSH1 0xE5 SHL DUP8 MSTORE DUP7 ADD MSTORE DUP5 ADD MSTORE DUP3 ADD MSTORE REVERT JUMPDEST PUSH32 0x4F6E6C79207265676973746572656420636974697A656E732063616E20766F74 DUP5 SWAP2 PUSH1 0x21 PUSH1 0x84 SWAP5 DUP14 DUP12 MLOAD SWAP6 PUSH3 0x461BCD PUSH1 0xE5 SHL DUP8 MSTORE DUP7 ADD MSTORE DUP5 ADD MSTORE DUP3 ADD MSTORE PUSH1 0x65 PUSH1 0xF8 SHL PUSH1 0x64 DUP3 ADD MSTORE REVERT JUMPDEST DUP10 DUP1 REVERT JUMPDEST POP POP SWAP1 CALLVALUE PUSH2 0x4B3 JUMPI PUSH1 0x20 SWAP1 PUSH2 0x1020 PUSH2 0x100C CALLDATASIZE PUSH2 0x1FFF JUMP JUMPDEST SWAP4 SWAP1 DUP2 DUP7 MLOAD SWAP4 DUP3 DUP6 DUP1 SWAP5 MLOAD SWAP4 DUP5 SWAP3 ADD PUSH2 0x1FB7 JUMP JUMPDEST DUP2 ADD PUSH1 0x1 DUP2 MSTORE SUB ADD SWAP1 KECCAK256 SWAP1 DUP2 SLOAD DUP4 LT ISZERO PUSH2 0x4B3 JUMPI POP PUSH2 0x4AF SWAP2 PUSH2 0x1042 SWAP2 PUSH2 0x221C JUMP JUMPDEST POP SWAP2 PUSH2 0x104D DUP4 PUSH2 0x2176 JUMP JUMPDEST SWAP3 PUSH2 0x105A PUSH1 0x1 DUP3 ADD PUSH2 0x2176 JUMP JUMPDEST SWAP5 PUSH1 0x2 DUP3 ADD SLOAD SWAP1 PUSH2 0x1078 PUSH2 0x1070 PUSH1 0x3 DUP6 ADD PUSH2 0x2176 JUMP JUMPDEST SWAP2 DUP5 ADD PUSH2 0x2176 JUMP JUMPDEST PUSH1 0x5 DUP5 ADD SLOAD SWAP1 PUSH1 0x1 DUP1 PUSH1 0xA0 SHL SUB PUSH1 0x6 DUP7 ADD SLOAD AND SWAP3 PUSH1 0x7 DUP7 ADD SLOAD SWAP5 PUSH1 0x9 PUSH1 0x8 DUP9 ADD SLOAD SWAP8 ADD SLOAD SWAP8 MLOAD SWAP11 DUP12 SWAP11 DUP12 PUSH2 0x2238 JUMP JUMPDEST POP POP SWAP1 CALLVALUE PUSH2 0x4B3 JUMPI PUSH1 0x20 CALLDATASIZE PUSH1 0x3 NOT ADD SLT PUSH2 0x4B3 JUMPI DUP3 CALLDATALOAD PUSH1 0x7 SLOAD DUP2 LT ISZERO PUSH2 0x389 JUMPI PUSH2 0x10D0 SWAP1 PUSH2 0x2030 JUMP JUMPDEST SWAP4 SWAP1 SWAP4 PUSH2 0x10F7 JUMPI PUSH2 0x4AF DUP4 PUSH2 0x10E4 DUP7 PUSH2 0x2176 JUMP JUMPDEST SWAP1 MLOAD SWAP2 DUP3 SWAP2 PUSH1 0x20 DUP4 MSTORE PUSH1 0x20 DUP4 ADD SWAP1 PUSH2 0x1FDA JUMP JUMPDEST PUSH4 0x4E487B71 PUSH1 0xE0 SHL DUP3 MSTORE DUP2 SWAP1 MSTORE PUSH1 0x24 SWAP1 REVERT JUMPDEST POP POP CALLVALUE PUSH2 0x389 JUMPI PUSH2 0x1119 CALLDATASIZE PUSH2 0x1FFF JUMP JUMPDEST CALLER DUP5 MSTORE PUSH1 0x20 SWAP2 PUSH1 0x5 DUP4 MSTORE PUSH2 0x1132 PUSH1 0xFF DUP6 DUP8 KECCAK256 SLOAD AND PUSH2 0x23C6 JUMP JUMPDEST DUP4 MLOAD SWAP2 PUSH2 0x1160 PUSH1 0x6 DUP4 MLOAD SWAP5 DUP7 DUP2 DUP2 DUP8 ADD SWAP8 PUSH2 0x114E DUP2 DUP4 DUP12 PUSH2 0x1FB7 JUMP JUMPDEST DUP2 ADD DUP12 DUP2 MSTORE SUB ADD SWAP1 KECCAK256 ADD SLOAD ISZERO ISZERO PUSH2 0x2445 JUMP JUMPDEST PUSH1 0xFF PUSH1 0x8 DUP7 MLOAD DUP7 DUP2 DUP7 MLOAD PUSH2 0x1175 DUP2 DUP4 DUP12 PUSH2 0x1FB7 JUMP JUMPDEST DUP2 ADD DUP12 DUP2 MSTORE SUB ADD SWAP1 KECCAK256 ADD SLOAD AND PUSH2 0x12FD JUMPI PUSH1 0xFF PUSH1 0x8 DUP7 MLOAD DUP7 DUP2 DUP7 MLOAD PUSH2 0x119A DUP2 DUP4 DUP12 PUSH2 0x1FB7 JUMP JUMPDEST DUP2 ADD DUP12 DUP2 MSTORE SUB ADD SWAP1 KECCAK256 ADD SLOAD PUSH1 0x8 SHR AND PUSH2 0x12BA JUMPI DUP5 MLOAD DUP5 DUP2 DUP5 MLOAD PUSH2 0x11BE DUP2 DUP4 DUP10 PUSH2 0x1FB7 JUMP JUMPDEST DUP2 ADD PUSH1 0x1 DUP2 MSTORE SUB ADD SWAP1 KECCAK256 SLOAD ISZERO PUSH2 0x1281 JUMPI PUSH3 0x15180 SWAP1 DUP2 DUP2 MUL SWAP2 DUP2 DUP4 DIV EQ SWAP1 ISZERO OR ISZERO PUSH2 0x126E JUMPI DUP4 SWAP3 SWAP2 PUSH1 0x8 PUSH2 0x124B PUSH31 0x974E7A9F2ACF0F113201DD02A3C9904153C5C7F5A5B71959EB47BB505F9B8C SWAP7 PUSH2 0x1219 PUSH2 0x1265 SWAP6 TIMESTAMP PUSH2 0x2489 JUMP JUMPDEST SWAP6 DUP7 PUSH1 0x7 DUP13 DUP5 DUP14 MLOAD DUP1 SWAP3 DUP11 MLOAD PUSH2 0x1230 DUP2 DUP5 DUP11 PUSH2 0x1FB7 JUMP JUMPDEST DUP3 ADD SWAP1 DUP2 MSTORE SUB ADD SWAP1 KECCAK256 ADD SSTORE DUP10 MLOAD DUP1 SWAP4 DUP2 SWAP3 DUP8 MLOAD SWAP3 DUP4 SWAP2 PUSH2 0x1FB7 JUMP JUMPDEST DUP2 ADD DUP12 DUP2 MSTORE SUB ADD SWAP1 KECCAK256 ADD DUP1 SLOAD PUSH1 0xFF NOT AND PUSH1 0x1 OR SWAP1 SSTORE PUSH2 0x2425 JUMP JUMPDEST SWAP4 MLOAD SWAP1 DUP2 MSTORE LOG2 DUP1 RETURN JUMPDEST PUSH4 0x4E487B71 PUSH1 0xE0 SHL DUP7 MSTORE PUSH1 0x11 DUP8 MSTORE PUSH1 0x24 DUP7 REVERT JUMPDEST DUP5 MLOAD PUSH3 0x461BCD PUSH1 0xE5 SHL DUP2 MSTORE DUP1 DUP9 ADD DUP6 SWAP1 MSTORE PUSH1 0x13 PUSH1 0x24 DUP3 ADD MSTORE PUSH19 0x139BC8189A591CC81CDA1BDC9D1B1A5CDD1959 PUSH1 0x6A SHL PUSH1 0x44 DUP3 ADD MSTORE PUSH1 0x64 SWAP1 REVERT JUMPDEST DUP5 MLOAD PUSH3 0x461BCD PUSH1 0xE5 SHL DUP2 MSTORE DUP1 DUP9 ADD DUP6 SWAP1 MSTORE PUSH1 0x1D PUSH1 0x24 DUP3 ADD MSTORE PUSH32 0x50726F637572656D656E7420616C726561647920636F6D706C65746564000000 PUSH1 0x44 DUP3 ADD MSTORE PUSH1 0x64 SWAP1 REVERT JUMPDEST DUP5 MLOAD PUSH3 0x461BCD PUSH1 0xE5 SHL DUP2 MSTORE DUP1 DUP9 ADD DUP6 SWAP1 MSTORE PUSH1 0x16 PUSH1 0x24 DUP3 ADD MSTORE PUSH22 0x159BDD1A5B99C8185B1C9958591E481CDD185C9D1959 PUSH1 0x52 SHL PUSH1 0x44 DUP3 ADD MSTORE PUSH1 0x64 SWAP1 REVERT JUMPDEST POP POP SWAP2 CALLVALUE PUSH2 0x389 JUMPI PUSH1 0x20 SWAP3 DUP4 PUSH1 0x3 NOT CALLDATASIZE ADD SLT PUSH2 0x8F0 JUMPI DUP2 CALLDATALOAD PUSH1 0x1 PUSH1 0x1 PUSH1 0x40 SHL SUB DUP2 GT PUSH2 0x1604 JUMPI PUSH2 0x136C SWAP1 CALLDATASIZE SWAP1 DUP5 ADD PUSH2 0x1F01 JUMP JUMPDEST SWAP1 CALLER DUP5 MSTORE PUSH1 0x5 DUP6 MSTORE PUSH2 0x1383 PUSH1 0xFF DUP3 DUP7 KECCAK256 SLOAD AND PUSH2 0x23C6 JUMP JUMPDEST DUP1 MLOAD SWAP3 DUP3 MLOAD SWAP1 PUSH1 0xFF DUP8 DUP6 ADD SWAP3 PUSH2 0x139A DUP2 DUP9 DUP7 PUSH2 0x1FB7 JUMP JUMPDEST DUP7 ADD DUP8 DUP2 MSTORE DUP7 DUP10 PUSH1 0x8 SWAP9 DUP10 SWAP4 SUB ADD SWAP1 KECCAK256 ADD SLOAD AND ISZERO PUSH2 0x15CA JUMPI PUSH1 0x7 DUP4 MLOAD DUP9 DUP2 DUP8 MLOAD PUSH2 0x13C5 DUP2 DUP4 DUP10 PUSH2 0x1FB7 JUMP JUMPDEST DUP2 ADD DUP11 DUP2 MSTORE SUB ADD SWAP1 KECCAK256 ADD SLOAD TIMESTAMP GT ISZERO PUSH2 0x1587 JUMPI PUSH1 0xFF DUP6 DUP5 MLOAD DUP10 DUP2 DUP9 MLOAD PUSH2 0x13EB DUP2 DUP4 DUP11 PUSH2 0x1FB7 JUMP JUMPDEST DUP2 ADD DUP12 DUP2 MSTORE SUB ADD SWAP1 KECCAK256 ADD SLOAD DUP7 SHR AND PUSH2 0x1544 JUMPI POP DUP5 DUP1 DUP1 JUMPDEST DUP5 MLOAD DUP7 MLOAD PUSH2 0x1411 DUP2 DUP4 DUP9 PUSH2 0x1FB7 JUMP JUMPDEST DUP2 ADD SWAP1 DUP11 DUP2 PUSH1 0x1 SWAP4 DUP5 DUP2 MSTORE SUB ADD SWAP1 KECCAK256 SLOAD DUP3 LT ISZERO PUSH2 0x14A2 JUMPI DUP8 SWAP1 DUP4 DUP3 PUSH2 0x1454 DUP6 PUSH2 0x1446 DUP16 DUP12 DUP15 DUP15 MLOAD SWAP4 DUP5 SWAP3 DUP4 SWAP3 MLOAD SWAP3 DUP4 SWAP2 PUSH2 0x1FB7 JUMP JUMPDEST DUP2 ADD DUP9 DUP2 MSTORE SUB ADD SWAP1 KECCAK256 PUSH2 0x221C JUMP JUMPDEST POP ADD SLOAD GT PUSH2 0x146D JUMPI JUMPDEST POP POP PUSH2 0x1468 SWAP1 PUSH2 0x24EC JUMP JUMPDEST PUSH2 0x1402 JUMP JUMPDEST DUP3 SWAP5 POP PUSH2 0x1497 SWAP3 SWAP2 SWAP4 POP DUP11 DUP8 MLOAD DUP1 SWAP3 DUP11 MLOAD PUSH2 0x1489 DUP2 DUP5 DUP13 PUSH2 0x1FB7 JUMP JUMPDEST DUP3 ADD SWAP1 DUP2 MSTORE SUB ADD SWAP1 KECCAK256 PUSH2 0x221C JUMP JUMPDEST POP ADD SLOAD DUP2 DUP7 CODESIZE PUSH2 0x145D JUMP JUMPDEST DUP9 DUP7 PUSH32 0x29A06F4F1C2767F6A8508ED9BF8BF6DF701F4B3FFB47B562DCD597C4D5E62071 DUP13 DUP8 PUSH2 0x1265 DUP13 DUP15 PUSH2 0x1528 DUP6 DUP15 DUP7 PUSH1 0x9 DUP13 DUP5 DUP14 MLOAD DUP1 SWAP3 DUP11 MLOAD PUSH2 0x14E7 DUP2 DUP5 DUP11 PUSH2 0x1FB7 JUMP JUMPDEST DUP3 ADD SWAP1 DUP2 MSTORE SUB ADD SWAP1 KECCAK256 ADD SSTORE DUP4 DUP12 DUP4 DUP13 MLOAD DUP1 SWAP3 DUP10 MLOAD PUSH2 0x1506 DUP2 DUP5 DUP10 PUSH2 0x1FB7 JUMP JUMPDEST DUP3 ADD SWAP1 DUP2 MSTORE SUB ADD SWAP1 KECCAK256 ADD PUSH1 0xFF NOT DUP2 SLOAD AND SWAP1 SSTORE DUP10 MLOAD DUP1 SWAP4 DUP2 SWAP3 DUP8 MLOAD SWAP3 DUP4 SWAP2 PUSH2 0x1FB7 JUMP JUMPDEST DUP2 ADD DUP12 DUP2 MSTORE SUB ADD SWAP1 KECCAK256 ADD DUP1 SLOAD PUSH2 0xFF00 NOT AND PUSH2 0x100 OR SWAP1 SSTORE PUSH2 0x2425 JUMP JUMPDEST DUP3 MLOAD PUSH3 0x461BCD PUSH1 0xE5 SHL DUP2 MSTORE SWAP1 DUP2 ADD DUP8 SWAP1 MSTORE PUSH1 0x18 PUSH1 0x24 DUP3 ADD MSTORE PUSH32 0x566F74696E6720616C726561647920636F6D706C657465640000000000000000 PUSH1 0x44 DUP3 ADD MSTORE PUSH1 0x64 SWAP1 REVERT JUMPDEST DUP3 MLOAD PUSH3 0x461BCD PUSH1 0xE5 SHL DUP2 MSTORE SWAP1 DUP2 ADD DUP8 SWAP1 MSTORE PUSH1 0x1B PUSH1 0x24 DUP3 ADD MSTORE PUSH32 0x566F74696E6720706572696F6420686173206E6F7420656E6465640000000000 PUSH1 0x44 DUP3 ADD MSTORE PUSH1 0x64 SWAP1 REVERT JUMPDEST DUP3 MLOAD PUSH3 0x461BCD PUSH1 0xE5 SHL DUP2 MSTORE SWAP1 DUP2 ADD DUP8 SWAP1 MSTORE PUSH1 0x14 PUSH1 0x24 DUP3 ADD MSTORE PUSH20 0x566F74696E67206973206E6F7420616374697665 PUSH1 0x60 SHL PUSH1 0x44 DUP3 ADD MSTORE PUSH1 0x64 SWAP1 REVERT JUMPDEST DUP4 DUP1 REVERT JUMPDEST SWAP2 SWAP1 POP CALLVALUE PUSH2 0x8F0 JUMPI PUSH1 0xA0 CALLDATASIZE PUSH1 0x3 NOT ADD SLT PUSH2 0x8F0 JUMPI PUSH1 0x1 PUSH1 0x1 PUSH1 0x40 SHL SUB SWAP1 DUP5 CALLDATALOAD DUP3 DUP2 GT PUSH2 0x385 JUMPI PUSH2 0x163B SWAP1 CALLDATASIZE SWAP1 DUP8 ADD PUSH2 0x1F01 JUMP JUMPDEST PUSH1 0x24 CALLDATALOAD DUP4 DUP2 GT PUSH2 0x381 JUMPI PUSH2 0x1652 SWAP1 CALLDATASIZE SWAP1 DUP9 ADD PUSH2 0x1F01 JUMP JUMPDEST SWAP3 PUSH1 0x44 CALLDATALOAD DUP2 DUP2 GT PUSH2 0x8EC JUMPI PUSH2 0x166A SWAP1 CALLDATASIZE SWAP1 DUP10 ADD PUSH2 0x1F01 JUMP JUMPDEST SWAP1 PUSH1 0x84 CALLDATALOAD SWAP1 DUP2 GT PUSH2 0x8EC JUMPI PUSH2 0x1682 SWAP1 CALLDATASIZE SWAP1 DUP10 ADD PUSH2 0x1F01 JUMP JUMPDEST SWAP5 CALLER DUP8 MSTORE PUSH1 0x20 SWAP6 PUSH1 0x5 DUP8 MSTORE PUSH2 0x169C PUSH1 0xFF DUP7 DUP11 KECCAK256 SLOAD AND PUSH2 0x23C6 JUMP JUMPDEST DUP4 MLOAD ISZERO PUSH2 0x18D4 JUMPI DUP5 MLOAD SWAP3 PUSH1 0x6 DUP6 MLOAD SWAP5 DUP10 DUP2 DUP2 DUP10 ADD SWAP8 PUSH2 0x16BC DUP2 DUP4 DUP12 PUSH2 0x1FB7 JUMP JUMPDEST DUP2 ADD DUP14 DUP2 MSTORE SUB ADD SWAP1 KECCAK256 ADD SLOAD PUSH2 0x1891 JUMPI DUP7 SWAP4 DUP10 SWAP4 DUP8 DUP6 SWAP5 DUP12 DUP7 SWAP6 DUP4 MLOAD SWAP10 DUP11 SWAP7 PUSH2 0x16E3 DUP9 PUSH2 0x1E92 JUMP JUMPDEST DUP13 DUP9 MSTORE DUP4 DUP9 ADD SWAP2 DUP3 MSTORE DUP6 DUP9 ADD SWAP3 DUP4 MSTORE PUSH1 0x60 DUP9 ADD SWAP4 PUSH1 0x64 CALLDATALOAD DUP6 MSTORE PUSH1 0x80 DUP10 ADD SWAP6 DUP7 MSTORE DUP14 DUP11 PUSH1 0xA0 DUP12 ADD SWAP9 CALLER DUP11 MSTORE PUSH1 0xC0 DUP13 ADD SWAP11 TIMESTAMP DUP13 MSTORE DUP13 ADD SWAP12 DUP3 DUP14 MSTORE PUSH2 0x100 DUP2 ADD SWAP15 DUP16 MSTORE PUSH2 0x120 DUP2 ADD SWAP14 DUP15 MSTORE PUSH2 0x140 ADD SWAP15 DUP16 MSTORE MLOAD DUP1 SWAP5 DUP2 SWAP4 MLOAD DUP1 SWAP3 PUSH2 0x1743 SWAP3 PUSH2 0x1FB7 JUMP JUMPDEST DUP3 ADD SWAP1 DUP2 MSTORE SUB ADD SWAP1 KECCAK256 SWAP11 MLOAD PUSH2 0x1758 SWAP1 DUP13 PUSH2 0x22B7 JUMP JUMPDEST MLOAD PUSH2 0x1766 SWAP1 PUSH1 0x1 DUP13 ADD PUSH2 0x22B7 JUMP JUMPDEST MLOAD PUSH2 0x1774 SWAP1 PUSH1 0x2 DUP12 ADD PUSH2 0x22B7 JUMP JUMPDEST MLOAD PUSH1 0x3 DUP10 ADD SSTORE MLOAD PUSH2 0x1787 SWAP1 DUP15 DUP10 ADD PUSH2 0x22B7 JUMP JUMPDEST PUSH1 0x5 DUP8 ADD SWAP1 PUSH1 0x1 PUSH1 0xA0 SHL PUSH1 0x1 SWAP1 SUB SWAP1 MLOAD AND PUSH12 0xFFFFFFFFFFFFFFFFFFFFFFFF PUSH1 0xA0 SHL DUP3 SLOAD AND OR SWAP1 SSTORE MLOAD PUSH1 0x6 DUP7 ADD SSTORE MLOAD PUSH1 0x7 DUP6 ADD SSTORE PUSH1 0x8 DUP5 ADD SWAP2 MLOAD ISZERO ISZERO PUSH2 0x17D8 SWAP1 DUP4 SWAP1 PUSH1 0xFF DUP1 NOT DUP4 SLOAD AND SWAP2 ISZERO ISZERO AND OR SWAP1 SSTORE JUMP JUMPDEST MLOAD DUP2 SLOAD PUSH2 0xFF00 NOT AND SWAP1 ISZERO ISZERO PUSH1 0x8 SHL PUSH2 0xFF00 AND OR SWAP1 SSTORE MLOAD SWAP1 PUSH1 0x9 ADD SSTORE PUSH1 0x7 SLOAD PUSH1 0x1 PUSH1 0x40 SHL DUP2 LT ISZERO PUSH2 0x187E JUMPI DUP1 PUSH1 0x1 PUSH2 0x1812 SWAP3 ADD PUSH1 0x7 SSTORE PUSH2 0x2030 JUMP JUMPDEST PUSH2 0x186C JUMPI DUP2 PUSH2 0x1847 PUSH32 0x2B5849CF31662736C8060BB55D40CE1A3799E0564B29A3C63ABA660AB3EE523C SWAP6 SWAP5 SWAP4 PUSH2 0x184C SWAP4 PUSH2 0x22B7 JUMP JUMPDEST PUSH2 0x2425 JUMP JUMPDEST SWAP4 PUSH2 0x1860 DUP3 MLOAD SWAP4 DUP4 DUP6 SWAP5 DUP6 MSTORE DUP5 ADD SWAP1 PUSH2 0x1FDA JUMP JUMPDEST SWAP1 CALLER SWAP1 DUP4 ADD MSTORE SUB SWAP1 LOG2 DUP1 RETURN JUMPDEST PUSH4 0x4E487B71 PUSH1 0xE0 SHL DUP7 MSTORE DUP6 DUP8 MSTORE PUSH1 0x24 DUP7 REVERT JUMPDEST PUSH4 0x4E487B71 PUSH1 0xE0 SHL DUP7 MSTORE PUSH1 0x41 DUP8 MSTORE PUSH1 0x24 DUP7 REVERT JUMPDEST DUP6 MLOAD PUSH3 0x461BCD PUSH1 0xE5 SHL DUP2 MSTORE DUP1 DUP12 ADD DUP10 SWAP1 MSTORE PUSH1 0x1A PUSH1 0x24 DUP3 ADD MSTORE PUSH32 0x50726F637572656D656E7420616C726561647920657869737473000000000000 PUSH1 0x44 DUP3 ADD MSTORE PUSH1 0x64 SWAP1 REVERT JUMPDEST DUP5 MLOAD PUSH3 0x461BCD PUSH1 0xE5 SHL DUP2 MSTORE DUP1 DUP11 ADD DUP9 SWAP1 MSTORE PUSH1 0x1E PUSH1 0x24 DUP3 ADD MSTORE PUSH32 0x50726F637572656D656E742049442063616E6E6F7420626520656D7074790000 PUSH1 0x44 DUP3 ADD MSTORE PUSH1 0x64 SWAP1 REVERT JUMPDEST SWAP1 POP DUP4 DUP4 CALLVALUE PUSH2 0x4B3 JUMPI PUSH1 0x20 CALLDATASIZE PUSH1 0x3 NOT ADD SLT PUSH2 0x4B3 JUMPI DUP2 CALLDATALOAD PUSH1 0x1 PUSH1 0x1 PUSH1 0x40 SHL SUB DUP2 GT PUSH2 0x389 JUMPI PUSH1 0x20 PUSH2 0x4AF SWAP4 SWAP3 PUSH2 0x1953 PUSH2 0x1966 SWAP4 CALLDATASIZE SWAP1 DUP7 ADD PUSH2 0x1F01 JUMP JUMPDEST SWAP1 DUP3 DUP9 MLOAD SWAP5 DUP4 DUP7 DUP1 SWAP6 MLOAD SWAP4 DUP5 SWAP3 ADD PUSH2 0x1FB7 JUMP JUMPDEST DUP3 ADD SWAP1 DUP2 MSTORE SUB ADD SWAP1 KECCAK256 DUP5 MLOAD SWAP2 PUSH2 0x197B DUP4 PUSH2 0x1E92 JUMP JUMPDEST PUSH2 0x1984 DUP3 PUSH2 0x2176 JUMP JUMPDEST DUP4 MSTORE PUSH2 0x1992 PUSH1 0x1 DUP4 ADD PUSH2 0x2176 JUMP JUMPDEST SWAP5 PUSH1 0x20 DUP5 ADD SWAP6 DUP7 MSTORE PUSH2 0x19A6 PUSH1 0x2 DUP5 ADD PUSH2 0x2176 JUMP JUMPDEST SWAP7 DUP1 DUP6 ADD SWAP8 DUP9 MSTORE PUSH2 0x19C4 PUSH1 0x3 DUP6 ADD SLOAD SWAP4 PUSH1 0x60 DUP8 ADD SWAP5 DUP6 MSTORE DUP6 ADD PUSH2 0x2176 JUMP JUMPDEST DUP1 PUSH1 0x80 DUP8 ADD MSTORE PUSH1 0x1 DUP1 PUSH1 0xA0 SHL SUB PUSH1 0x5 DUP7 ADD SLOAD AND SWAP1 DUP2 PUSH1 0xA0 DUP9 ADD MSTORE PUSH1 0x6 DUP7 ADD SLOAD SWAP3 DUP4 PUSH1 0xC0 DUP10 ADD MSTORE PUSH1 0x7 DUP8 ADD SLOAD DUP1 SWAP6 DUP10 ADD MSTORE PUSH1 0x8 DUP8 ADD SLOAD SWAP6 PUSH1 0x9 PUSH1 0xFF DUP1 DUP10 AND ISZERO ISZERO SWAP9 DUP10 PUSH2 0x100 DUP14 ADD MSTORE PUSH1 0x8 SHR AND ISZERO ISZERO SWAP9 DUP10 PUSH2 0x120 DUP13 ADD MSTORE ADD SLOAD SWAP9 DUP10 PUSH2 0x140 DUP3 ADD MSTORE MLOAD SWAP11 MLOAD SWAP12 MLOAD SWAP1 MLOAD SWAP2 MLOAD SWAP12 DUP13 SWAP12 DUP13 PUSH2 0x20B4 JUMP JUMPDEST POP POP CALLVALUE PUSH2 0x389 JUMPI DUP2 PUSH1 0x3 NOT CALLDATASIZE ADD SLT PUSH2 0x389 JUMPI PUSH1 0x20 SWAP1 PUSH1 0x8 SLOAD SWAP1 MLOAD SWAP1 DUP2 MSTORE RETURN JUMPDEST POP POP DUP3 CALLVALUE PUSH2 0x8F0 JUMPI PUSH1 0x20 CALLDATASIZE PUSH1 0x3 NOT ADD SLT PUSH2 0x8F0 JUMPI CALLDATALOAD SWAP2 PUSH1 0x8 SLOAD DUP4 LT ISZERO PUSH2 0x4B3 JUMPI POP PUSH2 0x1A80 PUSH1 0x20 SWAP3 PUSH2 0x207D JUMP JUMPDEST SWAP1 SLOAD SWAP2 MLOAD SWAP2 PUSH1 0x1 DUP1 PUSH1 0xA0 SHL SUB SWAP2 PUSH1 0x3 SHL SHR AND DUP2 MSTORE RETURN JUMPDEST POP POP CALLVALUE PUSH2 0x389 JUMPI PUSH1 0x20 CALLDATASIZE PUSH1 0x3 NOT ADD SLT PUSH2 0x389 JUMPI PUSH1 0x20 SWAP2 PUSH1 0xFF SWAP1 DUP3 SWAP1 PUSH1 0x1 PUSH1 0x1 PUSH1 0xA0 SHL SUB PUSH2 0x1AC1 PUSH2 0x1F5C JUMP JUMPDEST AND DUP2 MSTORE PUSH1 0x6 DUP6 MSTORE KECCAK256 SLOAD AND SWAP1 MLOAD SWAP1 ISZERO ISZERO DUP2 MSTORE RETURN JUMPDEST POP POP CALLVALUE PUSH2 0x389 JUMPI PUSH2 0x1B1B PUSH2 0xB79 PUSH1 0x20 PUSH2 0xB6A PUSH2 0x1AEF CALLDATASIZE PUSH2 0x1FFF JUMP JUMPDEST SWAP3 SWAP1 DUP7 MLOAD SWAP1 PUSH2 0x1B0B DUP2 MLOAD SWAP3 DUP5 DUP2 DUP2 DUP6 ADD SWAP6 PUSH2 0xB48 DUP2 DUP4 DUP10 PUSH2 0x1FB7 JUMP JUMPDEST DUP8 MLOAD SWAP4 DUP5 SWAP3 DUP4 SWAP3 MLOAD SWAP3 DUP4 SWAP2 PUSH2 0x1FB7 JUMP JUMPDEST SWAP2 PUSH2 0x100 DUP4 ADD SWAP2 PUSH2 0x1B35 PUSH2 0x120 DUP5 MLOAD SWAP6 ADD SWAP5 DUP6 MLOAD SWAP1 PUSH2 0x2489 JUMP JUMPDEST SWAP2 DUP3 ISZERO SWAP1 DUP2 PUSH2 0x1B9F JUMPI DUP5 MLOAD SWAP2 PUSH1 0x64 DUP4 MUL SWAP3 DUP1 DUP5 DIV PUSH1 0x64 EQ SWAP1 ISZERO OR ISZERO PUSH2 0x1B8C JUMPI PUSH2 0x1B79 JUMPI POP PUSH1 0x80 SWAP6 POP DUP3 SWAP1 DIV SWAP3 JUMPDEST MLOAD SWAP4 MLOAD DUP2 MLOAD SWAP5 DUP6 MSTORE PUSH1 0x20 DUP6 ADD MSTORE DUP4 ADD MSTORE PUSH1 0x60 DUP3 ADD MSTORE RETURN JUMPDEST PUSH4 0x4E487B71 PUSH1 0xE0 SHL DUP2 MSTORE PUSH1 0x12 DUP8 MSTORE PUSH1 0x24 SWAP1 REVERT JUMPDEST PUSH4 0x4E487B71 PUSH1 0xE0 SHL DUP3 MSTORE PUSH1 0x11 DUP9 MSTORE PUSH1 0x24 DUP3 REVERT JUMPDEST SWAP1 POP PUSH1 0x80 SWAP6 POP SWAP3 PUSH2 0x1B62 JUMP JUMPDEST DUP4 DUP6 DUP5 CALLVALUE PUSH2 0x8F0 JUMPI PUSH1 0x20 CALLDATASIZE PUSH1 0x3 NOT ADD SLT PUSH2 0x8F0 JUMPI PUSH1 0x1 PUSH1 0x1 PUSH1 0xA0 SHL SUB PUSH2 0x1BCF PUSH2 0x1F5C JUMP JUMPDEST AND SWAP2 DUP3 ISZERO PUSH2 0x1C69 JUMPI DUP3 DUP5 MSTORE PUSH1 0x5 PUSH1 0x20 MSTORE PUSH1 0xFF DUP3 DUP6 KECCAK256 SLOAD AND PUSH2 0x1C27 JUMPI POP DUP2 DUP4 MSTORE PUSH1 0x5 PUSH1 0x20 MSTORE DUP3 KECCAK256 DUP1 SLOAD PUSH1 0xFF NOT AND PUSH1 0x1 OR SWAP1 SSTORE PUSH32 0x93C99ED6CEC4CAFD667D99F8A8750597FF22057275C37404ADE4344C8CE92924 DUP3 DUP1 LOG2 DUP1 RETURN JUMPDEST PUSH1 0x20 PUSH1 0x64 SWAP3 MLOAD SWAP2 PUSH3 0x461BCD PUSH1 0xE5 SHL DUP4 MSTORE DUP3 ADD MSTORE PUSH1 0x1A PUSH1 0x24 DUP3 ADD MSTORE PUSH32 0x4F66666963657220616C72656164792072656769737465726564000000000000 PUSH1 0x44 DUP3 ADD MSTORE REVERT JUMPDEST PUSH1 0x20 PUSH1 0x64 SWAP3 MLOAD SWAP2 PUSH3 0x461BCD PUSH1 0xE5 SHL DUP4 MSTORE DUP3 ADD MSTORE PUSH1 0x17 PUSH1 0x24 DUP3 ADD MSTORE PUSH32 0x496E76616C6964206F6666696365722061646472657373000000000000000000 PUSH1 0x44 DUP3 ADD MSTORE REVERT JUMPDEST DUP3 DUP5 CALLVALUE PUSH2 0x4B3 JUMPI DUP1 PUSH1 0x3 NOT CALLDATASIZE ADD SLT PUSH2 0x4B3 JUMPI DUP1 DUP2 PUSH1 0x7 DUP1 SLOAD SWAP2 JUMPDEST DUP3 DUP2 LT PUSH2 0x1E00 JUMPI POP PUSH2 0x1CD6 DUP4 PUSH2 0x24FB JUMP JUMPDEST SWAP3 PUSH2 0x1CE3 DUP7 MLOAD SWAP5 DUP6 PUSH2 0x1EE0 JUMP JUMPDEST DUP1 DUP5 MSTORE PUSH2 0x1CF2 PUSH1 0x1F NOT SWAP2 PUSH2 0x24FB JUMP JUMPDEST ADD DUP5 JUMPDEST DUP2 DUP2 LT PUSH2 0x1DEF JUMPI POP POP DUP4 SWAP1 DUP5 JUMPDEST DUP4 DUP2 LT PUSH2 0x1D68 JUMPI POP POP POP POP DUP3 MLOAD SWAP2 PUSH1 0x20 DUP1 DUP5 ADD SWAP1 DUP1 DUP6 MSTORE DUP4 MLOAD DUP1 SWAP3 MSTORE DUP1 DUP7 DUP7 ADD SWAP7 DUP4 PUSH1 0x5 SHL DUP8 ADD ADD SWAP5 ADD SWAP3 SWAP6 JUMPDEST DUP3 DUP8 LT PUSH2 0x1D3C JUMPI DUP6 DUP6 SUB DUP7 RETURN JUMPDEST SWAP1 SWAP2 SWAP3 SWAP4 DUP3 DUP1 PUSH2 0x1D58 PUSH1 0x1 SWAP4 PUSH1 0x3F NOT DUP11 DUP3 SUB ADD DUP7 MSTORE DUP9 MLOAD PUSH2 0x1FDA JUMP JUMPDEST SWAP7 ADD SWAP3 ADD SWAP7 ADD SWAP6 SWAP3 SWAP2 SWAP1 SWAP3 PUSH2 0x1D2F JUMP JUMPDEST PUSH1 0xFF PUSH1 0x8 PUSH2 0x1D7E PUSH2 0x1D78 DUP5 PUSH2 0x2030 JUMP JUMPDEST POP PUSH2 0x25A7 JUMP JUMPDEST ADD SLOAD AND DUP1 PUSH2 0x1DD7 JUMPI JUMPDEST PUSH2 0x1D9A JUMPI JUMPDEST PUSH2 0x1D95 SWAP1 PUSH2 0x24EC JUMP JUMPDEST PUSH2 0x1D02 JUMP JUMPDEST SWAP2 PUSH2 0x1DCF PUSH2 0x1D95 SWAP2 PUSH2 0x1DB4 PUSH2 0x1DAE DUP7 PUSH2 0x2030 JUMP JUMPDEST POP PUSH2 0x2176 JUMP JUMPDEST PUSH2 0x1DBE DUP3 DUP10 PUSH2 0x263A JUMP JUMPDEST MSTORE PUSH2 0x1DC9 DUP2 DUP9 PUSH2 0x263A JUMP JUMPDEST POP PUSH2 0x24EC JUMP JUMPDEST SWAP3 SWAP1 POP PUSH2 0x1D8C JUMP JUMPDEST POP DUP2 PUSH2 0x1DE5 PUSH2 0x1D78 DUP4 PUSH2 0x2030 JUMP JUMPDEST ADD SLOAD TIMESTAMP GT ISZERO PUSH2 0x1D87 JUMP JUMPDEST DUP1 PUSH1 0x60 PUSH1 0x20 DUP1 SWAP4 DUP9 ADD ADD MSTORE ADD PUSH2 0x1CF5 JUMP JUMPDEST PUSH1 0xFF PUSH1 0x8 PUSH2 0x1E10 PUSH2 0x1D78 DUP5 PUSH2 0x2030 JUMP JUMPDEST ADD SLOAD AND DUP1 PUSH2 0x1E41 JUMPI JUMPDEST PUSH2 0x1E2C JUMPI JUMPDEST PUSH2 0x1E27 SWAP1 PUSH2 0x24EC JUMP JUMPDEST PUSH2 0x1CC5 JUMP JUMPDEST SWAP3 PUSH2 0x1E39 PUSH2 0x1E27 SWAP2 PUSH2 0x24EC JUMP JUMPDEST SWAP4 SWAP1 POP PUSH2 0x1E1E JUMP JUMPDEST POP DUP2 PUSH2 0x1E4F PUSH2 0x1D78 DUP4 PUSH2 0x2030 JUMP JUMPDEST ADD SLOAD TIMESTAMP GT ISZERO PUSH2 0x1E19 JUMP JUMPDEST POP POP CALLVALUE PUSH2 0x389 JUMPI DUP2 PUSH1 0x3 NOT CALLDATASIZE ADD SLT PUSH2 0x389 JUMPI PUSH1 0x20 SWAP1 PUSH1 0x7 SLOAD SWAP1 MLOAD SWAP1 DUP2 MSTORE RETURN JUMPDEST POP POP CALLVALUE PUSH2 0x389 JUMPI PUSH1 0xFF DUP2 PUSH1 0x20 SWAP4 PUSH2 0x3BD DUP6 PUSH2 0x3A6 CALLDATASIZE PUSH2 0x1F72 JUMP JUMPDEST PUSH2 0x160 DUP2 ADD SWAP1 DUP2 LT PUSH1 0x1 PUSH1 0x1 PUSH1 0x40 SHL SUB DUP3 GT OR PUSH2 0x1EAE JUMPI PUSH1 0x40 MSTORE JUMP JUMPDEST PUSH4 0x4E487B71 PUSH1 0xE0 SHL PUSH1 0x0 MSTORE PUSH1 0x41 PUSH1 0x4 MSTORE PUSH1 0x24 PUSH1 0x0 REVERT JUMPDEST PUSH2 0x140 DUP2 ADD SWAP1 DUP2 LT PUSH1 0x1 PUSH1 0x1 PUSH1 0x40 SHL SUB DUP3 GT OR PUSH2 0x1EAE JUMPI PUSH1 0x40 MSTORE JUMP JUMPDEST SWAP1 PUSH1 0x1F DUP1 NOT SWAP2 ADD AND DUP2 ADD SWAP1 DUP2 LT PUSH1 0x1 PUSH1 0x1 PUSH1 0x40 SHL SUB DUP3 GT OR PUSH2 0x1EAE JUMPI PUSH1 0x40 MSTORE JUMP JUMPDEST DUP2 PUSH1 0x1F DUP3 ADD SLT ISZERO PUSH2 0x1F57 JUMPI DUP1 CALLDATALOAD SWAP1 PUSH1 0x1 PUSH1 0x1 PUSH1 0x40 SHL SUB DUP3 GT PUSH2 0x1EAE JUMPI PUSH1 0x40 MLOAD SWAP3 PUSH2 0x1F35 PUSH1 0x1F DUP5 ADD PUSH1 0x1F NOT AND PUSH1 0x20 ADD DUP6 PUSH2 0x1EE0 JUMP JUMPDEST DUP3 DUP5 MSTORE PUSH1 0x20 DUP4 DUP4 ADD ADD GT PUSH2 0x1F57 JUMPI DUP2 PUSH1 0x0 SWAP3 PUSH1 0x20 DUP1 SWAP4 ADD DUP4 DUP7 ADD CALLDATACOPY DUP4 ADD ADD MSTORE SWAP1 JUMP JUMPDEST PUSH1 0x0 DUP1 REVERT JUMPDEST PUSH1 0x4 CALLDATALOAD SWAP1 PUSH1 0x1 PUSH1 0x1 PUSH1 0xA0 SHL SUB DUP3 AND DUP3 SUB PUSH2 0x1F57 JUMPI JUMP JUMPDEST PUSH1 0x60 PUSH1 0x3 NOT DUP3 ADD SLT PUSH2 0x1F57 JUMPI PUSH1 0x4 CALLDATALOAD SWAP1 PUSH1 0x1 PUSH1 0x1 PUSH1 0x40 SHL SUB DUP3 GT PUSH2 0x1F57 JUMPI PUSH2 0x1F9C SWAP2 PUSH1 0x4 ADD PUSH2 0x1F01 JUMP JUMPDEST SWAP1 PUSH1 0x24 CALLDATALOAD SWAP1 PUSH1 0x44 CALLDATALOAD PUSH1 0x1 PUSH1 0x1 PUSH1 0xA0 SHL SUB DUP2 AND DUP2 SUB PUSH2 0x1F57 JUMPI SWAP1 JUMP JUMPDEST PUSH1 0x0 JUMPDEST DUP4 DUP2 LT PUSH2 0x1FCA JUMPI POP POP PUSH1 0x0 SWAP2 ADD MSTORE JUMP JUMPDEST DUP2 DUP2 ADD MLOAD DUP4 DUP3 ADD MSTORE PUSH1 0x20 ADD PUSH2 0x1FBA JUMP JUMPDEST SWAP1 PUSH1 0x20 SWAP2 PUSH2 0x1FF3 DUP2 MLOAD DUP1 SWAP3 DUP2 DUP6 MSTORE DUP6 DUP1 DUP7 ADD SWAP2 ADD PUSH2 0x1FB7 JUMP JUMPDEST PUSH1 0x1F ADD PUSH1 0x1F NOT AND ADD ADD SWAP1 JUMP JUMPDEST PUSH1 0x40 PUSH1 0x3 NOT DUP3 ADD SLT PUSH2 0x1F57 JUMPI PUSH1 0x4 CALLDATALOAD SWAP1 PUSH1 0x1 PUSH1 0x1 PUSH1 0x40 SHL SUB DUP3 GT PUSH2 0x1F57 JUMPI PUSH2 0x2029 SWAP2 PUSH1 0x4 ADD PUSH2 0x1F01 JUMP JUMPDEST SWAP1 PUSH1 0x24 CALLDATALOAD SWAP1 JUMP JUMPDEST PUSH1 0x7 SLOAD DUP2 LT ISZERO PUSH2 0x2067 JUMPI PUSH1 0x7 PUSH1 0x0 MSTORE PUSH32 0xA66CC928B5EDB82AF9BD49922954155AB7B0942694BEA4CE44661D9A8736C688 ADD SWAP1 PUSH1 0x0 SWAP1 JUMP JUMPDEST PUSH4 0x4E487B71 PUSH1 0xE0 SHL PUSH1 0x0 MSTORE PUSH1 0x32 PUSH1 0x4 MSTORE PUSH1 0x24 PUSH1 0x0 REVERT JUMPDEST PUSH1 0x8 SLOAD DUP2 LT ISZERO PUSH2 0x2067 JUMPI PUSH1 0x8 PUSH1 0x0 MSTORE PUSH32 0xF3F7A9FE364FAAB93B216DA50A3214154F22A0A2B415B23A84C8169E8B636EE3 ADD SWAP1 PUSH1 0x0 SWAP1 JUMP JUMPDEST SWAP8 SWAP5 SWAP1 PUSH2 0x210E SWAP4 PUSH2 0x20ED PUSH2 0x140 SWAP12 SWAP9 SWAP15 SWAP14 SWAP13 SWAP10 SWAP7 SWAP5 PUSH2 0x20DF PUSH2 0x20FB SWAP5 DUP14 PUSH2 0x160 SWAP1 DUP2 DUP2 MSTORE ADD SWAP1 PUSH2 0x1FDA JUMP JUMPDEST DUP13 DUP2 SUB PUSH1 0x20 DUP15 ADD MSTORE SWAP1 PUSH2 0x1FDA JUMP JUMPDEST SWAP1 DUP11 DUP3 SUB PUSH1 0x40 DUP13 ADD MSTORE PUSH2 0x1FDA JUMP JUMPDEST SWAP2 PUSH1 0x60 DUP10 ADD MSTORE DUP8 DUP3 SUB PUSH1 0x80 DUP10 ADD MSTORE PUSH2 0x1FDA JUMP JUMPDEST PUSH1 0x1 PUSH1 0x1 PUSH1 0xA0 SHL SUB SWAP1 SWAP10 AND PUSH1 0xA0 DUP7 ADD MSTORE PUSH1 0xC0 DUP6 ADD MSTORE PUSH1 0xE0 DUP5 ADD MSTORE ISZERO ISZERO PUSH2 0x100 DUP4 ADD MSTORE ISZERO ISZERO PUSH2 0x120 DUP3 ADD MSTORE ADD MSTORE JUMP JUMPDEST SWAP1 PUSH1 0x1 DUP3 DUP2 SHR SWAP3 AND DUP1 ISZERO PUSH2 0x216C JUMPI JUMPDEST PUSH1 0x20 DUP4 LT EQ PUSH2 0x2156 JUMPI JUMP JUMPDEST PUSH4 0x4E487B71 PUSH1 0xE0 SHL PUSH1 0x0 MSTORE PUSH1 0x22 PUSH1 0x4 MSTORE PUSH1 0x24 PUSH1 0x0 REVERT JUMPDEST SWAP2 PUSH1 0x7F AND SWAP2 PUSH2 0x214B JUMP JUMPDEST SWAP1 PUSH1 0x40 MLOAD SWAP2 DUP3 PUSH1 0x0 DUP3 SLOAD SWAP3 PUSH2 0x218A DUP5 PUSH2 0x213C JUMP JUMPDEST SWAP1 DUP2 DUP5 MSTORE PUSH1 0x1 SWAP5 DUP6 DUP2 AND SWAP1 DUP2 PUSH1 0x0 EQ PUSH2 0x21F9 JUMPI POP PUSH1 0x1 EQ PUSH2 0x21B6 JUMPI JUMPDEST POP POP PUSH2 0x21B4 SWAP3 POP SUB DUP4 PUSH2 0x1EE0 JUMP JUMPDEST JUMP JUMPDEST SWAP1 SWAP4 SWAP2 POP PUSH1 0x0 MSTORE PUSH1 0x20 SWAP1 DUP2 PUSH1 0x0 KECCAK256 SWAP4 PUSH1 0x0 SWAP2 JUMPDEST DUP2 DUP4 LT PUSH2 0x21E1 JUMPI POP POP PUSH2 0x21B4 SWAP4 POP DUP3 ADD ADD CODESIZE DUP1 PUSH2 0x21A6 JUMP JUMPDEST DUP6 SLOAD DUP9 DUP5 ADD DUP6 ADD MSTORE SWAP5 DUP6 ADD SWAP5 DUP8 SWAP5 POP SWAP2 DUP4 ADD SWAP2 PUSH2 0x21C9 JUMP JUMPDEST SWAP2 POP POP PUSH2 0x21B4 SWAP5 POP PUSH1 0x20 SWAP3 POP PUSH1 0xFF NOT AND DUP3 DUP5 ADD MSTORE ISZERO ISZERO PUSH1 0x5 SHL DUP3 ADD ADD CODESIZE DUP1 PUSH2 0x21A6 JUMP JUMPDEST DUP1 SLOAD DUP3 LT ISZERO PUSH2 0x2067 JUMPI PUSH1 0x0 MSTORE PUSH1 0xA PUSH1 0x20 PUSH1 0x0 KECCAK256 SWAP2 MUL ADD SWAP1 PUSH1 0x0 SWAP1 JUMP JUMPDEST SWAP7 SWAP4 SWAP3 PUSH2 0x2292 SWAP4 PUSH2 0x2271 PUSH2 0x120 SWAP11 SWAP8 SWAP5 PUSH2 0x2263 SWAP10 SWAP15 SWAP14 SWAP13 SWAP10 PUSH2 0x2284 SWAP6 DUP13 PUSH2 0x140 DUP1 SWAP2 MSTORE DUP14 ADD SWAP1 PUSH2 0x1FDA JUMP JUMPDEST SWAP1 DUP12 DUP3 SUB PUSH1 0x20 DUP14 ADD MSTORE PUSH2 0x1FDA JUMP JUMPDEST SWAP2 PUSH1 0x40 DUP11 ADD MSTORE DUP9 DUP3 SUB PUSH1 0x60 DUP11 ADD MSTORE PUSH2 0x1FDA JUMP JUMPDEST SWAP1 DUP7 DUP3 SUB PUSH1 0x80 DUP9 ADD MSTORE PUSH2 0x1FDA JUMP JUMPDEST PUSH1 0xA0 DUP6 ADD SWAP9 SWAP1 SWAP9 MSTORE PUSH1 0x1 PUSH1 0x1 PUSH1 0xA0 SHL SUB AND PUSH1 0xC0 DUP5 ADD MSTORE PUSH1 0xE0 DUP4 ADD MSTORE PUSH2 0x100 DUP3 ADD MSTORE ADD MSTORE JUMP JUMPDEST SWAP2 SWAP1 SWAP2 DUP3 MLOAD PUSH1 0x1 PUSH1 0x1 PUSH1 0x40 SHL SUB DUP2 GT PUSH2 0x1EAE JUMPI PUSH2 0x22D4 DUP3 SLOAD PUSH2 0x213C JUMP JUMPDEST PUSH1 0x1F DUP2 GT PUSH2 0x237E JUMPI JUMPDEST POP PUSH1 0x20 DUP1 PUSH1 0x1F DUP4 GT PUSH1 0x1 EQ PUSH2 0x231A JUMPI POP DUP2 SWAP3 SWAP4 SWAP5 PUSH1 0x0 SWAP3 PUSH2 0x230F JUMPI JUMPDEST POP POP DUP2 PUSH1 0x1 SHL SWAP2 PUSH1 0x0 NOT SWAP1 PUSH1 0x3 SHL SHR NOT AND OR SWAP1 SSTORE JUMP JUMPDEST ADD MLOAD SWAP1 POP CODESIZE DUP1 PUSH2 0x22F9 JUMP JUMPDEST SWAP1 PUSH1 0x1F NOT DUP4 AND SWAP6 DUP5 PUSH1 0x0 MSTORE DUP3 PUSH1 0x0 KECCAK256 SWAP3 PUSH1 0x0 SWAP1 JUMPDEST DUP9 DUP3 LT PUSH2 0x2366 JUMPI POP POP DUP4 PUSH1 0x1 SWAP6 SWAP7 SWAP8 LT PUSH2 0x234D JUMPI JUMPDEST POP POP POP DUP2 SHL ADD SWAP1 SSTORE JUMP JUMPDEST ADD MLOAD PUSH1 0x0 NOT PUSH1 0xF8 DUP5 PUSH1 0x3 SHL AND SHR NOT AND SWAP1 SSTORE CODESIZE DUP1 DUP1 PUSH2 0x2343 JUMP JUMPDEST DUP1 PUSH1 0x1 DUP6 SWAP7 DUP3 SWAP5 SWAP7 DUP7 ADD MLOAD DUP2 SSTORE ADD SWAP6 ADD SWAP4 ADD SWAP1 PUSH2 0x232E JUMP JUMPDEST PUSH1 0x0 DUP4 DUP2 MSTORE PUSH1 0x20 DUP2 KECCAK256 PUSH1 0x1F DUP5 ADD PUSH1 0x5 SHR DUP2 ADD SWAP3 PUSH1 0x20 DUP6 LT PUSH2 0x23BC JUMPI JUMPDEST PUSH1 0x1F ADD PUSH1 0x5 SHR ADD SWAP2 JUMPDEST DUP3 DUP2 LT PUSH2 0x23B1 JUMPI POP POP PUSH2 0x22DD JUMP JUMPDEST DUP2 DUP2 SSTORE PUSH1 0x1 ADD PUSH2 0x23A3 JUMP JUMPDEST SWAP1 SWAP3 POP DUP3 SWAP1 PUSH2 0x239A JUMP JUMPDEST ISZERO PUSH2 0x23CD JUMPI JUMP JUMPDEST PUSH1 0x40 MLOAD PUSH3 0x461BCD PUSH1 0xE5 SHL DUP2 MSTORE PUSH1 0x20 PUSH1 0x4 DUP3 ADD MSTORE PUSH1 0x2A PUSH1 0x24 DUP3 ADD MSTORE PUSH32 0x4F6E6C792042505041206F666669636572732063616E20706572666F726D2074 PUSH1 0x44 DUP3 ADD MSTORE PUSH10 0x3434B99030B1BA34B7B7 PUSH1 0xB1 SHL PUSH1 0x64 DUP3 ADD MSTORE PUSH1 0x84 SWAP1 REVERT JUMPDEST PUSH2 0x243D SWAP1 PUSH1 0x20 PUSH1 0x40 MLOAD SWAP3 DUP3 DUP5 DUP1 SWAP5 MLOAD SWAP4 DUP5 SWAP3 ADD PUSH2 0x1FB7 JUMP JUMPDEST DUP2 ADD SUB SWAP1 KECCAK256 SWAP1 JUMP JUMPDEST ISZERO PUSH2 0x244C JUMPI JUMP JUMPDEST PUSH1 0x40 MLOAD PUSH3 0x461BCD PUSH1 0xE5 SHL DUP2 MSTORE PUSH1 0x20 PUSH1 0x4 DUP3 ADD MSTORE PUSH1 0x15 PUSH1 0x24 DUP3 ADD MSTORE PUSH21 0x141C9BD8DD5C995B595B9D081B9BDD08199BDD5B99 PUSH1 0x5A SHL PUSH1 0x44 DUP3 ADD MSTORE PUSH1 0x64 SWAP1 REVERT JUMPDEST SWAP2 SWAP1 DUP3 ADD DUP1 SWAP3 GT PUSH2 0x2496 JUMPI JUMP JUMPDEST PUSH4 0x4E487B71 PUSH1 0xE0 SHL PUSH1 0x0 MSTORE PUSH1 0x11 PUSH1 0x4 MSTORE PUSH1 0x24 PUSH1 0x0 REVERT JUMPDEST ISZERO PUSH2 0x24B3 JUMPI JUMP JUMPDEST PUSH1 0x40 MLOAD PUSH3 0x461BCD PUSH1 0xE5 SHL DUP2 MSTORE PUSH1 0x20 PUSH1 0x4 DUP3 ADD MSTORE PUSH1 0x11 PUSH1 0x24 DUP3 ADD MSTORE PUSH17 0x92DCECC2D8D2C840C4D2C840D2DCC8CAF PUSH1 0x7B SHL PUSH1 0x44 DUP3 ADD MSTORE PUSH1 0x64 SWAP1 REVERT JUMPDEST PUSH1 0x0 NOT DUP2 EQ PUSH2 0x2496 JUMPI PUSH1 0x1 ADD SWAP1 JUMP JUMPDEST PUSH1 0x1 PUSH1 0x1 PUSH1 0x40 SHL SUB DUP2 GT PUSH2 0x1EAE JUMPI PUSH1 0x5 SHL PUSH1 0x20 ADD SWAP1 JUMP JUMPDEST SWAP1 PUSH1 0x40 MLOAD PUSH2 0x251F DUP2 PUSH2 0x1EC4 JUMP JUMPDEST PUSH2 0x120 PUSH1 0x9 DUP3 SWAP5 PUSH2 0x252F DUP2 PUSH2 0x2176 JUMP JUMPDEST DUP5 MSTORE PUSH2 0x253D PUSH1 0x1 DUP3 ADD PUSH2 0x2176 JUMP JUMPDEST PUSH1 0x20 DUP6 ADD MSTORE PUSH1 0x2 DUP2 ADD SLOAD PUSH1 0x40 DUP6 ADD MSTORE PUSH2 0x2558 PUSH1 0x3 DUP3 ADD PUSH2 0x2176 JUMP JUMPDEST PUSH1 0x60 DUP6 ADD MSTORE PUSH2 0x2569 PUSH1 0x4 DUP3 ADD PUSH2 0x2176 JUMP JUMPDEST PUSH1 0x80 DUP6 ADD MSTORE PUSH1 0x5 DUP2 ADD SLOAD PUSH1 0xA0 DUP6 ADD MSTORE PUSH1 0x6 DUP2 ADD SLOAD PUSH1 0x1 PUSH1 0x1 PUSH1 0xA0 SHL SUB AND PUSH1 0xC0 DUP6 ADD MSTORE PUSH1 0x7 DUP2 ADD SLOAD PUSH1 0xE0 DUP6 ADD MSTORE PUSH1 0x8 DUP2 ADD SLOAD PUSH2 0x100 DUP6 ADD MSTORE ADD SLOAD SWAP2 ADD MSTORE JUMP JUMPDEST PUSH1 0x40 MLOAD SWAP1 DUP2 PUSH1 0x0 DUP3 SLOAD PUSH2 0x25B9 DUP2 PUSH2 0x213C JUMP JUMPDEST SWAP4 PUSH1 0x1 SWAP2 DUP1 DUP4 AND SWAP1 DUP2 ISZERO PUSH2 0x261E JUMPI POP PUSH1 0x1 EQ PUSH2 0x25E1 JUMPI JUMPDEST POP POP PUSH1 0x20 SWAP3 POP PUSH1 0x0 DUP2 MSTORE SUB ADD SWAP1 KECCAK256 SWAP1 JUMP JUMPDEST SWAP1 SWAP2 POP PUSH1 0x0 MSTORE PUSH1 0x20 SWAP1 DUP2 PUSH1 0x0 KECCAK256 SWAP1 PUSH1 0x0 SWAP2 JUMPDEST DUP6 DUP4 LT PUSH2 0x260A JUMPI POP POP POP POP PUSH1 0x20 SWAP2 DUP2 ADD CODESIZE DUP1 PUSH2 0x25D0 JUMP JUMPDEST DUP1 SLOAD DUP8 DUP5 ADD MSTORE DUP7 SWAP5 POP SWAP2 DUP4 ADD SWAP2 DUP2 ADD PUSH2 0x25F3 JUMP JUMPDEST SWAP3 POP POP POP PUSH1 0x20 SWAP4 SWAP2 POP PUSH1 0xFF NOT AND DUP3 MSTORE DUP1 ISZERO ISZERO MUL DUP2 ADD CODESIZE DUP1 PUSH2 0x25D0 JUMP JUMPDEST DUP1 MLOAD DUP3 LT ISZERO PUSH2 0x2067 JUMPI PUSH1 0x20 SWAP2 PUSH1 0x5 SHL ADD ADD SWAP1 JUMP INVALID LOG2 PUSH5 0x6970667358 0x22 SLT KECCAK256 CALLVALUE 0xAA PUSH24 0x32FF4AA669D8597B289676266B5C0F5588C24620C986D65D 0xE7 DUP12 PUSH22 0x334464736F6C63430008130033000000000000000000 "},"methodIdentifiers":{"allCitizens(uint256)":"570d64e6","allProcurementIds(uint256)":"7726dfce","castVote(string,uint256,bool)":"9237f3bc","citizens(address)":"d4f910a7","completeVoting(string)":"6a541cfc","createProcurement(string,string,string,uint256,string)":"61c5df2f","getActiveProcurements()":"1d56a96e","getBid(string,uint256)":"a59f715c","getBidsForProcurement(string)":"ce8f32a2","getProcurement(string)":"5daf8801","getTotalProcurements()":"18097a5f","getTotalRegisteredCitizens()":"58f74972","getVoteResults(string,uint256)":"211a4ed8","hasVoted(string,uint256,address)":"d8f6d4e3","hasVotedForBid(string,uint256,address)":"11a3a869","isBppaOfficer(address)":"9ecc759c","isRegisteredCitizen(address)":"358b8f3a","procurementBids(string,uint256)":"8a0425b1","procurements(string)":"d899781b","registerBppaOfficer(address)":"1f90e5bf","registerCitizen(address,string,string)":"e8590e76","shortlistBid(string,string,string,uint256,string,string,uint256)":"d07aaee2","startVoting(string,uint256)":"6dade938","votes(string,uint256,address)":"cf6c6c2a"}}}}}