{
  "_format": "hh-sol-artifact-1",
  "contractName": "ProcurementVoting",
  "sourceName": "contracts/ProcurementVoting.sol",
  "abi": [
    {
      "inputs": [],
      "stateMutability": "nonpayable",
      "type": "constructor"
    },
    {
      "anonymous": false,
      "inputs": [
        {
          "indexed": true,
          "internalType": "string",
          "name": "procurementId",
          "type": "string"
        },
        {
          "indexed": false,
          "internalType": "uint256",
          "name": "bidIndex",
          "type": "uint256"
        },
        {
          "indexed": false,
          "internalType": "string",
          "name": "vendorId",
          "type": "string"
        }
      ],
      "name": "BidShortlisted",
      "type": "event"
    },
    {
      "anonymous": false,
      "inputs": [
        {
          "indexed": true,
          "internalType": "address",
          "name": "officer",
          "type": "address"
        }
      ],
      "name": "BppaOfficerRegistered",
      "type": "event"
    },
    {
      "anonymous": false,
      "inputs": [
        {
          "indexed": true,
          "internalType": "address",
          "name": "citizen",
          "type": "address"
        },
        {
          "indexed": false,
          "internalType": "string",
          "name": "tiin",
          "type": "string"
        }
      ],
      "name": "CitizenRegistered",
      "type": "event"
    },
    {
      "anonymous": false,
      "inputs": [
        {
          "indexed": true,
          "internalType": "string",
          "name": "procurementId",
          "type": "string"
        },
        {
          "indexed": false,
          "internalType": "string",
          "name": "title",
          "type": "string"
        },
        {
          "indexed": false,
          "internalType": "address",
          "name": "bppaOfficer",
          "type": "address"
        }
      ],
      "name": "ProcurementCreated",
      "type": "event"
    },
    {
      "anonymous": false,
      "inputs": [
        {
          "indexed": true,
          "internalType": "string",
          "name": "procurementId",
          "type": "string"
        },
        {
          "indexed": false,
          "internalType": "uint256",
          "name": "bidIndex",
          "type": "uint256"
        },
        {
          "indexed": false,
          "internalType": "address",
          "name": "citizen",
          "type": "address"
        },
        {
          "indexed": false,
          "internalType": "bool",
          "name": "vote",
          "type": "bool"
        }
      ],
      "name": "VoteCast",
      "type": "event"
    },
    {
      "anonymous": false,
      "inputs": [
        {
          "indexed": true,
          "internalType": "string",
          "name": "procurementId",
          "type": "string"
        },
        {
          "indexed": false,
          "internalType": "uint256",
          "name": "winningBidIndex",
          "type": "uint256"
        }
      ],
      "name": "VotingCompleted",
      "type": "event"
    },
    {
      "anonymous": false,
      "inputs": [
        {
          "indexed": true,
          "internalType": "string",
          "name": "procurementId",
          "type": "string"
        },
        {
          "indexed": false,
          "internalType": "uint256",
          "name": "votingEnds",
          "type": "uint256"
        }
      ],
      "name": "VotingStarted",
      "type": "event"
    },
    {
      "inputs": [
        {
          "internalType": "uint256",
          "name": "",
          "type": "uint256"
        }
      ],
      "name": "allCitizens",
      "outputs": [
        {
          "internalType": "address",
          "name": "",
          "type": "address"
        }
      ],
      "stateMutability": "view",
      "type": "function"
    },
    {
      "inputs": [
        {
          "internalType": "uint256",
          "name": "",
          "type": "uint256"
        }
      ],
      "name": "allProcurementIds",
      "outputs": [
        {
          "internalType": "string",
          "name": "",
          "type": "string"
        }
      ],
      "stateMutability": "view",
      "type": "function"
    },
    {
      "inputs": [
        {
          "internalType": "string",
          "name": "_procurementId",
          "type": "string"
        },
        {
          "internalType": "uint256",
          "name": "_bidIndex",
          "type": "uint256"
        },
        {
          "internalType": "bool",
          "name": "_vote",
          "type": "bool"
        }
      ],
      "name": "castVote",
      "outputs": [],
      "stateMutability": "nonpayable",
      "type": "function"
    },
    {
      "inputs": [
        {
          "internalType": "address",
          "name": "",
          "type": "address"
        }
      ],
      "name": "citizens",
      "outputs": [
        {
          "internalType": "address",
          "name": "citizenAddress",
          "type": "address"
        },
        {
          "internalType": "string",
          "name": "tiin",
          "type": "string"
        },
        {
          "internalType": "string",
          "name": "fullName",
          "type": "string"
        },
        {
          "internalType": "bool",
          "name": "isRegistered",
          "type": "bool"
        },
        {
          "internalType": "bool",
          "name": "isActive",
          "type": "bool"
        }
      ],
      "stateMutability": "view",
      "type": "function"
    },
    {
      "inputs": [
        {
          "internalType": "string",
          "name": "_procurementId",
          "type": "string"
        }
      ],
      "name": "completeVoting",
      "outputs": [],
      "stateMutability": "nonpayable",
      "type": "function"
    },
    {
      "inputs": [
        {
          "internalType": "string",
          "name": "_procurementId",
          "type": "string"
        },
        {
          "internalType": "string",
          "name": "_title",
          "type": "string"
        },
        {
          "internalType": "string",
          "name": "_description",
          "type": "string"
        },
        {
          "internalType": "uint256",
          "name": "_estimatedValue",
          "type": "uint256"
        },
        {
          "internalType": "string",
          "name": "_category",
          "type": "string"
        }
      ],
      "name": "createProcurement",
      "outputs": [],
      "stateMutability": "nonpayable",
      "type": "function"
    },
    {
      "inputs": [],
      "name": "getActiveProcurements",
      "outputs": [
        {
          "internalType": "string[]",
          "name": "",
          "type": "string[]"
        }
      ],
      "stateMutability": "view",
      "type": "function"
    },
    {
      "inputs": [
        {
          "internalType": "string",
          "name": "_procurementId",
          "type": "string"
        },
        {
          "internalType": "uint256",
          "name": "_bidIndex",
          "type": "uint256"
        }
      ],
      "name": "getBid",
      "outputs": [
        {
          "internalType": "string",
          "name": "vendorId",
          "type": "string"
        },
        {
          "internalType": "string",
          "name": "companyName",
          "type": "string"
        },
        {
          "internalType": "uint256",
          "name": "bidAmount",
          "type": "uint256"
        },
        {
          "internalType": "string",
          "name": "technicalProposal",
          "type": "string"
        },
        {
          "internalType": "string",
          "name": "costingDocument",
          "type": "string"
        },
        {
          "internalType": "uint256",
          "name": "completionDays",
          "type": "uint256"
        },
        {
          "internalType": "address",
          "name": "bppaOfficer",
          "type": "address"
        },
        {
          "internalType": "uint256",
          "name": "shortlistedTimestamp",
          "type": "uint256"
        },
        {
          "internalType": "uint256",
          "name": "votesYes",
          "type": "uint256"
        },
        {
          "internalType": "uint256",
          "name": "votesNo",
          "type": "uint256"
        }
      ],
      "stateMutability": "view",
      "type": "function"
    },
    {
      "inputs": [
        {
          "internalType": "string",
          "name": "_procurementId",
          "type": "string"
        }
      ],
      "name": "getBidsForProcurement",
      "outputs": [
        {
          "components": [
            {
              "internalType": "string",
              "name": "vendorId",
              "type": "string"
            },
            {
              "internalType": "string",
              "name": "companyName",
              "type": "string"
            },
            {
              "internalType": "uint256",
              "name": "bidAmount",
              "type": "uint256"
            },
            {
              "internalType": "string",
              "name": "technicalProposal",
              "type": "string"
            },
            {
              "internalType": "string",
              "name": "costingDocument",
              "type": "string"
            },
            {
              "internalType": "uint256",
              "name": "completionDays",
              "type": "uint256"
            },
            {
              "internalType": "address",
              "name": "bppaOfficer",
              "type": "address"
            },
            {
              "internalType": "uint256",
              "name": "shortlistedTimestamp",
              "type": "uint256"
            },
            {
              "internalType": "uint256",
              "name": "votesYes",
              "type": "uint256"
            },
            {
              "internalType": "uint256",
              "name": "votesNo",
              "type": "uint256"
            }
          ],
          "internalType": "struct ProcurementVoting.Bid[]",
          "name": "",
          "type": "tuple[]"
        }
      ],
      "stateMutability": "view",
      "type": "function"
    },
    {
      "inputs": [
        {
          "internalType": "string",
          "name": "_procurementId",
          "type": "string"
        }
      ],
      "name": "getProcurement",
      "outputs": [
        {
          "internalType": "string",
          "name": "procurementId",
          "type": "string"
        },
        {
          "internalType": "string",
          "name": "title",
          "type": "string"
        },
        {
          "internalType": "string",
          "name": "description",
          "type": "string"
        },
        {
          "internalType": "uint256",
          "name": "estimatedValue",
          "type": "uint256"
        },
        {
          "internalType": "string",
          "name": "category",
          "type": "string"
        },
        {
          "internalType": "address",
          "name": "bppaOfficer",
          "type": "address"
        },
        {
          "internalType": "uint256",
          "name": "createdTimestamp",
          "type": "uint256"
        },
        {
          "internalType": "uint256",
          "name": "votingEnds",
          "type": "uint256"
        },
        {
          "internalType": "bool",
          "name": "isActive",
          "type": "bool"
        },
        {
          "internalType": "bool",
          "name": "isCompleted",
          "type": "bool"
        },
        {
          "internalType": "uint256",
          "name": "winningBidIndex",
          "type": "uint256"
        }
      ],
      "stateMutability": "view",
      "type": "function"
    },
    {
      "inputs": [],
      "name": "getTotalProcurements",
      "outputs": [
        {
          "internalType": "uint256",
          "name": "",
          "type": "uint256"
        }
      ],
      "stateMutability": "view",
      "type": "function"
    },
    {
      "inputs": [],
      "name": "getTotalRegisteredCitizens",
      "outputs": [
        {
          "internalType": "uint256",
          "name": "",
          "type": "uint256"
        }
      ],
      "stateMutability": "view",
      "type": "function"
    },
    {
      "inputs": [
        {
          "internalType": "string",
          "name": "_procurementId",
          "type": "string"
        },
        {
          "internalType": "uint256",
          "name": "_bidIndex",
          "type": "uint256"
        }
      ],
      "name": "getVoteResults",
      "outputs": [
        {
          "internalType": "uint256",
          "name": "votesYes",
          "type": "uint256"
        },
        {
          "internalType": "uint256",
          "name": "votesNo",
          "type": "uint256"
        },
        {
          "internalType": "uint256",
          "name": "totalVotes",
          "type": "uint256"
        },
        {
          "internalType": "uint256",
          "name": "yesPercentage",
          "type": "uint256"
        }
      ],
      "stateMutability": "view",
      "type": "function"
    },
    {
      "inputs": [
        {
          "internalType": "string",
          "name": "",
          "type": "string"
        },
        {
          "internalType": "uint256",
          "name": "",
          "type": "uint256"
        },
        {
          "internalType": "address",
          "name": "",
          "type": "address"
        }
      ],
      "name": "hasVoted",
      "outputs": [
        {
          "internalType": "bool",
          "name": "",
          "type": "bool"
        }
      ],
      "stateMutability": "view",
      "type": "function"
    },
    {
      "inputs": [
        {
          "internalType": "string",
          "name": "_procurementId",
          "type": "string"
        },
        {
          "internalType": "uint256",
          "name": "_bidIndex",
          "type": "uint256"
        },
        {
          "internalType": "address",
          "name": "_citizen",
          "type": "address"
        }
      ],
      "name": "hasVotedForBid",
      "outputs": [
        {
          "internalType": "bool",
          "name": "",
          "type": "bool"
        }
      ],
      "stateMutability": "view",
      "type": "function"
    },
    {
      "inputs": [
        {
          "internalType": "address",
          "name": "",
          "type": "address"
        }
      ],
      "name": "isBppaOfficer",
      "outputs": [
        {
          "internalType": "bool",
          "name": "",
          "type": "bool"
        }
      ],
      "stateMutability": "view",
      "type": "function"
    },
    {
      "inputs": [
        {
          "internalType": "address",
          "name": "",
          "type": "address"
        }
      ],
      "name": "isRegisteredCitizen",
      "outputs": [
        {
          "internalType": "bool",
          "name": "",
          "type": "bool"
        }
      ],
      "stateMutability": "view",
      "type": "function"
    },
    {
      "inputs": [
        {
          "internalType": "string",
          "name": "",
          "type": "string"
        },
        {
          "internalType": "uint256",
          "name": "",
          "type": "uint256"
        }
      ],
      "name": "procurementBids",
      "outputs": [
        {
          "internalType": "string",
          "name": "vendorId",
          "type": "string"
        },
        {
          "internalType": "string",
          "name": "companyName",
          "type": "string"
        },
        {
          "internalType": "uint256",
          "name": "bidAmount",
          "type": "uint256"
        },
        {
          "internalType": "string",
          "name": "technicalProposal",
          "type": "string"
        },
        {
          "internalType": "string",
          "name": "costingDocument",
          "type": "string"
        },
        {
          "internalType": "uint256",
          "name": "completionDays",
          "type": "uint256"
        },
        {
          "internalType": "address",
          "name": "bppaOfficer",
          "type": "address"
        },
        {
          "internalType": "uint256",
          "name": "shortlistedTimestamp",
          "type": "uint256"
        },
        {
          "internalType": "uint256",
          "name": "votesYes",
          "type": "uint256"
        },
        {
          "internalType": "uint256",
          "name": "votesNo",
          "type": "uint256"
        }
      ],
      "stateMutability": "view",
      "type": "function"
    },
    {
      "inputs": [
        {
          "internalType": "string",
          "name": "",
          "type": "string"
        }
      ],
      "name": "procurements",
      "outputs": [
        {
          "internalType": "string",
          "name": "procurementId",
          "type": "string"
        },
        {
          "internalType": "string",
          "name": "title",
          "type": "string"
        },
        {
          "internalType": "string",
          "name": "description",
          "type": "string"
        },
        {
          "internalType": "uint256",
          "name": "estimatedValue",
          "type": "uint256"
        },
        {
          "internalType": "string",
          "name": "category",
          "type": "string"
        },
        {
          "internalType": "address",
          "name": "bppaOfficer",
          "type": "address"
        },
        {
          "internalType": "uint256",
          "name": "createdTimestamp",
          "type": "uint256"
        },
        {
          "internalType": "uint256",
          "name": "votingEnds",
          "type": "uint256"
        },
        {
          "internalType": "bool",
          "name": "isActive",
          "type": "bool"
        },
        {
          "internalType": "bool",
          "name": "isCompleted",
          "type": "bool"
        },
        {
          "internalType": "uint256",
          "name": "winningBidIndex",
          "type": "uint256"
        }
      ],
      "stateMutability": "view",
      "type": "function"
    },
    {
      "inputs": [
        {
          "internalType": "address",
          "name": "_officerAddress",
          "type": "address"
        }
      ],
      "name": "registerBppaOfficer",
      "outputs": [],
      "stateMutability": "nonpayable",
      "type": "function"
    },
    {
      "inputs": [
        {
          "internalType": "address",
          "name": "_citizenAddress",
          "type": "address"
        },
        {
          "internalType": "string",
          "name": "_tiin",
          "type": "string"
        },
        {
          "internalType": "string",
          "name": "_fullName",
          "type": "string"
        }
      ],
      "name": "registerCitizen",
      "outputs": [],
      "stateMutability": "nonpayable",
      "type": "function"
    },
    {
      "inputs": [
        {
          "internalType": "string",
          "name": "_procurementId",
          "type": "string"
        },
        {
          "internalType": "string",
          "name": "_vendorId",
          "type": "string"
        },
        {
          "internalType": "string",
          "name": "_companyName",
          "type": "string"
        },
        {
          "internalType": "uint256",
          "name": "_bidAmount",
          "type": "uint256"
        },
        {
          "internalType": "string",
          "name": "_technicalProposal",
          "type": "string"
        },
        {
          "internalType": "string",
          "name": "_costingDocument",
          "type": "string"
        },
        {
          "internalType": "uint256",
          "name": "_completionDays",
          "type": "uint256"
        }
      ],
      "name": "shortlistBid",
      "outputs": [],
      "stateMutability": "nonpayable",
      "type": "function"
    },
    {
      "inputs": [
        {
          "internalType": "string",
          "name": "_procurementId",
          "type": "string"
        },
        {
          "internalType": "uint256",
          "name": "_votingDurationDays",
          "type": "uint256"
        }
      ],
      "name": "startVoting",
      "outputs": [],
      "stateMutability": "nonpayable",
      "type": "function"
    },
    {
      "inputs": [
        {
          "internalType": "string",
          "name": "",
          "type": "string"
        },
        {
          "internalType": "uint256",
          "name": "",
          "type": "uint256"
        },
        {
          "internalType": "address",
          "name": "",
          "type": "address"
        }
      ],
      "name": "votes",
      "outputs": [
        {
          "internalType": "address",
          "name": "citizen",
          "type": "address"
        },
        {
          "internalType": "bool",
          "name": "vote",
          "type": "bool"
        },
        {
          "internalType": "uint256",
          "name": "timestamp",
          "type": "uint256"
        }
      ],
      "stateMutability": "view",
      "type": "function"
    }
  ],
  "bytecode": "0x608060405234801561001057600080fd5b5061564a80620000216000396000f3fe608060405234801561001057600080fd5b50600436106101585760003560e01c80637726dfce116100c3578063cf6c6c2a1161007c578063cf6c6c2a14610442578063d07aaee214610474578063d4f910a714610490578063d899781b146104c4578063d8f6d4e3146104fe578063e8590e761461052e57610158565b80637726dfce146103245780638a0425b1146103545780639237f3bc1461038d5780639ecc759c146103a9578063a59f715c146103d9578063ce8f32a21461041257610158565b8063570d64e611610115578063570d64e61461024857806358f74972146102785780635daf88011461029657806361c5df2f146102d05780636a541cfc146102ec5780636dade9381461030857610158565b806311a3a8691461015d57806318097a5f1461018d5780631d56a96e146101ab5780631f90e5bf146101c9578063211a4ed8146101e5578063358b8f3a14610218575b600080fd5b61017760048036038101906101729190613aa9565b61054a565b6040516101849190613b33565b60405180910390f35b6101956105cf565b6040516101a29190613b5d565b60405180910390f35b6101b36105dc565b6040516101c09190613cb9565b60405180910390f35b6101e360048036038101906101de9190613cdb565b61089c565b005b6101ff60048036038101906101fa9190613d08565b610a36565b60405161020f9493929190613d64565b60405180910390f35b610232600480360381019061022d9190613cdb565b610e29565b60405161023f9190613b33565b60405180910390f35b610262600480360381019061025d9190613da9565b610e49565b60405161026f9190613de5565b60405180910390f35b610280610e88565b60405161028d9190613b5d565b60405180910390f35b6102b060048036038101906102ab9190613e00565b610e95565b6040516102c79b9a99989796959493929190613e93565b60405180910390f35b6102ea60048036038101906102e59190613f5a565b611230565b005b61030660048036038101906103019190613e00565b611583565b005b610322600480360381019061031d9190613d08565b61190e565b005b61033e60048036038101906103399190613da9565b611c0e565b60405161034b9190614045565b60405180910390f35b61036e60048036038101906103699190613d08565b611cba565b6040516103849a99989796959493929190614067565b60405180910390f35b6103a760048036038101906103a2919061414b565b611f81565b005b6103c360048036038101906103be9190613cdb565b612533565b6040516103d09190613b33565b60405180910390f35b6103f360048036038101906103ee9190613d08565b612553565b6040516104099a99989796959493929190614067565b60405180910390f35b61042c60048036038101906104279190613e00565b61293c565b6040516104399190614389565b60405180910390f35b61045c60048036038101906104579190613aa9565b612c8a565b60405161046b939291906143ab565b60405180910390f35b61048e600480360381019061048991906143e2565b612d11565b005b6104aa60048036038101906104a59190613cdb565b6130dd565b6040516104bb959493929190614510565b60405180910390f35b6104de60048036038101906104d99190613e00565b61325d565b6040516104f59b9a99989796959493929190613e93565b60405180910390f35b61051860048036038101906105139190613aa9565b613527565b6040516105259190613b33565b60405180910390f35b61054860048036038101906105439190614571565b613579565b005b600060038460405161055c9190614638565b9081526020016040518091039020600084815260200190815260200160002060008373ffffffffffffffffffffffffffffffffffffffff1673ffffffffffffffffffffffffffffffffffffffff16815260200190815260200160002060009054906101000a900460ff1690509392505050565b6000600780549050905090565b60606000805b6007805490508110156106ac576000600782815481106106055761060461464f565b5b9060005260206000200160405161061c9190614776565b908152602001604051809103902060080160009054906101000a900460ff16801561068557506000600782815481106106585761065761464f565b5b9060005260206000200160405161066f9190614776565b9081526020016040518091039020600701544211155b15610699578180610695906147bc565b9250505b80806106a4906147bc565b9150506105e2565b5060008167ffffffffffffffff8111156106c9576106c86138ea565b5b6040519080825280602002602001820160405280156106fc57816020015b60608152602001906001900390816106e75790505b5090506000805b600780549050811015610892576000600782815481106107265761072561464f565b5b9060005260206000200160405161073d9190614776565b908152602001604051809103902060080160009054906101000a900460ff1680156107a657506000600782815481106107795761077861464f565b5b906000526020600020016040516107909190614776565b9081526020016040518091039020600701544211155b1561087f57600781815481106107bf576107be61464f565b5b9060005260206000200180546107d4906146ad565b80601f0160208091040260200160405190810160405280929190818152602001828054610800906146ad565b801561084d5780601f106108225761010080835404028352916020019161084d565b820191906000526020600020905b81548152906001019060200180831161083057829003601f168201915b50505050508383815181106108655761086461464f565b5b6020026020010181905250818061087b906147bc565b9250505b808061088a906147bc565b915050610703565b5081935050505090565b600073ffffffffffffffffffffffffffffffffffffffff168173ffffffffffffffffffffffffffffffffffffffff160361090b576040517f08c379a000000000000000000000000000000000000000000000000000000000815260040161090290614850565b60405180910390fd5b600560008273ffffffffffffffffffffffffffffffffffffffff1673ffffffffffffffffffffffffffffffffffffffff16815260200190815260200160002060009054906101000a900460ff1615610998576040517f08c379a000000000000000000000000000000000000000000000000000000000815260040161098f906148bc565b60405180910390fd5b6001600560008373ffffffffffffffffffffffffffffffffffffffff1673ffffffffffffffffffffffffffffffffffffffff16815260200190815260200160002060006101000a81548160ff0219169083151502179055508073ffffffffffffffffffffffffffffffffffffffff167f93c99ed6cec4cafd667d99f8a8750597ff22057275c37404ade4344c8ce9292460405160405180910390a250565b600080600080600186604051610a4c9190614638565b9081526020016040518091039020805490508510610a9f576040517f08c379a0000000000000000000000000000000000000000000000000000000008152600401610a9690614928565b60405180910390fd5b6000600187604051610ab19190614638565b90815260200160405180910390208681548110610ad157610ad061464f565b5b90600052602060002090600a020160405180610140016040529081600082018054610afb906146ad565b80601f0160208091040260200160405190810160405280929190818152602001828054610b27906146ad565b8015610b745780601f10610b4957610100808354040283529160200191610b74565b820191906000526020600020905b815481529060010190602001808311610b5757829003601f168201915b50505050508152602001600182018054610b8d906146ad565b80601f0160208091040260200160405190810160405280929190818152602001828054610bb9906146ad565b8015610c065780601f10610bdb57610100808354040283529160200191610c06565b820191906000526020600020905b815481529060010190602001808311610be957829003601f168201915b5050505050815260200160028201548152602001600382018054610c29906146ad565b80601f0160208091040260200160405190810160405280929190818152602001828054610c55906146ad565b8015610ca25780601f10610c7757610100808354040283529160200191610ca2565b820191906000526020600020905b815481529060010190602001808311610c8557829003601f168201915b50505050508152602001600482018054610cbb906146ad565b80601f0160208091040260200160405190810160405280929190818152602001828054610ce7906146ad565b8015610d345780601f10610d0957610100808354040283529160200191610d34565b820191906000526020600020905b815481529060010190602001808311610d1757829003601f168201915b50505050508152602001600582015481526020016006820160009054906101000a900473ffffffffffffffffffffffffffffffffffffffff1673ffffffffffffffffffffffffffffffffffffffff1673ffffffffffffffffffffffffffffffffffffffff168152602001600782015481526020016008820154815260200160098201548152505090506000816101200151826101000151610dd59190614948565b90506000808211610de7576000610e05565b816064846101000151610dfa919061497c565b610e0491906149ed565b5b90508261010001518361012001518383965096509650965050505092959194509250565b60066020528060005260406000206000915054906101000a900460ff1681565b60088181548110610e5957600080fd5b906000526020600020016000915054906101000a900473ffffffffffffffffffffffffffffffffffffffff1681565b6000600880549050905090565b6060806060600060606000806000806000806000808d604051610eb89190614638565b908152602001604051809103902060405180610160016040529081600082018054610ee2906146ad565b80601f0160208091040260200160405190810160405280929190818152602001828054610f0e906146ad565b8015610f5b5780601f10610f3057610100808354040283529160200191610f5b565b820191906000526020600020905b815481529060010190602001808311610f3e57829003601f168201915b50505050508152602001600182018054610f74906146ad565b80601f0160208091040260200160405190810160405280929190818152602001828054610fa0906146ad565b8015610fed5780601f10610fc257610100808354040283529160200191610fed565b820191906000526020600020905b815481529060010190602001808311610fd057829003601f168201915b50505050508152602001600282018054611006906146ad565b80601f0160208091040260200160405190810160405280929190818152602001828054611032906146ad565b801561107f5780601f106110545761010080835404028352916020019161107f565b820191906000526020600020905b81548152906001019060200180831161106257829003601f168201915b50505050508152602001600382015481526020016004820180546110a2906146ad565b80601f01602080910402602001604051908101604052809291908181526020018280546110ce906146ad565b801561111b5780601f106110f05761010080835404028352916020019161111b565b820191906000526020600020905b8154815290600101906020018083116110fe57829003601f168201915b505050505081526020016005820160009054906101000a900473ffffffffffffffffffffffffffffffffffffffff1673ffffffffffffffffffffffffffffffffffffffff1673ffffffffffffffffffffffffffffffffffffffff16815260200160068201548152602001600782015481526020016008820160009054906101000a900460ff161515151581526020016008820160019054906101000a900460ff161515151581526020016009820154815250509050806000015181602001518260400151836060015184608001518560a001518660c001518760e001518861010001518961012001518a61014001519b509b509b509b509b509b509b509b509b509b509b505091939597999b90929496989a50565b600560003373ffffffffffffffffffffffffffffffffffffffff1673ffffffffffffffffffffffffffffffffffffffff16815260200190815260200160002060009054906101000a900460ff166112bc576040517f08c379a00000000000000000000000000000000000000000000000000000000081526004016112b390614a90565b60405180910390fd5b6000855111611300576040517f08c379a00000000000000000000000000000000000000000000000000000000081526004016112f790614afc565b60405180910390fd5b600080866040516113119190614638565b90815260200160405180910390206006015414611363576040517f08c379a000000000000000000000000000000000000000000000000000000000815260040161135a90614b68565b60405180910390fd5b6040518061016001604052808681526020018581526020018481526020018381526020018281526020013373ffffffffffffffffffffffffffffffffffffffff1681526020014281526020016000815260200160001515815260200160001515815260200160008152506000866040516113dd9190614638565b908152602001604051809103902060008201518160000190816114009190614d1f565b5060208201518160010190816114169190614d1f565b50604082015181600201908161142c9190614d1f565b5060608201518160030155608082015181600401908161144c9190614d1f565b5060a08201518160050160006101000a81548173ffffffffffffffffffffffffffffffffffffffff021916908373ffffffffffffffffffffffffffffffffffffffff16021790555060c0820151816006015560e082015181600701556101008201518160080160006101000a81548160ff0219169083151502179055506101208201518160080160016101000a81548160ff021916908315150217905550610140820151816009015590505060078590806001815401808255809150506001900390600052602060002001600090919091909150908161152c9190614d1f565b508460405161153b9190614638565b60405180910390207f2b5849cf31662736c8060bb55d40ce1a3799e0564b29a3c63aba660ab3ee523c8533604051611574929190614df1565b60405180910390a25050505050565b600560003373ffffffffffffffffffffffffffffffffffffffff1673ffffffffffffffffffffffffffffffffffffffff16815260200190815260200160002060009054906101000a900460ff1661160f576040517f08c379a000000000000000000000000000000000000000000000000000000000815260040161160690614a90565b60405180910390fd5b60008160405161161f9190614638565b908152602001604051809103902060080160009054906101000a900460ff1661167d576040517f08c379a000000000000000000000000000000000000000000000000000000000815260040161167490614e6d565b60405180910390fd5b60008160405161168d9190614638565b90815260200160405180910390206007015442116116e0576040517f08c379a00000000000000000000000000000000000000000000000000000000081526004016116d790614ed9565b60405180910390fd5b6000816040516116f09190614638565b908152602001604051809103902060080160019054906101000a900460ff161561174f576040517f08c379a000000000000000000000000000000000000000000000000000000000815260040161174690614f45565b60405180910390fd5b60008060005b6001846040516117659190614638565b908152602001604051809103902080549050811015611822578260018560405161178f9190614638565b908152602001604051809103902082815481106117af576117ae61464f565b5b90600052602060002090600a020160080154111561180f576001846040516117d79190614638565b908152602001604051809103902081815481106117f7576117f661464f565b5b90600052602060002090600a02016008015492508091505b808061181a906147bc565b915050611755565b50806000846040516118349190614638565b9081526020016040518091039020600901819055506000808460405161185a9190614638565b908152602001604051809103902060080160006101000a81548160ff02191690831515021790555060016000846040516118949190614638565b908152602001604051809103902060080160016101000a81548160ff021916908315150217905550826040516118ca9190614638565b60405180910390207f29a06f4f1c2767f6a8508ed9bf8bf6df701f4b3ffb47b562dcd597c4d5e62071826040516119019190613b5d565b60405180910390a2505050565b600560003373ffffffffffffffffffffffffffffffffffffffff1673ffffffffffffffffffffffffffffffffffffffff16815260200190815260200160002060009054906101000a900460ff1661199a576040517f08c379a000000000000000000000000000000000000000000000000000000000815260040161199190614a90565b60405180910390fd5b600080836040516119ab9190614638565b908152602001604051809103902060060154036119fd576040517f08c379a00000000000000000000000000000000000000000000000000000000081526004016119f490614fb1565b60405180910390fd5b600082604051611a0d9190614638565b908152602001604051809103902060080160009054906101000a900460ff1615611a6c576040517f08c379a0000000000000000000000000000000000000000000000000000000008152600401611a639061501d565b60405180910390fd5b600082604051611a7c9190614638565b908152602001604051809103902060080160019054906101000a900460ff1615611adb576040517f08c379a0000000000000000000000000000000000000000000000000000000008152600401611ad290615089565b60405180910390fd5b6000600183604051611aed9190614638565b90815260200160405180910390208054905011611b3f576040517f08c379a0000000000000000000000000000000000000000000000000000000008152600401611b36906150f5565b60405180910390fd5b60006201518082611b50919061497c565b42611b5b9190614948565b905080600084604051611b6e9190614638565b9081526020016040518091039020600701819055506001600084604051611b959190614638565b908152602001604051809103902060080160006101000a81548160ff02191690831515021790555082604051611bcb9190614638565b60405180910390207e974e7a9f2acf0f113201dd02a3c9904153c5c7f5a5b71959eb47bb505f9b8c82604051611c019190613b5d565b60405180910390a2505050565b60078181548110611c1e57600080fd5b906000526020600020016000915090508054611c39906146ad565b80601f0160208091040260200160405190810160405280929190818152602001828054611c65906146ad565b8015611cb25780601f10611c8757610100808354040283529160200191611cb2565b820191906000526020600020905b815481529060010190602001808311611c9557829003601f168201915b505050505081565b6001828051602081018201805184825260208301602085012081835280955050505050508181548110611cec57600080fd5b90600052602060002090600a020160009150915050806000018054611d10906146ad565b80601f0160208091040260200160405190810160405280929190818152602001828054611d3c906146ad565b8015611d895780601f10611d5e57610100808354040283529160200191611d89565b820191906000526020600020905b815481529060010190602001808311611d6c57829003601f168201915b505050505090806001018054611d9e906146ad565b80601f0160208091040260200160405190810160405280929190818152602001828054611dca906146ad565b8015611e175780601f10611dec57610100808354040283529160200191611e17565b820191906000526020600020905b815481529060010190602001808311611dfa57829003601f168201915b505050505090806002015490806003018054611e32906146ad565b80601f0160208091040260200160405190810160405280929190818152602001828054611e5e906146ad565b8015611eab5780601f10611e8057610100808354040283529160200191611eab565b820191906000526020600020905b815481529060010190602001808311611e8e57829003601f168201915b505050505090806004018054611ec0906146ad565b80601f0160208091040260200160405190810160405280929190818152602001828054611eec906146ad565b8015611f395780601f10611f0e57610100808354040283529160200191611f39565b820191906000526020600020905b815481529060010190602001808311611f1c57829003601f168201915b5050505050908060050154908060060160009054906101000a900473ffffffffffffffffffffffffffffffffffffffff1690806007015490806008015490806009015490508a565b600660003373ffffffffffffffffffffffffffffffffffffffff1673ffffffffffffffffffffffffffffffffffffffff16815260200190815260200160002060009054906101000a900460ff1661200d576040517f08c379a000000000000000000000000000000000000000000000000000000000815260040161200490615187565b60405180910390fd5b600460003373ffffffffffffffffffffffffffffffffffffffff1673ffffffffffffffffffffffffffffffffffffffff16815260200190815260200160002060030160019054906101000a900460ff1661209c576040517f08c379a0000000000000000000000000000000000000000000000000000000008152600401612093906151f3565b60405180910390fd5b6000836040516120ac9190614638565b908152602001604051809103902060080160009054906101000a900460ff1661210a576040517f08c379a000000000000000000000000000000000000000000000000000000000815260040161210190615285565b60405180910390fd5b60008360405161211a9190614638565b90815260200160405180910390206007015442111561216e576040517f08c379a0000000000000000000000000000000000000000000000000000000008152600401612165906152f1565b60405180910390fd5b60018360405161217e9190614638565b90815260200160405180910390208054905082106121d1576040517f08c379a00000000000000000000000000000000000000000000000000000000081526004016121c890614928565b60405180910390fd5b6003836040516121e19190614638565b9081526020016040518091039020600083815260200190815260200160002060003373ffffffffffffffffffffffffffffffffffffffff1673ffffffffffffffffffffffffffffffffffffffff16815260200190815260200160002060009054906101000a900460ff161561228b576040517f08c379a00000000000000000000000000000000000000000000000000000000081526004016122829061535d565b60405180910390fd5b60405180606001604052803373ffffffffffffffffffffffffffffffffffffffff1681526020018215158152602001428152506002846040516122ce9190614638565b9081526020016040518091039020600084815260200190815260200160002060003373ffffffffffffffffffffffffffffffffffffffff1673ffffffffffffffffffffffffffffffffffffffff16815260200190815260200160002060008201518160000160006101000a81548173ffffffffffffffffffffffffffffffffffffffff021916908373ffffffffffffffffffffffffffffffffffffffff16021790555060208201518160000160146101000a81548160ff0219169083151502179055506040820151816001015590505060016003846040516123b09190614638565b9081526020016040518091039020600084815260200190815260200160002060003373ffffffffffffffffffffffffffffffffffffffff1673ffffffffffffffffffffffffffffffffffffffff16815260200190815260200160002060006101000a81548160ff0219169083151502179055508015612485576001836040516124399190614638565b908152602001604051809103902082815481106124595761245861464f565b5b90600052602060002090600a0201600801600081548092919061247b906147bc565b91905055506124dd565b6001836040516124959190614638565b908152602001604051809103902082815481106124b5576124b461464f565b5b90600052602060002090600a020160090160008154809291906124d7906147bc565b91905055505b826040516124eb9190614638565b60405180910390207f43fda53d9df661d064e67f88934200a48401afe5840a8cff318f0de710fe6a6d8333846040516125269392919061537d565b60405180910390a2505050565b60056020528060005260406000206000915054906101000a900460ff1681565b6060806000606080600080600080600060018c6040516125739190614638565b9081526020016040518091039020805490508b106125c6576040517f08c379a00000000000000000000000000000000000000000000000000000000081526004016125bd90614928565b60405180910390fd5b600060018d6040516125d89190614638565b90815260200160405180910390208c815481106125f8576125f761464f565b5b90600052602060002090600a020160405180610140016040529081600082018054612622906146ad565b80601f016020809104026020016040519081016040528092919081815260200182805461264e906146ad565b801561269b5780601f106126705761010080835404028352916020019161269b565b820191906000526020600020905b81548152906001019060200180831161267e57829003601f168201915b505050505081526020016001820180546126b4906146ad565b80601f01602080910402602001604051908101604052809291908181526020018280546126e0906146ad565b801561272d5780601f106127025761010080835404028352916020019161272d565b820191906000526020600020905b81548152906001019060200180831161271057829003601f168201915b5050505050815260200160028201548152602001600382018054612750906146ad565b80601f016020809104026020016040519081016040528092919081815260200182805461277c906146ad565b80156127c95780601f1061279e576101008083540402835291602001916127c9565b820191906000526020600020905b8154815290600101906020018083116127ac57829003601f168201915b505050505081526020016004820180546127e2906146ad565b80601f016020809104026020016040519081016040528092919081815260200182805461280e906146ad565b801561285b5780601f106128305761010080835404028352916020019161285b565b820191906000526020600020905b81548152906001019060200180831161283e57829003601f168201915b50505050508152602001600582015481526020016006820160009054906101000a900473ffffffffffffffffffffffffffffffffffffffff1673ffffffffffffffffffffffffffffffffffffffff1673ffffffffffffffffffffffffffffffffffffffff16815260200160078201548152602001600882015481526020016009820154815250509050806000015181602001518260400151836060015184608001518560a001518660c001518760e001518861010001518961012001519a509a509a509a509a509a509a509a509a509a50509295989b9194979a5092959850565b606060018260405161294e9190614638565b9081526020016040518091039020805480602002602001604051908101604052809291908181526020016000905b82821015612c7f57838290600052602060002090600a0201604051806101400160405290816000820180546129b0906146ad565b80601f01602080910402602001604051908101604052809291908181526020018280546129dc906146ad565b8015612a295780601f106129fe57610100808354040283529160200191612a29565b820191906000526020600020905b815481529060010190602001808311612a0c57829003601f168201915b50505050508152602001600182018054612a42906146ad565b80601f0160208091040260200160405190810160405280929190818152602001828054612a6e906146ad565b8015612abb5780601f10612a9057610100808354040283529160200191612abb565b820191906000526020600020905b815481529060010190602001808311612a9e57829003601f168201915b5050505050815260200160028201548152602001600382018054612ade906146ad565b80601f0160208091040260200160405190810160405280929190818152602001828054612b0a906146ad565b8015612b575780601f10612b2c57610100808354040283529160200191612b57565b820191906000526020600020905b815481529060010190602001808311612b3a57829003601f168201915b50505050508152602001600482018054612b70906146ad565b80601f0160208091040260200160405190810160405280929190818152602001828054612b9c906146ad565b8015612be95780601f10612bbe57610100808354040283529160200191612be9565b820191906000526020600020905b815481529060010190602001808311612bcc57829003601f168201915b50505050508152602001600582015481526020016006820160009054906101000a900473ffffffffffffffffffffffffffffffffffffffff1673ffffffffffffffffffffffffffffffffffffffff1673ffffffffffffffffffffffffffffffffffffffff16815260200160078201548152602001600882015481526020016009820154815250508152602001906001019061297c565b505050509050919050565b60028380516020810182018051848252602083016020850120818352809550505050505060205281600052604060002060205280600052604060002060009250925050508060000160009054906101000a900473ffffffffffffffffffffffffffffffffffffffff16908060000160149054906101000a900460ff16908060010154905083565b600560003373ffffffffffffffffffffffffffffffffffffffff1673ffffffffffffffffffffffffffffffffffffffff16815260200190815260200160002060009054906101000a900460ff16612d9d576040517f08c379a0000000000000000000000000000000000000000000000000000000008152600401612d9490614a90565b60405180910390fd5b60008088604051612dae9190614638565b90815260200160405180910390206006015403612e00576040517f08c379a0000000000000000000000000000000000000000000000000000000008152600401612df790614fb1565b60405180910390fd5b600087604051612e109190614638565b908152602001604051809103902060080160019054906101000a900460ff1615612e6f576040517f08c379a0000000000000000000000000000000000000000000000000000000008152600401612e6690615426565b60405180910390fd5b6004600188604051612e819190614638565b90815260200160405180910390208054905010612ed3576040517f08c379a0000000000000000000000000000000000000000000000000000000008152600401612eca906154b8565b60405180910390fd5b60006040518061014001604052808881526020018781526020018681526020018581526020018481526020018381526020013373ffffffffffffffffffffffffffffffffffffffff1681526020014281526020016000815260200160008152509050600188604051612f459190614638565b90815260200160405180910390208190806001815401808255809150506001900390600052602060002090600a02016000909190919091506000820151816000019081612f929190614d1f565b506020820151816001019081612fa89190614d1f565b50604082015181600201556060820151816003019081612fc89190614d1f565b506080820151816004019081612fde9190614d1f565b5060a0820151816005015560c08201518160060160006101000a81548173ffffffffffffffffffffffffffffffffffffffff021916908373ffffffffffffffffffffffffffffffffffffffff16021790555060e0820151816007015561010082015181600801556101208201518160090155505060006001808a6040516130659190614638565b90815260200160405180910390208054905061308191906154d8565b9050886040516130919190614638565b60405180910390207fd2f996805704b513d8aee1e83f96044a7b82baa96831932e470e2be8fe8dc303828a6040516130ca92919061550c565b60405180910390a2505050505050505050565b60046020528060005260406000206000915090508060000160009054906101000a900473ffffffffffffffffffffffffffffffffffffffff1690806001018054613126906146ad565b80601f0160208091040260200160405190810160405280929190818152602001828054613152906146ad565b801561319f5780601f106131745761010080835404028352916020019161319f565b820191906000526020600020905b81548152906001019060200180831161318257829003601f168201915b5050505050908060020180546131b4906146ad565b80601f01602080910402602001604051908101604052809291908181526020018280546131e0906146ad565b801561322d5780601f106132025761010080835404028352916020019161322d565b820191906000526020600020905b81548152906001019060200180831161321057829003601f168201915b5050505050908060030160009054906101000a900460ff16908060030160019054906101000a900460ff16905085565b600081805160208101820180518482526020830160208501208183528095505050505050600091509050806000018054613296906146ad565b80601f01602080910402602001604051908101604052809291908181526020018280546132c2906146ad565b801561330f5780601f106132e45761010080835404028352916020019161330f565b820191906000526020600020905b8154815290600101906020018083116132f257829003601f168201915b505050505090806001018054613324906146ad565b80601f0160208091040260200160405190810160405280929190818152602001828054613350906146ad565b801561339d5780601f106133725761010080835404028352916020019161339d565b820191906000526020600020905b81548152906001019060200180831161338057829003601f168201915b5050505050908060020180546133b2906146ad565b80601f01602080910402602001604051908101604052809291908181526020018280546133de906146ad565b801561342b5780601f106134005761010080835404028352916020019161342b565b820191906000526020600020905b81548152906001019060200180831161340e57829003601f168201915b505050505090806003015490806004018054613446906146ad565b80601f0160208091040260200160405190810160405280929190818152602001828054613472906146ad565b80156134bf5780601f10613494576101008083540402835291602001916134bf565b820191906000526020600020905b8154815290600101906020018083116134a257829003601f168201915b5050505050908060050160009054906101000a900473ffffffffffffffffffffffffffffffffffffffff16908060060154908060070154908060080160009054906101000a900460ff16908060080160019054906101000a900460ff1690806009015490508b565b600383805160208101820180518482526020830160208501208183528095505050505050602052816000526040600020602052806000526040600020600092509250509054906101000a900460ff1681565b600073ffffffffffffffffffffffffffffffffffffffff168373ffffffffffffffffffffffffffffffffffffffff16036135e8576040517f08c379a00000000000000000000000000000000000000000000000000000000081526004016135df90615588565b60405180910390fd5b600660008473ffffffffffffffffffffffffffffffffffffffff1673ffffffffffffffffffffffffffffffffffffffff16815260200190815260200160002060009054906101000a900460ff1615613675576040517f08c379a000000000000000000000000000000000000000000000000000000000815260040161366c906155f4565b60405180910390fd5b6040518060a001604052808473ffffffffffffffffffffffffffffffffffffffff16815260200183815260200182815260200160011515815260200160011515815250600460008573ffffffffffffffffffffffffffffffffffffffff1673ffffffffffffffffffffffffffffffffffffffff16815260200190815260200160002060008201518160000160006101000a81548173ffffffffffffffffffffffffffffffffffffffff021916908373ffffffffffffffffffffffffffffffffffffffff16021790555060208201518160010190816137539190614d1f565b5060408201518160020190816137699190614d1f565b5060608201518160030160006101000a81548160ff02191690831515021790555060808201518160030160016101000a81548160ff0219169083151502179055509050506001600660008573ffffffffffffffffffffffffffffffffffffffff1673ffffffffffffffffffffffffffffffffffffffff16815260200190815260200160002060006101000a81548160ff0219169083151502179055506008839080600181540180825580915050600190039060005260206000200160009091909190916101000a81548173ffffffffffffffffffffffffffffffffffffffff021916908373ffffffffffffffffffffffffffffffffffffffff1602179055508273ffffffffffffffffffffffffffffffffffffffff167f106c826edcad7be8b769067aebb234b0e19866d19c9ebe48e6f61e994b9e03aa836040516138ae9190614045565b60405180910390a2505050565b6000604051905090565b600080fd5b600080fd5b600080fd5b600080fd5b6000601f19601f8301169050919050565b7f4e487b7100000000000000000000000000000000000000000000000000000000600052604160045260246000fd5b613922826138d9565b810181811067ffffffffffffffff82111715613941576139406138ea565b5b80604052505050565b60006139546138bb565b90506139608282613919565b919050565b600067ffffffffffffffff8211156139805761397f6138ea565b5b613989826138d9565b9050602081019050919050565b82818337600083830152505050565b60006139b86139b384613965565b61394a565b9050828152602081018484840111156139d4576139d36138d4565b5b6139df848285613996565b509392505050565b600082601f8301126139fc576139fb6138cf565b5b8135613a0c8482602086016139a5565b91505092915050565b6000819050919050565b613a2881613a15565b8114613a3357600080fd5b50565b600081359050613a4581613a1f565b92915050565b600073ffffffffffffffffffffffffffffffffffffffff82169050919050565b6000613a7682613a4b565b9050919050565b613a8681613a6b565b8114613a9157600080fd5b50565b600081359050613aa381613a7d565b92915050565b600080600060608486031215613ac257613ac16138c5565b5b600084013567ffffffffffffffff811115613ae057613adf6138ca565b5b613aec868287016139e7565b9350506020613afd86828701613a36565b9250506040613b0e86828701613a94565b9150509250925092565b60008115159050919050565b613b2d81613b18565b82525050565b6000602082019050613b486000830184613b24565b92915050565b613b5781613a15565b82525050565b6000602082019050613b726000830184613b4e565b92915050565b600081519050919050565b600082825260208201905092915050565b6000819050602082019050919050565b600081519050919050565b600082825260208201905092915050565b60005b83811015613bde578082015181840152602081019050613bc3565b60008484015250505050565b6000613bf582613ba4565b613bff8185613baf565b9350613c0f818560208601613bc0565b613c18816138d9565b840191505092915050565b6000613c2f8383613bea565b905092915050565b6000602082019050919050565b6000613c4f82613b78565b613c598185613b83565b935083602082028501613c6b85613b94565b8060005b85811015613ca75784840389528151613c888582613c23565b9450613c9383613c37565b925060208a01995050600181019050613c6f565b50829750879550505050505092915050565b60006020820190508181036000830152613cd38184613c44565b905092915050565b600060208284031215613cf157613cf06138c5565b5b6000613cff84828501613a94565b91505092915050565b60008060408385031215613d1f57613d1e6138c5565b5b600083013567ffffffffffffffff811115613d3d57613d3c6138ca565b5b613d49858286016139e7565b9250506020613d5a85828601613a36565b9150509250929050565b6000608082019050613d796000830187613b4e565b613d866020830186613b4e565b613d936040830185613b4e565b613da06060830184613b4e565b95945050505050565b600060208284031215613dbf57613dbe6138c5565b5b6000613dcd84828501613a36565b91505092915050565b613ddf81613a6b565b82525050565b6000602082019050613dfa6000830184613dd6565b92915050565b600060208284031215613e1657613e156138c5565b5b600082013567ffffffffffffffff811115613e3457613e336138ca565b5b613e40848285016139e7565b91505092915050565b600082825260208201905092915050565b6000613e6582613ba4565b613e6f8185613e49565b9350613e7f818560208601613bc0565b613e88816138d9565b840191505092915050565b6000610160820190508181036000830152613eae818e613e5a565b90508181036020830152613ec2818d613e5a565b90508181036040830152613ed6818c613e5a565b9050613ee5606083018b613b4e565b8181036080830152613ef7818a613e5a565b9050613f0660a0830189613dd6565b613f1360c0830188613b4e565b613f2060e0830187613b4e565b613f2e610100830186613b24565b613f3c610120830185613b24565b613f4a610140830184613b4e565b9c9b505050505050505050505050565b600080600080600060a08688031215613f7657613f756138c5565b5b600086013567ffffffffffffffff811115613f9457613f936138ca565b5b613fa0888289016139e7565b955050602086013567ffffffffffffffff811115613fc157613fc06138ca565b5b613fcd888289016139e7565b945050604086013567ffffffffffffffff811115613fee57613fed6138ca565b5b613ffa888289016139e7565b935050606061400b88828901613a36565b925050608086013567ffffffffffffffff81111561402c5761402b6138ca565b5b614038888289016139e7565b9150509295509295909350565b6000602082019050818103600083015261405f8184613e5a565b905092915050565b6000610140820190508181036000830152614082818d613e5a565b90508181036020830152614096818c613e5a565b90506140a5604083018b613b4e565b81810360608301526140b7818a613e5a565b905081810360808301526140cb8189613e5a565b90506140da60a0830188613b4e565b6140e760c0830187613dd6565b6140f460e0830186613b4e565b614102610100830185613b4e565b614110610120830184613b4e565b9b9a5050505050505050505050565b61412881613b18565b811461413357600080fd5b50565b6000813590506141458161411f565b92915050565b600080600060608486031215614164576141636138c5565b5b600084013567ffffffffffffffff811115614182576141816138ca565b5b61418e868287016139e7565b935050602061419f86828701613a36565b92505060406141b086828701614136565b9150509250925092565b600081519050919050565b600082825260208201905092915050565b6000819050602082019050919050565b6141ef81613a15565b82525050565b6141fe81613a6b565b82525050565b60006101408301600083015184820360008601526142228282613bea565b9150506020830151848203602086015261423c8282613bea565b915050604083015161425160408601826141e6565b50606083015184820360608601526142698282613bea565b915050608083015184820360808601526142838282613bea565b91505060a083015161429860a08601826141e6565b5060c08301516142ab60c08601826141f5565b5060e08301516142be60e08601826141e6565b506101008301516142d36101008601826141e6565b506101208301516142e86101208601826141e6565b508091505092915050565b60006142ff8383614204565b905092915050565b6000602082019050919050565b600061431f826141ba565b61432981856141c5565b93508360208202850161433b856141d6565b8060005b85811015614377578484038952815161435885826142f3565b945061436383614307565b925060208a0199505060018101905061433f565b50829750879550505050505092915050565b600060208201905081810360008301526143a38184614314565b905092915050565b60006060820190506143c06000830186613dd6565b6143cd6020830185613b24565b6143da6040830184613b4e565b949350505050565b600080600080600080600060e0888a031215614401576144006138c5565b5b600088013567ffffffffffffffff81111561441f5761441e6138ca565b5b61442b8a828b016139e7565b975050602088013567ffffffffffffffff81111561444c5761444b6138ca565b5b6144588a828b016139e7565b965050604088013567ffffffffffffffff811115614479576144786138ca565b5b6144858a828b016139e7565b95505060606144968a828b01613a36565b945050608088013567ffffffffffffffff8111156144b7576144b66138ca565b5b6144c38a828b016139e7565b93505060a088013567ffffffffffffffff8111156144e4576144e36138ca565b5b6144f08a828b016139e7565b92505060c06145018a828b01613a36565b91505092959891949750929550565b600060a0820190506145256000830188613dd6565b81810360208301526145378187613e5a565b9050818103604083015261454b8186613e5a565b905061455a6060830185613b24565b6145676080830184613b24565b9695505050505050565b60008060006060848603121561458a576145896138c5565b5b600061459886828701613a94565b935050602084013567ffffffffffffffff8111156145b9576145b86138ca565b5b6145c5868287016139e7565b925050604084013567ffffffffffffffff8111156145e6576145e56138ca565b5b6145f2868287016139e7565b9150509250925092565b600081905092915050565b600061461282613ba4565b61461c81856145fc565b935061462c818560208601613bc0565b80840191505092915050565b60006146448284614607565b915081905092915050565b7f4e487b7100000000000000000000000000000000000000000000000000000000600052603260045260246000fd5b7f4e487b7100000000000000000000000000000000000000000000000000000000600052602260045260246000fd5b600060028204905060018216806146c557607f821691505b6020821081036146d8576146d761467e565b5b50919050565b60008190508160005260206000209050919050565b60008154614700816146ad565b61470a81866145fc565b94506001821660008114614725576001811461473a5761476d565b60ff198316865281151582028601935061476d565b614743856146de565b60005b8381101561476557815481890152600182019150602081019050614746565b838801955050505b50505092915050565b600061478282846146f3565b915081905092915050565b7f4e487b7100000000000000000000000000000000000000000000000000000000600052601160045260246000fd5b60006147c782613a15565b91507fffffffffffffffffffffffffffffffffffffffffffffffffffffffffffffffff82036147f9576147f861478d565b5b600182019050919050565b7f496e76616c6964206f6666696365722061646472657373000000000000000000600082015250565b600061483a601783613e49565b915061484582614804565b602082019050919050565b600060208201905081810360008301526148698161482d565b9050919050565b7f4f66666963657220616c72656164792072656769737465726564000000000000600082015250565b60006148a6601a83613e49565b91506148b182614870565b602082019050919050565b600060208201905081810360008301526148d581614899565b9050919050565b7f496e76616c69642062696420696e646578000000000000000000000000000000600082015250565b6000614912601183613e49565b915061491d826148dc565b602082019050919050565b6000602082019050818103600083015261494181614905565b9050919050565b600061495382613a15565b915061495e83613a15565b92508282019050808211156149765761497561478d565b5b92915050565b600061498782613a15565b915061499283613a15565b92508282026149a081613a15565b915082820484148315176149b7576149b661478d565b5b5092915050565b7f4e487b7100000000000000000000000000000000000000000000000000000000600052601260045260246000fd5b60006149f882613a15565b9150614a0383613a15565b925082614a1357614a126149be565b5b828204905092915050565b7f4f6e6c792042505041206f666669636572732063616e20706572666f726d207460008201527f68697320616374696f6e00000000000000000000000000000000000000000000602082015250565b6000614a7a602a83613e49565b9150614a8582614a1e565b604082019050919050565b60006020820190508181036000830152614aa981614a6d565b9050919050565b7f50726f637572656d656e742049442063616e6e6f7420626520656d7074790000600082015250565b6000614ae6601e83613e49565b9150614af182614ab0565b602082019050919050565b60006020820190508181036000830152614b1581614ad9565b9050919050565b7f50726f637572656d656e7420616c726561647920657869737473000000000000600082015250565b6000614b52601a83613e49565b9150614b5d82614b1c565b602082019050919050565b60006020820190508181036000830152614b8181614b45565b9050919050565b60006020601f8301049050919050565b600082821b905092915050565b600060088302614bd57fffffffffffffffffffffffffffffffffffffffffffffffffffffffffffffffff82614b98565b614bdf8683614b98565b95508019841693508086168417925050509392505050565b6000819050919050565b6000614c1c614c17614c1284613a15565b614bf7565b613a15565b9050919050565b6000819050919050565b614c3683614c01565b614c4a614c4282614c23565b848454614ba5565b825550505050565b600090565b614c5f614c52565b614c6a818484614c2d565b505050565b5b81811015614c8e57614c83600082614c57565b600181019050614c70565b5050565b601f821115614cd357614ca4816146de565b614cad84614b88565b81016020851015614cbc578190505b614cd0614cc885614b88565b830182614c6f565b50505b505050565b600082821c905092915050565b6000614cf660001984600802614cd8565b1980831691505092915050565b6000614d0f8383614ce5565b9150826002028217905092915050565b614d2882613ba4565b67ffffffffffffffff811115614d4157614d406138ea565b5b614d4b82546146ad565b614d56828285614c92565b600060209050601f831160018114614d895760008415614d77578287015190505b614d818582614d03565b865550614de9565b601f198416614d97866146de565b60005b82811015614dbf57848901518255600182019150602085019450602081019050614d9a565b86831015614ddc5784890151614dd8601f891682614ce5565b8355505b6001600288020188555050505b505050505050565b60006040820190508181036000830152614e0b8185613e5a565b9050614e1a6020830184613dd6565b9392505050565b7f566f74696e67206973206e6f7420616374697665000000000000000000000000600082015250565b6000614e57601483613e49565b9150614e6282614e21565b602082019050919050565b60006020820190508181036000830152614e8681614e4a565b9050919050565b7f566f74696e6720706572696f6420686173206e6f7420656e6465640000000000600082015250565b6000614ec3601b83613e49565b9150614ece82614e8d565b602082019050919050565b60006020820190508181036000830152614ef281614eb6565b9050919050565b7f566f74696e6720616c726561647920636f6d706c657465640000000000000000600082015250565b6000614f2f601883613e49565b9150614f3a82614ef9565b602082019050919050565b60006020820190508181036000830152614f5e81614f22565b9050919050565b7f50726f637572656d656e74206e6f7420666f756e640000000000000000000000600082015250565b6000614f9b601583613e49565b9150614fa682614f65565b602082019050919050565b60006020820190508181036000830152614fca81614f8e565b9050919050565b7f566f74696e6720616c7265616479207374617274656400000000000000000000600082015250565b6000615007601683613e49565b915061501282614fd1565b602082019050919050565b6000602082019050818103600083015261503681614ffa565b9050919050565b7f50726f637572656d656e7420616c726561647920636f6d706c65746564000000600082015250565b6000615073601d83613e49565b915061507e8261503d565b602082019050919050565b600060208201905081810360008301526150a281615066565b9050919050565b7f4e6f20626964732073686f72746c697374656400000000000000000000000000600082015250565b60006150df601383613e49565b91506150ea826150a9565b602082019050919050565b6000602082019050818103600083015261510e816150d2565b9050919050565b7f4f6e6c79207265676973746572656420636974697a656e732063616e20766f7460008201527f6500000000000000000000000000000000000000000000000000000000000000602082015250565b6000615171602183613e49565b915061517c82615115565b604082019050919050565b600060208201905081810360008301526151a081615164565b9050919050565b7f436974697a656e206973206e6f74206163746976650000000000000000000000600082015250565b60006151dd601583613e49565b91506151e8826151a7565b602082019050919050565b6000602082019050818103600083015261520c816151d0565b9050919050565b7f566f74696e67206973206e6f742061637469766520666f72207468697320707260008201527f6f637572656d656e740000000000000000000000000000000000000000000000602082015250565b600061526f602983613e49565b915061527a82615213565b604082019050919050565b6000602082019050818103600083015261529e81615262565b9050919050565b7f566f74696e6720706572696f642068617320656e646564000000000000000000600082015250565b60006152db601783613e49565b91506152e6826152a5565b602082019050919050565b6000602082019050818103600083015261530a816152ce565b9050919050565b7f416c726561647920766f74656420666f72207468697320626964000000000000600082015250565b6000615347601a83613e49565b915061535282615311565b602082019050919050565b600060208201905081810360008301526153768161533a565b9050919050565b60006060820190506153926000830186613b4e565b61539f6020830185613dd6565b6153ac6040830184613b24565b949350505050565b7f50726f637572656d656e7420766f74696e6720616c726561647920636f6d706c60008201527f6574656400000000000000000000000000000000000000000000000000000000602082015250565b6000615410602483613e49565b915061541b826153b4565b604082019050919050565b6000602082019050818103600083015261543f81615403565b9050919050565b7f4d6178696d756d203420626964732063616e2062652073686f72746c6973746560008201527f6400000000000000000000000000000000000000000000000000000000000000602082015250565b60006154a2602183613e49565b91506154ad82615446565b604082019050919050565b600060208201905081810360008301526154d181615495565b9050919050565b60006154e382613a15565b91506154ee83613a15565b92508282039050818111156155065761550561478d565b5b92915050565b60006040820190506155216000830185613b4e565b81810360208301526155338184613e5a565b90509392505050565b7f496e76616c696420636974697a656e2061646472657373000000000000000000600082015250565b6000615572601783613e49565b915061557d8261553c565b602082019050919050565b600060208201905081810360008301526155a181615565565b9050919050565b7f436974697a656e20616c72656164792072656769737465726564000000000000600082015250565b60006155de601a83613e49565b91506155e9826155a8565b602082019050919050565b6000602082019050818103600083015261560d816155d1565b905091905056fea2646970667358221220f94683a83111a14766dd6753fc6c8bf649a08ce9b16ade3a337e5473154cd9ae64736f6c63430008130033",
  "linkReferences": {},
  "deployedLinkReferences": {}
}