{
  "_format": "hh-sol-artifact-1",
  "contractName": "ProcurementVoting",
  "sourceName": "contracts/ProcurementVoting.sol",
  "abi": [
    {
      "inputs": [],
      "stateMutability": "nonpayable",
      "type": "constructor"
    },
    {
      "anonymous": false,
      "inputs": [
        {
          "indexed": true,
          "internalType": "string",
          "name": "procurementId",
          "type": "string"
        },
        {
          "indexed": false,
          "internalType": "uint256",
          "name": "bidIndex",
          "type": "uint256"
        },
        {
          "indexed": false,
          "internalType": "string",
          "name": "vendorId",
          "type": "string"
        }
      ],
      "name": "BidShortlisted",
      "type": "event"
    },
    {
      "anonymous": false,
      "inputs": [
        {
          "indexed": true,
          "internalType": "address",
          "name": "officer",
          "type": "address"
        }
      ],
      "name": "BppaOfficerRegistered",
      "type": "event"
    },
    {
      "anonymous": false,
      "inputs": [
        {
          "indexed": true,
          "internalType": "address",
          "name": "citizen",
          "type": "address"
        },
        {
          "indexed": false,
          "internalType": "string",
          "name": "tiin",
          "type": "string"
        }
      ],
      "name": "CitizenRegistered",
      "type": "event"
    },
    {
      "anonymous": false,
      "inputs": [
        {
          "indexed": true,
          "internalType": "string",
          "name": "procurementId",
          "type": "string"
        },
        {
          "indexed": false,
          "internalType": "string",
          "name": "title",
          "type": "string"
        },
        {
          "indexed": false,
          "internalType": "address",
          "name": "bppaOfficer",
          "type": "address"
        }
      ],
      "name": "ProcurementCreated",
      "type": "event"
    },
    {
      "anonymous": false,
      "inputs": [
        {
          "indexed": true,
          "internalType": "string",
          "name": "procurementId",
          "type": "string"
        },
        {
          "indexed": false,
          "internalType": "uint256",
          "name": "bidIndex",
          "type": "uint256"
        },
        {
          "indexed": false,
          "internalType": "address",
          "name": "citizen",
          "type": "address"
        },
        {
          "indexed": false,
          "internalType": "bool",
          "name": "vote",
          "type": "bool"
        }
      ],
      "name": "VoteCast",
      "type": "event"
    },
    {
      "anonymous": false,
      "inputs": [
        {
          "indexed": true,
          "internalType": "string",
          "name": "procurementId",
          "type": "string"
        },
        {
          "indexed": false,
          "internalType": "uint256",
          "name": "winningBidIndex",
          "type": "uint256"
        }
      ],
      "name": "VotingCompleted",
      "type": "event"
    },
    {
      "anonymous": false,
      "inputs": [
        {
          "indexed": true,
          "internalType": "string",
          "name": "procurementId",
          "type": "string"
        },
        {
          "indexed": false,
          "internalType": "uint256",
          "name": "votingEnds",
          "type": "uint256"
        }
      ],
      "name": "VotingStarted",
      "type": "event"
    },
    {
      "inputs": [
        {
          "internalType": "uint256",
          "name": "",
          "type": "uint256"
        }
      ],
      "name": "allCitizens",
      "outputs": [
        {
          "internalType": "address",
          "name": "",
          "type": "address"
        }
      ],
      "stateMutability": "view",
      "type": "function"
    },
    {
      "inputs": [
        {
          "internalType": "uint256",
          "name": "",
          "type": "uint256"
        }
      ],
      "name": "allProcurementIds",
      "outputs": [
        {
          "internalType": "string",
          "name": "",
          "type": "string"
        }
      ],
      "stateMutability": "view",
      "type": "function"
    },
    {
      "inputs": [
        {
          "internalType": "string",
          "name": "_procurementId",
          "type": "string"
        },
        {
          "internalType": "uint256",
          "name": "_bidIndex",
          "type": "uint256"
        },
        {
          "internalType": "bool",
          "name": "_vote",
          "type": "bool"
        }
      ],
      "name": "castVote",
      "outputs": [],
      "stateMutability": "nonpayable",
      "type": "function"
    },
    {
      "inputs": [
        {
          "internalType": "address",
          "name": "",
          "type": "address"
        }
      ],
      "name": "citizens",
      "outputs": [
        {
          "internalType": "address",
          "name": "citizenAddress",
          "type": "address"
        },
        {
          "internalType": "string",
          "name": "tiin",
          "type": "string"
        },
        {
          "internalType": "string",
          "name": "fullName",
          "type": "string"
        },
        {
          "internalType": "bool",
          "name": "isRegistered",
          "type": "bool"
        },
        {
          "internalType": "bool",
          "name": "isActive",
          "type": "bool"
        }
      ],
      "stateMutability": "view",
      "type": "function"
    },
    {
      "inputs": [
        {
          "internalType": "string",
          "name": "_procurementId",
          "type": "string"
        }
      ],
      "name": "completeVoting",
      "outputs": [],
      "stateMutability": "nonpayable",
      "type": "function"
    },
    {
      "inputs": [
        {
          "internalType": "string",
          "name": "_procurementId",
          "type": "string"
        },
        {
          "internalType": "string",
          "name": "_title",
          "type": "string"
        },
        {
          "internalType": "string",
          "name": "_description",
          "type": "string"
        },
        {
          "internalType": "uint256",
          "name": "_estimatedValue",
          "type": "uint256"
        },
        {
          "internalType": "string",
          "name": "_category",
          "type": "string"
        }
      ],
      "name": "createProcurement",
      "outputs": [],
      "stateMutability": "nonpayable",
      "type": "function"
    },
    {
      "inputs": [],
      "name": "getActiveProcurements",
      "outputs": [
        {
          "internalType": "string[]",
          "name": "",
          "type": "string[]"
        }
      ],
      "stateMutability": "view",
      "type": "function"
    },
    {
      "inputs": [
        {
          "internalType": "string",
          "name": "_procurementId",
          "type": "string"
        },
        {
          "internalType": "uint256",
          "name": "_bidIndex",
          "type": "uint256"
        }
      ],
      "name": "getBid",
      "outputs": [
        {
          "internalType": "string",
          "name": "vendorId",
          "type": "string"
        },
        {
          "internalType": "string",
          "name": "companyName",
          "type": "string"
        },
        {
          "internalType": "uint256",
          "name": "bidAmount",
          "type": "uint256"
        },
        {
          "internalType": "string",
          "name": "technicalProposal",
          "type": "string"
        },
        {
          "internalType": "string",
          "name": "costingDocument",
          "type": "string"
        },
        {
          "internalType": "uint256",
          "name": "completionDays",
          "type": "uint256"
        },
        {
          "internalType": "address",
          "name": "bppaOfficer",
          "type": "address"
        },
        {
          "internalType": "uint256",
          "name": "shortlistedTimestamp",
          "type": "uint256"
        },
        {
          "internalType": "uint256",
          "name": "votesYes",
          "type": "uint256"
        },
        {
          "internalType": "uint256",
          "name": "votesNo",
          "type": "uint256"
        }
      ],
      "stateMutability": "view",
      "type": "function"
    },
    {
      "inputs": [
        {
          "internalType": "string",
          "name": "_procurementId",
          "type": "string"
        }
      ],
      "name": "getBidsForProcurement",
      "outputs": [
        {
          "components": [
            {
              "internalType": "string",
              "name": "vendorId",
              "type": "string"
            },
            {
              "internalType": "string",
              "name": "companyName",
              "type": "string"
            },
            {
              "internalType": "uint256",
              "name": "bidAmount",
              "type": "uint256"
            },
            {
              "internalType": "string",
              "name": "technicalProposal",
              "type": "string"
            },
            {
              "internalType": "string",
              "name": "costingDocument",
              "type": "string"
            },
            {
              "internalType": "uint256",
              "name": "completionDays",
              "type": "uint256"
            },
            {
              "internalType": "address",
              "name": "bppaOfficer",
              "type": "address"
            },
            {
              "internalType": "uint256",
              "name": "shortlistedTimestamp",
              "type": "uint256"
            },
            {
              "internalType": "uint256",
              "name": "votesYes",
              "type": "uint256"
            },
            {
              "internalType": "uint256",
              "name": "votesNo",
              "type": "uint256"
            }
          ],
          "internalType": "struct ProcurementVoting.Bid[]",
          "name": "",
          "type": "tuple[]"
        }
      ],
      "stateMutability": "view",
      "type": "function"
    },
    {
      "inputs": [
        {
          "internalType": "string",
          "name": "_procurementId",
          "type": "string"
        }
      ],
      "name": "getProcurement",
      "outputs": [
        {
          "internalType": "string",
          "name": "procurementId",
          "type": "string"
        },
        {
          "internalType": "string",
          "name": "title",
          "type": "string"
        },
        {
          "internalType": "string",
          "name": "description",
          "type": "string"
        },
        {
          "internalType": "uint256",
          "name": "estimatedValue",
          "type": "uint256"
        },
        {
          "internalType": "string",
          "name": "category",
          "type": "string"
        },
        {
          "internalType": "address",
          "name": "bppaOfficer",
          "type": "address"
        },
        {
          "internalType": "uint256",
          "name": "createdTimestamp",
          "type": "uint256"
        },
        {
          "internalType": "uint256",
          "name": "votingEnds",
          "type": "uint256"
        },
        {
          "internalType": "bool",
          "name": "isActive",
          "type": "bool"
        },
        {
          "internalType": "bool",
          "name": "isCompleted",
          "type": "bool"
        },
        {
          "internalType": "uint256",
          "name": "winningBidIndex",
          "type": "uint256"
        }
      ],
      "stateMutability": "view",
      "type": "function"
    },
    {
      "inputs": [],
      "name": "getTotalProcurements",
      "outputs": [
        {
          "internalType": "uint256",
          "name": "",
          "type": "uint256"
        }
      ],
      "stateMutability": "view",
      "type": "function"
    },
    {
      "inputs": [],
      "name": "getTotalRegisteredCitizens",
      "outputs": [
        {
          "internalType": "uint256",
          "name": "",
          "type": "uint256"
        }
      ],
      "stateMutability": "view",
      "type": "function"
    },
    {
      "inputs": [
        {
          "internalType": "string",
          "name": "_procurementId",
          "type": "string"
        },
        {
          "internalType": "uint256",
          "name": "_bidIndex",
          "type": "uint256"
        }
      ],
      "name": "getVoteResults",
      "outputs": [
        {
          "internalType": "uint256",
          "name": "votesYes",
          "type": "uint256"
        },
        {
          "internalType": "uint256",
          "name": "votesNo",
          "type": "uint256"
        },
        {
          "internalType": "uint256",
          "name": "totalVotes",
          "type": "uint256"
        },
        {
          "internalType": "uint256",
          "name": "yesPercentage",
          "type": "uint256"
        }
      ],
      "stateMutability": "view",
      "type": "function"
    },
    {
      "inputs": [
        {
          "internalType": "string",
          "name": "",
          "type": "string"
        },
        {
          "internalType": "uint256",
          "name": "",
          "type": "uint256"
        },
        {
          "internalType": "address",
          "name": "",
          "type": "address"
        }
      ],
      "name": "hasVoted",
      "outputs": [
        {
          "internalType": "bool",
          "name": "",
          "type": "bool"
        }
      ],
      "stateMutability": "view",
      "type": "function"
    },
    {
      "inputs": [
        {
          "internalType": "string",
          "name": "_procurementId",
          "type": "string"
        },
        {
          "internalType": "uint256",
          "name": "_bidIndex",
          "type": "uint256"
        },
        {
          "internalType": "address",
          "name": "_citizen",
          "type": "address"
        }
      ],
      "name": "hasVotedForBid",
      "outputs": [
        {
          "internalType": "bool",
          "name": "",
          "type": "bool"
        }
      ],
      "stateMutability": "view",
      "type": "function"
    },
    {
      "inputs": [
        {
          "internalType": "address",
          "name": "",
          "type": "address"
        }
      ],
      "name": "isBppaOfficer",
      "outputs": [
        {
          "internalType": "bool",
          "name": "",
          "type": "bool"
        }
      ],
      "stateMutability": "view",
      "type": "function"
    },
    {
      "inputs": [
        {
          "internalType": "address",
          "name": "",
          "type": "address"
        }
      ],
      "name": "isRegisteredCitizen",
      "outputs": [
        {
          "internalType": "bool",
          "name": "",
          "type": "bool"
        }
      ],
      "stateMutability": "view",
      "type": "function"
    },
    {
      "inputs": [
        {
          "internalType": "string",
          "name": "",
          "type": "string"
        },
        {
          "internalType": "uint256",
          "name": "",
          "type": "uint256"
        }
      ],
      "name": "procurementBids",
      "outputs": [
        {
          "internalType": "string",
          "name": "vendorId",
          "type": "string"
        },
        {
          "internalType": "string",
          "name": "companyName",
          "type": "string"
        },
        {
          "internalType": "uint256",
          "name": "bidAmount",
          "type": "uint256"
        },
        {
          "internalType": "string",
          "name": "technicalProposal",
          "type": "string"
        },
        {
          "internalType": "string",
          "name": "costingDocument",
          "type": "string"
        },
        {
          "internalType": "uint256",
          "name": "completionDays",
          "type": "uint256"
        },
        {
          "internalType": "address",
          "name": "bppaOfficer",
          "type": "address"
        },
        {
          "internalType": "uint256",
          "name": "shortlistedTimestamp",
          "type": "uint256"
        },
        {
          "internalType": "uint256",
          "name": "votesYes",
          "type": "uint256"
        },
        {
          "internalType": "uint256",
          "name": "votesNo",
          "type": "uint256"
        }
      ],
      "stateMutability": "view",
      "type": "function"
    },
    {
      "inputs": [
        {
          "internalType": "string",
          "name": "",
          "type": "string"
        }
      ],
      "name": "procurements",
      "outputs": [
        {
          "internalType": "string",
          "name": "procurementId",
          "type": "string"
        },
        {
          "internalType": "string",
          "name": "title",
          "type": "string"
        },
        {
          "internalType": "string",
          "name": "description",
          "type": "string"
        },
        {
          "internalType": "uint256",
          "name": "estimatedValue",
          "type": "uint256"
        },
        {
          "internalType": "string",
          "name": "category",
          "type": "string"
        },
        {
          "internalType": "address",
          "name": "bppaOfficer",
          "type": "address"
        },
        {
          "internalType": "uint256",
          "name": "createdTimestamp",
          "type": "uint256"
        },
        {
          "internalType": "uint256",
          "name": "votingEnds",
          "type": "uint256"
        },
        {
          "internalType": "bool",
          "name": "isActive",
          "type": "bool"
        },
        {
          "internalType": "bool",
          "name": "isCompleted",
          "type": "bool"
        },
        {
          "internalType": "uint256",
          "name": "winningBidIndex",
          "type": "uint256"
        }
      ],
      "stateMutability": "view",
      "type": "function"
    },
    {
      "inputs": [
        {
          "internalType": "address",
          "name": "_officerAddress",
          "type": "address"
        }
      ],
      "name": "registerBppaOfficer",
      "outputs": [],
      "stateMutability": "nonpayable",
      "type": "function"
    },
    {
      "inputs": [
        {
          "internalType": "address",
          "name": "_citizenAddress",
          "type": "address"
        },
        {
          "internalType": "string",
          "name": "_tiin",
          "type": "string"
        },
        {
          "internalType": "string",
          "name": "_fullName",
          "type": "string"
        }
      ],
      "name": "registerCitizen",
      "outputs": [],
      "stateMutability": "nonpayable",
      "type": "function"
    },
    {
      "inputs": [
        {
          "internalType": "string",
          "name": "_procurementId",
          "type": "string"
        },
        {
          "internalType": "string",
          "name": "_vendorId",
          "type": "string"
        },
        {
          "internalType": "string",
          "name": "_companyName",
          "type": "string"
        },
        {
          "internalType": "uint256",
          "name": "_bidAmount",
          "type": "uint256"
        },
        {
          "internalType": "string",
          "name": "_technicalProposal",
          "type": "string"
        },
        {
          "internalType": "string",
          "name": "_costingDocument",
          "type": "string"
        },
        {
          "internalType": "uint256",
          "name": "_completionDays",
          "type": "uint256"
        }
      ],
      "name": "shortlistBid",
      "outputs": [],
      "stateMutability": "nonpayable",
      "type": "function"
    },
    {
      "inputs": [
        {
          "internalType": "string",
          "name": "_procurementId",
          "type": "string"
        },
        {
          "internalType": "uint256",
          "name": "_votingDurationDays",
          "type": "uint256"
        }
      ],
      "name": "startVoting",
      "outputs": [],
      "stateMutability": "nonpayable",
      "type": "function"
    },
    {
      "inputs": [
        {
          "internalType": "string",
          "name": "",
          "type": "string"
        },
        {
          "internalType": "uint256",
          "name": "",
          "type": "uint256"
        },
        {
          "internalType": "address",
          "name": "",
          "type": "address"
        }
      ],
      "name": "votes",
      "outputs": [
        {
          "internalType": "address",
          "name": "citizen",
          "type": "address"
        },
        {
          "internalType": "bool",
          "name": "vote",
          "type": "bool"
        },
        {
          "internalType": "uint256",
          "name": "timestamp",
          "type": "uint256"
        }
      ],
      "stateMutability": "view",
      "type": "function"
    }
  ],
  "bytecode": "0x6080806040523461001657612684908161001c8239f35b600080fdfe6040608081526004908136101561001557600080fd5b60009060e08235811c90816311a3a86914611e7857816318097a5f14611e595781631d56a96e14611cab5781631f90e5bf14611bab578163211a4ed814611ad4578163358b8f3a14611a96578163570d64e614611a5457816358f7497214611a355781635daf88011461191757816361c5df2f146116085781636a541cfc146113395781636dade938146111095781637726dfce146110a75781638a0425b114610ff55781639237f3bc14610c055781639ecc759c14610bc7578163a59f715c14610b0d578163ce8f32a21461096a578163cf6c6c2a146108f4578163d07aaee21461055157508063d4f910a7146104b6578063d899781b146103ec578063d8f6d4e31461038d5763e8590e761461012c57600080fd5b3461038957606036600319011261038957610145611f5c565b6001600160401b039190602435838111610385576101669036908701611f01565b916044358481116103815761017e9036908801611f01565b6001600160a01b0392831694909290851561033e578587526020936006855260ff84892054166102fb5783519160a08301908111838210176102e8578452868252848201868152848301918252600160608401818152608085018281528a8c528c8952878c20955186546001600160a01b031916908816178655925161025195919461023a93600393926102239291610219919085016122b7565b51600283016122b7565b0192511515839060ff801983541691151516179055565b51815461ff00191690151560081b61ff0016179055565b84865260068352818620805460ff19166001179055600854600160401b8110156102d557916102cf916102ad8460017f106c826edcad7be8b769067aebb234b0e19866d19c9ebe48e6f61e994b9e03aa9897960160085561207d565b819291549060031b9189831b921b191617905551928284938452830190611fda565b0390a280f35b634e487b7160e01b875260418852602487fd5b634e487b7160e01b895260418a52602489fd5b835162461bcd60e51b8152808a01869052601a60248201527f436974697a656e20616c726561647920726567697374657265640000000000006044820152606490fd5b825162461bcd60e51b81526020818a0152601760248201527f496e76616c696420636974697a656e20616464726573730000000000000000006044820152606490fd5b8580fd5b8480fd5b5080fd5b50346103895760ff816020936103bd856103a636611f72565b939183879492945193828580945193849201611fb7565b60039082019081520301902090835286528282206001600160a01b039091168252855220549151911615158152f35b5090346104b35760203660031901126104b35782356001600160401b0381116103895760206104af926104256104389336908801611f01565b9082865194838680955193849201611fb7565b8201908152030190209161044b83612176565b9261045860018201612176565b9361046560028301612176565b956104766003840154918401612176565b60018060a01b036005850154166006850154916007860154936009600888015497015497519a8b9a60ff808a60081c169916978c6120b4565b0390f35b80fd5b509190346104b35760203660031901126104b3576001600160a01b0391839190836104df611f5c565b16825260205220908154169060ff6105376104fc60018401612176565b94600361050b60028601612176565b9401549361052a8251978897885260a0602089015260a0880190611fda565b9186830390870152611fda565b918181161515606085015260081c16151560808301520390f35b939050346108f057836003193601126108f0576001600160401b03908035828111610385576105839036908301611f01565b602480358481116108ec5761059b9036908501611f01565b966044358581116108e8576105b39036908601611f01565b906084358681116108e4576105cb9036908701611f01565b9560a4359081116108e4576105e39036908701611f01565b33895260209660058852888a205460ff166105fd906123c6565b88519386519489818d828b019861061581848c611fb7565b82019081520301902060060154151561062d90612445565b895189818d8a5161063f81848c611fb7565b8201908152030190206008015460081c60ff1661089757878a518a818a5161066881838c611fb7565b8101600181520301902054101561084b5788938a8c9485948f948b906106ec85519a8b986106958a611ec4565b89528089019283528c878a0194606435865260608b0196875260808b0197885260a08b019860c4358a5261012060c08d019b338d528d019c8d42905261010081019e8f52019d8e5251938492839251928391611fb7565b81016001815203019020805490600160401b82101561083557906107159160018201815561221c565b9a909a610821578f9a989592948f916107b29d9b989560099a9761074f8d60016107689861074761075f9751846122b7565b5191016122b7565b5160028d01555160038c016122b7565b519089016122b7565b516005870155516006860180546001600160a01b0319166001600160a01b039290921691909117905551600785015551600884015551910155875185519093849282908490611fb7565b81016001815203019020549260001984019384116108105750507fd2f996805704b513d8aee1e83f96044a7b82baa96831932e470e2be8fe8dc3039394956107fc6102cf92612425565b958080519586958652850152830190611fda565b634e487b7160e01b87526011905285fd5b505050898f808e634e487b7160e01b825252fd5b50505050898f60418e634e487b7160e01b835252fd5b895162461bcd60e51b81528089018a90526021818801527f4d6178696d756d203420626964732063616e2062652073686f72746c697374656044820152601960fa1b6064820152608490fd5b608488878b8d519262461bcd60e51b8452830152808201527f50726f637572656d656e7420766f74696e6720616c726561647920636f6d706c604482015263195d195960e21b6064820152fd5b8880fd5b8780fd5b8680fd5b8280fd5b505034610389578061092591606093602061090e36611f72565b969183869492945193828580945193849201611fb7565b8101600281520301902090825260205281812060018060a01b038095168252602052209060ff60018354930154928251948116855260a01c1615156020840152820152f35b929050346104b357602093846003193601126103895780356001600160401b0381116108f05761099c91369101611f01565b91846109b082519485815193849201611fb7565b830192858160019586815203019020948554916109cc836124fb565b926109d982519485611ee0565b8084528284018098865283862086915b838310610ae25750505050805195828701938388525180945281870190828560051b8901019895925b858410610a1f57888a0389f35b909192939495968580829b603f198c82030187528a5190610a90610a7d610a62610a528551610140808752860190611fda565b8686015185820388870152611fda565b88850151898501526060808601519085830390860152611fda565b6080808501519084830390850152611fda565b60a0808401519083015260c0808401516001600160a01b031690830152878301518883015261010080840151908301526101209283015192909101919091529b99019796959190910193019190610a12565b97600a86829c9a610af7859b98999a9b612512565b81520192019201919099979996959493966109e9565b8284346104b357506104af610b7f610b796020610b6a610b2c36611fff565b9290875190610b5a815192848181850195610b48818389611fb7565b810160018152030190205486106124ac565b8851938492839251928391611fb7565b8101600181520301902061221c565b50612512565b9182519260208101519482820151906060830151608084015160a08501519160018060a01b0360c087015116938601519461012061010088015197015197519a8b9a8b612238565b5050346103895760203660031901126103895760209160ff9082906001600160a01b03610bf2611f5c565b1681526005855220541690519015158152f35b838584346108f05760603660031901126108f0576001600160401b0390823582811161038557610c389036908501611f01565b9060249182359360449586359182151595868403610ff157338a5260209860068a5260ff878c20541615610fa757338b52838a5260ff6003888d20015460081c1615610f6f5790899493929160ff6008610ca3888f8b908d519b8c9483869451928391019e8f611fb7565b82019081520301902001541615610f1d576007610ccd8c888f8b8d51948593849251928391611fb7565b82019081520301902001544211610edd57610d0488518c818a51610cf281838d611fb7565b81016001815203019020548b106124ac565b87518b818951610d1581838c611fb7565b810160038152030190208a8d528b52878c20338d528b5260ff888d205416610e9d57508651926060840192831184841017610e8c57505096888694610e5f94606099979460018e7f43fda53d9df661d064e67f88934200a48401afe5840a8cff318f0de710fe6a6d9d879c523383528583018b81528a80850192428452610da889898d8551938492839251928391611fb7565b810160028152030190208a8252895281812033825289522093838060a01b0390511684549160ff60a01b9051151560a01b16916affffffffffffffffffffff60a81b1617178355519101558c84885185818951610e0681838a611fb7565b60039082019081520301902091528352868d20338e528352868d20805460ff1916600117905515610e715791610b6a610e4c926008948851809381928951928391611fb7565b5001610e5881546124ec565b9055612425565b9581519384523390840152820152a280f35b91610b6a610e4c926009948851809381928951928391611fb7565b634e487b7160e01b8c52604190528afd5b7f416c726561647920766f74656420666f722074686973206269640000000000008491601a6064948e8c519562461bcd60e51b8752860152840152820152fd5b7f566f74696e6720706572696f642068617320656e646564000000000000000000849160176064948e8c519562461bcd60e51b8752860152840152820152fd5b7f566f74696e67206973206e6f742061637469766520666f722074686973207072849160296084948e8c519562461bcd60e51b8752860152840152820152681bd8dd5c995b595b9d60ba1b6064820152fd5b74436974697a656e206973206e6f742061637469766560581b849160156064948d8b519562461bcd60e51b8752860152840152820152fd5b7f4f6e6c79207265676973746572656420636974697a656e732063616e20766f74849160216084948d8b519562461bcd60e51b8752860152840152820152606560f81b6064820152fd5b8980fd5b505090346104b35760209061102061100c36611fff565b939081865193828580945193849201611fb7565b810160018152030190209081548310156104b357506104af916110429161221c565b509161104d83612176565b9261105a60018201612176565b9460028201549061107861107060038501612176565b918401612176565b60058401549060018060a01b03600686015416926007860154946009600888015497015497519a8b9a8b612238565b505090346104b35760203660031901126104b3578235600754811015610389576110d090612030565b9390936110f7576104af836110e486612176565b9051918291602083526020830190611fda565b634e487b7160e01b8252819052602490fd5b5050346103895761111936611fff565b3384526020916005835261113260ff85872054166123c6565b835191611160600683519486818187019761114e81838b611fb7565b81018b81520301902001541515612445565b60ff600886518681865161117581838b611fb7565b81018b8152030190200154166112fd5760ff600886518681865161119a81838b611fb7565b81018b815203019020015460081c166112ba578451848184516111be818389611fb7565b81016001815203019020541561128157620151809081810291818304149015171561126e57839291600861124b7e974e7a9f2acf0f113201dd02a3c9904153c5c7f5a5b71959eb47bb505f9b8c966112196112659542612489565b958660078c848d5180928a5161123081848a611fb7565b82019081520301902001558951809381928751928391611fb7565b81018b81520301902001805460ff19166001179055612425565b9351908152a280f35b634e487b7160e01b865260118752602486fd5b845162461bcd60e51b81528088018590526013602482015272139bc8189a591cc81cda1bdc9d1b1a5cdd1959606a1b6044820152606490fd5b845162461bcd60e51b8152808801859052601d60248201527f50726f637572656d656e7420616c726561647920636f6d706c657465640000006044820152606490fd5b845162461bcd60e51b81528088018590526016602482015275159bdd1a5b99c8185b1c9958591e481cdd185c9d195960521b6044820152606490fd5b5050913461038957602092836003193601126108f05781356001600160401b0381116116045761136c9036908401611f01565b903384526005855261138360ff82862054166123c6565b80519282519060ff8785019261139a818886611fb7565b86018781528689600898899303019020015416156115ca5760078351888187516113c5818389611fb7565b81018a81520301902001544211156115875760ff858451898188516113eb81838a611fb7565b81018b8152030190200154861c1661154457508480805b84518651611411818388611fb7565b8101908a8160019384815203019020548210156114a25787908382611454856114468f8b8e8e51938492839251928391611fb7565b81018881520301902061221c565b5001541161146d575b5050611468906124ec565b611402565b829450611497929193508a875180928a5161148981848c611fb7565b82019081520301902061221c565b50015481863861145d565b88867f29a06f4f1c2767f6a8508ed9bf8bf6df701f4b3ffb47b562dcd597c4d5e620718c876112658c8e611528858e8660098c848d5180928a516114e781848a611fb7565b8201908152030190200155838b838c5180928951611506818489611fb7565b8201908152030190200160ff1981541690558951809381928751928391611fb7565b81018b81520301902001805461ff001916610100179055612425565b825162461bcd60e51b8152908101879052601860248201527f566f74696e6720616c726561647920636f6d706c6574656400000000000000006044820152606490fd5b825162461bcd60e51b8152908101879052601b60248201527f566f74696e6720706572696f6420686173206e6f7420656e64656400000000006044820152606490fd5b825162461bcd60e51b81529081018790526014602482015273566f74696e67206973206e6f742061637469766560601b6044820152606490fd5b8380fd5b919050346108f05760a03660031901126108f0576001600160401b039084358281116103855761163b9036908701611f01565b602435838111610381576116529036908801611f01565b926044358181116108ec5761166a9036908901611f01565b906084359081116108ec576116829036908901611f01565b943387526020956005875261169c60ff868a2054166123c6565b8351156118d45784519260068551948981818901976116bc81838b611fb7565b81018d815203019020015461189157869389938785948b86958351998a966116e388611e92565b8c885283880191825285880192835260608801936064358552608089019586528d8a60a08b0198338a5260c08c019a428c528c019b828d5261010081019e8f5261012081019d8e52610140019e8f52518094819351809261174392611fb7565b8201908152030190209a51611758908c6122b7565b516117669060018c016122b7565b516117749060028b016122b7565b51600389015551611787908e89016122b7565b6005870190600160a01b600190039051166bffffffffffffffffffffffff60a01b82541617905551600686015551600785015560088401915115156117d890839060ff801983541691151516179055565b51815461ff00191690151560081b61ff0016179055519060090155600754600160401b81101561187e578060016118129201600755612030565b61186c57816118477f2b5849cf31662736c8060bb55d40ce1a3799e0564b29a3c63aba660ab3ee523c95949361184c936122b7565b612425565b936118608251938385948552840190611fda565b9033908301520390a280f35b634e487b7160e01b8652858752602486fd5b634e487b7160e01b865260418752602486fd5b855162461bcd60e51b8152808b01899052601a60248201527f50726f637572656d656e7420616c7265616479206578697374730000000000006044820152606490fd5b845162461bcd60e51b8152808a01889052601e60248201527f50726f637572656d656e742049442063616e6e6f7420626520656d70747900006044820152606490fd5b90508383346104b35760203660031901126104b35781356001600160401b0381116103895760206104af93926119536119669336908601611f01565b9082885194838680955193849201611fb7565b82019081520301902084519161197b83611e92565b61198482612176565b835261199260018301612176565b94602084019586526119a660028401612176565b968085019788526119c4600385015493606087019485528501612176565b80608087015260018060a01b03600586015416908160a08801526006860154928360c089015260078701548095890152600887015495600960ff808916151598896101008d015260081c16151598896101208c015201549889610140820152519a519b51905191519b8c9b8c6120b4565b5050346103895781600319360112610389576020906008549051908152f35b505082346108f05760203660031901126108f05735916008548310156104b35750611a8060209261207d565b905491519160018060a01b039160031b1c168152f35b5050346103895760203660031901126103895760209160ff9082906001600160a01b03611ac1611f5c565b1681526006855220541690519015158152f35b50503461038957611b1b610b796020610b6a611aef36611fff565b9290865190611b0b815192848181850195610b48818389611fb7565b8751938492839251928391611fb7565b91610100830191611b356101208451950194855190612489565b9182159081611b9f57845191606483029280840460641490151715611b8c57611b79575060809550829004925b519351815194855260208501528301526060820152f35b634e487b7160e01b815260128752602490fd5b634e487b7160e01b825260118852602482fd5b90506080955092611b62565b838584346108f05760203660031901126108f0576001600160a01b03611bcf611f5c565b16918215611c6957828452600560205260ff8285205416611c27575081835260056020528220805460ff191660011790557f93c99ed6cec4cafd667d99f8a8750597ff22057275c37404ade4344c8ce929248280a280f35b6020606492519162461bcd60e51b8352820152601a60248201527f4f66666963657220616c726561647920726567697374657265640000000000006044820152fd5b6020606492519162461bcd60e51b8352820152601760248201527f496e76616c6964206f66666963657220616464726573730000000000000000006044820152fd5b8284346104b357806003193601126104b357808160078054915b828110611e005750611cd6836124fb565b92611ce386519485611ee0565b808452611cf2601f19916124fb565b01845b818110611def5750508390845b838110611d685750505050825191602080840190808552835180925280868601968360051b870101940192955b828710611d3c5785850386f35b909192938280611d58600193603f198a82030186528851611fda565b9601920196019592919092611d2f565b60ff6008611d7e611d7884612030565b506125a7565b01541680611dd7575b611d9a575b611d95906124ec565b611d02565b91611dcf611d9591611db4611dae86612030565b50612176565b611dbe828961263a565b52611dc9818861263a565b506124ec565b929050611d8c565b5081611de5611d7883612030565b0154421115611d87565b806060602080938801015201611cf5565b60ff6008611e10611d7884612030565b01541680611e41575b611e2c575b611e27906124ec565b611cc5565b92611e39611e27916124ec565b939050611e1e565b5081611e4f611d7883612030565b0154421115611e19565b5050346103895781600319360112610389576020906007549051908152f35b5050346103895760ff816020936103bd856103a636611f72565b61016081019081106001600160401b03821117611eae57604052565b634e487b7160e01b600052604160045260246000fd5b61014081019081106001600160401b03821117611eae57604052565b90601f801991011681019081106001600160401b03821117611eae57604052565b81601f82011215611f57578035906001600160401b038211611eae5760405192611f35601f8401601f191660200185611ee0565b82845260208383010111611f5757816000926020809301838601378301015290565b600080fd5b600435906001600160a01b0382168203611f5757565b6060600319820112611f5757600435906001600160401b038211611f5757611f9c91600401611f01565b90602435906044356001600160a01b0381168103611f575790565b60005b838110611fca5750506000910152565b8181015183820152602001611fba565b90602091611ff381518092818552858086019101611fb7565b601f01601f1916010190565b6040600319820112611f5757600435906001600160401b038211611f575761202991600401611f01565b9060243590565b6007548110156120675760076000527fa66cc928b5edb82af9bd49922954155ab7b0942694bea4ce44661d9a8736c6880190600090565b634e487b7160e01b600052603260045260246000fd5b6008548110156120675760086000527ff3f7a9fe364faab93b216da50a3214154f22a0a2b415b23a84c8169e8b636ee30190600090565b97949061210e936120ed6101409b989e9d9c9996946120df6120fb948d610160908181520190611fda565b8c810360208e015290611fda565b908a820360408c0152611fda565b9160608901528782036080890152611fda565b6001600160a01b0390991660a086015260c085015260e0840152151561010083015215156101208201520152565b90600182811c9216801561216c575b602083101461215657565b634e487b7160e01b600052602260045260246000fd5b91607f169161214b565b906040519182600082549261218a8461213c565b9081845260019485811690816000146121f957506001146121b6575b50506121b492500383611ee0565b565b9093915060005260209081600020936000915b8183106121e15750506121b4935082010138806121a6565b855488840185015294850194879450918301916121c9565b9150506121b494506020925060ff191682840152151560051b82010138806121a6565b805482101561206757600052600a602060002091020190600090565b969392612292936122716101209a9794612263999e9d9c99612284958c6101408091528d0190611fda565b908b820360208d0152611fda565b9160408a015288820360608a0152611fda565b908682036080880152611fda565b60a08501989098526001600160a01b031660c084015260e08301526101008201520152565b91909182516001600160401b038111611eae576122d4825461213c565b601f811161237e575b50602080601f831160011461231a57508192939460009261230f575b50508160011b916000199060031b1c1916179055565b0151905038806122f9565b90601f198316958460005282600020926000905b8882106123665750508360019596971061234d575b505050811b019055565b015160001960f88460031b161c19169055388080612343565b8060018596829496860151815501950193019061232e565b600083815260208120601f840160051c810192602085106123bc575b601f0160051c01915b8281106123b15750506122dd565b8181556001016123a3565b909250829061239a565b156123cd57565b60405162461bcd60e51b815260206004820152602a60248201527f4f6e6c792042505041206f666669636572732063616e20706572666f726d20746044820152693434b99030b1ba34b7b760b11b6064820152608490fd5b61243d90602060405192828480945193849201611fb7565b810103902090565b1561244c57565b60405162461bcd60e51b8152602060048201526015602482015274141c9bd8dd5c995b595b9d081b9bdd08199bdd5b99605a1b6044820152606490fd5b9190820180921161249657565b634e487b7160e01b600052601160045260246000fd5b156124b357565b60405162461bcd60e51b8152602060048201526011602482015270092dcecc2d8d2c840c4d2c840d2dcc8caf607b1b6044820152606490fd5b60001981146124965760010190565b6001600160401b038111611eae5760051b60200190565b9060405161251f81611ec4565b6101206009829461252f81612176565b845261253d60018201612176565b60208501526002810154604085015261255860038201612176565b606085015261256960048201612176565b6080850152600581015460a085015260068101546001600160a01b031660c0850152600781015460e085015260088101546101008501520154910152565b6040519081600082546125b98161213c565b9360019180831690811561261e57506001146125e1575b505060209250600081520301902090565b90915060005260209081600020906000915b85831061260a5750505050602091810138806125d0565b8054878401528694509183019181016125f3565b92505050602093915060ff1916825280151502810138806125d0565b80518210156120675760209160051b01019056fea264697066735822122034aa7732ff4aa669d8597b289676266b5c0f5588c24620c986d65de78b75334464736f6c63430008130033",
  "linkReferences": {},
  "deployedLinkReferences": {}
}