{
  "_format": "hh-sol-artifact-1",
  "contractName": "NationalLedger",
  "sourceName": "contracts/NationalLedger.sol",
  "abi": [
    {
      "inputs": [],
      "stateMutability": "nonpayable",
      "type": "constructor"
    },
    {
      "anonymous": false,
      "inputs": [
        {
          "indexed": true,
          "internalType": "address",
          "name": "account",
          "type": "address"
        },
        {
          "indexed": false,
          "internalType": "string",
          "name": "role",
          "type": "string"
        }
      ],
      "name": "AuthorizationGranted",
      "type": "event"
    },
    {
      "anonymous": false,
      "inputs": [
        {
          "indexed": true,
          "internalType": "address",
          "name": "account",
          "type": "address"
        },
        {
          "indexed": false,
          "internalType": "string",
          "name": "role",
          "type": "string"
        }
      ],
      "name": "AuthorizationRevoked",
      "type": "event"
    },
    {
      "anonymous": false,
      "inputs": [
        {
          "indexed": true,
          "internalType": "string",
          "name": "procurementId",
          "type": "string"
        },
        {
          "indexed": false,
          "internalType": "uint256",
          "name": "amount",
          "type": "uint256"
        },
        {
          "indexed": false,
          "internalType": "string",
          "name": "vendorId",
          "type": "string"
        },
        {
          "indexed": false,
          "internalType": "address",
          "name": "bppaOfficer",
          "type": "address"
        }
      ],
      "name": "ExpenseAdded",
      "type": "event"
    },
    {
      "anonymous": false,
      "inputs": [
        {
          "indexed": true,
          "internalType": "string",
          "name": "procurementId",
          "type": "string"
        },
        {
          "indexed": false,
          "internalType": "uint256",
          "name": "amount",
          "type": "uint256"
        },
        {
          "indexed": false,
          "internalType": "string",
          "name": "vendorId",
          "type": "string"
        },
        {
          "indexed": false,
          "internalType": "address",
          "name": "bppaOfficer",
          "type": "address"
        }
      ],
      "name": "FundRequestExpenseAdded",
      "type": "event"
    },
    {
      "anonymous": false,
      "inputs": [
        {
          "indexed": true,
          "internalType": "string",
          "name": "tiin",
          "type": "string"
        },
        {
          "indexed": false,
          "internalType": "uint256",
          "name": "amount",
          "type": "uint256"
        },
        {
          "indexed": false,
          "internalType": "string",
          "name": "fiscalYear",
          "type": "string"
        },
        {
          "indexed": false,
          "internalType": "address",
          "name": "validator",
          "type": "address"
        }
      ],
      "name": "RevenueAdded",
      "type": "event"
    },
    {
      "inputs": [
        {
          "internalType": "string",
          "name": "_procurementId",
          "type": "string"
        },
        {
          "internalType": "uint256",
          "name": "_amount",
          "type": "uint256"
        },
        {
          "internalType": "address",
          "name": "_bppaOfficer",
          "type": "address"
        },
        {
          "internalType": "string",
          "name": "_vendorId",
          "type": "string"
        },
        {
          "internalType": "string",
          "name": "_description",
          "type": "string"
        }
      ],
      "name": "addExpense",
      "outputs": [],
      "stateMutability": "nonpayable",
      "type": "function"
    },
    {
      "inputs": [
        {
          "internalType": "string",
          "name": "_procurementId",
          "type": "string"
        },
        {
          "internalType": "uint256",
          "name": "_amount",
          "type": "uint256"
        },
        {
          "internalType": "address",
          "name": "_bppaOfficer",
          "type": "address"
        },
        {
          "internalType": "string",
          "name": "_vendorId",
          "type": "string"
        },
        {
          "internalType": "string",
          "name": "_description",
          "type": "string"
        }
      ],
      "name": "addFundRequestExpense",
      "outputs": [],
      "stateMutability": "nonpayable",
      "type": "function"
    },
    {
      "inputs": [
        {
          "internalType": "string",
          "name": "_tiin",
          "type": "string"
        },
        {
          "internalType": "uint256",
          "name": "_amount",
          "type": "uint256"
        },
        {
          "internalType": "string",
          "name": "_fiscalYear",
          "type": "string"
        },
        {
          "internalType": "address",
          "name": "_validator",
          "type": "address"
        },
        {
          "internalType": "string",
          "name": "_taxReturnHash",
          "type": "string"
        }
      ],
      "name": "addRevenue",
      "outputs": [],
      "stateMutability": "nonpayable",
      "type": "function"
    },
    {
      "inputs": [],
      "name": "availableBalance",
      "outputs": [
        {
          "internalType": "uint256",
          "name": "",
          "type": "uint256"
        }
      ],
      "stateMutability": "view",
      "type": "function"
    },
    {
      "inputs": [
        {
          "internalType": "uint256",
          "name": "_newBalance",
          "type": "uint256"
        },
        {
          "internalType": "string",
          "name": "_reason",
          "type": "string"
        }
      ],
      "name": "emergencyAdjustBalance",
      "outputs": [],
      "stateMutability": "nonpayable",
      "type": "function"
    },
    {
      "inputs": [
        {
          "internalType": "address",
          "name": "",
          "type": "address"
        },
        {
          "internalType": "uint256",
          "name": "",
          "type": "uint256"
        }
      ],
      "name": "expenseByBppaOfficer",
      "outputs": [
        {
          "internalType": "uint256",
          "name": "",
          "type": "uint256"
        }
      ],
      "stateMutability": "view",
      "type": "function"
    },
    {
      "inputs": [
        {
          "internalType": "string",
          "name": "",
          "type": "string"
        },
        {
          "internalType": "uint256",
          "name": "",
          "type": "uint256"
        }
      ],
      "name": "expenseByProcurement",
      "outputs": [
        {
          "internalType": "uint256",
          "name": "",
          "type": "uint256"
        }
      ],
      "stateMutability": "view",
      "type": "function"
    },
    {
      "inputs": [
        {
          "internalType": "uint256",
          "name": "",
          "type": "uint256"
        }
      ],
      "name": "expenseEntries",
      "outputs": [
        {
          "internalType": "string",
          "name": "procurementId",
          "type": "string"
        },
        {
          "internalType": "uint256",
          "name": "amount",
          "type": "uint256"
        },
        {
          "internalType": "uint256",
          "name": "timestamp",
          "type": "uint256"
        },
        {
          "internalType": "address",
          "name": "bppaOfficer",
          "type": "address"
        },
        {
          "internalType": "string",
          "name": "vendorId",
          "type": "string"
        },
        {
          "internalType": "string",
          "name": "description",
          "type": "string"
        },
        {
          "internalType": "bool",
          "name": "isFundRequest",
          "type": "bool"
        }
      ],
      "stateMutability": "view",
      "type": "function"
    },
    {
      "inputs": [
        {
          "internalType": "string",
          "name": "_procurementId",
          "type": "string"
        }
      ],
      "name": "getExpenseByProcurement",
      "outputs": [
        {
          "internalType": "uint256[]",
          "name": "",
          "type": "uint256[]"
        }
      ],
      "stateMutability": "view",
      "type": "function"
    },
    {
      "inputs": [
        {
          "internalType": "uint256",
          "name": "_index",
          "type": "uint256"
        }
      ],
      "name": "getExpenseEntry",
      "outputs": [
        {
          "internalType": "string",
          "name": "procurementId",
          "type": "string"
        },
        {
          "internalType": "uint256",
          "name": "amount",
          "type": "uint256"
        },
        {
          "internalType": "uint256",
          "name": "timestamp",
          "type": "uint256"
        },
        {
          "internalType": "address",
          "name": "bppaOfficer",
          "type": "address"
        },
        {
          "internalType": "string",
          "name": "vendorId",
          "type": "string"
        },
        {
          "internalType": "string",
          "name": "description",
          "type": "string"
        },
        {
          "internalType": "bool",
          "name": "isFundRequest",
          "type": "bool"
        }
      ],
      "stateMutability": "view",
      "type": "function"
    },
    {
      "inputs": [],
      "name": "getLedgerSummary",
      "outputs": [
        {
          "internalType": "uint256",
          "name": "revenue",
          "type": "uint256"
        },
        {
          "internalType": "uint256",
          "name": "expense",
          "type": "uint256"
        },
        {
          "internalType": "uint256",
          "name": "balance",
          "type": "uint256"
        },
        {
          "internalType": "uint256",
          "name": "totalRevenueEntries",
          "type": "uint256"
        },
        {
          "internalType": "uint256",
          "name": "totalExpenseEntries",
          "type": "uint256"
        }
      ],
      "stateMutability": "view",
      "type": "function"
    },
    {
      "inputs": [
        {
          "internalType": "string",
          "name": "_fiscalYear",
          "type": "string"
        }
      ],
      "name": "getRevenueByFiscalYear",
      "outputs": [
        {
          "internalType": "uint256[]",
          "name": "",
          "type": "uint256[]"
        }
      ],
      "stateMutability": "view",
      "type": "function"
    },
    {
      "inputs": [
        {
          "internalType": "uint256",
          "name": "_index",
          "type": "uint256"
        }
      ],
      "name": "getRevenueEntry",
      "outputs": [
        {
          "internalType": "string",
          "name": "tiin",
          "type": "string"
        },
        {
          "internalType": "uint256",
          "name": "amount",
          "type": "uint256"
        },
        {
          "internalType": "uint256",
          "name": "timestamp",
          "type": "uint256"
        },
        {
          "internalType": "address",
          "name": "validator",
          "type": "address"
        },
        {
          "internalType": "string",
          "name": "taxReturnHash",
          "type": "string"
        },
        {
          "internalType": "string",
          "name": "fiscalYear",
          "type": "string"
        }
      ],
      "stateMutability": "view",
      "type": "function"
    },
    {
      "inputs": [
        {
          "internalType": "string",
          "name": "_procurementId",
          "type": "string"
        }
      ],
      "name": "getTotalExpenseByProcurement",
      "outputs": [
        {
          "internalType": "uint256",
          "name": "",
          "type": "uint256"
        }
      ],
      "stateMutability": "view",
      "type": "function"
    },
    {
      "inputs": [
        {
          "internalType": "string",
          "name": "_fiscalYear",
          "type": "string"
        }
      ],
      "name": "getTotalRevenueByFiscalYear",
      "outputs": [
        {
          "internalType": "uint256",
          "name": "",
          "type": "uint256"
        }
      ],
      "stateMutability": "view",
      "type": "function"
    },
    {
      "inputs": [
        {
          "internalType": "address",
          "name": "_account",
          "type": "address"
        }
      ],
      "name": "grantAdmin",
      "outputs": [],
      "stateMutability": "nonpayable",
      "type": "function"
    },
    {
      "inputs": [
        {
          "internalType": "address",
          "name": "_account",
          "type": "address"
        }
      ],
      "name": "grantExpenseAdder",
      "outputs": [],
      "stateMutability": "nonpayable",
      "type": "function"
    },
    {
      "inputs": [
        {
          "internalType": "address",
          "name": "_account",
          "type": "address"
        }
      ],
      "name": "grantRevenueAdder",
      "outputs": [],
      "stateMutability": "nonpayable",
      "type": "function"
    },
    {
      "inputs": [
        {
          "internalType": "address",
          "name": "",
          "type": "address"
        }
      ],
      "name": "isAdmin",
      "outputs": [
        {
          "internalType": "bool",
          "name": "",
          "type": "bool"
        }
      ],
      "stateMutability": "view",
      "type": "function"
    },
    {
      "inputs": [
        {
          "internalType": "address",
          "name": "",
          "type": "address"
        }
      ],
      "name": "isAuthorizedExpenseAdder",
      "outputs": [
        {
          "internalType": "bool",
          "name": "",
          "type": "bool"
        }
      ],
      "stateMutability": "view",
      "type": "function"
    },
    {
      "inputs": [
        {
          "internalType": "address",
          "name": "",
          "type": "address"
        }
      ],
      "name": "isAuthorizedRevenueAdder",
      "outputs": [
        {
          "internalType": "bool",
          "name": "",
          "type": "bool"
        }
      ],
      "stateMutability": "view",
      "type": "function"
    },
    {
      "inputs": [
        {
          "internalType": "string",
          "name": "",
          "type": "string"
        },
        {
          "internalType": "uint256",
          "name": "",
          "type": "uint256"
        }
      ],
      "name": "revenueByFiscalYear",
      "outputs": [
        {
          "internalType": "uint256",
          "name": "",
          "type": "uint256"
        }
      ],
      "stateMutability": "view",
      "type": "function"
    },
    {
      "inputs": [
        {
          "internalType": "address",
          "name": "",
          "type": "address"
        },
        {
          "internalType": "uint256",
          "name": "",
          "type": "uint256"
        }
      ],
      "name": "revenueByValidator",
      "outputs": [
        {
          "internalType": "uint256",
          "name": "",
          "type": "uint256"
        }
      ],
      "stateMutability": "view",
      "type": "function"
    },
    {
      "inputs": [
        {
          "internalType": "uint256",
          "name": "",
          "type": "uint256"
        }
      ],
      "name": "revenueEntries",
      "outputs": [
        {
          "internalType": "string",
          "name": "tiin",
          "type": "string"
        },
        {
          "internalType": "uint256",
          "name": "amount",
          "type": "uint256"
        },
        {
          "internalType": "uint256",
          "name": "timestamp",
          "type": "uint256"
        },
        {
          "internalType": "address",
          "name": "validator",
          "type": "address"
        },
        {
          "internalType": "string",
          "name": "taxReturnHash",
          "type": "string"
        },
        {
          "internalType": "string",
          "name": "fiscalYear",
          "type": "string"
        }
      ],
      "stateMutability": "view",
      "type": "function"
    },
    {
      "inputs": [
        {
          "internalType": "address",
          "name": "_account",
          "type": "address"
        }
      ],
      "name": "revokeAdmin",
      "outputs": [],
      "stateMutability": "nonpayable",
      "type": "function"
    },
    {
      "inputs": [],
      "name": "totalExpense",
      "outputs": [
        {
          "internalType": "uint256",
          "name": "",
          "type": "uint256"
        }
      ],
      "stateMutability": "view",
      "type": "function"
    },
    {
      "inputs": [],
      "name": "totalRevenue",
      "outputs": [
        {
          "internalType": "uint256",
          "name": "",
          "type": "uint256"
        }
      ],
      "stateMutability": "view",
      "type": "function"
    }
  ],
  "bytecode": "0x60808060405234610039576000338152600b60205260408120600160ff1982541617905580805580600155600255612094908161003f8239f35b600080fdfe6080604052600436101561001257600080fd5b60003560e01c80630ce61d3714611541578063104cf39b1461148d57806324d7806c1461144e5780632d3456701461135c578063319ebeef1461125d57806335bb3e16146111c057806336a40dd91461118e57806338081f5e1461113b5780635b3ac7fb146110fb5780635be49992146110bc5780635c2ae8cb14610fc25780636c58fd57146109245780636e4e9468146108b0578063745735d5146108695780637aa5495a146107ec5780637d3b2be214610764578063a53c857e146106d0578063a54a75f014610691578063a8ab1aa3146105b1578063a9013e1814610513578063ab2f0e51146104f5578063ac520f9114610457578063bf2d9e0b14610439578063e3b63b0714610326578063e7cd1f8f146102ce578063ed0c46c3146102b05763ef6c0b621461014557600080fd5b346102ab576101533661174b565b939290919333600052600a60205261017260ff60406000205416611aa4565b61017d821515611af0565b61018b600254831115611b3c565b61019784511515611b96565b6001600160a01b038516906101ea906101b1831515611be2565b604051906101be826115ea565b86825284602083015242604083015283606083015285608083015260a0820152600060c0820152611c2e565b6004546000198101908111610295577f0b4d8a815a5acb0a0656977527f17dad6afe7e1167c3b2eafc696232342a9b3994610260826102909461024e61028395604051602081885161023f8183858d0161167c565b81016006815203019020611a14565b60005260086020526040600020611a14565b61026c84600154611a49565b60015561027b84600254611a07565b600255611a56565b9460405193849384611a76565b0390a2005b634e487b7160e01b600052601160045260246000fd5b600080fd5b346102ab5760003660031901126102ab576020600154604051908152f35b346102ab5760403660031901126102ab576102e761158b565b6001600160a01b03166000908152600760205260409020805460243591908210156102ab57602091610318916115a1565b90546040519160031b1c8152f35b346102ab5760203660031901126102ab576004356004548110156103ea5761034d906118d9565b5060405161035a816115ea565b61036382611833565b81526103e6600183015491602081019283526002840154936040820194855260018060a01b038060038301541690606084019182526103a460048401611833565b906080850191825260ff60066103bc60058701611833565b958660a08901520154161515948560c0820152519651975192511690519160405197889788611914565b0390f35b60405162461bcd60e51b815260206004820152602160248201527f457870656e736520656e74727920696e646578206f7574206f6620626f756e646044820152607360f81b6064820152608490fd5b346102ab5760003660031901126102ab576020600054604051908152f35b346102ab5760203660031901126102ab5761047061158b565b33600052600b60205261048a60ff604060002054166119b0565b60018060a01b03168060005260096020526040600020600160ff198254161790557f282392bddd0aaa0b50d2c25268a4cb6c4fb4fb6ada94caee6b633a87df7fbc43606060405160208152600d60208201526c3932bb32b73ab2afb0b23232b960991b6040820152a2005b346102ab5760003660031901126102ab576020600254604051908152f35b346102ab5760203660031901126102ab5761052c61158b565b33600052600b60205261054660ff604060002054166119b0565b60018060a01b031680600052600a6020526040600020600160ff198254161790557f282392bddd0aaa0b50d2c25268a4cb6c4fb4fb6ada94caee6b633a87df7fbc43606060405160208152600d60208201526c32bc3832b739b2afb0b23232b960991b6040820152a2005b346102ab576020806003193601126102ab576004356001600160401b0381116102ab57816105e66105f9923690600401611626565b816040519382858094519384920161167c565b81016005815203019020604051808284829454938481520190600052846000209260005b8682821061067b578461063281860382611605565b600090815b81518310156106715761066561066b91600161065c610656878761204a565b516117be565b50015490611a49565b9261203b565b91610637565b8390604051908152f35b855484526001958601958795509301920161061d565b346102ab5760203660031901126102ab576001600160a01b036106b261158b565b166000526009602052602060ff604060002054166040519015158152f35b346102ab576020806003193601126102ab576004356001600160401b0381116102ab57816105e6610705923690600401611626565b8101600581520301902090604051908181845491828152019360005281600020916000905b82821061074d576103e68561074181890382611605565b60405191829182611975565b83548652948501946001938401939091019061072a565b346102ab576020806003193601126102ab576004356001600160401b0381116102ab57816105e6610799923690600401611626565b8101600681520301902090604051908181845491828152019360005281600020916000905b8282106107d5576103e68561074181890382611605565b8354865294850194600193840193909101906107be565b346102ab5760203660031901126102ab576004356004548110156102ab57610813906118d9565b5061081d81611833565b60018201546002830154600384015491936103e6926001600160a01b031661084760048301611833565b9060ff600661085860058601611833565b940154169360405197889788611914565b346102ab57602061089161087c3661171a565b9290816040519382858094519384920161167c565b8101600581520301902080548210156102ab57602091610318916115a1565b346102ab5760203660031901126102ab576004356003548110156102ab576108d7906117be565b506108e181611833565b60018201546002830154600384015491936103e6926001600160a01b0316610917600561091060048501611833565b9301611833565b92604051968796876116c4565b346102ab5760a03660031901126102ab576004356001600160401b0381116102ab57610954903690600401611626565b6044356001600160401b0381116102ab57610973903690600401611626565b906064356001600160a01b03811690036102ab576084356001600160401b0381116102ab576109a6903690600401611626565b33600052600960205260ff6040600020541615610f7d5760243515610f3857815115610efc576064356001600160a01b031615610eb757604051906109ea826115cf565b82825260243560208301524260408301526064356001600160a01b03166060830152608082015260a08101839052600354600160401b811015610d0157806001610a3792016003556117be565b919091610ea15780518051906001600160401b038211610d01578190610a5d85546117f9565b601f8111610e51575b50602090601f8311600114610de557600092610dda575b50508160011b916000199060031b1c19161782555b60208101516001830155604081015160028301556003820160018060a01b036060830151166bffffffffffffffffffffffff60a01b82541617905560808101518051906001600160401b038211610d0157610af060048501546117f9565b601f8111610d93575b50602090601f8311600114610d225760a093929160009183610d17575b50508160011b916000199060031b1c19161760048401555b01518051906001600160401b038211610d0157610b4e60058401546117f9565b601f8111610cba575b50602090601f8311600114610c4c576005929160009183610c41575b50508160011b916000199060031b1c1916179101555b60035460001981019190821161029557610c2d61029091610c0e84610bef7fb431e7d1e7812a9fa9ea9e5119de1674de30523264b7faf49a0218087c9993589660405160208181610be08d8381519384920161167c565b81016005815203019020611a14565b6064356001600160a01b03166000908152600760205260409020611a14565b610c1c602435600054611a49565b60005561027b602435600254611a49565b926040519182916064359060243584611a76565b015190508680610b73565b90601f198316916005850160005260206000209260005b818110610ca257509160019391856005969410610c89575b505050811b01910155610b89565b015160001960f88460031b161c19169055868080610c7b565b92936020600181928786015181550195019301610c63565b600584016000526020600020601f840160051c810160208510610cfa575b601f830160051c82018110610cee575050610b57565b60008155600101610cd8565b5080610cd8565b634e487b7160e01b600052604160045260246000fd5b015190508780610b16565b90601f198316916004860160005260206000209260005b818110610d7b575091600193918560a097969410610d62575b505050811b016004840155610b2e565b015160001960f88460031b161c19169055878080610d52565b92936020600181928786015181550195019301610d39565b600485016000526020600020601f840160051c810160208510610dd3575b601f830160051c82018110610dc7575050610af9565b60008155600101610db1565b5080610db1565b015190508680610a7d565b9250846000526020600020906000935b601f1984168510610e36576001945083601f19811610610e1d575b505050811b018255610a92565b015160001960f88460031b161c19169055868080610e10565b81810151835560209485019460019093019290910190610df5565b909150846000526020600020601f840160051c810160208510610e9a575b90849392915b601f830160051c82018110610e8b575050610a66565b60008155859450600101610e75565b5080610e6f565b634e487b7160e01b600052600060045260246000fd5b60405162461bcd60e51b815260206004820152601960248201527f496e76616c69642076616c696461746f722061646472657373000000000000006044820152606490fd5b60405162461bcd60e51b81526020600482015260146024820152735449494e2063616e6e6f7420626520656d70747960601b6044820152606490fd5b60405162461bcd60e51b815260206004820152601f60248201527f526576656e756520616d6f756e74206d75737420626520706f736974697665006044820152606490fd5b60405162461bcd60e51b815260206004820152601d60248201527f4e6f7420617574686f72697a656420746f2061646420726576656e75650000006044820152606490fd5b346102ab57610fd03661174b565b939290919333600052600a602052610fef60ff60406000205416611aa4565b610ffa821515611af0565b611008600254831115611b3c565b61101484511515611b96565b6001600160a01b038516906110679061102e831515611be2565b6040519061103b826115ea565b86825284602083015242604083015283606083015285608083015260a0820152600160c0820152611c2e565b6004546000198101908111610295577f5db0aaaa26f045d738f5039487285e4b08fa1d234a59ec17a88cf490b73a464894610260826102909461024e61028395604051602081885161023f8183858d0161167c565b346102ab5760203660031901126102ab576001600160a01b036110dd61158b565b16600052600a602052602060ff604060002054166040519015158152f35b346102ab5760003660031901126102ab5760a060005460015460025460035490600454926040519485526020850152604084015260608301526080820152f35b346102ab5760403660031901126102ab576024356001600160401b0381116102ab5761116b903690600401611626565b5033600052600b60205261118660ff604060002054166119b0565b600435600255005b346102ab5760206111a161087c3661171a565b8101600681520301902080548210156102ab57602091610318916115a1565b346102ab5760203660031901126102ab576111d961158b565b33600052600b6020526111f360ff604060002054166119b0565b60018060a01b031680600052600b6020526040600020600160ff198254161790557f282392bddd0aaa0b50d2c25268a4cb6c4fb4fb6ada94caee6b633a87df7fbc43604051806102908160609060208152600560208201526430b236b4b760d91b60408201520190565b346102ab5760203660031901126102ab5760043560035481101561130d57611284906117be565b50604051611291816115cf565b61129a82611833565b81526103e6600183015491602081019283526002840154936040820194855260018060a01b03908160038201541691606084019283526112ef60056112e160048501611833565b936080870194855201611833565b938460a08201525195519651925116905191604051968796876116c4565b60405162461bcd60e51b815260206004820152602160248201527f526576656e756520656e74727920696e646578206f7574206f6620626f756e646044820152607360f81b6064820152608490fd5b346102ab5760203660031901126102ab5761137561158b565b33600052600b60205261138f60ff604060002054166119b0565b6001600160a01b03163381146113fe5780600052600b602052604060002060ff1981541690557f0814e4ee85854cea446b4a27a460e5ffb41516230dbc02f226c07907e432241c604051806102908160609060208152600560208201526430b236b4b760d91b60408201520190565b60405162461bcd60e51b815260206004820152602260248201527f43616e6e6f74207265766f6b65206f776e2061646d696e2070726976696c6567604482015261657360f01b6064820152608490fd5b346102ab5760203660031901126102ab576001600160a01b0361146f61158b565b16600052600b602052602060ff604060002054166040519015158152f35b346102ab576020806003193601126102ab576004356001600160401b0381116102ab57816105e66114c2923690600401611626565b81016006815203019020604051808284829454938481520190600052846000209260005b8682821061152b57846114fb81860382611605565b600090815b81518310156106715761066561152591600161065c61151f878761204a565b516118d9565b91611500565b85548452600195860195879550930192016114e6565b346102ab5760403660031901126102ab5761155a61158b565b6001600160a01b03166000908152600860205260409020805460243591908210156102ab57602091610318916115a1565b600435906001600160a01b03821682036102ab57565b80548210156115b95760005260206000200190600090565b634e487b7160e01b600052603260045260246000fd5b60c081019081106001600160401b03821117610d0157604052565b60e081019081106001600160401b03821117610d0157604052565b90601f801991011681019081106001600160401b03821117610d0157604052565b81601f820112156102ab578035906001600160401b038211610d01576040519261165a601f8401601f191660200185611605565b828452602083830101116102ab57816000926020809301838601378301015290565b60005b83811061168f5750506000910152565b818101518382015260200161167f565b906020916116b88151809281855285808601910161167c565b601f01601f1916010190565b949093611709936116e1611717989660c0895260c089019061169f565b602088019490945260408701526001600160a01b03166060860152848203608086015261169f565b9160a081840391015261169f565b90565b60406003198201126102ab57600435906001600160401b0382116102ab5761174491600401611626565b9060243590565b9060a06003198301126102ab576001600160401b036004358181116102ab578361177791600401611626565b92602435926044356001600160a01b03811681036102ab57926064358181116102ab57836117a791600401611626565b926084359182116102ab5761171791600401611626565b6003548110156115b9576006906003600052027fc2575a0e9e593c00f959f8c92f12db2869c3395a3b0502d05e2516446f71f85b0190600090565b90600182811c92168015611829575b602083101461181357565b634e487b7160e01b600052602260045260246000fd5b91607f1691611808565b9060405191826000825492611847846117f9565b9081845260019485811690816000146118b65750600114611873575b505061187192500383611605565b565b9093915060005260209081600020936000915b81831061189e57505061187193508201013880611863565b85548884018501529485019487945091830191611886565b91505061187194506020925060ff191682840152151560051b8201013880611863565b6004548110156115b9576007906004600052027f8a35acfbc15ff81a39ae7d344fd709f28e8600b4aa8c65c6b64bfe7fe36bd19b0190600090565b95929461196d9460c09661193761195f95949b9a9b60e08b5260e08b019061169f565b60208a019490945260408901526001600160a01b03166060880152868203608088015261169f565b9084820360a086015261169f565b931515910152565b6020908160408183019282815285518094520193019160005b82811061199c575050505090565b83518552938101939281019260010161198e565b156119b757565b60405162461bcd60e51b815260206004820152602260248201527f4f6e6c792061646d696e2063616e20706572666f726d2074686973206163746960448201526137b760f11b6064820152608490fd5b9190820391821161029557565b8054600160401b811015610d0157611a31916001820181556115a1565b819291549060031b91821b91600019901b1916179055565b9190820180921161029557565b611a6e9060206040519282848094519384920161167c565b810103902090565b91611a9490604092959495845260606020850152606084019061169f565b6001600160a01b03909416910152565b15611aab57565b60405162461bcd60e51b815260206004820152601d60248201527f4e6f7420617574686f72697a656420746f2061646420657870656e73650000006044820152606490fd5b15611af757565b60405162461bcd60e51b815260206004820152601f60248201527f457870656e736520616d6f756e74206d75737420626520706f736974697665006044820152606490fd5b15611b4357565b60405162461bcd60e51b815260206004820152602560248201527f496e73756666696369656e742062616c616e636520666f72207468697320657860448201526470656e736560d81b6064820152608490fd5b15611b9d57565b60405162461bcd60e51b815260206004820152601e60248201527f50726f637572656d656e742049442063616e6e6f7420626520656d70747900006044820152606490fd5b15611be957565b60405162461bcd60e51b815260206004820152601c60248201527f496e76616c69642042505041206f6666696365722061646472657373000000006044820152606490fd5b6004805490600160401b821015611e6557611c4f60019283810183556118d9565b929092612027578351908151916001600160401b03928381116120125780611c7787546117f9565b92601f93848111611fbe575b50602090848311600114611f5b57600092611f50575b5050600019600383901b1c191690831b1785555b602086015182860155604086015160028601556003850160018060a01b036060880151166bffffffffffffffffffffffff60a01b8254161790558385016080870151805190858211611f3b578190611d0584546117f9565b858111611ee8575b50602090858311600114611e8557600092611e7a575b5050600019600383901b1c191690841b1790555b600585019360a0870151908151948511611e655750611d5685546117f9565b828111611e1d575b506020918411600114611db057928060069593819360c09896600094611da5575b50501b916000199060031b1c19161790555b01910151151560ff80198354169116179055565b015192503880611d7f565b90601f9392931983169185600052816000209260005b818110611e0757509160c09795939185600698969410611dee575b505050811b019055611d91565b015160001960f88460031b161c19169055388080611de1565b8284015185559386019360209384019301611dc6565b8560005260206000208380870160051c82019260208810611e5c575b0160051c019084905b828110611e50575050611d5e565b60008155018490611e42565b92508192611e39565b604190634e487b7160e01b6000525260246000fd5b015190503880611d23565b90869350601f1983169185600052816000209260005b818110611ed057508411611eb7575b505050811b019055611d37565b015160001960f88460031b161c19169055388080611eaa565b82840151855589969094019360209384019301611e9b565b9091508360005260206000208580850160051c82019260208610611f32575b918891869594930160051c01915b828110611f23575050611d0d565b60008155859450889101611f15565b92508192611f07565b604187634e487b7160e01b6000525260246000fd5b015190503880611c99565b90859350601f1983169189600052816000209260005b818110611fa657508411611f8d575b505050811b018555611cad565b015160001960f88460031b161c19169055388080611f80565b82840151855588969094019360209384019301611f71565b9091506000888152602081208580860160051c82019360208710612009575b91889187969594930160051c01925b838110611ffb57505050611c83565b828155869550889101611fec565b93508193611fdd565b604185634e487b7160e01b6000525260246000fd5b600082634e487b7160e01b82525260246000fd5b60001981146102955760010190565b80518210156115b95760209160051b01019056fea264697066735822122016b1add96cab3d18e96095ed27da96e7ce6c2ad5cd17fe9d9ff2ce227ce5bdc664736f6c63430008130033",
  "linkReferences": {},
  "deployedLinkReferences": {}
}