{
  "_format": "hh-sol-artifact-1",
  "contractName": "FundRequest",
  "sourceName": "contracts/FundRequest.sol",
  "abi": [
    {
      "inputs": [],
      "stateMutability": "nonpayable",
      "type": "constructor"
    },
    {
      "anonymous": false,
      "inputs": [
        {
          "indexed": true,
          "internalType": "address",
          "name": "officer",
          "type": "address"
        }
      ],
      "name": "BppaOfficerRegistered",
      "type": "event"
    },
    {
      "anonymous": false,
      "inputs": [
        {
          "indexed": true,
          "internalType": "string",
          "name": "requestId",
          "type": "string"
        },
        {
          "indexed": false,
          "internalType": "address",
          "name": "bppaOfficer",
          "type": "address"
        },
        {
          "indexed": false,
          "internalType": "uint256",
          "name": "approvedAmount",
          "type": "uint256"
        }
      ],
      "name": "FundRequestApproved",
      "type": "event"
    },
    {
      "anonymous": false,
      "inputs": [
        {
          "indexed": true,
          "internalType": "string",
          "name": "requestId",
          "type": "string"
        },
        {
          "indexed": false,
          "internalType": "string",
          "name": "reason",
          "type": "string"
        }
      ],
      "name": "FundRequestCancelled",
      "type": "event"
    },
    {
      "anonymous": false,
      "inputs": [
        {
          "indexed": true,
          "internalType": "string",
          "name": "requestId",
          "type": "string"
        },
        {
          "indexed": false,
          "internalType": "address",
          "name": "bppaOfficer",
          "type": "address"
        },
        {
          "indexed": false,
          "internalType": "string",
          "name": "reason",
          "type": "string"
        }
      ],
      "name": "FundRequestRejected",
      "type": "event"
    },
    {
      "anonymous": false,
      "inputs": [
        {
          "indexed": true,
          "internalType": "string",
          "name": "requestId",
          "type": "string"
        },
        {
          "indexed": false,
          "internalType": "string",
          "name": "procurementId",
          "type": "string"
        },
        {
          "indexed": false,
          "internalType": "string",
          "name": "vendorId",
          "type": "string"
        },
        {
          "indexed": false,
          "internalType": "uint256",
          "name": "amount",
          "type": "uint256"
        }
      ],
      "name": "FundRequestSubmitted",
      "type": "event"
    },
    {
      "anonymous": false,
      "inputs": [
        {
          "indexed": true,
          "internalType": "string",
          "name": "requestId",
          "type": "string"
        },
        {
          "indexed": false,
          "internalType": "uint256",
          "name": "amount",
          "type": "uint256"
        },
        {
          "indexed": false,
          "internalType": "string",
          "name": "disbursementRef",
          "type": "string"
        }
      ],
      "name": "FundsDisbursed",
      "type": "event"
    },
    {
      "anonymous": false,
      "inputs": [
        {
          "indexed": true,
          "internalType": "address",
          "name": "vendor",
          "type": "address"
        },
        {
          "indexed": false,
          "internalType": "string",
          "name": "vendorId",
          "type": "string"
        }
      ],
      "name": "VendorRegistered",
      "type": "event"
    },
    {
      "inputs": [
        {
          "internalType": "uint256",
          "name": "",
          "type": "uint256"
        }
      ],
      "name": "allRequestIds",
      "outputs": [
        {
          "internalType": "string",
          "name": "",
          "type": "string"
        }
      ],
      "stateMutability": "view",
      "type": "function"
    },
    {
      "inputs": [
        {
          "internalType": "string",
          "name": "_requestId",
          "type": "string"
        },
        {
          "internalType": "uint256",
          "name": "_approvedAmount",
          "type": "uint256"
        },
        {
          "internalType": "string",
          "name": "_bppaComments",
          "type": "string"
        }
      ],
      "name": "approveFundRequest",
      "outputs": [],
      "stateMutability": "nonpayable",
      "type": "function"
    },
    {
      "inputs": [
        {
          "internalType": "string",
          "name": "_requestId",
          "type": "string"
        },
        {
          "internalType": "string",
          "name": "_reason",
          "type": "string"
        }
      ],
      "name": "cancelFundRequest",
      "outputs": [],
      "stateMutability": "nonpayable",
      "type": "function"
    },
    {
      "inputs": [
        {
          "internalType": "string",
          "name": "",
          "type": "string"
        }
      ],
      "name": "fundRequests",
      "outputs": [
        {
          "internalType": "string",
          "name": "requestId",
          "type": "string"
        },
        {
          "internalType": "string",
          "name": "procurementId",
          "type": "string"
        },
        {
          "internalType": "string",
          "name": "vendorId",
          "type": "string"
        },
        {
          "internalType": "string",
          "name": "companyName",
          "type": "string"
        },
        {
          "internalType": "uint256",
          "name": "requestedAmount",
          "type": "uint256"
        },
        {
          "internalType": "string",
          "name": "reason",
          "type": "string"
        },
        {
          "internalType": "string",
          "name": "justification",
          "type": "string"
        },
        {
          "internalType": "string",
          "name": "supportingDocs",
          "type": "string"
        },
        {
          "internalType": "uint256",
          "name": "submittedTimestamp",
          "type": "uint256"
        },
        {
          "internalType": "uint256",
          "name": "reviewedTimestamp",
          "type": "uint256"
        },
        {
          "internalType": "address",
          "name": "bppaOfficer",
          "type": "address"
        },
        {
          "internalType": "enum FundRequest.RequestStatus",
          "name": "status",
          "type": "uint8"
        },
        {
          "internalType": "string",
          "name": "bppaComments",
          "type": "string"
        },
        {
          "internalType": "uint256",
          "name": "approvedAmount",
          "type": "uint256"
        },
        {
          "internalType": "string",
          "name": "disbursementRef",
          "type": "string"
        }
      ],
      "stateMutability": "view",
      "type": "function"
    },
    {
      "inputs": [],
      "name": "getAllRequestIds",
      "outputs": [
        {
          "internalType": "string[]",
          "name": "",
          "type": "string[]"
        }
      ],
      "stateMutability": "view",
      "type": "function"
    },
    {
      "inputs": [],
      "name": "getApprovedFundRequests",
      "outputs": [
        {
          "internalType": "string[]",
          "name": "",
          "type": "string[]"
        }
      ],
      "stateMutability": "view",
      "type": "function"
    },
    {
      "inputs": [
        {
          "internalType": "string",
          "name": "_requestId",
          "type": "string"
        }
      ],
      "name": "getFundRequest",
      "outputs": [
        {
          "internalType": "string",
          "name": "requestId",
          "type": "string"
        },
        {
          "internalType": "string",
          "name": "procurementId",
          "type": "string"
        },
        {
          "internalType": "string",
          "name": "vendorId",
          "type": "string"
        },
        {
          "internalType": "string",
          "name": "companyName",
          "type": "string"
        },
        {
          "internalType": "uint256",
          "name": "requestedAmount",
          "type": "uint256"
        },
        {
          "internalType": "string",
          "name": "reason",
          "type": "string"
        },
        {
          "internalType": "uint256",
          "name": "submittedTimestamp",
          "type": "uint256"
        },
        {
          "internalType": "enum FundRequest.RequestStatus",
          "name": "status",
          "type": "uint8"
        },
        {
          "internalType": "uint256",
          "name": "approvedAmount",
          "type": "uint256"
        },
        {
          "internalType": "address",
          "name": "bppaOfficer",
          "type": "address"
        },
        {
          "internalType": "string",
          "name": "bppaComments",
          "type": "string"
        }
      ],
      "stateMutability": "view",
      "type": "function"
    },
    {
      "inputs": [
        {
          "internalType": "address",
          "name": "_officer",
          "type": "address"
        }
      ],
      "name": "getFundRequestsByOfficer",
      "outputs": [
        {
          "internalType": "string[]",
          "name": "",
          "type": "string[]"
        }
      ],
      "stateMutability": "view",
      "type": "function"
    },
    {
      "inputs": [
        {
          "internalType": "string",
          "name": "_procurementId",
          "type": "string"
        }
      ],
      "name": "getFundRequestsByProcurement",
      "outputs": [
        {
          "internalType": "string[]",
          "name": "",
          "type": "string[]"
        }
      ],
      "stateMutability": "view",
      "type": "function"
    },
    {
      "inputs": [
        {
          "internalType": "string",
          "name": "_vendorId",
          "type": "string"
        }
      ],
      "name": "getFundRequestsByVendor",
      "outputs": [
        {
          "internalType": "string[]",
          "name": "",
          "type": "string[]"
        }
      ],
      "stateMutability": "view",
      "type": "function"
    },
    {
      "inputs": [],
      "name": "getPendingFundRequests",
      "outputs": [
        {
          "internalType": "string[]",
          "name": "",
          "type": "string[]"
        }
      ],
      "stateMutability": "view",
      "type": "function"
    },
    {
      "inputs": [],
      "name": "getStatistics",
      "outputs": [
        {
          "internalType": "uint256",
          "name": "totalRequests",
          "type": "uint256"
        },
        {
          "internalType": "uint256",
          "name": "pendingRequests",
          "type": "uint256"
        },
        {
          "internalType": "uint256",
          "name": "approvedRequests",
          "type": "uint256"
        },
        {
          "internalType": "uint256",
          "name": "rejectedRequests",
          "type": "uint256"
        },
        {
          "internalType": "uint256",
          "name": "fundedRequests",
          "type": "uint256"
        },
        {
          "internalType": "uint256",
          "name": "totalRequestedAmount",
          "type": "uint256"
        },
        {
          "internalType": "uint256",
          "name": "totalApprovedAmount",
          "type": "uint256"
        }
      ],
      "stateMutability": "view",
      "type": "function"
    },
    {
      "inputs": [
        {
          "internalType": "address",
          "name": "",
          "type": "address"
        }
      ],
      "name": "isAdmin",
      "outputs": [
        {
          "internalType": "bool",
          "name": "",
          "type": "bool"
        }
      ],
      "stateMutability": "view",
      "type": "function"
    },
    {
      "inputs": [
        {
          "internalType": "address",
          "name": "",
          "type": "address"
        }
      ],
      "name": "isBppaOfficer",
      "outputs": [
        {
          "internalType": "bool",
          "name": "",
          "type": "bool"
        }
      ],
      "stateMutability": "view",
      "type": "function"
    },
    {
      "inputs": [
        {
          "internalType": "address",
          "name": "",
          "type": "address"
        }
      ],
      "name": "isVendor",
      "outputs": [
        {
          "internalType": "bool",
          "name": "",
          "type": "bool"
        }
      ],
      "stateMutability": "view",
      "type": "function"
    },
    {
      "inputs": [
        {
          "internalType": "string",
          "name": "_requestId",
          "type": "string"
        },
        {
          "internalType": "string",
          "name": "_disbursementRef",
          "type": "string"
        }
      ],
      "name": "markFundsDisbursed",
      "outputs": [],
      "stateMutability": "nonpayable",
      "type": "function"
    },
    {
      "inputs": [
        {
          "internalType": "address",
          "name": "",
          "type": "address"
        },
        {
          "internalType": "uint256",
          "name": "",
          "type": "uint256"
        }
      ],
      "name": "officerReviewedRequests",
      "outputs": [
        {
          "internalType": "string",
          "name": "",
          "type": "string"
        }
      ],
      "stateMutability": "view",
      "type": "function"
    },
    {
      "inputs": [
        {
          "internalType": "string",
          "name": "",
          "type": "string"
        },
        {
          "internalType": "uint256",
          "name": "",
          "type": "uint256"
        }
      ],
      "name": "procurementFundRequests",
      "outputs": [
        {
          "internalType": "string",
          "name": "",
          "type": "string"
        }
      ],
      "stateMutability": "view",
      "type": "function"
    },
    {
      "inputs": [
        {
          "internalType": "address",
          "name": "_officer",
          "type": "address"
        }
      ],
      "name": "registerBppaOfficer",
      "outputs": [],
      "stateMutability": "nonpayable",
      "type": "function"
    },
    {
      "inputs": [
        {
          "internalType": "address",
          "name": "_vendor",
          "type": "address"
        },
        {
          "internalType": "string",
          "name": "_vendorId",
          "type": "string"
        }
      ],
      "name": "registerVendor",
      "outputs": [],
      "stateMutability": "nonpayable",
      "type": "function"
    },
    {
      "inputs": [
        {
          "internalType": "string",
          "name": "_requestId",
          "type": "string"
        },
        {
          "internalType": "string",
          "name": "_bppaComments",
          "type": "string"
        }
      ],
      "name": "rejectFundRequest",
      "outputs": [],
      "stateMutability": "nonpayable",
      "type": "function"
    },
    {
      "inputs": [
        {
          "internalType": "string",
          "name": "_requestId",
          "type": "string"
        },
        {
          "internalType": "string",
          "name": "_procurementId",
          "type": "string"
        },
        {
          "internalType": "string",
          "name": "_vendorId",
          "type": "string"
        },
        {
          "internalType": "string",
          "name": "_companyName",
          "type": "string"
        },
        {
          "internalType": "uint256",
          "name": "_requestedAmount",
          "type": "uint256"
        },
        {
          "internalType": "string",
          "name": "_reason",
          "type": "string"
        },
        {
          "internalType": "string",
          "name": "_justification",
          "type": "string"
        },
        {
          "internalType": "string",
          "name": "_supportingDocs",
          "type": "string"
        }
      ],
      "name": "submitFundRequest",
      "outputs": [],
      "stateMutability": "nonpayable",
      "type": "function"
    },
    {
      "inputs": [
        {
          "internalType": "string",
          "name": "",
          "type": "string"
        },
        {
          "internalType": "uint256",
          "name": "",
          "type": "uint256"
        }
      ],
      "name": "vendorFundRequests",
      "outputs": [
        {
          "internalType": "string",
          "name": "",
          "type": "string"
        }
      ],
      "stateMutability": "view",
      "type": "function"
    }
  ],
  "bytecode": "0x6080806040523461002f573360005260066020526040600020600160ff1982541617905561262990816100358239f35b600080fdfe6080604052600436101561001257600080fd5b60003560e01c806305d097b314611cea5780630da4b7a014611cb35780631a6b75ba14611c665780631c190b1a14611bdd5780631f90e5bf14611ac957806324d7806c14611a8a578063372d6b271461184657806352314280146112a85780635843830b1461105c5780635879fb7414610e985780636e69372a14610e4c5780638e5579ee14610c1b578063968e5a0d14610bd45780639e0f56ee146109a35780639ecc759c14610964578063abb912bb146108b8578063acfa768d1461074c578063d2880e2414610495578063ec1e6bd614610406578063ee54d54f146103c7578063f847176d146102ec578063fb70aaa6146101d05763fdb7819f1461011957600080fd5b346101cb576020806003193601126101cb576004356001600160401b0381116101cb5761014a903690600401611f1c565b908061015f6040519384815193849201611f72565b82019181816001948581520301902080549061017a826124b9565b926101886040519485611efb565b82845260009182528082208185015b8484106101b057604051806101ac888261217a565b0390f35b868381926101bd85611fcf565b815201920193019290610197565b600080fd5b346101cb5760003660031901126101cb576007546000805b8281106102a257506101f990612588565b60009160005b81811061021457604051806101ac858261217a565b60ff600a61022a610224846120d8565b506124f5565b015460a01c16600581101561028c5760011461024f575b61024a906124d0565b6101ff565b9261028461024a91610269610263876120d8565b50611fcf565b61027382876125d2565b5261027e81866125d2565b506124d0565b939050610241565b634e487b7160e01b600052602160045260246000fd5b60ff600a6102b2610224846120d8565b015460a01c16600581101561028c576001146102d7575b6102d2906124d0565b6101e8565b906102e46102d2916124d0565b9190506102c9565b346101cb5760003660031901126101cb576007546000805b82811061037f575061031590612588565b60009160005b81811061033057604051806101ac858261217a565b60ff600a610340610224846120d8565b015460a01c16600581101561028c5715610363575b61035e906124d0565b61031b565b9261037761035e91610269610263876120d8565b939050610355565b60ff600a61038f610224846120d8565b015460a01c16600581101561028c57156103b2575b6103ad906124d0565b610304565b906103bf6103ad916124d0565b9190506103a4565b346101cb5760203660031901126101cb576001600160a01b036103e8612164565b166000526004602052602060ff604060002054166040519015158152f35b346101cb5760003660031901126101cb57600754610423816124b9565b6104306040519182611efb565b81815260209182820160076000527fa66cc928b5edb82af9bd49922954155ab7b0942694bea4ce44661d9a8736c688936000915b83831061047957604051806101ac878261217a565b600182819261048789611fcf565b815201960192019194610464565b346101cb5760603660031901126101cb576001600160401b036004358181116101cb576104c6903690600401611f1c565b602435916044359081116101cb576104e2903690600401611f1c565b9033600052602091600583526104ff60ff604060002054166123d3565b6040519061053461052d84519386818188019661051d81838a611f72565b8101600081520301902054611f95565b1515612432565b60ff600a6040518681875161054a81838a611f72565b81016000815203019020015460a01c16600581101561028c5761056d9015612477565b841561070957600460405185818651610587818389611f72565b81016000815203019020015485116106b95760409285600c610686877fcdfa70e2004de6610a705a5a5d44a5f94c3ef27d14548477ab7582f5e9c6ef3098966106766106ac97600a8b5185818b516105e081838a611f72565b8101600081520301902001600160a01b60ff60a01b19825416179055600a8b5185818b5161060f81838a611f72565b8101600081520301902001336bffffffffffffffffffffffff60a01b8254161790558a5160098951610642818488611f72565b8201916000835286814294030190200155600b8b5185818b5161066681838a611f72565b8101600081520301902001612277565b8851809381928851928391611f72565b81016000815203019020015533600052600383526106a78185600020612386565b6123b3565b93825191338352820152a2005b60405162461bcd60e51b815260048101859052602260248201527f43616e6e6f7420617070726f7665206d6f7265207468616e2072657175657374604482015261195960f21b6064820152608490fd5b6064846040519062461bcd60e51b825280600483015260248201527f417070726f76656420616d6f756e74206d75737420626520706f7369746976656044820152fd5b346101cb5760403660031901126101cb57610765612164565b6024356001600160401b0381116101cb57610784903690600401611f1c565b6001600160a01b0390911690811561087a576107a28151151561221f565b8133148015610862575b15610808576108037f85b62d42045862192f9e1f971fcb74803cb7ce2635b0dd91716f738bafcb32c6918360005260046020526040600020600160ff19825416179055604051918291602083526020830190612075565b0390a2005b60405162461bcd60e51b815260206004820152602c60248201527f43616e206f6e6c792072656769737465722073656c66206f722061646d696e2060448201526b31b0b7103932b3b4b9ba32b960a11b6064820152608490fd5b5033600052600660205260ff604060002054166107ac565b60405162461bcd60e51b8152602060048201526016602482015275496e76616c69642076656e646f72206164647265737360501b6044820152606490fd5b346101cb576020806003193601126101cb576004356001600160401b0381116101cb57816108ed610900923690600401611f1c565b8160405193828580945193849201611f72565b810160028152030190208054610915816124b9565b916109236040519384611efb565b8183526000908152838120938084015b83831061094857604051806101ac878261217a565b600182819261095689611fcf565b815201960192019194610933565b346101cb5760203660031901126101cb576001600160a01b03610985612164565b166000526005602052602060ff604060002054166040519015158152f35b346101cb576109b1366121dc565b6040519180516109d161052d60209586818187019561051d818389611f72565b336000526004845260ff604060002054168015610bc1575b15610b695760ff600a60405186818651610a04818389611f72565b81016000815203019020015460a01c16600581101561028c57158015610b31575b15610aec57825115610aa7577f2a1e5fb3abbfa5258c3b669d1ea74600d1b7c448ce55ee83522cd2dbe68dc3819291600a610a6f86610a9294604051809381928751928391611f72565b60009082019081520301902001805460ff60a01b1916600160a21b1790556123b3565b92610803604051928284938452830190612075565b60405162461bcd60e51b815260048101859052601c60248201527f43616e63656c6c6174696f6e20726561736f6e207265717569726564000000006044820152606490fd5b60405162461bcd60e51b815260048101859052601a60248201527f43616e6e6f742063616e63656c207468697320726571756573740000000000006044820152606490fd5b5060ff600a60405186818651610b48818389611f72565b81016000815203019020015460a01c16600581101561028c57600114610a25565b60405162461bcd60e51b815260048101859052602a60248201527f4f6e6c792072657175657374696e672076656e646f72206f722061646d696e2060448201526918d85b8818d85b98d95b60b21b6064820152608490fd5b506006845260ff604060002054166109e9565b346101cb5760203660031901126101cb576004356007548110156101cb57610c07610c016101ac926120d8565b9061213d565b604051918291602083526020830190612075565b346101cb57610c29366121dc565b90604051908051610c4a61052d60209485818187019561051d818389611f72565b336000526005835260ff604060002054168015610e39575b15610dd75760ff600a60405185818651610c7d818389611f72565b81016000815203019020015460a01c16600581101561028c57600103610d9b57835115610d565790610803610d3f600c610d2d867ffe9aa79ccb6de584c69be1e512a62359e06c314175ccf54dc3648016ac3f4bde9796600a60405183818a51610ce8818388611f72565b8101600081520301902001600360a01b60ff60a01b19825416179055610d1c8a600d60405185818c5161066681838a611f72565b604051809381928951928391611f72565b810160008152030190200154926123b3565b946040805194859485528401526040830190612075565b60405162461bcd60e51b815260048101849052601f60248201527f44697362757273656d656e74207265666572656e6365207265717569726564006044820152606490fd5b60405162461bcd60e51b815260048101849052601460248201527314995c5d595cdd081b9bdd08185c1c1c9bdd995960621b6044820152606490fd5b60405162461bcd60e51b815260048101849052603460248201527f4f6e6c792042505041206f66666963657273206f722061646d696e2063616e206044820152731b585c9ac8199d5b991cc8191a5cd89d5c9cd95960621b6064820152608490fd5b506006835260ff60406000205416610c62565b346101cb576020610e74610e5f366120a7565b92908160405193828580945193849201611f72565b810160028152030190209081548110156101cb57610c01610c07916101ac93612125565b346101cb57610ea6366121dc565b903360005260209060058252610ec360ff604060002054166123d3565b604051610ee061052d83519285818187019561051d818389611f72565b60ff600a60405185818651610ef6818389611f72565b81016000815203019020015460a01c16600581101561028c57610f199015612477565b8351156110175791610803611001604093610fec87600b610666877f9a84aa3272c19ec0b904277eb451934464cf6a7abea4e4c512282b985da62c1f9a600a8b5183818a51610f69818388611f72565b8101600081520301902001600160a11b60ff60a01b19825416179055600a8b5183818a51610f98818388611f72565b8101600081520301902001336bffffffffffffffffffffffff60a01b8254161790558a5160098851610fcb818486611f72565b82019160008352848142940301902001558a51809381928951928391611f72565b33600052600384526106a78186600020612386565b9483519384933385528401526040830190612075565b60405162461bcd60e51b815260048101849052601f60248201527f436f6d6d656e747320726571756972656420666f722072656a656374696f6e006044820152606490fd5b346101cb5760203660031901126101cb576004356001600160401b0381116101cb5760206110916110c0923690600401611f1c565b604051906110af61052d82519385818186019661051d81838a611f72565b604051938492839251928391611f72565b810160008152030190206111b9600d604051926110dc84611eae565b6110e581611fcf565b84526110f360018201611fcf565b602085015261110460028201611fcf565b604085015261111560038201611fcf565b60608501526004810154608085015261113060058201611fcf565b60a085015261114160068201611fcf565b60c085015261115260078201611fcf565b60e085015260088101546101008501526009810154610120850152600a8101546001600160a01b0381166101408601526111969060a01c60ff16610160860161226b565b6111a2600b8201611fcf565b610180850152600c8101546101a085015201611fcf565b6101c0820152805160208201519160408101519060608101519060808101519160a0820151926101008301519361016084015191600583101561028c576101a085015193600160a01b6001900361014087015116956101800151976040519a8b9a6101608c526101608c0161122d91612075565b8b810360208d015261123e91612075565b8a810360408c015261124f91612075565b89810360608b015261126091612075565b90608089015287810360a089015261127791612075565b9360c087015260e0860161128a9161209a565b6101008501526101208401528281036101408401526101ac91612075565b346101cb576101003660031901126101cb576001600160401b036004358181116101cb576112da903690600401611f1c565b60249081358381116101cb576112f4903690600401611f1c565b9160449384358181116101cb5761130f903690600401611f1c565b9460649182358181116101cb5761132a903690600401611f1c565b9260a4358281116101cb57611343903690600401611f1c565b9060c4358381116101cb5761135c903690600401611f1c565b9260e4359081116101cb57611375903690600401611f1c565b9333600052600460205260ff60406000205416156117ec578751156117ab576113ae6040516020818161051d8d83815193849201611f72565b61176a57885115611729576113c58a51151561221f565b608435156116dd578251156116a3575050604051936113e385611eae565b8685528760208601528860408601526060850152608435608085015260a084015260c083015260e08201524261010082015260006101208201526000610140820152600061016082015260405161143981611ee0565b6000815261018082015260006101a082015260405161145781611ee0565b600081526101c082015260405160208185516114768183858a01611f72565b810160008152030190209061148c815183612277565b61149d602082015160018401612277565b6114ae604082015160028401612277565b6114bf606082015160038401612277565b608081015160048301556114da60a082015160058401612277565b6114eb60c082015160068401612277565b6114fc60e082015160078401612277565b61010081015160088301556101208101516009830155600a820160018060a01b0361014083015116815490610160840151600581101561168e576001600160a81b03199092161760a09190911b60ff60a01b161790556101808101516115869291600d916101c0919061157290600b8601612277565b6101a0810151600c85015501519101612277565b600754600160401b811015611679578060016115a592016007556120d8565b919091611665575091611658611635836115e361164a957f0118b6c2153c031693a1915796b6b0b7a1e65cd6976c8dcdd9882b9843faf5f397612277565b61160b8160405160208188516115fc8183858d01611f72565b81016001815203019020612386565b6106a781604051602081816116268d83815193849201611f72565b81016002815203019020612386565b94604051938493606085526060850190612075565b908382036020850152612075565b60843560408301520390a2005b634e487b7160e01b60005260006004526000fd5b50634e487b7160e01b60009081526041600452fd5b86634e487b7160e01b60005260216004526000fd5b75526561736f6e2063616e6e6f7420626520656d70747960501b879160166040519362461bcd60e51b855260206004860152840152820152fd5b606560f81b6084927f52657175657374656420616d6f756e74206d75737420626520706f7369746976899360216040519562461bcd60e51b875260206004880152860152840152820152fd5b7f50726f637572656d656e742049442063616e6e6f7420626520656d70747900008791601e6040519362461bcd60e51b855260206004860152840152820152fd5b7f5265717565737420494420616c72656164792065786973747300000000000000879160196040519362461bcd60e51b855260206004860152840152820152fd5b7f526571756573742049442063616e6e6f7420626520656d7074790000000000008791601a6040519362461bcd60e51b855260206004860152840152820152fd5b6e37b936903a3434b99030b1ba34b7b760891b6084927f4f6e6c7920726567697374657265642076656e646f72732063616e20706572668993602f6040519562461bcd60e51b875260206004880152860152840152820152fd5b346101cb5760003660031901126101cb576000806000806000906000926000956007958654965b87891061189f575060e09750604051968752602087015260408601526060850152608084015260a083015260c0820152f35b906118ac6102248a6120d8565b6040516118b881611eae565b6118c182611fcf565b81526001976118d1898401611fcf565b60208301526002916118e4838501611fcf565b60408201526003926118f7848601611fcf565b60608301526119bb6004860154936080840194855260059461191a868901611fcf565b9460a0958682015261192e60068a01611fcf565b60c082015261193e8b8a01611fcf565b60e082015260088901546101008201526009890154610120820152600a8901546001600160a01b03811661014083015261016082019661198391901c60ff168761226b565b61198f600b8a01611fcf565b6101808201526101c06119b1600d600c8c01549b6101a085019c8d5201611fcf565b91015251906125e6565b9a82518481101561028c576119e9575050505050506119dc6119e2916124d0565b986124d0565b979061186d565b829e9c969e989598518481101561028c5703611a2157505050506119e291611a13611a1b926124d0565b9451906125e6565b966124d0565b819b98959b979497518381101561028c5703611a4d5750505050611a476119e2916124d0565b936124d0565b969396519081101561028c5714611a69575b506119e2906124d0565b946119e29197611a7b611a83926124d0565b9651906125e6565b9690611a5f565b346101cb5760203660031901126101cb576001600160a01b03611aab612164565b166000526006602052602060ff604060002054166040519015158152f35b346101cb5760203660031901126101cb57611ae2612164565b33600052600660205260ff6040600020541615611b8d576001600160a01b03168015611b48578060005260056020526040600020600160ff198254161790557f93c99ed6cec4cafd667d99f8a8750597ff22057275c37404ade4344c8ce92924600080a2005b60405162461bcd60e51b815260206004820152601760248201527f496e76616c6964206f66666963657220616464726573730000000000000000006044820152606490fd5b60405162461bcd60e51b815260206004820152602260248201527f4f6e6c792061646d696e2063616e20706572666f726d2074686973206163746960448201526137b760f11b6064820152608490fd5b346101cb576020806003193601126101cb576001600160a01b03611bff612164565b166000526003815260406000208054611c17816124b9565b91611c256040519384611efb565b8183526000908152838120938084015b838310611c4a57604051806101ac878261217a565b6001828192611c5889611fcf565b815201960192019194611c35565b346101cb5760403660031901126101cb57611c7f612164565b6001600160a01b031660009081526003602052604090208054602435908110156101cb57610c01610c07916101ac93612125565b346101cb576020611cc6610e5f366120a7565b810160018152030190209081548110156101cb57610c01610c07916101ac93612125565b346101cb5760203660031901126101cb576004356001600160401b0381116101cb57611d1a903690600401611f1c565b6040518181809351602081930191611d3192611f72565b810160008152036020019020611d4681611fcf565b611d5260018301611fcf565b91611d5f60028201611fcf565b90611d6c60038201611fcf565b6004820154611d7d60058401611fcf565b90611d8a60068501611fcf565b91611d9760078601611fcf565b600886015493600987015492600a88015494600b8901611db690611fcf565b97600c8a015499600d01611dc990611fcf565b9a6040519d8e809e6101e08083528201611de291612075565b908082039060200152611df491612075565b8d810360408f0152611e0591612075565b8c810360608e0152611e1691612075565b9060808c01528a810360a08c0152611e2d91612075565b89810360c08b0152611e3e91612075565b88810360e08a0152611e4f91612075565b6101008801939093526101208701526001600160a01b038116610140870152611e839061016087019060a01c60ff1661209a565b848103610180860152611e9591612075565b906101a08401528281036101c08401526101ac91612075565b6101e081019081106001600160401b03821117611eca57604052565b634e487b7160e01b600052604160045260246000fd5b602081019081106001600160401b03821117611eca57604052565b90601f801991011681019081106001600160401b03821117611eca57604052565b81601f820112156101cb578035906001600160401b038211611eca5760405192611f50601f8401601f191660200185611efb565b828452602083830101116101cb57816000926020809301838601378301015290565b60005b838110611f855750506000910152565b8181015183820152602001611f75565b90600182811c92168015611fc5575b6020831014611faf57565b634e487b7160e01b600052602260045260246000fd5b91607f1691611fa4565b9060405191826000825492611fe384611f95565b908184526001948581169081600014612052575060011461200f575b505061200d92500383611efb565b565b9093915060005260209081600020936000915b81831061203a57505061200d93508201013880611fff565b85548884018501529485019487945091830191612022565b91505061200d94506020925060ff191682840152151560051b8201013880611fff565b9060209161208e81518092818552858086019101611f72565b601f01601f1916010190565b90600582101561028c5752565b60406003198201126101cb57600435906001600160401b0382116101cb576120d191600401611f1c565b9060243590565b60075481101561210f5760076000527fa66cc928b5edb82af9bd49922954155ab7b0942694bea4ce44661d9a8736c6880190600090565b634e487b7160e01b600052603260045260246000fd5b805482101561210f5760005260206000200190600090565b9061214e5761214b90611fcf565b90565b634e487b7160e01b600052600060045260246000fd5b600435906001600160a01b03821682036101cb57565b602080820190808352835180925260408301928160408460051b8301019501936000915b8483106121ae5750505050505090565b90919293949584806121cc600193603f198682030187528a51612075565b980193019301919493929061219e565b9060406003198301126101cb576001600160401b036004358181116101cb578361220891600401611f1c565b926024359182116101cb5761214b91600401611f1c565b1561222657565b60405162461bcd60e51b815260206004820152601960248201527f56656e646f722049442063616e6e6f7420626520656d707479000000000000006044820152606490fd5b600582101561028c5752565b91909182516001600160401b038111611eca576122948254611f95565b601f811161233e575b50602080601f83116001146122da5750819293946000926122cf575b50508160011b916000199060031b1c1916179055565b0151905038806122b9565b90601f198316958460005282600020926000905b8882106123265750508360019596971061230d575b505050811b019055565b015160001960f88460031b161c19169055388080612303565b806001859682949686015181550195019301906122ee565b600083815260208120601f840160051c8101926020851061237c575b601f0160051c01915b82811061237157505061229d565b818155600101612363565b909250829061235a565b8054600160401b811015611eca576123a391600182018155612125565b91909161214e5761200d91612277565b6123cb90602060405192828480945193849201611f72565b810103902090565b156123da57565b60405162461bcd60e51b815260206004820152602a60248201527f4f6e6c792042505041206f666669636572732063616e20706572666f726d20746044820152693434b99030b1ba34b7b760b11b6064820152608490fd5b1561243957565b60405162461bcd60e51b8152602060048201526016602482015275119d5b99081c995c5d595cdd081b9bdd08199bdd5b9960521b6044820152606490fd5b1561247e57565b60405162461bcd60e51b815260206004820152601360248201527252657175657374206e6f742070656e64696e6760681b6044820152606490fd5b6001600160401b038111611eca5760051b60200190565b60001981146124df5760010190565b634e487b7160e01b600052601160045260246000fd5b60405190816000825461250781611f95565b9360019180831690811561256c575060011461252f575b505060209250600081520301902090565b90915060005260209081600020906000915b85831061255857505050506020918101388061251e565b805487840152869450918301918101612541565b92505050602093915060ff19168252801515028101388061251e565b90612592826124b9565b61259f6040519182611efb565b82815280926125b0601f19916124b9565b019060005b8281106125c157505050565b8060606020809385010152016125b5565b805182101561210f5760209160051b010190565b919082018092116124df5756fea264697066735822122029b5d1715d2fe8d66a2a12dc92da65c029487df9727857a09fa9f7fc5c04910b64736f6c63430008130033",
  "linkReferences": {},
  "deployedLinkReferences": {}
}